:020000040800F2
:1000000098510020B9020008552100081520000869
:1000100051210008411B00081727000800000000BC
:10002000000000000000000000000000ED210008BA
:10003000451B000800000000C9210008012300083A
:10004000D3020008D3020008D3020008D30200083C
:10005000D3020008D3020008691B0008D30200087D
:10006000851B0008A11B0008BD1B0008D302000867
:10007000D3020008D3020008D3020008D30200080C
:10008000D3020008D3020008D3020008D3020008FC
:10009000D3020008D3020008D3020008D3020008EC
:1000A000D3020008D3020008D3020008D3020008DC
:1000B000D3020008D3020008D3020008D3020008CC
:1000C000D3020008D3020008D3020008D3020008BC
:1000D000D30200084D240008C52400084925000863
:1000E000D3020008D3020008D3020008D30200089C
:1000F000D3020008D3020008D3020008D30200088C
:10010000D3020008D302000865230008D3020008C8
:10011000D3020008D3020008D3020008D30200086B
:10012000D3020008D3020008D3020008D30200085B
:1001300000F002F800F0B0F80AA090E8000C824449
:100140008344AAF10107DA4501D100F0A5F8AFF226
:10015000090EBAE80F0013F0010F18BFFB1A43F0A5
:1001600001031847B42B0000D42B00000A444FF0C1
:10017000000C10F8013B13F0070408BF10F8014B06
:100180001D1108BF10F8015B641E05D010F8016B4B
:10019000641E01F8016BF9D113F0080F1EBF10F8AF
:1001A000014BAD1C0C1B09D16D1E58BF01F801CBD2
:1001B000FAD505E014F8016B01F8016B6D1EF9D555
:1001C0009142D6D37047000000230024002500266A
:1001D000103A28BF78C1FBD8520728BF30C148BFAA
:1001E0000B6070476E2900F04383702900F0A384F0
:1001F000662902F02385652902F02085672902F02F
:100200001D856129AFF3008003681B0A28BF41F0F8
:100210008001692900F0B480642900F0B18075295B
:1002200000F0AE806F2900F03184782900F06F84EF
:10023000E92900F0CB83E42900F0C883F52900F018
:10024000C583EF2900F02E84F82900F06E8403683E
:10025000DB0928BF41F08001632900F04C8373293A
:1002600000F05183E32900F04387F32900F0488729
:10027000002070471FB500F0E9FF040000200021B6
:1002800002F0B0FC401C60600020002102F0C0FCC5
:10029000E0601FBD10B510BD00F0B3FF1146FFF7C1
:1002A000E9FF02F06FFB01F083F803B4FFF7F2FF00
:1002B00003BC01F083F80000094880470948004763
:1002C000FEE7FEE7FEE7FEE7FEE7FEE7FEE7FEE706
:1002D000FEE7FEE704480549054A064B7047000063
:1002E0000523000831010008984B00209851002098
:1002F000984D0020984D00207CB51D4616460C00F8
:10030000009001D02044401E074B7B442A4669469A
:100310000190304600F0C5FA05461CB10020694640
:1003200000F0D2FA28467CBDC505000070B50C4629
:100330000546012A05D02878800600D5EA69002301
:1003400002E0012305E05B1C934202D2E05C00283E
:10035000F9D1A869E618C01AA861286A1844286269
:10036000284600F0F3F904E0D5E9012114F8010B67
:100370009047B442F8D3284600F0FEF970BD000063
:100380002DE9F0410646002410687529314616A56E
:1003900010D000F002FA002802DA404213A507E06C
:1003A00031688A0701D512A502E0490704D511A5D5
:1003B000012401E000F0FAF900210A2206F12407E5
:1003C00009E0B0FBF2FCB0FBF2F302FB1C003030A2
:1003D00078541846491C0028F3D123462A46304653
:1003E000BDE8F04100F0EBB9000000002D00000076
:1003F0002B000000200000002DE9F05F8946044634
:100400004FF0000ADFF874B1FB44C0F820A020468A
:10041000E1688847002874D0252806D0D4E9012156
:100420009047206A401C2062F1E700265F46204684
:10043000E16888472028054607DB312D05D2781969
:1004400010F8200C08B10643F1E7B00701D526F0FB
:100450000406C4F81CA00027C4F818A02A2D09D04F
:10046000284602F081F938B304EB8708303DC8F81C
:10047000185019E059F8041B204604EB87029161DB
:10048000E1688847012F054618D1E069002820DA85
:1004900026F020061DE0D8F8180000EB800005EBE0
:1004A00040003038C8F818002046E1688847054603
:1004B00002F05AF90028EED1012F0AD02E2D08D1D2
:1004C0002046E16888477F1C0546022F46F020063B
:1004D000C4DBA069002803DA404246F00106A061AF
:1004E000F00701D026F010066C2D0BD0682D09D036
:1004F0004C2D39D06A2D35D0742D35D07A2D33D08E
:1005000016E038E0E1682F4620468847B8420546A5
:1005100009D16C2F26D04FF48060E1680643204655
:100520008847054604E06C2F1AD04FF480700643CC
:100530000DB3A5F14100192802D8203546F4006614
:100540004A462946204626604E46FFF74BFE80B1BC
:1005500001280BD0F61D26F0070000F1080956E728
:100560004020E4E78020D8E70020D6E706F1040920
:100570004DE7284652E7206ABDE8F09F3428000086
:1005800070B5064600F0DEF80468054630460A22DB
:10059000002100F0DBFA2C6070BD40EA010310B5C9
:1005A0009B070FD1042A0DD310C808C9121F9C4203
:1005B000F8D020BA19BA884201D9012010BD4FF0F5
:1005C000FF3010BD1AB1D30703D0521C07E0002042
:1005D00010BD10F8013B11F8014B1B1B07D110F89F
:1005E000013B11F8014B1B1B01D1921EF1D11846A2
:1005F00010BD10B5431C02E010F8011B71B181075A
:10060000FAD14FF0013202C88C1A8C4314EAC2119D
:10061000F9D0C01A0A0603D0C01E10BDC01A10BD02
:100620000A0401D0801E10BD0902FCD0401E10BD7E
:10063000032A40F2308010F0030C00F0158011F80E
:10064000013BBCF1020F624498BF11F801CB00F8E6
:10065000013B38BF11F8013BA2F1040298BF00F83A
:1006600001CB38BF00F8013B11F0030300F0A68274
:10067000083AC0F0088051F8043B083A51F804CB1E
:10068000A0E80810F5E7121D5CBF51F8043B40F8E4
:10069000043BAFF30080D20724BF11F8013B11F8EF
:1006A00001CB48BF11F8012B24BF00F8013B00F833
:1006B00001CB48BF00F8012B704700004FF0013C10
:1006C00050F8042B51F8043B9A4221D1A2EB0C03C1
:1006D000934313EACC1317D150F8042B51F8043B81
:1006E0009A4215D1A2EB0C03934313EACC130BD11E
:1006F00050F8042B51F8043B9A4209D1A2EB0C03A9
:10070000934313EACC13DBD04FF00000704700BFD7
:10071000D01A01BAB1FA81F101F0180122FA01F000
:10072000CB40C1F12001DBB2C0B2C01A2CFA01F3F8
:10073000D11A914311EAC311E6D17047704770474F
:100740007047000000487047384B002070B50446E1
:1007500085690068C10601D5302600E02026C00763
:1007600007D070BDD4E9012130469047206A401C73
:1007700020626D1EF6D570BD70B50446856900789F
:10078000C00707D170BDD4E9012120209047206A1D
:10079000401C20626D1EF6D570BD09684A0501D562
:1007A00040B27047C905FCD500B2704709684A05D8
:1007B00001D5C0B27047C905FCD580B270472DE99C
:1007C000F0470D4699469246044600F12408016818
:1007D000880604D5E06921F01001216000E00120C5
:1007E000A84201DD471B00E00027A1697A1902EB4E
:1007F0000900081AA0612078C00602D42046FFF73D
:10080000A5FF002608E0D4E901211AF80600904768
:10081000206A401C761C20624E45F4DB2078C0061E
:100820000AD52046FFF792FF06E0D4E901213020E7
:100830009047206A401C2062381EA7F10107F4DCB3
:1008400007E0D4E9012118F805009047206A401C10
:100850002062281EA5F10105F3DC2046FFF78CFF7E
:100860002078000602D50220BDE8F0870120FBE7D2
:1008700011680268006A530501D508700AE0D305C3
:1008800001D5088006E0130603D5C217C1E90002AE
:1008900000E008600120704701694A1C0261087885
:1008A000704700B58FB0CDE90131002105910549B0
:1008B0007944CDE9031011466846FFF79DFD0FB05E
:1008C00000BD0000E5FFFFFF0A6802F8010B0A60A7
:1008D0007047D1E900239A4202D2531C0B6010707A
:1008E000704710B5436913B1AFF3008001E0FFF723
:1008F0001DFD012010BD127800F124010A700022B4
:100900004A700122EDE711684FF0FF32E9E700007D
:100910002DE9FF5F15468A460446DFF8AC80F844AF
:100920000027D8E900103E46CDE9001010E03AF863
:1009300016106A4602A800F044FC411C07D021783A
:10094000890603D5E269391891420DD80744761C0F
:100950002078800602D5E069B84205DDAE42E6DBCC
:100960003AF816000028E2D1A069C01BA061204619
:10097000FFF7ECFED8E90010CDE90010002017E0E9
:100980003AF818106A4602A800F01BFCB0F1FF3FCD
:1009900081460BD000250DF1080B05E0D4E90121BB
:1009A0001BF8050090476D1C4D45F7D308F1010079
:1009B000B0428046E4DB206A384420622046FFF7DC
:1009C000DBFEBDE8FF9F0000322300002DE9F0416F
:1009D0008046D21D22F007020025D2E90002F52947
:1009E00015A614D0011E72F1000106DA0023D0EB27
:1009F000030063EB020211A608E0D8F800108B0791
:100A000001D50FA602E0490701D50EA60125114622
:100A1000002408F1240704E000F00EF930323A55C2
:100A2000641C50EA0102F7D12B463246214640466B
:100A3000BDE8F041FFF7C3BE000000002D0000003C
:100A40002B0000002000000030B4002100F124043D
:100A500008E002F00705D208303542EA4372DB08AD
:100A60006554491C52EA0305F3D10468002310A21F
:100A7000250708D504F020040C4304D0C4690123E1
:100A80000CA2641EC46130BCFFF799BE10B50446C9
:100A900021461068FFF78AFE02462046BDE8104056
:100AA0000023D1E7D21D22F00701D1E90023CBE7D3
:100AB0000000000030000000F0B40D460188090578
:100AC00002D5214C7C4402E01F4C7C440E340021B2
:100AD00000F1240608E002F00F071209E75D42EA80
:100AE00003721B097754491C52EA0307F3D10278B9
:100AF0000023120704D5702D06D009B1022311344A
:100B00002246F0BCFFF75BBE01231034F8E770B556
:100B100004460D4621461068FFF748FE0246294666
:100B20002046BDE870400023C6E7D21D22F007032F
:100B3000D3E90023C0E70368126843F02003036091
:100B40000823C3610023B7E7942100002DE9F04793
:100B500091460F4680460446002614F8015B2DB1ED
:100B600000F062F80068405DC007F6D12B2D02D07E
:100B70002D2D18D0641E4A463946204600F0D2FA80
:100B800027B13968A14201D1C7F800804FF00204B3
:100B900071050BD54042002803DDFFF7D3FD04604B
:100BA000A007BDE8F08746F48066E4E70028F8DA9D
:100BB000FFF7C8FD04606FF00040F2E710B5203A7F
:100BC000C0F00B80B1E81850203AA0E81850B1E806
:100BD0001850A0E81850BFF4F5AF5FEA027C24BFBC
:100BE000B1E81850A0E8185044BF18C918C0BDE8B3
:100BF00010405FEA827C24BF51F8043B40F8043B7C
:100C000008BF7047D20728BF31F8023B48BF11F830
:100C1000012B28BF20F8023B48BF00F8012B70478A
:100C200000487047384B002010B500F00FFB001D46
:100C300010BD00BFB11F000030B5B0F10A024FEA8D
:100C4000900E71F100034EEA817EB0EB0E0061EB75
:100C500091014FEA101E4EEA017E10EB0E0041EBAF
:100C600011114FEA102E4EEA016E10EB0E0041EB0F
:100C700011214FEA104E4EEA014E10EB0E0041EBEF
:100C80001141401841F100014FEAD00040EA4170A3
:100C90004FEAD10110EB80054FEA810444EA9074D9
:100CA00044EB01046D1944EB0404521BA3414FF0C3
:100CB000000348BF0A3200D530BD401C41F100019D
:100CC00030BD70472DE9FF4F0C461E464FF0FF37F1
:100CD0008BB0D2E90001DDF860800A908A46C1F34A
:100CE0000A5505B93D46002108464FF00000BAF10B
:100CF000000F00F4400005DA00EB80004FF44001E3
:100D000001EA50004FEA9059B9F1010F00DDB946F0
:100D10000A9850EA4A000ED044F61050A5F2FF356A
:100D200045432F14B8F1000F1ED07542291E1EDD59
:100D3000C9F100021CE0B8F1010F4FF0000001D032
:100D4000302103E0F24305E02154401CB042FBDBBC
:100D500030460022002121540B99C1F80880C1E9D6
:100D600000200FB0BDE8F08FBD1B6D1CDEE74A46CA
:100D700000DA694206A800F0ADFA06AB93E8070076
:100D800003AB83E8070050460A9900F01EFB8DE88C
:100D90000700A0F500501F3800900398002D09DDD2
:100DA00042F21F014A46084403A90390684600F036
:100DB0007DFD08E0A0F500504A461F3803A90390C6
:100DC000684600F087FD8DE807000004000C03D0A2
:100DD0004FF0FF30410800E01046B8F1000F03D09B
:100DE0000022009215461EE0751E05D4FFF724FF71
:100DF000303262556D1EF9D5B3460122084302D048
:100E000000227F1C04E02078302801D100227F1EC0
:100E1000002A099786D01DE0112D07DAFFF70CFF95
:100E2000303262556D1C50EA0102F5D1084302D000
:100E30000098C8B10EE00021681E05E0235C625CEA
:100E400063542254401E491C8142F7DBAB46A81B69
:100E5000401E0990002004F80B000B98099AC0F876
:100E60000880C0E9002B7CE711264FF0000859E705
:100E70002DE9F04F88460446D21D22F0070191B0BB
:100E8000D1E90001CDE90A0101F05AFC02460B98B4
:100E9000C00F01D02D2007E02068810701D52B204D
:100EA00002E0202101EAC000032A099001D0072AAC
:100EB00005DB03464146204600F0CCF90BE12078E3
:100EC000800601D5E06900E00620B8F1650F814693
:100ED00006D0B8F1660F18D0B8F1670F70D131E0C5
:100EE0000020B9F1110F009001DB112301E009F19D
:100EF00001030AAA01A90CA8FFF7E4FEDDE90C70C2
:100F0000002609F10105834647E001204B46009089
:100F10004FF000470AAA01A90CA8FFF7D3FEDDE9AC
:100F20000DB00C995D46002610B909F101000D18AD
:100F3000B9EB050003D4C0F1FF3609F10105A5EBBB
:100F400009002BE0B9F1010F01DA4FF0010900208F
:100F5000B9F1110F0090484601DD112300E003466E
:100F60000AAA01A90CA8FFF7ADFEDDE90C704D46F9
:100F700000268346207800070AD4AB4500DA5D4698
:100F800001A8012D04DD411911F8011C302907D0F9
:100F90004F4502DA17F1040F04DA012082460FE010
:100FA0006D1EEEE7002F02DCED1B3E4403E0781CD3
:100FB000A84200DD7D1CB81B00F1010A4FF000477C
:100FC0002078000703D4AA4501DB4FF0FF3A002147
:100FD000B7F1004F0DF143088DF8431024D00220E3
:100FE0002B23002F01DA7F422D230A21021EA0F1BC
:100FF000010000DC5FB197FBF1FC97FBF1F201FB14
:101000001C7C17460CF1300C08F801CDEEE7A8F176
:10101000010003702188090501D5452100E0652103
:10102000A0F1010800F8011C09980FA9A1EB08071D
:10103000FF1D00B10120411901EBEA70A16938449C
:10104000081A401EA0612078C00602D42046FFF78F
:101050007DFB099828B1D4E901219047206A401C02
:1010600020622078C00622D52046FFF76FFB1EE0E5
:10107000002E04DBB34502DD01A8805D00E03020D6
:10108000D4E901219047206A401C2062761CAAF115
:1010900001005FEA000A0AD100F0D8F8C0680168D0
:1010A000405CD4E901219047206A401C2062281E40
:1010B000A5F10105DCDC07E0D4E9012118F8010BFA
:1010C0009047206A401C2062381EA7F10107F3DC1C
:1010D0002046FFF751FB032011B043E610B54369EA
:1010E00013B1AFF3008001E0FFF712FC012010BD47
:1010F000128800F1240182840022C2840122EDE7DB
:1011000011684FF0FF32E9E73A2800D2303820F07A
:101110002002412A01D3A2F13700884201D34FF0C7
:10112000FF3070472DE9F05F824615468B46002759
:101130000AF10104B9460078302801D09DB113E0CE
:1011400014F8010B0127782803D0582801D045B1A5
:101150000AE00DB1102D07D1002714F8010B10255E
:1011600002E0082500E00A250026B0460EE005FB57
:10117000080005FB06F101271FFA80F801EB104675
:10118000B6F5803F00D3B94614F8010B2946FFF7A6
:10119000BBFF0028EBDABBF1000F05D00FB1641ED6
:1011A00000E05446CBF80040B9F1000F06D0FFF73D
:1011B000C9FA02210160C81EBDE8F09F48EA064056
:1011C000FAE770B516460C460546FFF72DFD036895
:1011D00093F80101012806D0FF2C0FD8185D68B1E3
:1011E00001202C7070BDD3F807013246214603F26E
:1011F000071303442846BDE8704018474FF0FF30FE
:1012000070BD7546FFF70CFDAE46050069465346B6
:1012100020F00700854618B020B5FFF75BF8BDE861
:1012200020404FF000064FF000074FF000084FF04D
:10123000000B21F00701AC46ACE8C009ACE8C009DE
:10124000ACE8C009ACE8C0098D467047004870475B
:10125000584B00202DE9F0411F4604460326016843
:10126000072A01F4006004DB08B116A505E016A505
:1012700003E008B115A500E015A521F010002060DD
:10128000A069C01EA0610FB1401EA0612046FFF7FB
:101290005DFA4FB1D4E9012138469047206A401CDD
:1012A0002062C01C206206E0206AFAE7D4E901212E
:1012B00015F8010B9047761EF8D22046FFF75CFA2E
:1012C000BDE8F0814E414E006E616E00494E460011
:1012D000696E66002DE9F047814616468AB03348AC
:1012E00078440DC88DE80D0030487844801C03AC6C
:1012F0000DC884E80D0041F69B300844372190FB6F
:10130000F1F290FBF1F5A5F1800501FB12041B3C05
:1013100002D56442012000E00020DFF890A0804662
:101320000027FA44AAF1BE0A0DE0E00709D03246D0
:10133000684607EB47010AEB810100F0CBFA8DE824
:10134000070064107F1C002CEFD1184F7F44AC3F86
:1013500018E0E80714D007EB04100DF1180A90E824
:101360000E008AE80E00C068F04201D1981908907A
:10137000324606A903A800F0ADFA03AB83E80700E4
:101380006D10641C002DE4D132466946B8F1000F9F
:1013900003A802D000F08AFA01E000F09BFAC9E944
:1013A0000001C9F808200AB0BDE8F0871C1A000047
:1013B0000446AFF300802046FEF777FF014918206E
:1013C000ABBEFEE72600020070475FEA400C08BF94
:1013D00091F0000F4FEA8C234FEAC12243EA5151AA
:1013E0004FEA1C5018BF00F5F0404FEA300018BF1C
:1013F00041F000415FEA6C5C00F02980BCF1FF3FE6
:1014000008BF40F080407047130C06BF12044FF035
:10141000100C4FF0000C130E04BF12020CF1080C5C
:10142000130F04BF12010CF1040C930F04BF9200C0
:101430000CF1020CD30F04BF52000CF1010C114649
:101440004FF00002A0F11F00A0EB0C00704711F05C
:10145000004F08BF704731F000413FF4D5AF0B0C8F
:1014600006BF09044FF0100C4FF0000C0B0E04BF28
:1014700009020CF1080C0B0F04BF09010CF1040C5C
:101480008B0F04BF89000CF1020CCB0F04BF490085
:101490000CF1010CCCF12003A0EB0C0022FA03F3B9
:1014A00002FA0CF241EA030100F10100704720F05A
:1014B0007F4C80EA030023F07F47ACEB070303F582
:1014C0007C5300F0004003F1FF032DE980494FEA0F
:1014D000154B09B44FEA144325EA0B4E24EA03489E
:1014E0000FF2042606EB132749083E785FEA320222
:1014F00003FB0667C7F5000707FB06F64FEA5437FC
:101500004FEAD64606F1020607FB066CCCF1005CFA
:101510004FEA1C472CEA074C07FB06F40CFB06F5C8
:1015200004EB15464FEA961634BF00204FF00040FA
:101530004FEAD13706FB07FC4FEA1C4C0CFB0BF7BC
:10154000D21B03FB0CF761EB07010CFB0EF7B0EBB2
:10155000074072EB17420CFB08F734BFA2EB0742BF
:10156000B2EB074261EB17414FEA0C444FEA910797
:1015700006FB07FC4FEA1C4C0CFB0BF7B0EBC7401B
:1015800072EB573203FB0CF734BFA2EBC742B2EB4E
:10159000C74261EB57310CFB0EF7B0EBC70072EBA3
:1015A00057720CFB08F734BFA2EBC702B2EBC702BD
:1015B00061EB5771039F4FEA816141EA921104EB9D
:1015C000CC044FEAD1374FEA826206FB07FC42EABD
:1015D00090124FEA80604FEA1C4C0CFB0BF7D21BB9
:1015E00003FB0CF761EB07010CFB0EF7B0EB0740B8
:1015F00072EB17420CFB08F734BFA2EB0742B2EBC9
:10160000074261EB17414FEA8C554FEA910704EB13
:101610009C2406FB07FC4FEA1C4C0CFB0BF7B0EBC1
:10162000C74072EB573203FB0CF734BFA2EBC74243
:10163000B2EBC74261EB57310CFB0EF7B0EBC700C2
:1016400072EB57720CFB08F734BFA2EBC702B2EB88
:10165000C70261EB577115EB4C254FEA816141EAF6
:1016600092114FEA82624FEAD13742EA901206FBAA
:1016700007FC44F100044FEA80604FEA1C4C0CFB6D
:101680000BF7D21B03FB0CF761EB07010CFB0EF70A
:10169000B0EB074072EB17420CFB08F734BFA2EB2C
:1016A0000742B2EB074261EB174115EB1C154FEAFD
:1016B000813141EA92414FEA823242EA90424FEA56
:1016C00080304FEA0C7644F1000448EA03434EEAC6
:1016D0000B484FF0000EB2EB080C71EB030724BF70
:1016E000624639464EEB0E0E4FF0000B0018524189
:1016F00049414BEB0B0BB2EB080C71EB03077BF191
:10170000000B24BF624639464EEB0E0E4FF0000B25
:101710000018524149414BEB0B0BB2EB080C71EB3B
:1017200003077BF1000B24BF624639464EEB0E0ED9
:1017300051EA020718BF46F0010616EB0E7655F186
:10174000000254F1000103D5BDE88901BDE800881D
:10175000BDE88901BDE80048B619524141EB0101DD
:10176000A3F10103704780807F7E7D7C7B7A79784E
:10177000777676757473727171706F6E6E6D6C6C56
:101780006B6A6A69686867666665646463636261F8
:101790006160605F5F5E5E5D5D5C5C5B5B5A5A5979
:1017A00059585857575656555555545453535252E5
:1017B0005251515050504F4F4F4E4E4D4D4D4C4C3D
:1017C0004C4B4B4B4A4A4A49494948484847474786
:1017D00047464646454545444444444343434342C3
:1017E000424242414141002B26D4770021D01CB512
:1017F0004FEA370703B44FF010004FF010014FF0DD
:1018000000000FBCBDE810400BF1010BBBF1010F54
:1018100008BF5FEA170722BF12F1010211F10101AF
:101820004FF0004143F1000300F0004043EA0000A4
:101830007047F9D35708DAE746EA064613F1400F36
:101840004FEA16461FDD13F1200FDFBF16430A468D
:10185000002120335B42C8D0C3F1200746EA064688
:1018600002FA07F74FEA164646EA0706C3F12007D1
:1018700022FA03F201FA07F721FA03F14FF000030D
:1018800042EA0702B1E746EA020646EA06464FEA9E
:10189000164646EA0106BCBF46EA0646360C4FF03D
:1018A00000034FF000024FF000019EE72DE9C04811
:1018B000934630B491E8380007C831EA400C48BF7D
:1018C00034EA430C03D5FFF7F2FDFFF78CFFF0BCC1
:1018D000BDE800882DE9C048934630B491E838004F
:1018E00007C810F0804F08BF13F0804F03D100F0FD
:1018F00005F8FFF778FFF0BCBDE8008820F07F47CF
:1019000080EA030023F07F4C07EB0C03A3F57C5324
:1019100000F00040A3F1FE0392F0000F00F0B3804E
:1019200095F0000F00F077802DE901494FEA114052
:101930004FEA144621EA004800FB06FC24EA064769
:1019400008FB06F607FB08F800FB07F718EB06484C
:101950004CEB164C4FEA124B18EB07484FEA154672
:101960004CEB174022EA0B4E0BFB06FC25EA064720
:101970000EFB06F607FB0EFE0BFB07F71EEB064EF3
:101980004CEB164C4FF000061EEB074E4CEB174B82
:1019900018EB0B0840F1000018EB0E0B58EB000899
:1019A00040F100008F1A4FF000013CBFC943661B95
:1019B00014BFB5EB040C00213CBFC943F61B4FEA32
:1019C00017444EEA8E0E27EA04454FEA1C4704FBF3
:1019D00007622CEA074C05FB07F70CFB05F604FB36
:1019E0000CFC16EB074642EB174216EB0C4642EB9B
:1019F0001C421BEB060658EB0202414146EA9E06DA
:101A000001D5BDE80189B619524141EB0101A3F1AD
:101A10000103BDE801894FEA14454FEA114724EA62
:101A2000054621EA074C05FB07F406FB07F70CFB0C
:101A300006F105FB0CFC11EB074144EB17444FEAA0
:101A4000124711EB0C4144EB1C4422EA074C05FB06
:101A500007F206FB07F70CFB06F605FB0CFC16EB82
:101A6000074642EB174216EB0C4642EB1C456A1840
:101A700054F1000148BF7047B619524141EB0101D2
:101A8000A3F10103704795F0000F37D04FEA1142E0
:101A90004FEA144721EA024624EA074C02FB07F109
:101AA00006FB07F70CFB06F402FB0CFC14EB0744E7
:101AB00041EB17414FEA154714EB0C4441EB1C4135
:101AC00025EA074C02FB07F506FB07F70CFB06F6B9
:101AD00002FB0CFC16EB074645EB174516EB0C46D4
:101AE00045EB1C42121951F1000148BF7047B6196D
:101AF000524141EB0101A3F1010370474FEA144544
:101B00004FEA114724EA054621EA074C05FB07F195
:101B100006FB07F70CFB06F24FF0000605FB0CFC7A
:101B200012EB074241EB174112EB0C4251EB1C4107
:101B300048BF7047921841EB0101A3F101037047C0
:101B400000BFFEE7704710B56FF0040000F0C4FB63
:101B500010BD00BF4FF4FA5100BF491E0029FCD14F
:101B6000401E0028F6D1704710B5012000F03AF869
:101B700028B1034908688047012000F02DF810BD06
:101B8000840A002010B5042000F02CF828B1034985
:101B900088688047042000F01FF810BD840A0020E8
:101BA00010B5082000F01EF828B10349C868804726
:101BB000082000F011F810BD840A002010B5102094
:101BC00000F010F828B1034908698047102000F0A0
:101BD00003F810BD840A0020014908607047000026
:101BE00014040140014600200022074B1B6803EA51
:101BF0000102054B14331B680B4013B10AB10120DD
:101C000000E000207047000000040140002123494B
:101C10008279002A3AD00A46126803689A430B4632
:101C20001A600A1D126803689A430B1D1A60027934
:101C300011440A6803681A430A60184A0832126895
:101C400003689A43154B08331A601A1D126803681B
:101C50009A43124B0C331A604279102A0ED11A1F84
:101C6000126803681A430D4B08331A601A1D126874
:101C700003681A43094B0C331A600DE00749427997
:101C800011440A6803681A430A6005E002791144A6
:101C90000A6803689A430A60704700000004014024
:101CA0002DE9FE4305460E4617469846DDF8289076
:101CB0001E48007830B10121084600F087FA002064
:101CC0001A49087000240AE01948005DB04204D1A6
:101CD0001848005DA84200D103E0601CC4B2042C87
:101CE000F2DB00BF3146284600F04CF8124850F8AD
:101CF0002400019000208DF808008DF80970012063
:101D00008DF80A0001A8FFF781FF0C48005D8DF8EF
:101D100000008DF801808DF8029001208DF80300FD
:101D2000684600F019FABDE8FE8300003400002088
:101D30001C0000201800002020000020300000209F
:101D400030B5034600200AE00A4C245C8C4204D1E2
:101D5000094C245C9C4200D103E0441CE0B20428FE
:101D6000F2DB00BF054C245CA41F054D45F8242080
:101D700030BD00001C0000201800002030000020B2
:101D8000840A002030B500228B071C0F0F2303FAB2
:101D900004F20B4B8C1053F824309343084C8D10F5
:101DA00044F8253023468C1053F824308C07240F38
:101DB00000FA04F42343024C8D1044F8253030BD62
:101DC000080001402DE9F0410246002500260020D0
:101DD00000230024002791F803C00CF00F0591F8B0
:101DE00003C00CF0100CBCF1000F03D091F802C03E
:101DF0004CEA050591F800C0BCF1000F31D0146821
:101E000000202BE04FF0010C0CFA00F3B1F800C0F9
:101E10000CEA03069E4220D183004FF00F0C0CFA0F
:101E200003F7BC4305FA03FC4CEA040491F803C031
:101E3000BCF1280F06D14FF0010C0CFA00FCC2F8DF
:101E400014C00AE091F803C0BCF1480F05D14FF06F
:101E5000010C0CFA00FCC2F810C0401C0828D1D3B9
:101E60001460B1F800C0BCF1FF0F34DD54680020ED
:101E70002EE000F1080C4FF0010808FA0CF3B1F85D
:101E800000C00CEA03069E4221D183004FF00F0CE4
:101E90000CFA03F7BC4305FA03FC4CEA040491F87E
:101EA00003C0BCF1280F05D100F1080C08FA0CF8AA
:101EB000C2F8148091F803C0BCF1480F07D100F1BB
:101EC000080C4FF0010808FA0CF8C2F81080401C0A
:101ED0000828CED35460BDE8F08102460020936804
:101EE0000B400BB1012000E00020704702460020AB
:101EF000D3680B400BB1012000E000207047416126
:101F00007047016170470000F7B514464FF6FF7542
:101F10009DF8040001909DF80000009002213948CE
:101F200002880068401C374B1860C2F30A00364A2A
:101F300011549DF80010184602880068401C186073
:101F4000C2F30A00304A115401226946284600F0C3
:101F500013FC05469DF804102A4802880068401CBE
:101F6000284B1860C2F30A00274A1154012201A924
:101F7000284600F001FC054600260CE0A15D214842
:101F800002880068401C1F4B1860C2F30A001E4AFA
:101F90001154701C86B29DF804008642EEDB9DF859
:101FA00004202146284600F0E7FB05462A12154882
:101FB00001880068401C134B1860C1F30A001249E5
:101FC0000A54184602880068401C1860C2F30A00D0
:101FD0000A4615540321184602880068401C186000
:101FE000C2F30A00084A11540848007840B9012099
:101FF00006490870012240F22771054800F05DFB98
:10200000FEBD000074000020383B00207C00002052
:102010000048004000BFFEE708B50121442000F061
:10202000D5F81C20ADF8000048208DF80300694663
:102030000648FFF7C7FE0120ADF8000028208DF804
:10204000030069460248FFF7BDFE08BD00180140C5
:102050000008014010B5044604F0010070B12021D1
:102060001048FFF743FF012804D120210D48FFF756
:1020700046FF03E020210B48FFF743FF04F0020076
:1020800070B120210848FFF731FF012804D1202139
:102090000548FFF734FF03E020210348FFF731FF35
:1020A00010BD0000000C01400018014008B50121DE
:1020B000482000F08BF82020ADF8000010208DF8AB
:1020C000030003208DF8020069460948FFF77AFEF5
:1020D00020210748FFF715FF2020ADF800006946D2
:1020E0000448FFF76FFE20210248FFF70AFF08BDF2
:1020F000000C01400018014010B5044604F0010036
:1021000018B120210548FFF7FCFE04F0020018B1C9
:1021100020210348FFF7F5FE10BD0000000C014030
:102120000018014010B5044604F0010018B1202148
:102130000548FFF7E4FE04F0020018B1202103482F
:10214000FFF7DDFE10BD0000000C0140001801404B
:1021500000BFFEE77047000070B5002100230F228A
:10216000C47804B3154C246804F4E064C4F5E06456
:10217000210AC1F10403CA40447804FA03F18478C7
:102180001440214309010E4C0678A155047804F04F
:102190001F050124AC4005786D11AD0005F1E02567
:1021A000C5F8004109E0047804F01F050124AC40A3
:1021B000044D0678761145F8264070BD0CED00E020
:1021C00000E400E080E100E07047000029B1064A29
:1021D00092690243044B9A6104E0034A9269824384
:1021E000014B9A617047000000100240704710B523
:1021F00000F002F810BD00000CB500200190009026
:102200003348006840F480303149086000BF3048EE
:10221000006800F4003000900198401C0190009884
:1022200018B90198B0F5A06FF1D12948006800F401
:10223000003010B10120009001E0002000900098D3
:10224000012843D12348006840F01000214908606C
:102250000846006820F0030008600846006840F067
:10226000020008601A4840681949486008464068FA
:1022700048600846406840F480604860084640680E
:1022800020F47C1048600846406840F4E81048603C
:102290000846006840F08070086000BF0C48006885
:1022A00000F000700028F9D00948406820F00300D1
:1022B000074948600846406840F00200486000BF97
:1022C0000348406800F00C000828F9D10CBD00005C
:1022D0000010024000200240042808D14FF0E02105
:1022E000096941F004014FF0E022116107E04FF06D
:1022F000E021096921F004014FF0E02211617047EB
:102300007047000010B51348006840F00100114903
:10231000086008464068104908400E494860084671
:1023200000680E4908400B4908600846006820F420
:10233000802008600846406820F4FE0048604FF4A2
:102340001F008860FFF753FF4FF0006004490860EA
:1023500010BD0000001002400000FFF8FFFFF6FE75
:1023600008ED00E010B50121074800F014F848B16D
:102370000121054800F00CF80448006810B103483A
:102380000068804710BD0000000C004038000020AD
:10239000CA430282704730B5024600200023002461
:1023A000158A05EA0103958905EA010413B10CB108
:1023B000012000E0002030BD0FB438B505A8009022
:1023C0004FF400710748009B049AFDF795FF0446FF
:1023D000002000902146034800F006F838BC5DF864
:1023E00014FB00008406002070B506460D46134815
:1023F000007888B100240CE0305D11490988C1F3F0
:102400000801104A50540E480068401C0C490860EE
:10241000641CAC42F0DB0FE000240BE000BF402165
:10242000094800F013F90128F9D1315D064800F0A0
:102430006EF9641CAC42F1DB284670BD140000202C
:1024400010000020840800200038014010B5194811
:1024500000F058F904460D2C06D117480078401CAE
:1024600015490870002410E00A2C0ED1134800888A
:10247000401EC0F308001249085C00B910BD0E48A8
:102480000078401C0C4908700024E1B20B48008819
:10249000C0F308000A4A115408480088C0F3080035
:1024A00000F50070115405480068401C034908609D
:1024B00000BFE3E7003801400000002008000020D2
:1024C0008402002010B540F227711A4800F0CBF8C2
:1024D000E8B1194800681949096888420ED01648C1
:1024E0000088C0F30B00164A115C124800F00FF987
:1024F00011480068401C1049086008E0002240F2C2
:1025000027710C4800F0D9F800200E49087040F2FD
:102510002551084800F0A7F858B1064800F0F2F835
:10252000C4B2204600F0B0FA40F22551014800F054
:102530007EF810BD00440040400000204400002010
:10254000980A00205200002010B508212E4800F003
:102550007DF830B12C4800F0D5F808212A4800F069
:102560005DF80421284800F071F818B104212648CC
:1025700000F054F80221244800F068F818B1022154
:10258000214800F04BF801211F4800F05FF818B116
:1025900001211D4800F042F840F225511A4800F090
:1025A00062F860B140F22551174800F040F8164833
:1025B00000F0A8F8C4B2204600F0F2F823E040F2A0
:1025C0002771114800F04FF8E8B110480068104931
:1025D000096888420ED00D480088C0F30A000D4AF1
:1025E000115C094800F093F808480068401C07494E
:1025F000086008E0002240F22771034800F05DF80F
:1026000000200549087010BD0048004070000020FF
:1026100074000020383B00207C00002001F4007290
:10262000B2F5007F00D100BFCA430280704710B5E9
:102630000022002340F66A14A14200D100BF0A1212
:1026400001249440A3B2DC43048010BD0246002064
:10265000B1F5007F00D100BF13880B400BB1012002
:1026600000E00020704770B50246002400230025DA
:10267000002040F66A16B14200D100BFC1F34215F6
:1026800001F01F03012606FA03F3012D02D19689FA
:10269000334006E0022D02D1168A334001E0968ACB
:1026A00033400C12012606FA04F41688344013B1A4
:1026B0000CB1012000E0002070BDF0B503460024FD
:1026C00000260025002040F66A17B94200D100BF5D
:1026D0001846C1F3421401F01F06012707FA06F558
:1026E000012C01D10C3004E0022C01D1103000E0AB
:1026F00014301AB107682F43076002E00768AF4340
:102700000760F0BD01468888C0F308007047C1F338
:1027100008028280704700BFFEE7000010B50A2063
:10272000FFF717FA01210548FFF7D7FB00B910BDE5
:102730000120FFF78FFC00BFF9E70000000801400F
:10274000490050EAC12018BF04204A0D18BF40F0CC
:10275000010040F2FF72B2EB515F08BF40F002008F
:10276000012808BF0520704730380A2801D201200F
:10277000704700207047000010B50AE011F8014BC7
:1027800084EA2023DBB2054C34F8133083EA0023BB
:1027900098B2131EA2F10102F0DC10BD84000020EB
:1027A00001B55E48007888B99DF80000022805D080
:1027B0005BA212210120FFF7A7FBAEE001205749E1
:1027C00008704FF6FF705B490880A6E05348007818
:1027D00001281CD19DF800000D2808DB56A212210B
:1027E0000120FFF791FB00204C49087095E0012281
:1027F000694650480088FFF7BFFF4E4908809DF8A2
:1028000000005149087002204449087085E043489F
:102810000078022819D10122694646480088FFF74E
:10282000ABFF444908809DF800004849087000202B
:10283000474908804548007818B90420374908708E
:102840006BE003203549087067E0344800780328BE
:102850001BD19DF800103E4802880088401C3C4B6C
:1028600018803C4881540122694632480088FFF7AD
:1028700083FF304908803648008834490978884207
:102880004BDB04202549087047E0244800780428E1
:102890000BD10122694627480088FFF76DFF2549C3
:1028A000088005201D49087037E01C48007805287D
:1028B0001AD1012269461F480088FFF75DFF1D49B4
:1028C00008800846008858B123A211210120FFF793
:1028D0001BFB0020114908700D201B4908701CE0EB
:1028E00006200E49087018E00C480078062814D11C
:1028F0009DF80000032808D01CA210210120FFF73A
:1029000003FB0D201049087004E01DA202210020E5
:10291000FFF7FAFA00200149087008BD6C0000209A
:102920004572726F72207374617274206672616D89
:10293000652E00007E0000204572726F72206F705D
:10294000657261746F722E00800000206D0000209F
:1029500082000020384300204352432063686563AF
:102960006B206661696C65642E0000004572726FB1
:102970007220656E64206672616D652E0000000035
:102980004F4B000008B54FF4A06101F007021B4B4C
:1029900018684FF6FF031840194B034343EA02201F
:1029A000164B186000BFFFF781FBFFF7CCF8FFF76D
:1029B00033FB00200223082201460090FFF770F944
:1029C000104A00210846FFF7BBF915E0012080F30B
:1029D000108800BF0220FFF7A5FB41F28830FFF707
:1029E000B8F80220FFF788FB002080F3108800BFB2
:1029F00041F28830FFF7ADF8E8E700000CED00E0A9
:102A00000000FA051D27000870B505460C4614485D
:102A1000007870B9062C0CD1224612A12846FDF789
:102A2000BCFD30B901200E49087010A0FFF7C4FCAE
:102A300070BD1348006800B9FAE711480068FDF757
:102A4000D8FDA04200D0F3E70D4801682846FDF705
:102A500035FE10B901200B49087000BFE8E70000FF
:102A600064000020434C4F5345440000536F636B98
:102A7000657420636C6F7365642E0D0A000000009E
:102A80004C0000205000002010B504464448006867
:102A9000401C30B90A2C04D1424800780D2800D1DE
:102AA00010BD3F480068401C88B90A2C01D00D2C8D
:102AB0000DD100203C493D4A126888543B480168CA
:102AC0003948FFF7A1FF002038490860E8E7374898
:102AD00001680068401C354A10603348445431484E
:102AE000047010460068052814D12C2C12D12E48F1
:102AF00000782B280ED12C48407849280AD12A4842
:102B00008078502806D12848C078442802D1002077
:102B10002749087026480078FF2816D03A2C14D18F
:102B2000002122480068401E1F4A1154501DFDF725
:102B300027FD1B4908601D4800681E4908603A21AE
:102B40001A480068401E184A115415480068401C75
:102B500018B31848006812490968084413490968FD
:102B600088421AD100211048104A12688154014647
:102B7000104A126888180A490A680D49097800F055
:102B80001BF8FF200A4908704FF0FF300449086025
:102B90000849086000200549086000BF80E7000080
:102BA0005C00002051000020981A002048000020FE
:102BB000590000206000002070B504460E461546FE
:102BC0000648006800B170BD2A4621460448FDF75A
:102BD0002FFD0248056000BFF5E700003C00002023
:102BE000D82A002010B500290AD00878002807D07C
:102BF00005487844FDF762FD002801D0002010BD93
:102C00000248784410BD0000460100003E0100006B
:102C100010B500290AD00878002807D00548784464
:102C2000FDF74CFD002801D0002010BD024878447B
:102C300010BD00002A02000022020000FEF718B9B1
:102C40000400000800000000000000020001000075
:102C5000100000000000000000000000303132339E
:102C600034353637383941424344454640305800C0
:102C700030313233343536373839616263646566F2
:102C80004030780002400000000000A0000000007A
:102C900005400000000000C8000000000C400000DB
:102CA0000000409C00000000194000000020BCBE55
:102CB0000000000034400000BFC91B8E000000046B
:102CC000B5400000504BCFD06607E2CF01000000B6
:102CD0006C4100003E8251AADFEEA73401000000E3
:102CE000D9420000DCB5A0E23A301F97FFFFFFFF9A
:102CF000B4450000FD25A0C8E9A3C14FFFFFFFFFB9
:102D0000FF3F00000000008000000000FF3F0000C7
:102D10000000008000000000642E00080000002079
:102D2000840200006C010008943000088402002036
:102D3000144F0000C801000810010000430000000B
:102D4000F8FFFFFF004040404040404040404141CC
:102D50004141414040404040404040404040404070
:102D6000404040404005020202020202020202020A
:102D70000202020202202020202020202020200207
:102D80000202020202029090909090901010101097
:102D90001010101010101010101010101010101033
:102DA00002020202020288888888888808080808C7
:102DB0000808080808080808080808080808080893
:102DC00002020202400000000000000000000000BB
:102DD00000000000000000000000000000000000F3
:102DE00000000000000000000000000000000000E3
:102DF00000000000000000000000000000000000D3
:102E000000000000000000000000000000000000C2
:102E100000000000000000000000000000000000B2
:102E200000000000000000000000000000000000A2
:102E30000000000000000000000000000000000092
:102E400000000000000000001C0000004300000023
:102E5000F8FFFFFF0C0000000E0000000F00000054
:102E60002E00000041DA010451140404042C020372
:102E700004103204320832107D0608090A24011CAD
:102E80001AFF03590129300316255B520D00FF007C
:102E90002110422063308440A550C660E77008814D
:102EA00029914AA16BB18CC1ADD1CEE1EFF13112C4
:102EB000100273325222B5529442F772D66239939D
:102EC00018837BB35AA3BDD39CC3FFF3DEE3622414
:102ED000433420040114E664C774A44485546AA5ED
:102EE0004BB528850995EEE5CFF5ACC58DD55336A4
:102EF000722611163006D776F6669556B4465BB73D
:102F00007AA719973887DFF7FEE79DD7BCC7C44873
:102F1000E5588668A7784008611802282338CCC98C
:102F2000EDD98EE9AFF9488969990AA92BB9F55A03
:102F3000D44AB77A966A711A500A333A122AFDDBDC
:102F4000DCCBBFFB9EEB799B588B3BBB1AABA66CD3
:102F5000877CE44CC55C222C033C600C411CAEED2C
:102F60008FFDECCDCDDD2AAD0BBD688D499D977EE3
:102F7000B66ED55EF44E133E322E511E700E9FFF7C
:102F8000BEEFDDDFFCCF1BBF3AAF599F788F101427
:102F90008891A981CAB1EBA10CD12DC14EF16FE18D
:102FA0008010A100ED00C230E3200450254046709F
:102FB0006760B9839893FBA3DAB33DC31CD37FE367
:102FC0005EF3B1029012F322D2323542145277628C
:102FD0005672EAB5CBA5A89589856EF54FE52CD537
:102FE0000DC5E234C324A0148104667447642454DC
:102FF0000544DBA7FAB79987B8975FE77EF71DC747
:103000003CD7D326F2369106B0165766767615462B
:1030100034564CD96DC90EF92FE9C899E9898AB996
:10302000ABA94458654806782768C018E10882387B
:10303000A3287DCB5CDB3FEB1EFBF98BD89BBBABA6
:103040009ABB754A545A376A167AF10AD01AB32ACB
:10305000923A2EFD0FED6CDD4DCDAABD8BADE89DF6
:10306000C98D267C076C645C454CA23C832CE01C1B
:10307000C10C1FEF3EFF5DCF7CDF9BAFBABFD98F86
:10308000F89F176E367E554E745E932EB23ED10E6B
:04309000F01E00002E
:0400000508000131BD
:00000001FF
