:020000040800F2
:1000000050190020B10100085D080008EF07000842
:100010005908000877050008D51A000800000000FC
:10002000000000000000000000000000F10C0008CB
:100030007B050008000000008D090008190E00086B
:10004000C7010008C7010008C7010008C701000870
:10005000C7010008C7010008C7010008C701000860
:10006000C7010008C7010008C7010008C701000850
:10007000C7010008C7010008C7010008C701000840
:10008000C7010008C7010008C7010008C701000830
:10009000C7010008C7010008C7010008C701000820
:1000A000C70100085D100008C7010008C70100086B
:1000B000C7010008C7010008C7010008C701000800
:1000C000C7010008C7010008C7010008C7010008F0
:1000D000C7010008E1130008C7010008C7010008B4
:1000E000C7010008C7010008C701000800F002F8B6
:1000F00000F04FF80AA090E8000C82448344AAF173
:100100000107DA4501D100F044F8AFF2090EBAE870
:100110000F0013F0010F18BFFB1A43F0010318473B
:1001200010260000302600000A4410F8014B14F09D
:100130000F0508BF10F8015B240908BF10F8014B38
:100140006D1E05D010F8013B6D1E01F8013BF9D181
:10015000641E03D0641E01F8015BFBD19142E4D31D
:10016000704700000023002400250026103A28BF15
:1001700078C1FBD8520728BF30C148BF0B60704719
:10018000782900F06F80002070471FB51FBD10B5A3
:1001900010BD00F0BDF91146FFF7F7FF01F0CEFCEE
:1001A00000F0DBF903B4FFF7F2FF03BC00F0DCF969
:1001B00008480047FEE7FEE7FEE7FEE7FEE7FEE74A
:1001C000FEE7FEE7FEE7FEE703480449044A054B65
:1001D00070470000ED000008501300205019002067
:1001E00050150020501500200FB41CB5084B06AA6E
:1001F0007B4469460090059800F069F904460020A8
:10020000694600F077F920461CBC5DF814FB00003D
:100210000103000070B5044685690068C10601D578
:10022000302600E02026C00707D070BDD4E90121A8
:1002300030469047206A401C20626D1EF6D570BD86
:1002400070B5044685690078C00707D170BDD4E950
:10025000012120209047206A401C20626D1EF6D5A7
:1002600070BD000070B504460D4621461068AFF31E
:1002700000802188090502D50F4A7A4402E00E4A1F
:100280007A440E32002104F1240305E000F00F0649
:100290000009965D5E54491C0028F7D120780023A0
:1002A000000704D5702D02D009B102231132204677
:1002B000BDE8704000F0ACB8782400002DE9F05F94
:1002C000894604464FF0000ADFF824B1FB44C0F829
:1002D00020A02046E168884700287DD0252806D048
:1002E000D4E901219047206A401C2062F1E70025F3
:1002F0005F462046E16888472028064607DB312E06
:1003000005D2B81910F8200C08B10543F1E7A80789
:1003100001D525F00405C4F81CA00027C4F818A0D6
:100320002A2E09D0304601F0D7FB38B304EB8708FA
:10033000303EC8F8186019E059F8041B204604EB59
:1003400087029161E1688847012F064618D1E0696C
:10035000002820DA25F020051DE0D8F8180000EB71
:10036000800006EB40003038C8F818002046E168ED
:100370008847064601F0B0FB0028EED1012F0AD0D5
:100380002E2E08D12046E16888477F1C0646022FA2
:1003900045F02005C4DBA069002803DA404245F09F
:1003A0000105A061E80701D025F01005A6B1A6F16E
:1003B0004100192802D8203645F400654A463146E6
:1003C000204625604D46FFF7DBFE60B1012807D0CF
:1003D000ED1D25F0070000E007E000F1080978E7CF
:1003E00005F1040975E730467AE7206ABDE8F09F19
:1003F0004E24000070477047704710B500F080F839
:10040000006810BD10B5044600F07AF8046010BD15
:100410002DE9F0470D4699469246044600F124081E
:100420000168880604D5E06921F01001216000E030
:100430000120A84201DD471B00E00027A1697A19CD
:1004400002EB0900081AA0612078C00602D42046F9
:10045000FFF7E0FE002608E0D4E901211AF80600C3
:100460009047206A401C761C20624E45F4DB2078C1
:10047000C0060AD52046FFF7CDFE06E0D4E90121EB
:1004800030209047206A401C2062381EA7F10107E7
:10049000F4DC07E0D4E9012118F805009047206A50
:1004A000401C2062281EA5F10105F3DC2046FFF761
:1004B000C7FE2078000602D50220BDE8F0870120A3
:1004C000FBE7000001694A1C02610878704700B52B
:1004D0008FB0CDE901310021059105497944CDE97D
:1004E000031011466846FFF7E9FE0FB000BD00009B
:1004F000E5FFFFFF0A6802F8010B0A607047000081
:1005000000487047EC12002000487047EC120020B1
:100510007546FFF7F9FFAE4605006946534620F0E1
:100520000700854618B020B5FFF74EFEBDE8204015
:100530004FF000064FF000074FF000084FF0000B9F
:1005400021F00701AC46ACE8C009ACE8C009ACE852
:10055000C009ACE8C0098D4670470446AFF300807F
:100560002046FFF71FFE000001491820ABBEFEE742
:1005700026000200704700BFFEE7704710B56FF01D
:10058000040000F035FC10BD00BF4FF4FA5100BF6D
:10059000491E0029FCD1401E0028F6D1704700BF3B
:1005A000082100BF491E0029FCD1401E0028F7D1B8
:1005B0007047000010B5002408480068008800F06B
:1005C000010048B10548006800F091FD04B2002127
:1005D0000248006800F04EFE204610BD00000020DA
:1005E00000B587B00121084600F0D2F901210420AE
:1005F00000F0EEF904208DF81B000320ADF8180080
:100600008DF81A0006A91C4800F062F84FF6FF703A
:10061000ADF810000020ADF80C00ADF81200ADF8F8
:100620000E0003A94FF0804000F052FE0A231A4644
:100630000321580700F03AFD0020ADF80000ADF8A6
:1006400008000A20ADF802000120ADF804000020E7
:10065000ADF8060069464FF0804000F05DFD0420D3
:10066000ADF800006946000700F056FD012188073B
:1006700000F00AFD07B000BD0008014010B50020E1
:100680000549096888840449096888860121880722
:1006900000F000FD10BD00000000002005490968C1
:1006A00021F01001034A11601146096801431160ED
:1006B000704700000020024001460020034A1068F5
:1006C00000F038000843106070470000002002402E
:1006D0002DE9F041024600250026002000230024D9
:1006E000002791F803C00CF00F0591F803C00CF03F
:1006F000100CBCF1000F03D091F802C04CEA0505C4
:1007000091F800C0BCF1000F31D0146800202BE03C
:100710004FF0010C0CFA00F3B1F800C00CEA03062C
:100720009E4220D183004FF00F0C0CFA03F7BC431C
:1007300005FA03FC4CEA040491F803C0BCF1280F4D
:1007400006D14FF0010C0CFA00FCC2F814C00AE00C
:1007500091F803C0BCF1480F05D14FF0010C0CFA21
:1007600000FCC2F810C0401C0828D1D31460B1F8B6
:1007700000C0BCF1FF0F34DD546800202EE000F112
:10078000080C4FF0010808FA0CF3B1F800C00CEAAD
:1007900003069E4221D183004FF00F0C0CFA03F7A1
:1007A000BC4305FA03FC4CEA040491F803C0BCF115
:1007B000280F05D100F1080C08FA0CF8C2F81480D3
:1007C00091F803C0BCF1480F07D100F1080C4FF0BD
:1007D000010808FA0CF8C2F81080401C0828CED393
:1007E0005460BDE8F081416170470161704700BF0E
:1007F000FEE7000008B50121102000F0E9F8012112
:10080000082000F0E5F8FF20ADF8000010208DF87A
:10081000030003208DF8020069460D48FFF758FFDA
:100820004FF47F40ADF8000014208DF80300032042
:100830008DF8020069460748FFF74AFFFF21044888
:10084000FFF7D3FF4FF47F410248FFF7CEFF08BD0B
:1008500000100140000C014000BFFEE7704700009F
:1008600070B5002100230F22C47804B3154C24680E
:1008700004F4E064C4F5E064210AC1F10403CA4051
:10088000447804FA03F184781440214309010E4CA2
:100890000678A155047804F01F050124AC400578C2
:1008A0006D11AD0005F1E025C5F8004109E00478BF
:1008B00004F01F050124AC40044D0678761145F87C
:1008C000264070BD0CED00E000E400E080E100E0B7
:1008D00010B5044640F2DC50001B04B240F698000C
:1008E000844200DD0446B4F5487F01DA4FF44874D1
:1008F000A1B2024800F0BCFC10BD000000040040A2
:1009000000B589B00121022000F042F8012108461B
:1009100000F05EF818208DF823004020ADF820008C
:1009200003208DF8220008A91648FFF7D1FE44F6EF
:100930002060ADF818004820ADF814000020ADF894
:100940001A00ADF8160005A90F4800F0C1FC6020A0
:10095000ADF804000120ADF806000020ADF80C0051
:10096000ADF80A0001A9084800F036FC012106484C
:1009700000F090FB40F2DC51034800F079FC09B034
:1009800000BD000000080140000400407047000066
:1009900029B1064AD2690243044BDA6104E0034AF2
:1009A000D2698243014BDA617047000000100240B7
:1009B00029B1064A12690243044B1A6104E0034A52
:1009C00012698243014B1A61704700000010024017
:1009D00029B1064A92690243044B9A6104E0034A32
:1009E00092698243014B9A617047000000100240F7
:1009F00029B1064AD2680243044BDA6004E0034A94
:100A0000D2688243014BDA60704700000010024058
:100A10000F48006840F001000D4908600846406832
:100A20000C4908400A494860084600680A490840DD
:100A3000074908600846006820F4802008600846DE
:100A4000406820F4FE0048604FF41F008860704743
:100A5000001002400000FFF8FFFFF6FE30B5002155
:100A60000022002400232D4D6D6805F00C0121B1FA
:100A7000042905D0082923D105E0294D056022E08D
:100A8000274D05601FE0254D6D6805F47012234D5C
:100A90006D6805F48034022505EB92421CB9214DA6
:100AA000554305600BE01D4D6D6805F400351DB123
:100AB0001C4D5543056002E0194D5543056002E0A9
:100AC000174D056000BF00BF144D6D6805F0F001C3
:100AD0000909154D6B5C0568DD4045600F4D6D687B
:100AE00005F4E061090A104D6B5C4568DD408560E6
:100AF0000A4D6D6805F46051C90A0B4D6B5C456881
:100B0000DD40C560054D6D6805F44041890B074D1A
:100B10006B5CC568B5FBF3F5056130BD00100240A4
:100B200000127A0000093D0022020020320200205B
:100B300010B501460022002300204A11012A02D1EB
:100B4000094C236806E0022A02D1074C236A01E01F
:100B5000054C636A01F01F02012494401C400CB153
:100B6000012000E0002010BD001002400248406853
:100B700000F00C0070470000001002400146002009
:100B8000034A506820F0F0000843506070470000AE
:100B9000001002401149096821F480310F4A1160A8
:100BA0001146096821F480211160B0F5803F03D01F
:100BB000B0F5802F0ED106E00849096841F4803174
:100BC000064A116007E00549096841F4A021034A7B
:100BD000116000E000BF00BF70470000001002403D
:100BE00010B5FFF715FF4FF48030FFF7D3FF00F08B
:100BF00063F8012826D10020FFF7C0FF002000F095
:100C00002FF84FF4806000F01FF80220FFF754FD2A
:100C10001020FFF743FD4FF4E0114FF4803000F057
:100C200031F8012000F028F800BF3920FFF780FFDD
:100C30000028FAD0022000F033F800BFFFF796FF3B
:100C40000828FBD110BD000001460020034A50686F
:100C500020F4E0600843506070470000001002403C
:100C600001460020034A506820F4605040EAC10069
:100C7000506070470010024001490866704700004C
:100C80000000424202460020044B586820F47C10C9
:100C900042EA01031843014B5860704700100240BC
:100CA00001460020034A506820F0030008435060CA
:100CB000704700000010024038B50020009000246A
:100CC000002500BF3120FFF733FF05460098401C88
:100CD00000900098B0F5A06F01D0002DF2D0312027
:100CE000FFF726FF08B1012400E00024204638BDAC
:100CF000704700002DE9F0474FF0000A0024002261
:100D0000344B354903C901F0A1FA0746334A344B45
:100D100001F022F9054600F0F3FE81464FEAD97A48
:100D20002CE0FF212F48FFF760FD4FF47F412E4854
:100D3000FFF75BFD0A2099FBF0F100FB11902B49B6
:100D40000D5C29462748FFF74EFDC4F10F02012034
:100D5000904081B22448FFF746FD022C03D1802148
:100D60002048FFF740FD0320FFF70EFC0A2099FB07
:100D7000F0F9641CFF211B48FFF737FD022CD0DD82
:100D8000B9F1000FCDDCBAF1000F17D0FF211548E3
:100D9000FFF72BFD4FF47F411348FFF726FD40215D
:100DA0001048FFF720FDC4F10F020120904081B2EE
:100DB0000D48FFF718FD0320FFF7F1FBFF2109485D
:100DC000FFF713FD4FF47F410748FFF70EFDBDE825
:100DD000F087000000005940380200208DEDB5A0DA
:100DE000F7C6B03E00100140000C0140E8260008A4
:100DF000042808D14FF0E021096941F004014FF0C7
:100E0000E022116107E04FF0E021096921F00401BF
:100E10004FF0E0221161704770470000F0B50C46BA
:100E2000154600220021068C4FF6FE773E400684D0
:100E3000028B018C4FF60C7632407E1C06EA0316BC
:100E40002E433243104EB0420ED0104EB0420BD063
:100E5000B0F1804F08D00E4EB04205D00D4EB042DA
:100E600002D00D4EB04206D14FF6FD76314044F02F
:100E70000106314305E04FF6F576314044F00106B6
:100E8000314302830184F0BD002C01400034014055
:100E90000004004000080040000C0040F0B50C4683
:100EA0001546002200210026078C4FF6EF7C07EA4A
:100EB0000C070784028B018C4FF6FF7707EA0416B4
:100EC00040F6FF473A404FF6FF7707EA03373A43C9
:100ED0004FF6FF7707EA05273A43114FB8420ED085
:100EE000104FB8420BD0B0F1804F08D00E4FB8422F
:100EF00005D00E4FB84202D00D4FB84206D14FF682
:100F0000DF77394046F01007394305E04FF65F7749
:100F1000394044F01007394302830184F0BD0000DA
:100F2000002C014000340140000400400008004053
:100F3000000C0040F0B50C461546002200210026AA
:100F4000078C4FF6FF6C07EA0C070784828B018C35
:100F50004FF6FF7707EA04264FF60C773A404FF634
:100F6000FF7707EA03172F433A43114FB8420ED0D9
:100F7000104FB8420BD0B0F1804F08D00E4FB8429E
:100F800005D00E4FB84202D00D4FB84206D14FF6F1
:100F9000FF57394046F48077394305E04FF2FF5759
:100FA000394044F48077394382830184F0BD0000E6
:100FB000002C0140003401400004004000080040C3
:100FC000000C0040F0B50C4615460022002100261A
:100FD000078C4EF6FF7C07EA0C070784828B018C96
:100FE0004FF6FF7707EA043640F6FF473A404FF6E0
:100FF000FF7707EA05273A434FF6FF7707EA0337FB
:101000003A43114FB8420ED0104FB8420BD0B0F156
:10101000804F08D00E4FB84205D00E4FB84202D0D4
:101020000D4FB84206D14DF6FF77394046F4805750
:10103000394305E047F6FF57394044F480573943B8
:1010400082830184F0BD0000002C01400034014087
:101050000004004000080040000C004010B50121D1
:10106000074800F047F848B10121054800F00FF8A3
:101070000448006810B103480068804710BD0000B4
:10108000002C014004000020CA4302827047CA437A
:101090000282704721B1028842F00102028004E01E
:1010A00002884FF6FE731A4002807047F0B50C4676
:1010B00015461E460021002200230189028B038C65
:1010C0004FF6F877394021434FF6FC473A4040F25B
:1010D00001173A434FF6DD773B404FF6FF7707EABB
:1010E00006172F433B43018102830384F0BD014671
:1010F000888C704730B50246002000230024158AF2
:1011000005EA0103958905EA010413B10CB1012038
:1011100000E0002030BD000070B505460C462448B4
:1011200085420ED0234885420BD0B5F1804F08D0C0
:101130002148854205D02148854202D02048854279
:1011400000D100E000BF208850B92389A2886188BF
:101150002846FFF763FEE188284600F08DF825E079
:10116000208804280AD12389A28861882846FFF7AD
:1011700095FEE188284600F088F817E020880828C6
:101180000AD12389A28861882846FFF7D3FEE18827
:10119000284600F087F809E02389A288618828465C
:1011A000FFF710FFE188284600F085F870BD0000C9
:1011B000002C0140003401400004004000080040C1
:1011C000000C00401AB183890B43838102E08389BC
:1011D0008B4383817047000070B5002400220023F8
:1011E000058C4FF6FE7635400584028C8388048B8F
:1011F0004FF68F752C40B51E2C400D882C43751E64
:101200002A400D892A434D882A43144DA8420BD009
:10121000134DA84208D0134DA84205D0124DA84244
:1012200002D0124DA84213D14FF6F7752A404D89CE
:101230002A434FF6FB752A408D882A434FF6FF65F7
:101240002B404FF6FF552B408D892B43CD892B43E7
:1012500083800483CD888586028470BD002C014084
:10126000003401400040014000440140004801407A
:101270008186704781847047028B4FF6F3731A4062
:101280000283028B0A4302837047028B4FF2FF33C3
:101290001A400283028B4FF6FF7303EA01231A43BD
:1012A00002837047828B4FF6F3731A408283828BDE
:1012B0000A4382837047828B4FF2FF331A40828346
:1012C000828B4FF6FF7303EA01231A438283704730
:1012D000002202881D4B98420ED01D4B98420BD025
:1012E000B0F1804F08D01B4B984205D01A4B984262
:1012F00002D01A4B984204D14FF68F731A404B8894
:101300001A43174B984207D0164B984204D04FF619
:10131000FF431A40CB881A4302808B8883850B8851
:1013200003850A4B98420BD0094B984208D00E4BCC
:10133000984205D00D4B984202D00D4B984201D1F6
:101340000B7A03860123838270470000002C014042
:10135000003401400004004000080040000C004040
:1013600000100040001400400040014000440140D3
:10137000004801401FB50121C802FFF729FB642086
:10138000ADF8080041F61F40ADF804000020ADF8AC
:101390000A00ADF8060001A90D48FFF799FF0122E8
:1013A00011460B48FFF70EFF19208DF800000320AF
:1013B0008DF801008DF8020001208DF803006846C9
:1013C000FFF74EFA01210248FFF764FE1FBD00003F
:1013D000002C014001490860704700000400002013
:1013E00010B50821304800F0FFF830B12E4800F069
:1013F00029FA08212C4800F061F804212A4800F05D
:10140000F3F818B10421284800F058F802212648C2
:1014100000F0EAF818B10221234800F04FF801214A
:10142000214800F0E1F818B101211F4800F046F80A
:1014300040F225511C4800F0E4F860B140F225511B
:10144000194800F044F8184800F0FCF9C4B22046EE
:1014500000F084FC26E040F22771134800F0D1F838
:1014600000B31248006812490968884211D00F4839
:101470000088C0F30A000F490C5C44F480742146D4
:10148000094800F0E4F909480068401C0749086071
:1014900008E0002240F22771034800F0DCF8002049
:1014A0000549087010BD0000003801400C00002004
:1014B000100000206C0200201800002001F40072CF
:1014C000B2F5007F00D100BFCA430280704710B55B
:1014D0000022002340F66A14A14200D100BF0A1284
:1014E00001249440A3B2DC43048010BD21B1828961
:1014F00042F40052828104E082894DF6FF731A4063
:101500008281704710B504462048844209D10121E8
:101510008803FFF76DFA00214FF48040FFF768FA67
:1015200032E01B48844209D101214804FFF740FA08
:1015300000214FF40030FFF73BFA25E015488442C4
:1015400009D101218804FFF733FA00214FF48020EC
:10155000FFF72EFA18E01048844209D10121C8048F
:10156000FFF726FA00214FF40020FFF721FA0BE0E5
:101570000A48844208D101210805FFF719FA002121
:101580004FF48010FFF714FA10BD0000003801403E
:101590000044004000480040004C00400050004023
:1015A00010B503460C48007818B90C480078082894
:1015B00001D1002010BD0948007818700848008843
:1015C0000880084810600820044C20700020044C5B
:1015D00020800120EEE70000080000201E0000200F
:1015E0000A0000206C0A002002460020B1F5007FAE
:1015F00000D100BF13880B400BB1012000E0002098
:10160000704770B50246002400230025002040F6F4
:101610006A16B14200D100BFC1F3421501F01F03A9
:10162000012606FA03F3012D02D19689334006E024
:10163000022D02D1168A334001E0968A33400C1203
:10164000012606FA04F41688344013B10CB10120C7
:1016500000E0002070BDF0B5034600240026002500
:10166000002040F66A17B94200D100BF1846C1F306
:10167000421401F01F06012707FA06F5012C01D1DB
:101680000C3004E0022C01D1103000E014301AB10B
:1016900007682F43076002E00768AF430760F0BDAB
:1016A0002DE9F04786B005460E460024A24600BF4D
:1016B000A1460027B08900B100BF2F462C8A4CF606
:1016C000FF700440F08804432C82AC894EF6F3107E
:1016D0000440B08831890843718908430443AC81D0
:1016E000AC8A4FF6FF400440B0890443AC8201A8A5
:1016F000FFF7B4F91F48874202D1DDF810A001E0DE
:10170000DDF80CA0A88900F4004040B10AEBCA0043
:1017100000EB0A1031684900B0FBF1F807E00AEB72
:10172000CA0000EB0A1031688900B0FBF1F86420B0
:10173000B8FBF0F004012009642101FB1089A8899D
:1017400000F4004040B1322000EBC900B0FBF1F0E2
:1017500000F00700044308E0322000EB0910642188
:10176000B0FBF1F000F00F0004432C8106B0BDE89F
:10177000F08700000038014000B587B0012144F235
:101780000400FFF725F92948FFF7BCFE4FF400706D
:10179000ADF8080018208DF80B0003208DF80A0022
:1017A00002A92348FEF794FF4FF48060ADF80800CB
:1017B00004208DF80B0002A91D48FEF789FF4FF4A5
:1017C000E13003900020ADF81000ADF81200ADF844
:1017D0001400ADF818000C20ADF8160003A913484A
:1017E000FFF75EFF25208DF8040000208DF805002E
:1017F0008DF8060001208DF8070001A8FFF730F8EA
:10180000012240F225510948FFF725FF0121074831
:10181000FFF76CFE012007490860074908600020B7
:10182000064908600649087007B000BD003801404D
:10183000000801400C0000201000002014000020CF
:101840001800002001468888C0F308007047C1F3E3
:1018500008028280704700002DE9F04705460C46DB
:101860001646C4F30A0405F01F0544EAC5282146BC
:10187000304600F05BFA814602212F48028800685A
:10188000401C2D4B1860C2F30A002C4A11544FEA39
:101890002821184602880068401C1860C2F30A001C
:1018A000264A1154184601880068401C1860C1F38C
:1018B0000A00114601F8008000270CE0F15D1E4887
:1018C00002880068401C1C4B1860C2F30A001B4AC7
:1018D0001154781C87B2A742F0DB4FEA2921164841
:1018E00002880068401C144B1860C2F30A00134AB7
:1018F0001154184601880068401C1860C1F30A00A2
:10190000114601F800900321184602880068401C27
:101910001860C2F30A00094A11540948007840B916
:10192000012007490870012240F227710548FFF79E
:1019300092FEBDE8F0870000100000206C0200203D
:1019400018000020003801402DE9F04F91B0FEF75B
:1019500031FEC0EB001000B20F90BDF93C0000F06A
:101960005EFC074652480CC8384600F0C7FD0446E6
:101970000D465048B0F9000000F051FC07462246E1
:101980002B4600F0BBFDCDE90C014A49B1F900102E
:10199000480000F044FCCDE908014748B0F90000D8
:1019A00000F03DFC074622462B4600F0D5FA824661
:1019B000DDE9082300F0AEFDCDE90A014FF42F76F2
:1019C000C6F100093B48B0F900003B4908802046B9
:1019D000294600F0B1FB00B2364908803749DDE9FD
:1019E0000A2303C900F032FC22462B46CDE906014A
:1019F000334903C900F02AFCCDE902013149DDE990
:101A00000C2303C900F022FC074688462E48B0F993
:101A1000000000F004FC82463A46434600F09CFA7F
:101A2000CDE90001DDE9022300F096FACDE90401D9
:101A3000DDE9062300F090FACDE9080100F060F836
:101A400000B2214908800846B0F90000B04201DD2B
:101A500030B208801C48B0F90000484503DA0FFA9C
:101A600089F0194908801948007810B900201649F2
:101A700008800EAA0221144800F035F80DF13A0250
:101A800002210FA800F02FF80F48B0F90000FEF770
:101A90001FFF0EAA04210620FFF7DEFEBDF93C0061
:101AA00000F0BDFB0A4A03C211B0BDE8F08F000090
:101AB000580200206402002066020020500200202C
:101AC0004802002040020020620200206002002044
:101AD0003802002000BFFEE730380A2801D201207A
:101AE00070470020704730B50346002005E01D5CBC
:101AF0004C1E241A1555441CE0B28842F7DB30BD59
:101B000070B506460C4600F047FB0546400010F154
:101B1000020F10D13046214600F096FC06460C46D6
:101B2000284600F07CFB3246234600F0C9FA1CBF71
:101B30000120FEF767FC284670BD00000EB54FF48B
:101B4000A06101F00702574B18684FF6FF031840D9
:101B5000554B034343EA0220524B186000BFFFF786
:101B60003FF8FEF747FEFEF709FDFFF705FEFFF71A
:101B700001FC4E48FFF72EFCFEF732FDFEF77EFD1E
:101B8000FEF7BEFE4AA208210720FFF765FE00BF50
:101B9000FFF7B0F86A4601A902A8FFF701FD002887
:101BA0007FD09DF8080005282AD14448007828B144
:101BB00043A20D210120FFF74FFE72E0BDF80400A3
:101BC000182805D042A212210120FFF745FE68E047
:101BD000009C444A08212046FFF785FF424A08211D
:101BE00004F10800FFF77FFF404A082104F11000CC
:101BF000FFF779FF3EA202210020FFF72DFE50E003
:101C00009DF80800042814D1BDF80400082805D068
:101C10002FA212210120FFF71FFE42E0354A0821C2
:101C20000098FFF760FF32A202210020FFF714FEA8
:101C300037E09DF80800022811D12048007828B12B
:101C40001FA20D210020FFF707FE2AE001201B49FB
:101C5000087027A202210020FFF7FEFD21E09DF879
:101C60000800032810D11548007838B10020134926
:101C700008701FA20221FFF7EFFD12E01EA20D2146
:101C80000020FFF7E9FD0CE09DF808201FA1264881
:101C9000FEF7AAFA84B2244A21460120FFF7DCFDB0
:101CA00000BF75E70CED00E00000FA0549190008D7
:101CB000474F474F474F212100000000600200209E
:101CC000497427732072756E6E696E672E0000006E
:101CD0004572726F722064617461206C656E677406
:101CE000682E000040020020480200205002002020
:101CF0004F4B00005802002049742773206E6F7408
:101D00002072756E6E696E672E000000556E6B6EE8
:101D10006F776E206F70657261746F7228307825EE
:101D2000303278292E0000006C12002010B50246D7
:101D30004FF6FF700AE012F8014B84EA2023DBB271
:101D4000054C34F8133083EA002398B20B1EA1F13E
:101D50000101F0DC10BD00002200002010B5044697
:101D60006148007858B9022C05D060A212210120E8
:101D7000FFF772FDB7E001205B490870B3E05A48F5
:101D80000078012812D10820B0EBE40F08DC5CA237
:101D900012210120FFF760FD002053490870A2E0E6
:101DA0005B4804800220504908709CE04E4800784F
:101DB000022822D15648007844EA0020544908807D
:101DC00008460088C00A5349087051480088C0F38B
:101DD0000A00514908800020504908804E48008878
:101DE00018B904204049087002E003203E490870F9
:101DF0004FF6FF704A49088075E03B480078032899
:101E00001FD1464801880088401C444A108045483C
:101E100044544348008884EA2020C0B2424931F843
:101E200010003F49097880EA01203D4908801046AA
:101E3000008839490988884255DB04202A490870FE
:101E400051E029480078042811D13548008884EAF7
:101E50002020C0B2344931F810003149097880EAB5
:101E600001202F49088005201F4908703BE01E48CB
:101E70000078052820D12A48008884EA2020C0B2B2
:101E8000294931F810002649097880EA01202449BF
:101E900008800846008858B124A211210120FFF7CC
:101EA000DBFC00201049087008201A4908701AE06D
:101EB00006200D49087016E00B480078062812D15C
:101EC000032C08D01EA210210120FFF7C5FC08201A
:101ED0001049087004E01FA202210020FFF7BCFC9B
:101EE00000200149087010BD080000204572726F83
:101EF00072207374617274206672616D652E0000C9
:101F00004572726F72206F70657261746F722E000D
:101F10001A0000201E0000200A00002020000020DF
:101F20001C0000206C0A00202200002043524320A5
:101F3000636865636B206661696C65642E000000F0
:101F40004572726F7220656E64206672616D652ED7
:101F5000000000004F4B000010B591EA030F48BF8E
:101F600083F0004300F1DE82841A71EB030C05D28A
:101F7000121943EB0C03001B61EB0C01DFF824E1A9
:101F80004FEA1154A4EB135C1EEA430F18BF9EEAFC
:101F9000445F73D023EA0E03DCF1200E21EA0451E2
:101FA00043F4801332D322FA0CFE10EB0E0023FA16
:101FB0000CFE41EB0E01CCF1200E03FA0EFE10EBED
:101FC0000E0051F10001B1F5801FCCF1200E32D28C
:101FD00001EB045112FA0EF2BDE8104058BF7047F1
:101FE000401C38BF5FEA420218BF7047002814BF88
:101FF00020F0010041F100014FEA410313F5001FF9
:1020000038BF7047A1F1C04100F018BA012A43EB74
:102010000302ACF1200CDCF11F0E32BF4FF0000EBA
:1020200023FA0CF310EB030041EB0451B4EB115F06
:10203000D0D0A1EB045101F5801149085FEA3000CE
:1020400001EB04510ED350F1000038BF12FA0EFE1E
:1020500008D1BDE81040C9E7401C38BF5FEA420222
:10206000CAD1C3E7BDE810404FEA410313F5001F92
:1020700038BF7047A1F1C04100F0E0B99EEA445F6B
:1020800008D011EA5E0FBDE8104004BF01F0004126
:1020900000207047BDE8104070B500F081F900BF26
:1020A00064FBBE3E0000E0FF491058BFC1F1404153
:1020B0005B1058BFC3F140438B42EFF30080704781
:1020C00051EA030C17D41CF5801F58BFBCF5801FC4
:1020D00000F10680994218BF704708BF90427047D0
:1020E00007D711F5801F58BF13F5801F19D49942E7
:1020F0007047894270471CF5801F08D5BCF5801FCA
:10210000F7D58B4218BF704708BF824270474FF423
:10211000001C1CEB410F38BF1CEB430F01D28B425C
:10212000704770B500F03CF9922449004FF000511F
:102130004FF08053FFF7B8BF4FEA41034FEA5353C4
:10214000A3F58063D3F11E03C8BFD3F1210C0CDDCE
:102150004FF0004242EAC12242EA505232FA03FCF6
:102160008CEAE17CACEBE1707047102BC4BF00201F
:10217000704703F5787CBCF1FF3F04D06FF000425C
:1021800082EA2100704770B500F00AF94992248074
:1021900000207047F2E700004FEA41034FEA535333
:1021A000A3F58063D3F11E03C8BFD3F1210C20DD5A
:1021B0004FF0004242EAC12242EA505232FA03FC96
:1021C0000DD362FA03F282EA0C021CF1010C0BD669
:1021D0004FEA420252EAC02208BF2CF0010C8CEAFE
:1021E000E17CACEBE1707047094258BFACF1010CE7
:1021F000F5E7102BC4BF0020704703F5787CBCF1D5
:10220000FF3F04D06FF0004282EA2100704770B5B2
:1022100000F0C6F84992248000207047F2E710F0E1
:10222000004248BF4042B0FA80F310FA03F10AD0EE
:10223000C3F11D0303F580634FEA415002EB0352E3
:1022400002EBD12170474FF000007047DFF848C122
:1022500070B51CEA111E1EBF1CEA13159EEA0C0F76
:1022600095EA0C0F00F06F8081EA030423EA4C1317
:102270004EEAD47E21EA4C1141F4801143F48013DC
:10228000AE44A1FB024CA0FB0365AEF17F7E361984
:1022900055EB0C05A1FB034C4CF10003A0FB021C09
:1022A00016EB0C06654153F10003094218BF46F0D6
:1022B000010613F4007F0BD14FEA03314FEA0530DA
:1022C000340341EA155140EA16506FF003020AE068
:1022D0004FEAC3214FEAC520F40241EA555140EAD2
:1022E00056506FF0020202EB2E4201EB025585EAD6
:1022F000CE710AD05FEA440C18BF24F0004450F1BC
:10230000000041F1000120EAD47040F2FE7C6245F9
:1023100000D270BDA84214BF4FF080444FF040443B
:10232000002E08BF0024BEF1806FA8BFA1F1C041FC
:10233000BDE8704080F282804FF0000001F1C041A2
:1023400001F0004170479EEA0C0F0CEA131518BF0C
:1023500095EA0C0F06D04FF0000081EA030E0EF054
:10236000004170BD00F01CF88900013E00F007B884
:1023700000F009B84FEA430C5FEA5C5C08D081EAE0
:10238000030100F05BB84FEA410C5FEA5C5CF6D1F8
:102390004FF00000014970470000FF070000F87F80
:1023A0000EF1020E2EF0030E5EF8046B364205D4D9
:1023B000012A43EB030515F5001F12D8012841EB54
:1023C000010C1CF5001F0CD80ED14FEAD17C15F57D
:1023D000001F0CEB4C0C0CF1020C08BF4CEBD37C37
:1023E00004E04FF0080C01E04FEAD37C0CEB4C0505
:1023F00026FA05F606F00706B6F1040C06D20EEB37
:10240000860CBDE870404CF0010C6047DFE80CF032
:10241000090B02024FF000414FF00000A1F500212E
:1024200070BD19461046012851EB010418BFD4F5C0
:10243000001484BF002001F0004170BD0808A0F521
:1024400000114FEA310170475FEA410C5FEA5C5CC2
:10245000ACF580635B1C39D4D3F1340240F3458082
:10246000B2F1200314DA4FF0010C0CFA02FCACF1CB
:1024700001030340B3EB5C0220EA030008BF10EA4B
:102480000C0F98BF704710EB0C0041F10001704732
:102490000AD0C3F1200201FA02FC012821FA03F15B
:1024A00001FA03F14CF100004FF0010C0CFA03FCAF
:1024B000ACF10103B0F1004F21EA030108BF11EABA
:1024C0000C0F4FF0000088BF61447047B3F1FF3F2D
:1024D00028BF50EAC12C01F000414FF0000084BF3A
:1024E00041F07C5141F470017047B3F5806FB8BF83
:1024F000704770B5FFF754FF40DBB6BE91EA030F9B
:1025000010B581F000413FF52FAD83F0004300F09E
:1025100009B8000010B591EA030F48BF83F00043EB
:102520003FF522AD841A71EB030C07D212198CF01F
:10253000004C43EB0C03001B61EB0C01DFF8A4E142
:102540004FEA1154A4EB135C1EEA430F18BF9EEA36
:10255000445F00F0B08023EA6E03524221EA045146
:10256000C3EB6E0338BF5B1EDCF1200E25D322FACD
:102570000CFE10EB0E0043FA0CFE41EB0E01CCF109
:10258000200E03FA0EFE10EB0E0051F10001CCF10B
:10259000200E29D412FA0EF201EB0451BDE81040CE
:1025A00058BF7047401C1CBFB2F1004F7047002855
:1025B0000CBF491C20F00100704712EB020E43EBE8
:1025C000030218BF4FF0010E4EEA4202ACF1200C9C
:1025D000DCF11E0E54D943FA0CFE10EB0E0051F143
:1025E000FF31CCF11E0ED5D50EF1010E12FA0EFE02
:1025F000404141EB010101EB445C5FEA5C5C10D9B6
:1026000010EBDE7001EB045138BFBEF1004FBDE8A6
:10261000104018BF704700280CBF491C20F0010073
:10262000704730D24FEAD42C11F5001124F4006425
:102630001BD0B1FA81F20B3AA41AA41ED2F12003E6
:10264000914030FA03F31943904001EBCC71002C18
:1026500001EB0451BDE81040A8BF704701F1C04133
:102660004FF0000001F000417047B0FA80F310FA1B
:1026700003F100D110BDE41A173C4805C90AE4E78C
:1026800001EB045110BD491001EB0451BDE81040AD
:102690004FEA300002E04FF0000170474A0008BFE7
:1026A0000042F8D0B2F5001F28BF704701F000418A
:1026B0004FF0000070479EEA445F07D011EA5E0FBA
:1026C000BDE8104004BF002100207047BDE8104065
:1026D00070B5FFF765FE00BF40DFF63E83F00041B6
:1026E000104670470000E0FF3F065B4F666D7D07B8
:1026F0007F6FFF0000FF30313233343536373839E1
:10270000414243444546403058003031323334353D
:10271000363738396162636465664030780004009A
:10272000000800000000000000020001000010008E
:1027300050270008000000206C020000280100085B
:102740006C2900086C020020E416000064010008F7
:1027500041021B40620810FF211042206330844078
:10276000A550C660E770088129914AA16BB18CC160
:10277000ADD1CEE1EFF13112100273325222B552D7
:102780009442F772D662399318837BB35AA3BDD3B0
:102790009CC3FFF3DEE36224433420040114E664A7
:1027A000C774A44485546AA54BB528850995EEE500
:1027B000CFF5ACC58DD55336722611163006D776B7
:1027C000F6669556B4465BB77AA719973887DFF750
:1027D000FEE79DD7BCC7C448E5588668A77840087F
:1027E000611802282338CCC9EDD98EE9AFF94889A0
:1027F00069990AA92BB9F55AD44AB77A966A711A17
:10280000500A333A122AFDDBDCCBBFFB9EEB799BEF
:10281000588B3BBB1AABA66C877CE44CC55C222C66
:10282000033C600C411CAEED8FFDECCDCDDD2AAD3F
:102830000BBD688D499D977EB66ED55EF44E133EF6
:10284000322E511E700E9FFFBEEFDDDFFCCF1BBF8F
:102850003AAF599F788F20148891A981CAB1EBA112
:102860000CD12DC14EF16FE18010A150EDC230E3CB
:10287000200450254046706760B9839893FBA3DA23
:10288000B33DC31CD37FE35EF3B1029012F322D2B7
:10289000323542145277625672EAB5CBA5A89589B3
:1028A000856EF54FE52CD50DC5E234C324A0148107
:1028B000046674476424540544DBA7FAB79987B8C3
:1028C000975FE77EF71DC73CD7D326F2369106B057
:1028D0001657667676154634564CD96DC90EF92FC3
:1028E000E9C899E9898AB9ABA944586548067827A7
:1028F00068C018E1088238A3287DCB5CDB3FEB1E63
:10290000FBF98BD89BBBAB9ABB754A545A376A16F6
:102910007AF10AD01AB32A923A2EFD0FED6CDD4DF2
:10292000CDAABD8BADE89DC98D267C076C645C4546
:102930004CA23C832CE01CC10C1FEF3EFF5DCF7C02
:10294000DF9BAFBABFD98FF89F176E367E554E7496
:102950005E932EB23ED10EF01E0011370102030429
:0C2960000102030406070809020406082F
:04000005080000ED02
:00000001FF
