:020000040800F2
:10000000901A0020790200089B270008C9200008E8
:1000100097270008E91800089B3500080000000039
:100020000000000000000000000000007929000826
:10003000ED18000800000000212800088D2A0008A3
:10004000930200089302000893020008930200083C
:100050009302000893020008651900089302000843
:10006000811900089D190008B919000893020008B9
:10007000930200089302000893020008930200080C
:1000800093020008930200089302000893020008FC
:1000900093020008930200089302000893020008EC
:1000A00093020008930200089302000893020008DC
:1000B00093020008312D0008930200089302000803
:1000C00093020008930200089302000893020008BC
:1000D00093020008253200089D32000893020008B0
:1000E000930200089302000893020008930200089C
:1000F000930200089302000893020008930200088C
:10010000930200089302000893020008930200087B
:10011000930200089302000893020008930200086B
:10012000930200089302000893020008930200085B
:1001300000F002F800F090F80AA090E8000C824469
:100140008344AAF10107DA4501D100F085F8AFF246
:10015000090EBAE80F0013F0010F18BFFB1A43F0A5
:10016000010318475C3B00007C3B0000103A24BFB1
:1001700078C878C1FAD8520724BF30C830C144BF0C
:1001800004680C607047000000230024002500264E
:10019000103A28BF78C1FBD8520728BF30C148BFEA
:1001A0000B6070476E2900F0FC82702900F05D84BE
:1001B000662903F01785652903F01485672903F084
:1001C00011856129AFF3008003681B0A28BF41F045
:1001D0008001692900F0CA80642900F0C780752970
:1001E00000F0C4806F2900F0EB83782900F02984A7
:1001F000E92900F08583E42900F08283F52900F0E5
:100200007F83EF2900F0E883F82900F02884036851
:10021000DB0928BF41F08001632900F006837329C0
:1002200000F00B83E32900F08786F32900F08C8629
:10023000002070471FB500F0D9FE04000020002107
:1002400003F0BAFC401C60600020002103F09EFC1B
:10025000E0601FBD10B510BD00F09AFE1146FFF71B
:10026000E9FF03F04FFB00F073FF03B4FFF7F2FF69
:1002700003BC00F077FF00000948804709480047A9
:10028000FEE7FEE7FEE7FEE7FEE7FEE7FEE7FEE746
:10029000FEE7FEE704480549054A064B70470000A3
:1002A000912A00083101000890140020901A0020C3
:1002B00090160020901600207CB51D4616460C00B6
:1002C000009001D02044401E074B7B442A466946DB
:1002D0000190304600F07FFA05461CB100206946C7
:1002E00000F08CFA28467CBD390500000FB41CB51F
:1002F000084B06AA7B4469460090059800F06BFA0B
:1003000004460020694600F079FA20461CBC5DF8DE
:1003100014FB00000505000070B50C460546012AD7
:1003200005D02878800600D5EA69002302E0012381
:1003300005E05B1C934202D2E05C0028F9D1A86979
:10034000E618C01AA861286A18442862284600F0F6
:1003500096F904E0D5E9012114F8010B9047B44265
:10036000F8D3284600F0A1F970BD00002DE9F04156
:100370000646002410687529314616A510D000F0F5
:10038000A5F9002802DA404213A507E031688A0780
:1003900001D512A502E0490704D511A5012401E009
:1003A00000F09DF900210A2206F1240709E0B0FBC4
:1003B000F2FCB0FBF2F302FB1C003030785418461C
:1003C000491C0028F3D123462A463046BDE8F041B7
:1003D00000F08EB9000000002D0000002B0000008E
:1003E000200000002DE9F05F894604464FF0000A26
:1003F000DFF874B1FB44C0F820A02046E1688847CC
:10040000002874D0252806D0D4E901219047206A1D
:10041000401C2062F1E700265F462046E1688847DD
:100420002028054607DB312D05D2781910F8200C5D
:1004300008B10643F1E7B00701D526F00406C4F879
:100440001CA00027C4F818A02A2D09D0284603F0C4
:1004500051FA38B304EB8708303DC8F8185019E05A
:1004600059F8041B204604EB87029161E168884734
:10047000012F054618D1E069002820DA26F0200671
:100480001DE0D8F8180000EB800005EB4000303884
:10049000C8F818002046E1688847054603F02AFAA4
:1004A0000028EED1012F0AD02E2D08D12046E16878
:1004B00088477F1C0546022F46F02006C4DBA06952
:1004C000002803DA404246F00106A061F00701D09F
:1004D00026F010066C2D0BD0682D09D04C2D39D08C
:1004E0006A2D35D0742D35D07A2D33D016E038E012
:1004F000E1682F4620468847B842054609D16C2F4F
:1005000026D04FF48060E1680643204688470546C0
:1005100004E06C2F1AD04FF4807006430DB3A5F1A0
:100520004100192802D8203546F400664A4629467B
:10053000204626604E46FFF735FE80B101280BD0DD
:10054000F61D26F0070000F1080956E74020E4E711
:100550008020D8E70020D6E706F104094DE72846B9
:1005600052E7206ABDE8F09FF037000010B5431C49
:1005700002E010F8011B71B18107FAD14FF001328E
:1005800002C88C1A8C4314EAC211F9D0C01A0A06A8
:1005900003D0C01E10BDC01A10BD0A0401D0801EB9
:1005A00010BD0902FCD0401E10BD4FF0000200B586
:1005B000134694469646203922BFA0E80C50A0E886
:1005C0000C50B1F12001BFF4F7AF090728BFA0E834
:1005D0000C5048BF0CC05DF804EB890028BF40F800
:1005E000042B08BF704748BF20F8022B11F0804F42
:1005F00018BF00F8012B70474FF0013C50F8042B56
:1006000051F8043B9A4221D1A2EB0C03934313EA25
:10061000CC1317D150F8042B51F8043B9A4215D152
:10062000A2EB0C03934313EACC130BD150F8042B29
:1006300051F8043B9A4209D1A2EB0C03934313EA0D
:10064000CC13DBD04FF00000704700BFD01A01BAC6
:10065000B1FA81F101F0180122FA01F0CB40C1F1A9
:100660002001DBB2C0B2C01A2CFA01F3D11A9143B7
:1006700011EAC311E6D1704770477047704770B5F3
:10068000044685690068C10601D5302600E02026B1
:10069000C00707D070BDD4E9012130469047206AD9
:1006A000401C20626D1EF6D570BD70B5044685698C
:1006B0000078C00707D170BDD4E901212020904700
:1006C000206A401C20626D1EF6D570BD09684A057F
:1006D00001D540B27047C905FCD500B27047096822
:1006E0004A0501D5C0B27047C905FCD580B2704734
:1006F0002DE9F0470D4699469246044600F124083C
:100700000168880604D5E06921F01001216000E04D
:100710000120A84201DD471B00E00027A1697A19EA
:1007200002EB0900081AA0612078C00602D4204616
:10073000FFF7A5FF002608E0D4E901211AF806001A
:100740009047206A401C761C20624E45F4DB2078DE
:10075000C0060AD52046FFF792FF06E0D4E9012142
:1007600030209047206A401C2062381EA7F1010704
:10077000F4DC07E0D4E9012118F805009047206A6D
:10078000401C2062281EA5F10105F3DC2046FFF77E
:100790008CFF2078000602D50220BDE8F0870120FA
:1007A000FBE711680268006A530501D508700AE08A
:1007B000D30501D5088006E0130603D5C217C1E9A9
:1007C000000200E0086001207047000001694A1C37
:1007D00002610878704700B58FB0CDE90131002182
:1007E000059105497944CDE9031011466846FFF7A4
:1007F000F9FD0FB000BD0000E5FFFFFF0A6802F839
:10080000010B0A607047D1E900239A4202D2531CBF
:100810000B601070704710B5436913B1AFF30080DF
:1008200001E0FFF779FD012010BD127800F12401ED
:100830000A7000224A700122EDE711684FF0FF3282
:10084000E9E700002DE9FF5F15468A460446DFF818
:10085000AC80F8440027D8E900103E46CDE90010EE
:1008600010E03AF816106A4602A800F071FB411C2D
:1008700007D02178890603D5E269391891420DD84D
:100880000744761C2078800602D5E069B84205DD71
:10089000AE42E6DB3AF816000028E2D1A069C01BA0
:1008A000A0612046FFF7EBFED8E90010CDE900106B
:1008B000002017E03AF818106A4602A800F048FB3A
:1008C000B0F1FF3F81460BD000250DF1080B05E08C
:1008D000D4E901211BF8050090476D1C4D45F7D365
:1008E00008F10100B0428046E4DB206A384420620F
:1008F0002046FFF7DAFEBDE8FF9F0000A6330000A8
:100900002DE9F0418046D21D22F007020025D2E9F0
:100910000002F52915A614D0011E72F1000106DAB5
:100920000023D0EB030063EB020211A608E0D8F825
:1009300000108B0701D50FA602E0490701D50EA6CE
:1009400001251146002408F1240704E000F098F87E
:1009500030323A55641C50EA0102F7D12B46324638
:1009600021464046BDE8F041FFF7C2BE000000004E
:100970002D0000002B0000002000000030B40021FA
:1009800000F1240408E002F00705D208303542EAFD
:100990004372DB086554491C52EA0305F3D104682D
:1009A000002310A2250708D504F020040C4304D02E
:1009B000C46901230CA2641EC46130BCFFF798BE59
:1009C00010B5044621461068FFF789FE024620460E
:1009D000BDE810400023D1E7D21D22F00701D1E984
:1009E0000023CBE70000000030000000F0B40D460B
:1009F0000188090502D5214C7C4402E01F4C7C444F
:100A00000E34002100F1240608E002F00F0712095D
:100A1000E75D42EA03721B097754491C52EA030757
:100A2000F3D102780023120704D5702D06D009B146
:100A3000022311342246F0BCFFF75ABE01231034C2
:100A4000F8E770B504460D4621461068FFF747FEEB
:100A5000024629462046BDE870400023C6E7D21D65
:100A600022F00703D3E90023C0E70368126843F0CC
:100A7000200303600823C3610023B7E708320000A6
:100A800030B5B0F10A024FEA900E71F100034EEA60
:100A9000817EB0EB0E0061EB91014FEA101E4EEA31
:100AA000017E10EB0E0041EB11114FEA102E4EEAC1
:100AB000016E10EB0E0041EB11214FEA104E4EEA91
:100AC000014E10EB0E0041EB1141401841F10001C5
:100AD0004FEAD00040EA41704FEAD10110EB8005A7
:100AE0004FEA810444EA907444EB01046D1944EB2D
:100AF0000404521BA3414FF0000348BF0A3200D543
:100B000030BD401C41F1000130BD70472DE9FF4F61
:100B10000C461E464FF0FF378BB0D2E90001DDF8DE
:100B200060800A908A46C1F30A5505B93D46002106
:100B300008464FF00000BAF1000F00F4400005DA5B
:100B400000EB80004FF4400101EA50004FEA905959
:100B5000B9F1010F00DDB9460A9850EA4A000ED0FB
:100B600044F61050A5F2FF3545432F14B8F1000F9D
:100B70001ED07542291E1EDDC9F100021CE0B8F12D
:100B8000010F4FF0000001D0302103E0F24305E0F7
:100B90002154401CB042FBDB30460022002121548E
:100BA0000B99C1F80880C1E900200FB0BDE8F08FB3
:100BB000BD1B6D1CDEE74A4600DA694206A800F05C
:100BC00059FA06AB93E8070003AB83E807005046E9
:100BD0000A9900F0CEFA8DE80700A0F500501F3802
:100BE00000900398002D09DD42F21F014A46084497
:100BF00003A90390684600F02DFD08E0A0F5005021
:100C00004A461F3803A90390684600F037FD8DE877
:100C100007000004000C03D04FF0FF30410800E053
:100C20001046B8F1000F03D00022009215461EE0D6
:100C3000751E05D4FFF724FF303262556D1EF9D5BD
:100C4000B3460122084302D000227F1C04E0207832
:100C5000302801D100227F1E002A099786D01DE08E
:100C6000112D07DAFFF70CFF303262556D1C50EA88
:100C70000102F5D1084302D00098C8B10EE000216E
:100C8000681E05E0235C625C63542254401E491CCC
:100C90008142F7DBAB46A81B401E0990002004F8F8
:100CA0000B000B98099AC0F80880C0E9002B7CE77C
:100CB00011264FF0000859E72DE9F04F8846044609
:100CC000D21D22F0070191B0D1E90001CDE90A015E
:100CD00002F0FCFD02460B98C00F01D02D2007E06A
:100CE0002068810701D52B2002E0202101EAC00005
:100CF000032A099001D0072A05DB03464146204616
:100D000000F078F90BE12078800601D5E06900E079
:100D10000620B8F1650F814606D0B8F1660F18D0ED
:100D2000B8F1670F70D131E00020B9F1110F0090D8
:100D300001DB112301E009F101030AAA01A90CA8B2
:100D4000FFF7E4FEDDE90C70002609F1010583469A
:100D500047E001204B4600904FF000470AAA01A946
:100D60000CA8FFF7D3FEDDE90DB00C995D46002617
:100D700010B909F101000D18B9EB050003D4C0F159
:100D8000FF3609F10105A5EB09002BE0B9F1010FD0
:100D900001DA4FF001090020B9F1110F0090484627
:100DA00001DD112300E003460AAA01A90CA8FFF700
:100DB000ADFEDDE90C704D46002683462078000725
:100DC0000AD4AB4500DA5D4601A8012D04DD4119C6
:100DD00011F8011C302907D04F4502DA17F1040F32
:100DE00004DA012082460FE06D1EEEE7002F02DCE0
:100DF000ED1B3E4403E0781CA84200DD7D1CB81BBF
:100E000000F1010A4FF000472078000703D4AA45FB
:100E100001DB4FF0FF3A0021B7F1004F0DF143081D
:100E20008DF8431024D002202B23002F01DA7F42BB
:100E30002D230A21021EA0F1010000DC5FB197FB07
:100E4000F1FC97FBF1F201FB1C7C17460CF1300C16
:100E500008F801CDEEE7A8F101000370218809052B
:100E600001D5452100E06521A0F1010800F8011C31
:100E700009980FA9A1EB0807FF1D00B10120411936
:100E800001EBEA70A1693844081A401EA06120787D
:100E9000C00602D42046FFF7F2FB099828B1D4E936
:100EA00001219047206A401C20622078C00622D58C
:100EB0002046FFF7E4FB1EE0002E04DBB34502DD15
:100EC00001A8805D00E03020D4E901219047206A2C
:100ED000401C2062761CAAF101005FEA000A0AD1D8
:100EE00000F084F8C0680168405CD4E901219047B3
:100EF000206A401C2062281EA5F10105DCDC07E009
:100F0000D4E9012118F8010B9047206A401C2062A7
:100F1000381EA7F10107F3DC2046FFF7C6FB0320CC
:100F200011B043E610B5436913B1AFF3008001E09F
:100F3000FFF788FC012010BD128800F12401828493
:100F40000022C2840122EDE711684FF0FF32E9E789
:100F500070B516460C46054600F040F8036893F855
:100F60000101012806D0FF2C0FD8185D68B10120BF
:100F70002C7070BDD3F807013246214603F20713E7
:100F800003442846BDE8704018474FF0FF3070BD5D
:100F9000754600F0E3F8AE4605006946534620F07A
:100FA0000700854618B020B5FFF774F9BDE820406A
:100FB0004FF000064FF000074FF000084FF0000B15
:100FC00021F00701AC46ACE8C009ACE8C009ACE8C8
:100FD000C009ACE8C0098D467047000010B500F0AC
:100FE00005F8001D10BD00BFD12B00000048704760
:100FF000501400202DE9F0411F46044603260168E5
:10100000072A01F4006004DB08B116A505E016A567
:1010100003E008B115A500E015A521F0100020603F
:10102000A069C01EA0610FB1401EA0612046FFF75D
:1010300026FB4FB1D4E9012138469047206A401C75
:101040002062C01C206206E0206AFAE7D4E9012190
:1010500015F8010B9047761EF8D22046FFF725FBC6
:10106000BDE8F0814E414E006E616E00494E460073
:10107000696E66002DE9F047814616468AB033480E
:1010800078440DC88DE80D0030487844801C03ACCE
:101090000DC884E80D0041F69B300844372190FBD1
:1010A000F1F290FBF1F5A5F1800501FB12041B3C68
:1010B00002D56442012000E00020DFF890A08046C5
:1010C0000027FA44AAF1BE0A0DE0E00709D0324633
:1010D000684607EB47010AEB810100F0CFFA8DE883
:1010E000070064107F1C002CEFD1184F7F44AC3FE9
:1010F00018E0E80714D007EB04100DF1180A90E887
:101100000E008AE80E00C068F04201D198190890DC
:10111000324606A903A800F0B1FA03AB83E8070042
:101120006D10641C002DE4D132466946B8F1000F01
:1011300003A802D000F08EFA01E000F09FFAC9E99E
:101140000001C9F808200AB0BDE8F087242C00008F
:101150000446AFF300802046FFF787F80048704749
:101160003014002001491820ABBEFEE72600020023
:1011700070475FEA400C08BF91F0000F4FEA8C23E4
:101180004FEAC12243EA51514FEA1C5018BF00F503
:10119000F0404FEA300018BF41F000415FEA6C5C5C
:1011A00000F02980BCF1FF3F08BF40F0804070474D
:1011B000130C06BF12044FF0100C4FF0000C130E6E
:1011C00004BF12020CF1080C130F04BF12010CF142
:1011D000040C930F04BF92000CF1020CD30F04BF58
:1011E00052000CF1010C11464FF00002A0F11F005B
:1011F000A0EB0C00704711F0004F08BF704731F0B2
:1012000000413FF4D5AF0B0C06BF09044FF0100CA2
:101210004FF0000C0B0E04BF09020CF1080C0B0F71
:1012200004BF09010CF1040C8B0F04BF89000CF101
:10123000020CCB0F04BF49000CF1010CCCF12003D0
:10124000A0EB0C0022FA03F302FA0CF241EA0301CC
:1012500000F10100704720F07F4C80EA030023F08A
:101260007F47ACEB070303F57C5300F0004003F12C
:10127000FF032DE980494FEA154B09B44FEA1443A7
:1012800025EA0B4E24EA03480FF2042606EB132747
:1012900049083E785FEA320203FB0667C7F500079C
:1012A00007FB06F64FEA54374FEAD64606F1020628
:1012B00007FB066CCCF1005C4FEA1C472CEA074C9C
:1012C00007FB06F40CFB06F504EB15464FEA9616F1
:1012D00034BF00204FF000404FEAD13706FB07FC37
:1012E0004FEA1C4C0CFB0BF7D21B03FB0CF761EB1A
:1012F00007010CFB0EF7B0EB074072EB17420CFB3B
:1013000008F734BFA2EB0742B2EB074261EB17418B
:101310004FEA0C444FEA910706FB07FC4FEA1C4CCE
:101320000CFB0BF7B0EBC74072EB573203FB0CF72B
:1013300034BFA2EBC742B2EBC74261EB57310CFBA3
:101340000EF7B0EBC70072EB57720CFB08F734BF17
:10135000A2EBC702B2EBC70261EB5771039F4FEAE2
:10136000816141EA921104EBCC044FEAD1374FEA94
:10137000826206FB07FC42EA90124FEA80604FEA65
:101380001C4C0CFB0BF7D21B03FB0CF761EB0701AA
:101390000CFB0EF7B0EB074072EB17420CFB08F7A3
:1013A00034BFA2EB0742B2EB074261EB17414FEAB1
:1013B0008C554FEA910704EB9C2406FB07FC4FEA8F
:1013C0001C4C0CFB0BF7B0EBC74072EB573203FB26
:1013D0000CF734BFA2EBC742B2EBC74261EB573107
:1013E0000CFB0EF7B0EBC70072EB57720CFB08F763
:1013F00034BFA2EBC702B2EBC70261EB577115EB2A
:101400004C254FEA816141EA92114FEA82624FEA2C
:10141000D13742EA901206FB07FC44F100044FEA80
:1014200080604FEA1C4C0CFB0BF7D21B03FB0CF744
:1014300061EB07010CFB0EF7B0EB074072EB1742B4
:101440000CFB08F734BFA2EB0742B2EB074261EB9B
:10145000174115EB1C154FEA813141EA92414FEAE1
:10146000823242EA90424FEA80304FEA0C7644F1F1
:10147000000448EA03434EEA0B484FF0000EB2EB7B
:10148000080C71EB030724BF624639464EEB0E0E83
:101490004FF0000B0018524149414BEB0B0BB2EBE4
:1014A000080C71EB03077BF1000B24BF6246394641
:1014B0004EEB0E0E4FF0000B0018524149414BEB22
:1014C0000B0BB2EB080C71EB03077BF1000B24BF95
:1014D000624639464EEB0E0E51EA020718BF46F03F
:1014E000010616EB0E7655F1000254F1000103D50A
:1014F000BDE88901BDE80088BDE88901BDE8004874
:10150000B619524141EB0101A3F1010370478080FC
:101510007F7E7D7C7B7A797877767675747372714D
:1015200071706F6E6E6D6C6C6B6A6A696868676605
:1015300066656464636362616160605F5F5E5E5D97
:101540005D5C5C5B5B5A5A5959585857575656550B
:1015500055555454535352525251515050504F4F6D
:101560004F4E4E4D4D4D4C4C4C4B4B4B4A4A4A49BD
:101570004949484848474747474646464545454400
:101580004444444343434342424242414141002B8D
:1015900026D4770021D01CB54FEA370703B44FF0AB
:1015A00010004FF010014FF000000FBCBDE81040DC
:1015B0000BF1010BBBF1010F08BF5FEA170722BF58
:1015C00012F1010211F101014FF0004143F100035A
:1015D00000F0004043EA00007047F9D35708DAE70B
:1015E00046EA064613F1400F4FEA16461FDD13F197
:1015F000200FDFBF16430A46002120335B42C8D0CC
:10160000C3F1200746EA064602FA07F74FEA1646F4
:1016100046EA0706C3F1200722FA03F201FA07F7A8
:1016200021FA03F14FF0000342EA0702B1E746EA6C
:10163000020646EA06464FEA164646EA0106BCBFDF
:1016400046EA0646360C4FF000034FF000024FF01A
:1016500000019EE72DE9C048934630B491E8380078
:1016600007C831EA400C48BF34EA430C03D5FFF702
:10167000F2FDFFF78CFFF0BCBDE800882DE9C04803
:10168000934630B491E8380007C810F0804F08BF87
:1016900013F0804F03D100F005F8FFF778FFF0BC9E
:1016A000BDE8008820F07F4780EA030023F07F4CEC
:1016B00007EB0C03A3F57C5300F00040A3F1FE03FD
:1016C00092F0000F00F0B38095F0000F00F07780EB
:1016D0002DE901494FEA11404FEA144621EA00483A
:1016E00000FB06FC24EA064708FB06F607FB08F8A1
:1016F00000FB07F718EB06484CEB164C4FEA124B71
:1017000018EB07484FEA15464CEB174022EA0B4E00
:101710000BFB06FC25EA06470EFB06F607FB0EFE52
:101720000BFB07F71EEB064E4CEB164C4FF000067A
:101730001EEB074E4CEB174B18EB0B0840F100006B
:1017400018EB0E0B58EB000840F100008F1A4FF019
:1017500000013CBFC943661B14BFB5EB040C00215C
:101760003CBFC943F61B4FEA17444EEA8E0E27EAE8
:1017700004454FEA1C4704FB07622CEA074C05FBB3
:1017800007F70CFB05F604FB0CFC16EB074642EBD7
:10179000174216EB0C4642EB1C421BEB060658EBBD
:1017A0000202414146EA9E0601D5BDE80189B6190B
:1017B000524141EB0101A3F10103BDE801894FEA68
:1017C00014454FEA114724EA054621EA074C05FB78
:1017D00007F406FB07F70CFB06F105FB0CFC11EB0D
:1017E000074144EB17444FEA124711EB0C4144EB1D
:1017F0001C4422EA074C05FB07F206FB07F70CFB2B
:1018000006F605FB0CFC16EB074642EB174216EBFF
:101810000C4642EB1C456A1854F1000148BF704762
:10182000B619524141EB0101A3F10103704795F054
:10183000000F37D04FEA11424FEA144721EA02461F
:1018400024EA074C02FB07F106FB07F70CFB06F442
:1018500002FB0CFC14EB074441EB17414FEA154720
:1018600014EB0C4441EB1C4125EA074C02FB07F545
:1018700006FB07F70CFB06F602FB0CFC16EB074613
:1018800045EB174516EB0C4645EB1C42121951F17E
:10189000000148BF7047B619524141EB0101A3F165
:1018A000010370474FEA14454FEA114724EA054601
:1018B00021EA074C05FB07F106FB07F70CFB06F2D4
:1018C0004FF0000605FB0CFC12EB074241EB174101
:1018D00012EB0C4251EB1C4148BF7047921841EB90
:1018E0000101A3F10103704700BFFEE7704710B587
:1018F0006FF0040001F0B6F810BD000002460D487C
:101900004FF4FA535A43426000238360036843F064
:101910000103036000BF016801F001031BB101F482
:101920008033002BF7D000238360036823F001038A
:101930000360704710E000E000BF4FF4FA5100BFB1
:10194000491E0029FCD1401E0028F6D1704700BF77
:10195000082100BF491E0029FCD1401E0028F7D1F4
:101960007047000010B5012000F03AF828B1034993
:1019700008688047012000F02DF810BDDC0B002026
:1019800010B5042000F02CF828B10349886880477E
:10199000042000F01FF810BDDC0B002010B508205B
:1019A00000F01EF828B10349C8688047082000F0FD
:1019B00011F810BDDC0B002010B5102000F010F85D
:1019C00028B1034908698047102000F003F810BDD2
:1019D000DC0B00200149086070470000140401403E
:1019E000014600200022074B1B6803EA0102054B59
:1019F00014331B680B4013B10AB1012000E0002032
:101A0000704700000004014010B500240C48006835
:101A1000008800F0010020B10948006801F0D1F908
:101A200004460020064909688884054909688886B3
:101A300001210348006801F097F9204610BD00001D
:101A40005800002000B587B00121042000F0EAFE14
:101A50000121082000F006FF04208DF81B00C020A3
:101A6000ADF8180003208DF81A0006A91A4800F0F6
:101A700045F84FF6FF70ADF810000020ADF80C00EF
:101A8000ADF81200ADF80E0003A9144801F03AFABF
:101A90000A231A460321114801F072F90020ADF81B
:101AA00000000620ADF808000A20ADF80200012071
:101AB000ADF804000020ADF806006946074801F0C3
:101AC00095F90121054801F049F90121034801F088
:101AD0004BF907B000BD0000000C014000080040B9
:101AE00010B500210448006801F03EF900200249C9
:101AF0000968888410BD0000580000202DE9F041DD
:101B0000024600250026002000230024002791F82B
:101B100003C00CF00F0591F803C00CF0100CBCF1E1
:101B2000000F03D091F802C04CEA050591F800C0FF
:101B3000BCF1000F31D0146800202BE04FF0010CF5
:101B40000CFA00F3B1F800C00CEA03069E4220D163
:101B500083004FF00F0C0CFA03F7BC4305FA03FCAB
:101B60004CEA040491F803C0BCF1280F06D14FF0F1
:101B7000010C0CFA00FCC2F814C00AE091F803C092
:101B8000BCF1480F05D14FF0010C0CFA00FCC2F873
:101B900010C0401C0828D1D31460B1F800C0BCF1BB
:101BA000FF0F34DD546800202EE000F1080C4FF0E8
:101BB000010808FA0CF3B1F800C00CEA03069E42D3
:101BC00021D183004FF00F0C0CFA03F7BC4305FA48
:101BD00003FC4CEA040491F803C0BCF1280F05D1C2
:101BE00000F1080C08FA0CF8C2F8148091F803C050
:101BF000BCF1480F07D100F1080C4FF0010808FABA
:101C00000CF8C2F81080401C0828CED35460BDE800
:101C1000F0810000F0B50A460023002400210025D1
:101C200000F00046B6F1004F02D11D4EF16901E00F
:101C30001B4E7168C0F3034583B200F44016B6F53D
:101C4000401F08D121F07061154E766826F070664D
:101C5000134F7E6012E000F48016B6F5801F06D1A7
:101C6000032606FA05F4A14341F0706106E0460D33
:101C7000360103FA06F6B14341F0706122B1460D18
:101C8000360103FA06F6314300F00046B6F1004F84
:101C900002D1034EF16101E0014E7160F0BD000020
:101CA000000001400246002093680B400BB1012068
:101CB00000E00020704702460020D3680B400BB1C3
:101CC000012000E0002070474161704701617047CA
:101CD000FEB50024F6490978C1EBC101F54A02EBD3
:101CE00081001C21FEF761FCF1480078C0EBC000C8
:101CF000F04901EB800000F10C01ED480078C0EBE9
:101D0000C000EC4A02EB800000F10A02E8480078CB
:101D1000C0EBC000E74B03EB80000830E44DCDE999
:101D2000012100902D78C5EBC5051E4606EB850503
:101D300005F11403DE4D2D78C5EBC50506EB8505D1
:101D400005F11202DA4D2D78C5EBC50506EB8505C8
:101D500005F11001D64D2D78C5EBC50506EB8505BF
:101D600005F10E0000F0B6FBD3490880FFF74CFEEA
:101D700001B2CF480078C0EBC000324602EB8000D1
:101D8000C182CE480068401CCC4908600846006803
:101D9000C7490978C1EBC10102EB81014860C6481F
:101DA000008818B1002001F02FF9FEBDC448C049D9
:101DB0000978C1EBC101BF4A42F821000020BC49AB
:101DC0000978C1EBC10102EB81010876B8480078BF
:101DD000C0EBC000114601EB80004068000EB44922
:101DE0000978C1EBC10102EB81014968C1F30741E8
:101DF00040EA0121AE480078C0EBC00002EB800051
:101E00008088C0F30720AA4A1278C2EBC202A94B0D
:101E100003EB8202127940EA022041EA0040A44921
:101E20000978C1EBC1011A4602EB81014860A04864
:101E30000078C0EBC000114601EB8000B0F908004B
:101E400001129B480078C0EBC00002EB8000007AD2
:101E500041EA002001B296480078C0EBC00002EBD6
:101E60008000018192480078C0EBC000114601EB70
:101E70008000B0F90A0001128D480078C0EBC00064
:101E800002EB8000807A41EA002001B288480078A5
:101E9000C0EBC00002EB8000418185480078C0EBB8
:101EA000C000114601EB8000B0F90C00011280481F
:101EB0000078C0EBC00002EB8000007B41EA00200C
:101EC00001B27B480078C0EBC00002EB800081814A
:101ED00077480078C0EBC000114601EB8000B0F9F4
:101EE0000E00011272480078C0EBC00002EB8000C7
:101EF000807B41EA002001B26D480078C0EBC00051
:101F000002EB8000C1816A480078C0EBC000114636
:101F100001EB8000B0F91000011265480078C0EBB9
:101F2000C00002EB8000007C41EA002001B2604862
:101F30000078C0EBC00002EB800001825C480078B2
:101F4000C0EBC000114601EB8000B0F91200011295
:101F500057480078C0EBC00002EB8000807C41EA6B
:101F6000002001B252480078C0EBC00002EB8000B4
:101F700041824F480078C0EBC000114601EB800061
:101F8000B0F9140001124A480078C0EBC00002EB1F
:101F90008000007D41EA002001B245480078C0EB96
:101FA000C00002EB8000818241480078C0EBC00095
:101FB000114601EB8000B0F9160001123C48007890
:101FC000C0EBC00002EB8000807D41EA002001B23E
:101FD00037480078C0EBC00002EB8000C1820024CB
:101FE00019E033480078C0EBC000324901EB8000B3
:101FF000007E2F490978C1EBC1012E4A02EB810115
:10200000091D095D48402A490978C1EBC10102EB6D
:1020100081010876641C142CE3D325480078C0EBBA
:10202000C000244951F82000000E21490978C1EB75
:10203000C101204A52F82110C1F3074140EA0120B2
:102040001B490978C1EBC10132F82110C1F3072106
:10205000174A1278C2EBC202164B13F8222041EA4B
:10206000022140EA014012490978C1EBC1011A4638
:1020700042F821000E480078401C0D49087001F01C
:10208000BBFB80B10A48007813280CDD08480078B3
:10209000C0EBC0008100074801F07EFB09490880C1
:1020A000002003490870022000F096F900BF7CE68A
:1020B000040000205C000020000000200800002038
:1020C000770277010200002000BFFEE710B54FF451
:1020D00080611248FFF7F8FD1048001D006820F0ED
:1020E000F0200E49091D08600846006840F4405081
:1020F0000860C9140948FFF7E7FD0220FFF727FC35
:102100004FF480610548FFF7E1FD0220FFF71FFC57
:102110004FF480610148FFF7D7FD10BD000C01406E
:1021200008B50121082000F09DFB10208DF8030068
:1021300003208DF802008002ADF8000069460748D0
:10214000FFF7DCFC4FF400610448FFF7BFFD4FF4DC
:1021500080610248FFF7BAFD08BD0000000C014095
:1021600010B54FF480611248FFF7AEFD1048001D16
:10217000006820F0F0200E49091D0860084600683C
:1021800040F440500860C9140948FFF79FFD022041
:10219000FFF7DDFB4FF480610548FFF797FD022054
:1021A000FFF7D5FB4FF480610148FFF78DFD10BDAF
:1021B000000C014070B5054600241B48006820F45F
:1021C0007040194908600846006840F40040086003
:1021D00000261EE04FF480611348001FFFF774FDD6
:1021E0000220FFF7B4FB4FF480610F48001FFFF798
:1021F0006DFD6006040E4FF400610B48001FFFF7F1
:1022000051FD08B1601CC4B20120FFF7A0FB701C97
:10221000C6B2082EDEDB15B1FFF758FF01E0FFF76D
:102220009FFF204670BD0000040C014010B514480B
:10223000006820F0F020124908600846006840F469
:1022400040500860C9140E48001FFFF73FFD4FF4CF
:1022500080610B48001FFFF739FD0220FFF777FB75
:102260004FF400610648001FFFF72EFD0220FFF724
:102270006EFB4FF480610248001FFFF725FD10BD83
:10228000040C014010B51448006820F0F0201249F9
:1022900008600846006840F44050086009150E4880
:1022A000001FFFF711FD4FF400610B48001FFFF7FF
:1022B0000BFD0220FFF74BFB4FF480610648001F27
:1022C000FFF704FD4FF400610348001FFFF7FEFC19
:1022D0000220FFF73CFB10BD040C014010B50024A8
:1022E0001A48006820F470401849086008460068E1
:1022F00040F400400860C9141448001FFFF7E6FCD2
:102300000220FFF724FB4FF480611048001FFFF705
:10231000DDFC0220FFF71BFB07E0601CC4B2FA2CB7
:1023200003DDFFF7AFFF012010BD4FF40061074848
:10233000001FFFF7B7FC0028EFD14FF4806103487E
:10234000001FFFF7C1FC0020EEE70000040C014075
:1023500070B505461F48006820F0F0201D49086050
:102360000846006840F44050086009151948001FED
:10237000FFF7AAFC082429E0601E45FA00F000F0EF
:10238000010030B14FF400611248001FFFF79EFCBE
:1023900005E04FF400610F48001FFFF795FC022095
:1023A000FFF7D5FA4FF480610A48001FFFF78EFC53
:1023B0000220FFF7CCFA4FF480610648001FFFF7B8
:1023C00083FC0220FFF7C3FA601EC4B2002CD3DCEA
:1023D00070BD0000040C014010B5044604F001007B
:1023E00070B120211048FFF766FC012804D120219C
:1023F0000D48FFF769FC03E020210B48FFF766FC5E
:1024000004F0020070B120210848FFF754FC0128B5
:1024100004D120210548FFF757FC03E020210348A1
:10242000FFF754FC10BD0000000C014000180140F3
:1024300008B50121482000F015FA2020ADF8000071
:1024400010208DF8030003208DF80200694609482A
:10245000FFF754FB20210748FFF738FC2020ADF898
:10246000000069460448FFF749FB20210248FFF7B6
:102470002DFC08BD000C01400018014010B50446B9
:1024800004F0010018B120210548FFF71FFC04F0FB
:10249000020018B120210348FFF718FC10BD00000E
:1024A000000C01400018014010B5044604F0010082
:1024B00018B120210548FFF707FC04F0020018B10D
:1024C00020210348FFF700FC10BD0000000C014074
:1024D000001801402DE9FF4704460D4616461F46E9
:1024E000DDE90D9ADDF830806A460E213B2000F0D0
:1024F000ABF8E8BB9DF801009DF8001040EA012010
:1025000000B220809DF803009DF8021040EA0120EF
:1025100000B228809DF805009DF8041040EA0120D3
:1025200000B230809DF807009DF8061040EA0120B7
:1025300000B238809DF809009DF8081040EA01209B
:1025400000B2A8F800009DF80B009DF80A1040EAC0
:10255000012000B2A9F800009DF80D009DF80C10B4
:1025600040EA012000B2AAF80000002004B000E018
:1025700001E0BDE8F0870120F8E7000038B501214F
:10258000084600F06FF90121042000F06BF94FF4C8
:102590000040ADF8000010208DF8030003208DF8F6
:1025A000020069462648FFF7A9FA01212548FFF7EE
:1025B00031FB4FF400412248FFF786FBFFF7B0FDE7
:1025C00080216B2000F0C9F86420FFF7B5F90021E5
:1025D0006B2000F0C2F86420FFF7AEF918211B2031
:1025E00000F0BBF800211C2000F0B7F8322000F00A
:1025F00093F80021382000F0B0F800216A2000F0A4
:10260000ACF80021232000F0A8F88021372000F04A
:10261000A4F8752000F045F80446682C0BD1012180
:102620006B2000F09AF800216C2000F096F8322020
:1026300000F072F801E0012038BD0020FCE7000046
:10264000000801400002300070B506460C461546F1
:10265000FFF7ECFDD020FFF77BFEFFF73FFE08B150
:10266000012070BD3046FFF773FEFFF737FEFFF71E
:10267000DDFDD120FFF76CFEFFF730FE08E00CB166
:10268000012100E000210846FFF794FD28706D1C31
:102690002000A4F10101CCB2F1D1FFF7F3FD00203D
:1026A000DFE770B504460025FFF7C0FDD020FFF737
:1026B0004FFEFFF713FE2046FFF74AFEFFF70EFE20
:1026C000FFF7B4FDD120FFF743FEFFF707FE002020
:1026D000FFF770FD0546FFF7D5FD284670BD70B5C4
:1026E00004460025BC2C01DB012510E0622C01DB37
:1026F00002250CE02A2C01DB032508E0142C01DB69
:10270000042504E00A2C01DB052500E00625294606
:102710001A2000F022F870BD70B50446B4F57A7F37
:1027200001DD4FF47A74042C00DA04244FF47A703B
:1027300090FBF4F0401EC5B22946192000F00DF8B8
:1027400048B1264604EBD671C1F34F00FFF7C7FF2F
:1027500008B1012070BD0020FCE770B505460C46AD
:10276000FFF764FDD020FFF7F3FDFFF7B7FD08B1D9
:10277000012070BD2846FFF7EBFDFFF7AFFD2046B7
:10278000FFF7E6FDFFF7AAFD08B10120F1E7FFF72B
:1027900079FD0020EDE700BFFEE7704770B500212E
:1027A00000230F22C47804B3154C246804F4E064B9
:1027B000C4F5E064210AC1F10403CA40447804FA74
:1027C00003F184781440214309010E4C0678A15589
:1027D000047804F01F050124AC4005786D11AD00AC
:1027E00005F1E025C5F8004109E0047804F01F0573
:1027F0000124AC40044D0678761145F8264070BDA2
:102800000CED00E000E400E080E100E0024901435B
:10281000024A1160704700000000FA050CED00E06C
:102820007047000029B1064AD2690243044BDA61BD
:1028300004E0034AD2698243014BDA617047000029
:102840000010024029B1064A12690243044B1A6182
:1028500004E0034A12698243014B1A617047000089
:102860000010024029B1064A92690243044B9A6162
:1028700004E0034A92698243014B9A617047000069
:102880000010024029B1064AD2680243044BDA60C4
:1028900004E0034AD2688243014BDA6070470000CB
:1028A0000010024030B500210022002400232D4DED
:1028B0006D6805F00C0121B1042905D0082923D148
:1028C00005E0294D056022E0274D05601FE0254DFC
:1028D0006D6805F47012234D6D6805F4803402258F
:1028E00005EB92421CB9214D554305600BE01D4D8F
:1028F0006D6805F400351DB11C4D5543056002E0BF
:10290000194D5543056002E0174D056000BF00BF3B
:10291000144D6D6805F0F0010909154D6B5C0568F3
:10292000DD4045600F4D6D6805F4E061090A104D0A
:102930006B5C4568DD4085600A4D6D6805F460514B
:10294000C90A0B4D6B5C4568DD40C560054D6D687F
:1029500005F44041890B074D6B5CC568B5FBF3F589
:10296000056130BD0010024000127A0000093D00F0
:102970000C0000201C000020704710B500F002F889
:1029800010BD00000CB50020019000903348006895
:1029900040F480303149086000BF3048006800F4DE
:1029A000003000900198401C0190009818B90198DF
:1029B000B0F5A06FF1D12948006800F4003010B1E3
:1029C0000120009001E0002000900098012843D1F0
:1029D0002348006840F0100021490860084600685C
:1029E00020F0030008600846006840F0020008601C
:1029F0001A484068194948600846406848600846D7
:102A0000406840F4806048600846406820F47C10CC
:102A100048600846406840F4E8104860084600688E
:102A200040F08070086000BF0C48006800F0007043
:102A30000028F9D00948406820F0030007494860A1
:102A40000846406840F00200486000BF0348406804
:102A500000F00C000828F9D10CBD00000010024065
:102A600000200240042808D14FF0E021096941F01C
:102A700004014FF0E022116107E04FF0E021096905
:102A800021F004014FF0E02211617047704700000F
:102A900010B51348006840F001001149086008466D
:102AA0004068104908400E494860084600680E49D1
:102AB00008400B4908600846006820F48020086040
:102AC0000846406820F4FE0048604FF41F0088600C
:102AD000FFF753FF4FF000600449086010BD00008D
:102AE000001002400000FFF8FFFFF6FE08ED00E0D6
:102AF000F0B50C46154600220021068C4FF6FE77F5
:102B00003E400684028B018C4FF60C7632407E1CD0
:102B100006EA03162E433243104EB0420ED0104E3A
:102B2000B0420BD0B0F1804F08D00E4EB04205D06D
:102B30000D4EB04202D00D4EB04206D14FF6FD769A
:102B4000314044F00106314305E04FF6F57631405F
:102B500044F00106314302830184F0BD002C0140A2
:102B6000003401400004004000080040000C004018
:102B7000F0B50C461546002200210026078C4FF6C2
:102B8000EF7C07EA0C070784028B018C4FF6FF7776
:102B900007EA041640F6FF473A404FF6FF7707EA88
:102BA00003373A434FF6FF7707EA05273A43114FB9
:102BB000B8420ED0104FB8420BD0B0F1804F08D0C1
:102BC0000E4FB84205D00E4FB84202D00D4FB8425A
:102BD00006D14FF6DF77394046F01007394305E05C
:102BE0004FF65F77394044F0100739430283018480
:102BF000F0BD0000002C0140003401400004004002
:102C000000080040000C0040F0B50C4615460022BC
:102C100000210026078C4FF6FF6C07EA0C0707849B
:102C2000828B018C4FF6FF7707EA04264FF60C776C
:102C30003A404FF6FF7707EA03172F433A43114F05
:102C4000B8420ED0104FB8420BD0B0F1804F08D030
:102C50000E4FB84205D00E4FB84202D00D4FB842C9
:102C600006D14FF6FF57394046F48077394305E0E7
:102C70004FF2FF57394044F480773943828301840F
:102C8000F0BD0000002C0140003401400004004071
:102C900000080040000C0040F0B50C46154600222C
:102CA00000210026078C4EF6FF7C07EA0C070784FC
:102CB000828B018C4FF6FF7707EA043640F6FF4718
:102CC0003A404FF6FF7707EA05273A434FF6FF777A
:102CD00007EA03373A43114FB8420ED0104FB842BB
:102CE0000BD0B0F1804F08D00E4FB84205D00E4F38
:102CF000B84202D00D4FB84206D14DF6FF773940A9
:102D000046F48057394305E047F6FF57394044F40D
:102D10008057394382830184F0BD0000002C0140BC
:102D2000003401400004004000080040000C004056
:102D300010B50121074800F047F848B101210548C6
:102D400000F00FF80448006810B10348006880479D
:102D500010BD00000004004054000020CA4302825D
:102D60007047CA430282704721B1028842F00102D3
:102D7000028004E002884FF6FE731A40028070471A
:102D8000F0B50C4615461E4600210022002301899D
:102D9000028B038C4FF6F877394021434FF6FC47FE
:102DA0003A4040F201173A434FF6DD773B404FF689
:102DB000FF7707EA06172F433B4301810283038411
:102DC000F0BD0146888E704730B5024600200023D2
:102DD0000024158A05EA0103958905EA010413B167
:102DE0000CB1012000E0002030BD000070B50546A8
:102DF0000C46244885420ED0234885420BD0B5F1BD
:102E0000804F08D02148854205D02148854202D014
:102E10002048854200D100E000BF208850B92389B6
:102E2000A28861882846FFF763FEE188284600F003
:102E30003CF825E0208804280AD12389A2886188EB
:102E40002846FFF795FEE188284600F037F817E09E
:102E5000208808280AD12389A28861882846FFF79C
:102E6000D3FEE188284600F036F809E02389A288DD
:102E700061882846FFF710FFE188284600F034F803
:102E800070BD0000002C01400034014000040040EF
:102E900000080040000C00401AB183890B43838175
:102EA00002E083898B4383817047028B4FF6F37373
:102EB0001A400283028B0A4302837047028B4FF24F
:102EC000FF331A400283028B4FF6FF7303EA01239C
:102ED0001A4302837047828B4FF6F3731A40828342
:102EE000828B0A4382837047828B4FF2FF331A40F2
:102EF0008283828B4FF6FF7303EA01231A43828396
:102F000070470000002202881D4B98420ED01D4BD6
:102F100098420BD0B0F1804F08D01B4B984205D09F
:102F20001A4B984202D01A4B984204D14FF68F7335
:102F30001A404B881A43174B984207D0164B9842B9
:102F400004D04FF6FF431A40CB881A4302808B8887
:102F500083850B8803850A4B98420BD0094B984216
:102F600008D00E4B984205D00D4B984202D00D4B25
:102F7000984201D10B7A03860123838270470000B7
:102F8000002C0140003401400004004000080040D3
:102F9000000C0040001000400014004000400140C0
:102FA00000440140004801401FB501210220FFF705
:102FB00039FC6420ADF8080041F61F40ADF804006C
:102FC0000020ADF80A00ADF8060001A90D48FFF792
:102FD00099FF012211460B48FFF75EFF1D208DF877
:102FE000000003208DF801008DF8020001208DF80B
:102FF00003006846FFF7D2FB01210248FFF7B4FE49
:103000001FBD000000040040014908607047000037
:103010005400002010B51048007800B910BD0F48CA
:1030200000680F490968884213D240210D4800F01A
:10303000E3F901280DD109480088C0F308000A4AC5
:10304000115C084800F0A5FA04480068401C0349D8
:10305000086000BFE2E70000340000202C000020E0
:103060003000002000380140DC09002010B586B097
:103070000446012144F20400FFF7F4FB234800F06A
:103080006DF94FF40070ADF8040018208DF80700BA
:1030900003208DF8060001A91D48FEF72FFD4FF40F
:1030A0008060ADF8040004208DF8070001A91848DD
:1030B000FEF724FD02940020ADF80C00ADF80E00E0
:1030C000ADF81000ADF814000C20ADF8120002A904
:1030D0000E4800F0EDF925208DF8000001208DF854
:1030E000010003208DF8020001208DF803006846DE
:1030F000FFF754FB012240F22551044800F0B3F9D8
:103100000121024800F01DF906B010BD0038014051
:10311000000801400FB438B505A800904FF40071C5
:103120000748009B049AFDF7C7F80446002000906A
:103130002146034800F006F838BC5DF814FB000097
:10314000DC07002070B506460D463148007800289F
:103150004BD014E000BF40212E4800F04DF901286B
:10316000F9D12D480088C0F308002C4A115C294889
:1031700000F00FFA28480068401C274908602848DA
:10318000006825490968401A2844B0F5007FE1D855
:103190002348006820490968884214D900BF4021AB
:1031A0001C4800F029F90128F9D11B480088C0F318
:1031B00008001A4A115C174800F0EBF9164800683D
:1031C000401C1549086000240CE0305D1449098852
:1031D000C1F30801114A505411480068401C1049BD
:1031E0000860641CAC42F0DB0FE000240BE000BF81
:1031F0004021084800F000F90128F9D1315D054867
:1032000000F0C7F9641CAC42F1DB284670BD000039
:1032100034000020003801402C000020DC09002090
:103220003000002010B5194800F0AEF904460D2C0E
:1032300006D117480078401C15490870002410E09A
:103240000A2C0ED113480088401EC0F30800124912
:10325000085C00B910BD0E480078401C0C4908708D
:103260000024E1B20B480088C0F308000A4A115458
:1032700008480088C0F3080000F5007011540548A4
:103280000068401C0349086000BFE3E700380140C4
:103290002000002028000020DC03002010B540F2B0
:1032A00026611B4800F0B5F801281CD119480068B8
:1032B0001949096888420ED016480088C0F30900F1
:1032C000164A115C124800F064F912480068401C6C
:1032D0001049086002E000201149087040F22661A0
:1032E0000B4800F01FF840F22551094800F091F812
:1032F00001280BD1064800F047F9C4B2204600F07F
:10330000ABFB40F22551024800F00CF810BD000064
:1033100000440040380000203C000020F00B00205A
:103320004A00002010B50022002340F66A14A14292
:1033300000D100BF0A1201249440A3B2DC430480F0
:1033400010BD21B1828942F40052828104E0828959
:103350004DF6FF731A4082817047000010B5044695
:103360002048844209D101218803FFF78BFA00210C
:103370004FF48040FFF786FA32E01B48844209D1BF
:1033800001214804FFF75EFA00214FF40030FFF7F7
:1033900059FA25E01548844209D101218804FFF734
:1033A00051FA00214FF48020FFF74CFA18E0104842
:1033B000844209D10121C804FFF744FA00214FF4E7
:1033C0000020FFF73FFA0BE00A48844208D10121B0
:1033D0000805FFF737FA00214FF48010FFF732FAA3
:1033E00010BD00000038014000440040004800408B
:1033F000004C00400050004002460020B1F5007F24
:1034000000D100BF13880B400BB1012000E0002069
:10341000704770B50246002400230025002040F6C6
:103420006A16B14200D100BFC1F3421501F01F037B
:10343000012606FA03F3012D02D19689334006E0F6
:10344000022D02D1168A334001E0968A33400C12D5
:10345000012606FA04F41688344013B10CB1012099
:1034600000E0002070BDF0B50346002400260025D2
:10347000002040F66A17B94200D100BF1846C1F3D8
:10348000421401F01F06012707FA06F5012C01D1AD
:103490000C3004E0022C01D1103000E014301AB1DD
:1034A00007682F43076002E00768AF430760F0BD7D
:1034B0002DE9F04786B005460E460024A24600BF1F
:1034C000A1460027B08900B100BF2F462C8A4CF6D8
:1034D000FF700440F08804432C82AC894EF6F31050
:1034E0000440B08831890843718908430443AC81A2
:1034F000AC8A4FF6FF400440B0890443AC8201A877
:10350000FFF7D0F91F48874202D1DDF810A001E093
:10351000DDF80CA0A88900F4004040B10AEBCA0015
:1035200000EB0A1031684900B0FBF1F807E00AEB44
:10353000CA0000EB0A1031688900B0FBF1F8642082
:10354000B8FBF0F004012009642101FB1089A8896F
:1035500000F4004040B1322000EBC900B0FBF1F0B4
:1035600000F00700044308E0322000EB091064215A
:10357000B0FBF1F000F00F0004432C8106B0BDE871
:10358000F08700000038014001468888C0F3080039
:103590007047C1F308028280704700BFFEE7000059
:1035A00010B545F6253308A20BA11248FCF79EFE84
:1035B000104800F07FFA03210FA000F035F908B1A0
:1035C000012010BD0020FCE73139322E3136382E73
:1035D000302E31303000000041542B4349505354B9
:1035E0004152543D22544350222C222573222C2533
:1035F000640D0A00F01300204F4B000000B587B0A7
:1036000001214804FFF70EF901210420FFF72AF9F0
:103610004048FFF7A3FE0420ADF8080018208DF8FD
:103620000B0003208DF80A0002A93B48FEF766FA5A
:103630000820ADF8080004208DF80B0002A93648D8
:10364000FEF75CFA4FF4E13003900020ADF8100073
:10365000ADF81200ADF81400ADF818000C20ADF86C
:10366000160003A92B48FFF723FF26208DF804003E
:1036700002208DF8050003208DF8060001208DF84A
:10368000070001A8FFF78AF8012240F225512148DE
:10369000FFF7E9FE012240F226611E48FFF7E3FE34
:1036A00001211C48FFF74DFE01201C4908601C4900
:1036B000086000201B4908601B4908701B490870FE
:1036C0001BA000F0F7F90120FEF7D8FE0A211BA08D
:1036D00000F0AAF810B1012007B000BD19A000F059
:1036E000E9F903211CA000F09FF808B10120F3E7DD
:1036F0001AA31DA220A12748FCF7F8FD254800F0D9
:10370000D9F90A2114A000F08FF808B10120E3E7ED
:103710000020E1E70044004000080140380000209C
:103720003C00002040000020490000204A0000200A
:1037300041542B5253540D0A00000000726561641D
:103740007900000041542B43574D4F44455F43558A
:10375000523D310D0A0000004F4B0000323832312B
:103760003832393900000000442D4C696E6B5F44DB
:1037700049522D3630354C0041542B43574A415065
:103780005F4355523D222573222C222573220D0AB8
:1037900000000000F013002070B505460C462246DC
:1037A0000DA11148FCF7A2FD0F4800F083F9052197
:1037B0000EA000F039F808B1012070BD214628465E
:1037C00000F0ACF94FF0FF3109A000F02DF808B17E
:1037D0000120F2E70020F0E741542B4349505345C4
:1037E0004E443D25640D0A00F01300204F4B0000AD
:1037F00053454E44204F4B0010B50748016807A0C1
:10380000FCF7FAFE20B9074890F90000002801DD16
:10381000012010BD0020FCE74400002053454E4429
:10382000204F4B00480000202DE9F04707460D4689
:103830004FF00108224C4FF4FA5909EB89004FEA86
:10384000400900201F4908701F480760002D02DA58
:103850000020BDE8F0874FF0010822E0C4F8049092
:103860000020A060206840F00100206000BFFFF74A
:10387000D1FB1448007850B1206820F0010020608E
:103880000020A0600F4890F90000C00FE1E7266813
:1038900006F0010018B106F480300028E7D008F1E6
:1038A000010805EBC50000EB0510B8EB800FD5DD76
:1038B000206820F0010020600020A0600120C8E7FF
:1038C00010E000E04800002044000020490050EAD9
:1038D000C12018BF04204A0D18BF40F0010040F27B
:1038E000FF72B2EB515F08BF40F00200012808BF31
:1038F0000520704730380A2801D201207047002087
:103900007047000010B54FF4A060FEF77FFFFDF791
:10391000EEFFFEF78DFDFFF747FBFEF793F8FEF78E
:10392000DFF84FF4E130FFF7A1FB33A0FFF7F2FB24
:1039300002E06420FDF7E2FFFEF720FE0028F8D148
:103940000120FEF7B1FD02E06420FDF7D7FFFFF78D
:1039500055FE0028F8D10120FEF790FD00BF01249C
:103960000220FEF78BFD0120FEF79EFD09E00A20F4
:10397000FDF7C4FF0120FEF72FFD641C0A2C00DBBD
:1039800003E0FFF70DFE0028F1D100BF0A2C0EDB8B
:103990000120FEF789FD02E06420FDF7AFFFFFF78D
:1039A0002DFE0028F8D10120FEF768FDD7E70120A1
:1039B000FEF764FD0220FEF777FD1148FFF724FBB8
:1039C000FEF722F800BF0F48008818B90E4800889B
:1039D0000028F8D00DA0FFF79DFB0220FEF74EFD5A
:1039E000FEF77EF800BF00BF0648008800B100E087
:1039F000B5E700BF002010BD53544152540D0A00DA
:103A0000D11C000800000020020000204D69616FF9
:103A10004D69616F4D69616F0D0A000070B5054613
:103A20000C460B48006800B970BD09480068FCF7F7
:103A30009DFDA04200D0F7E7054801682846FCF745
:103A4000DBFD10B901200349087000BFECE700005E
:103A5000440000204800002010B504460A2C04D180
:103A6000114800780D2800D110BD0A2C01D00D2C72
:103A70000DD100200D490E4A126888540C48016887
:103A80000A48FFF7CBFF002009490860ECE7084827
:103A900001680068401C064A10600448445402480B
:103AA000047000BFE0E7000049000020F00F002094
:103AB0004000002010B504460CE020781249098827
:103AC000C1F30901114A50540F480068401C0E49C7
:103AD0000860641C20780028EFD10D48007888B970
:103AE0000C480068401C0B49086001200849087018
:103AF00008480088401EC0F30900044A115C0648CB
:103B0000FFF747FD10BD00003C000020F00B002037
:103B10004A00002038000020004400402DE9F04118
:103B200005460E4600242F460CE0385D12490988F0
:103B3000C1F30901114A50540F480068401C0E4956
:103B40000860641CB442F0DB0D48007888B90D4869
:103B50000068401C0B4908600120094908700948A9
:103B60000088401EC0F30900044A115C0648FFF7B4
:103B700010FDBDE8F08100003C000020F00B0020AB
:103B80004A000020380000200044004010B5002901
:103B90000AD00878002807D005487844FCF72CFDA7
:103BA000002801D0002010BD0248784410BD00005C
:103BB000460100003E01000010B500290AD0087837
:103BC000002807D005487844FCF716FD002801D0EE
:103BD000002010BD0248784410BD000036010000EE
:103BE0002E010000FDF768B8040000080000000086
:103BF00000000002000100001000000000000000B2
:103C00000000000030313233343536373839414224
:103C1000434445464030580030313233343536372E
:103C200038396162636465664030780002400000A4
:103C3000000000A00000000005400000000000C8D7
:103C4000000000000C4000000000409C000000004C
:103C5000194000000020BCBE0000000034400000FD
:103C6000BFC91B8E00000004B5400000504BCFD0F0
:103C70006607E2CF010000006C4100003E8251AABD
:103C8000DFEEA73401000000D9420000DCB5A0E25D
:103C90003A301F97FFFFFFFFB4450000FD25A0C885
:103CA000E9A3C14FFFFFFFFFFF3F000000000080BE
:103CB00000000000FF3F0000000000800000000046
:103CC0000C3E0008000000205C0000006C010008B1
:103CD000683E00085C000020341A000088010008DB
:103CE0001C00000043000000F8FFFFFF0C00000074
:103CF0000E0000000F0000002E0000001001000068
:103D000043000000F8FFFFFF0040404040404040BB
:103D1000404041414141414040404040404040409E
:103D20004040404040404040400502020202020242
:103D30000202020202020202022020202020202091
:103D400020202002020202020202909090909090A5
:103D50001010101010101010101010101010101063
:103D600010101010020202020202888888888888D7
:103D700008080808080808080808080808080808C3
:103D800008080808020202024000000000000000CB
:103D90000000000000000000000000000000000023
:103DA0000000000000000000000000000000000013
:103DB0000000000000000000000000000000000003
:103DC00000000000000000000000000000000000F3
:103DD00000000000000000000000000000000000E3
:103DE00000000000000000000000000000000000D3
:103DF00000000000000000000000000000000000C3
:103E000000000000000000000000000000000000B2
:103E10000000000000000000000000000102030498
:103E20000102030406070809020406080000000056
:103E3000010000000100000001000000010000007E
:103E40000000000000000000000000000000000072
:103E50000000000000000000000000000000000062
:083E6000000000000008004012
:0400000508000131BD
:00000001FF
