:020000040800F2
:1000000060060020B1010008D5040008FD030008C7
:10001000D104000863020008850600080000000003
:10002000000000000000000000000000F9040008CB
:10003000B902000800000000D704000821060008EB
:10004000CB010008CB010008CB010008CB01000860
:10005000CB010008CB010008CB010008CB01000850
:10006000CB010008CB010008CB010008CB01000840
:10007000CB010008CB010008CB010008CB01000830
:10008000CB010008CB010008CB010008CB01000820
:10009000CB010008CB010008CB010008CB01000810
:1000A000CB010008CB010008CB010008CB01000800
:1000B000CB010008CB010008CB010008CB010008F0
:1000C000CB010008CB010008CB010008CB010008E0
:1000D000CB010008CB010008CB010008CB010008D0
:1000E000CB010008CB010008CB010008CB010008C0
:1000F000CB010008CB010008CB010008CB010008B0
:10010000CB010008CB010008CB010008CB0100089F
:10011000CB010008CB010008CB010008CB0100088F
:10012000CB010008CB010008CB010008CB0100087F
:1001300000F002F800F02CF80AA090E8000C8244CD
:100140008344AAF10107DA4501D100F021F8AFF2AA
:10015000090EBAE80F0013F0010F18BFFB1A43F0A5
:100160000103184724060000340600000023002481
:1001700000250026103A28BF78C1FBD8520728BFB7
:1001800030C148BF0B6070471FB51FBD10B510BD13
:1001900000F031F81146FFF7F7FF00F075FA00F0B4
:1001A0004FF803B4FFF7F2FF03BC00F053F8000070
:1001B0000948804709480047FEE7FEE7FEE7FEE7FB
:1001C000FEE7FEE7FEE7FEE7FEE7FEE70448054937
:1001D000054A064B7047000025060008310100085B
:1001E0006000002060060020600200206002002005
:1001F000704770477047754600F028F8AE46050016
:100200006946534620F00700854618B020B5FFF731
:10021000DDFFBDE820404FF000064FF000074FF033
:1002200000084FF0000B21F00701AC46ACE8C00914
:10023000ACE8C009ACE8C009ACE8C0098D4670471D
:100240000446AFF300802046FFF7ABFF004870473D
:100250000000002001491820ABBEFEE72600020086
:10026000704700BFFEE7000010B52021074800F0EE
:10027000B8F8012804D12021044800F0BBF803E0BD
:100280002021024800F0B8F810BD0000000C014029
:1002900010B52021074800F0A4F8012804D120213E
:1002A000044800F0A7F803E02021024800F0A4F879
:1002B00010BD00000018014070472DE9F0410246D2
:1002C00000250026002000230024002791F803C009
:1002D0000CF00F0591F803C00CF0100CBCF1000FEE
:1002E00003D091F802C04CEA050591F800C0BCF1BA
:1002F000000F31D0146800202BE04FF0010C0CFAF5
:1003000000F3B1F800C00CEA03069E4220D183003E
:100310004FF00F0C0CFA03F7BC4305FA03FC4CEA50
:10032000040491F803C0BCF1280F06D14FF0010C72
:100330000CFA00FCC2F814C00AE091F803C0BCF14A
:10034000480F05D14FF0010C0CFA00FCC2F810C0A8
:10035000401C0828D1D31460B1F800C0BCF1FF0FD5
:1003600034DD546800202EE000F1080C4FF0010845
:1003700008FA0CF3B1F800C00CEA03069E4221D142
:1003800083004FF00F0C0CFA03F7BC4305FA03FC93
:100390004CEA040491F803C0BCF1280F05D100F128
:1003A000080C08FA0CF8C2F8148091F803C0BCF1EC
:1003B000480F07D100F1080C4FF0010808FA0CF8BB
:1003C000C2F81080401C0828CED35460BDE8F081EC
:1003D0000246002093680B400BB1012000E0002092
:1003E000704702460020D3680B400BB1012000E0AB
:1003F00000207047416170470161704700BFFEE710
:1004000008B501214C2000F067F81C20ADF8000071
:1004100048208DF8030069461748FFF74EFF01207A
:10042000ADF8000028208DF8030069461348FFF757
:1004300044FF2020ADF8000010208DF803000320B9
:100440008DF8020069460C48FFF737FF2020ADF811
:10045000000010208DF8030003208DF8020069468B
:100460000748FFF72AFF20210548FFF7C5FF202195
:100470000148FFF7C1FF08BD001801400008014016
:10048000000C014010B5002401210F48FFF7A0FF28
:10049000012801D144F0010404210C48FFF798FF22
:1004A00008B944F0020408210848FFF791FF08B991
:1004B00044F0040410210548FFF78AFF08B944F00E
:1004C0000804204610BD000000080140001801404B
:1004D00000BFFEE77047704729B1064A92690243A0
:1004E000044B9A6104E0034A92698243014B9A618A
:1004F0007047000000100240704710B500F002F88D
:1005000010BD00000CB50020019000903348006839
:1005100040F480303149086000BF3048006800F482
:10052000003000900198401C0190009818B9019883
:10053000B0F5A06FF1D12948006800F4003010B187
:100540000120009001E0002000900098012843D194
:100550002348006840F01000214908600846006800
:1005600020F0030008600846006840F002000860C0
:100570001A4840681949486008464068486008467B
:10058000406840F4806048600846406820F47C1071
:1005900048600846406840F4E81048600846006833
:1005A00040F08070086000BF0C48006800F00070E8
:1005B0000028F9D00948406820F003000749486046
:1005C0000846406840F00200486000BF03484068A9
:1005D00000F00C000828F9D10CBD0000001002400A
:1005E0000020024002460D484FF4FA535A4342603D
:1005F00000238360036843F00103036000BF0168C8
:1006000001F001031BB101F48033002BF7D000236C
:100610008360036823F001030360704710E000E08B
:100620007047000010B51348006840F00100114900
:10063000086008464068104908400E49486008466E
:1006400000680E4908400B4908600846006820F41D
:10065000802008600846406820F4FE0048604FF49F
:100660001F008860FFF749FF4FF0006004490860F1
:1006700010BD0000001002400000FFF8FFFFF6FE72
:1006800008ED00E000BFFEE70026002400250F274C
:10069000FFF7B6FE20213A48FFF7ACFE202139488B
:1006A000FFF7A8FE4FF4FA70FFF79CFF20213448B3
:1006B000FFF7A2FE20213348FFF79EFE4FF4FA70A9
:1006C000FFF790FF20212E48FFF794FE20212D48B0
:1006D000FFF790FE4FF4FA70FFF784FF20212848BF
:1006E000FFF78AFE20212748FFF786FE4FF4FA70B5
:1006F000FFF778FF20212248FFF77CFE20212148C8
:10070000FFF778FE4FF4FA70FFF76CFF20211C48CA
:10071000FFF772FE20211B48FFF76EFE2EE0FFF769
:10072000B1FE044607EA060000EA0405E043B043D0
:10073000F14361EA040139400843C7B2264605F097
:10074000020008B1FFF790FD05F0080008B1FFF7BF
:100750009FFD05F0040018B1FFF786FDFFF798FD37
:1007600005F0010038B120210548FFF743FE2021A4
:100770000448FFF73FFE0A20FFF734FFCFE70000F1
:10078000000C0140001801409807000800000020FC
:08079000600600006C01000886
:0400000508000131BD
:00000001FF
