:020000040800F2
:10000000A00E002079020008D11B0008231B000865
:10001000CD1B000811190008BB23000800000000D8
:10002000000000000000000000000000911D00081A
:100030001519000800000000591C0008A51E000842
:10004000930200089302000893020008930200083C
:100050009302000893020008611900089302000847
:100060007D19000899190008B519000893020008C5
:10007000930200089302000893020008930200080C
:1000800093020008930200089302000893020008FC
:1000900093020008930200089302000893020008EC
:1000A00093020008930200089302000893020008DC
:1000B00093020008930200089302000893020008CC
:1000C00093020008930200089302000893020008BC
:1000D00093020008412100089302000893020008DF
:1000E000930200089302000893020008930200089C
:1000F000930200089302000893020008930200088C
:10010000930200089302000893020008930200087B
:10011000930200089302000893020008930200086B
:10012000930200089302000893020008930200085B
:1001300000F002F800F090F80AA090E8000C824469
:100140008344AAF10107DA4501D100F085F8AFF246
:10015000090EBAE80F0013F0010F18BFFB1A43F0A5
:10016000010318474026000060260000103A24BF13
:1001700078C878C1FAD8520724BF30C830C144BF0C
:1001800004680C607047000000230024002500264E
:10019000103A28BF78C1FBD8520728BF30C148BFEA
:1001A0000B6070476E2900F0B581702900F0FF8266
:1001B000662902F08982652902F08682672902F0A9
:1001C00083826129AFF3008003681B0A28BF41F0D6
:1001D0008001692900F06281642900F05F8175293E
:1001E00000F05C816F2900F08D82782900F0CB82CD
:1001F000E92900F02782E42900F02482F52900F0A3
:100200002182EF2900F08A82F82900F0CA8203686F
:10021000DB0928BF41F08001632900F04C86732977
:1002200000F05186E32900F05C86F32900F0618636
:10023000002070471FB500F0ADFE04000020002133
:1002400002F02CFA401C60600020002102F010FA3D
:10025000E0601FBD10B510BD00F06FFE1146FFF746
:10026000E9FF02F0D9F900F047FF03B4FFF7F2FF0E
:1002700003BC00F08BFF0000094880470948004795
:10028000FEE7FEE7FEE7FEE7FEE7FEE7FEE7FEE746
:10029000FEE7FEE704480549054A064B70470000A3
:1002A000A91E000831010008A0080020A00E0020AF
:1002B000A00A0020A00A00207CB51D4616460C00AE
:1002C000009001D02044401E074B7B442A466946DB
:1002D0000190304600F037F905461CB10020694610
:1002E00000F044F928467CBDA902000040EA010361
:1002F00010B59B070FD1042A0DD310C808C9121FCF
:100300009C42F8D020BA19BA884201D9012010BD08
:100310004FF0FF3010BD1AB1D30703D0521C07E0D5
:10032000002010BD10F8013B11F8014B1B1B07D139
:1003300010F8013B11F8014B1B1B01D1921EF1D1AA
:10034000184610BD10B5431C02E010F8011B71B136
:100350008107FAD14FF0013202C88C1A8C4314EA9B
:10036000C211F9D0C01A0A0603D0C01E10BDC01AAF
:1003700010BD0A0401D0801E10BD0902FCD0401E31
:1003800010BD4FF0000200B5134694469646203942
:1003900022BFA0E80C50A0E80C50B1F12001BFF43E
:1003A000F7AF090728BFA0E80C5048BF0CC05DF8A4
:1003B00004EB890028BF40F8042B08BF704748BFF2
:1003C00020F8022B11F0804F18BF00F8012B704766
:1003D00070477047704770B5044685690068C1066C
:1003E00001D5302600E02026C00707D070BDD4E933
:1003F000012130469047206A401C20626D1EF6D5D0
:1004000070BD70B5044685690078C00707D170BD1E
:10041000D4E9012120209047206A401C20626D1EF3
:10042000F6D570BD09684A0501D540B27047C905C7
:10043000FCD500B2704709684A0501D5C0B27047C3
:10044000C905FCD580B2704770B50C460546012A37
:1004500005D02878800600D5EA69002302E0012350
:1004600005E05B1C934202D2E05C0028F9D1A86948
:10047000E618C01AA861286A184428622846FFF7BF
:10048000AAFF04E0D5E9012114F8010B9047B4421A
:10049000F8D32846FFF7B5FF70BD00002DE9F04105
:1004A0000646002410687529314616A510D0FFF7BE
:1004B000B9FF002802DA404213A507E031688A0735
:1004C00001D512A502E0490704D511A5012401E0D8
:1004D000FFF7B1FF00210A2206F1240709E0B0FB73
:1004E000F2FCB0FBF2F302FB1C00303078541846EB
:1004F000491C0028F3D123462A463046BDE8F04186
:1005000000F069BA000000002D0000002B00000080
:100510002000000011680268006A530501D50870C8
:100520000AE0D30501D5088006E0130603D5C217FB
:10053000C1E9000200E008600120704701694A1C1F
:1005400002610878704700B58FB0CDE90131002114
:10055000059105497944CDE903101146684600F03C
:1005600031F90FB000BD0000E5FFFFFF0A6802F897
:10057000010B0A607047D1E900239A4202D2531C52
:100580000B601070704700002DE9FF5F15468A462A
:100590000446DFF8AC80F8440027D8E900103E4656
:1005A000CDE9001010E03AF816106A4602A800F0F3
:1005B000A4FC411C07D02178890603D5E2693918CB
:1005C00091420DD80744761C2078800602D5E06958
:1005D000B84205DDAE42E6DB3AF816000028E2D16B
:1005E000A069C01BA0612046FFF7F5FED8E9001006
:1005F000CDE90010002017E03AF818106A4602A86A
:1006000000F07BFCB0F1FF3F81460BD000250DF1DF
:10061000080B05E0D4E901211BF8050090476D1C8B
:100620004D45F7D308F10100B0428046E4DB206A73
:10063000384420622046FFF7E4FEBDE8FF9F00003B
:10064000322100002DE9F0418046D21D22F0070240
:100650000025D2E90002F52915A614D0011E72F179
:10066000000106DA0023D0EB030063EB020211A6BF
:1006700008E0D8F800108B0701D50FA602E0490763
:1006800001D50EA601251146002408F1240704E037
:1006900000F05CF930323A55641C50EA0102F7D19F
:1006A0002B46324621464046BDE8F04100F093B962
:1006B000000000002D0000002B00000020000000C2
:1006C00030B4002100F1240408E002F00705D2084C
:1006D000303542EA4372DB086554491C52EA03058F
:1006E000F3D10468002310A2250708D504F02004E4
:1006F0000C4304D0C46901230CA2641EC46130BC45
:1007000000F069B910B5044621461068FFF793FE62
:1007100002462046BDE810400023D1E7D21D22F05A
:100720000701D1E90023CBE7000000003000000002
:10073000F0B40D460188090502D5214C7C4402E045
:100740001F4C7C440E34002100F1240608E002F026
:100750000F071209E75D42EA03721B097754491C2F
:1007600052EA0307F3D102780023120704D5702D53
:1007700006D009B1022311342246F0BC00F02BB997
:1007800001231034F8E770B504460D462146106881
:10079000FFF751FE024629462046BDE8704000237F
:1007A000C6E7D21D22F00703D3E90023C0E70368A0
:1007B000126843F0200303600823C3610023B7E7F6
:1007C000941F00002DE9F05F894604464FF0000AAF
:1007D000DFF874B1FB44C0F820A02046E1688847E8
:1007E000002874D0252806D0D4E901219047206A3A
:1007F000401C2062F1E700265F462046E1688847FA
:100800002028054607DB312D05D2781910F8200C79
:1008100008B10643F1E7B00701D526F00406C4F895
:100820001CA00027C4F818A02A2D09D0284601F0E2
:10083000EBFE38B304EB8708303DC8F8185019E0D8
:1008400059F8041B204604EB87029161E168884750
:10085000012F054618D1E069002820DA26F020068D
:100860001DE0D8F8180000EB800005EB40003038A0
:10087000C8F818002046E1688847054601F0C4FE24
:100880000028EED1012F0AD02E2D08D12046E16894
:1008900088477F1C0546022F46F02006C4DBA0696E
:1008A000002803DA404246F00106A061F00701D0BB
:1008B00026F010066C2D0BD0682D09D04C2D39D0A8
:1008C0006A2D35D0742D35D07A2D33D016E038E02E
:1008D000E1682F4620468847B842054609D16C2F6B
:1008E00026D04FF48060E1680643204688470546DD
:1008F00004E06C2F1AD04FF4807006430DB3A5F1BD
:100900004100192802D8203546F400664A46294697
:10091000204626604E46FFF745FC80B101280BD0EB
:10092000F61D26F0070000F1080956E74020E4E72D
:100930008020D8E70020D6E706F104094DE72846D5
:1009400052E7206ABDE8F09F241F000030B5B0F1E7
:100950000A024FEA900E71F100034EEA817EB0EB7D
:100960000E0061EB91014FEA101E4EEA017E10EB82
:100970000E0041EB11114FEA102E4EEA016E10EB02
:100980000E0041EB11214FEA104E4EEA014E10EBE2
:100990000E0041EB1141401841F100014FEAD00037
:1009A00040EA41704FEAD10110EB80054FEA810423
:1009B00044EA907444EB01046D1944EB0404521BA7
:1009C000A3414FF0000348BF0A3200D530BD401CA0
:1009D00041F1000130BD2DE9F0470D4699469246A0
:1009E000044600F124080168880604D5E06921F076
:1009F0001001216000E00120A84201DD471B00E05A
:100A00000027A1697A1902EB0900081AA061207871
:100A1000C00602D42046FFF7DEFC002608E0D4E939
:100A200001211AF806009047206A401C761C2062BB
:100A30004E45F4DB2078C0060AD52046FFF7CBFCF4
:100A400006E0D4E9012130209047206A401C206252
:100A5000381EA7F10107F4DC07E0D4E9012118F8FA
:100A600005009047206A401C2062281EA5F1010560
:100A7000F3DC2046FFF7C5FC2078000602D50220F3
:100A8000BDE8F0870120FBE770472DE9FF4F0C46DA
:100A90001E464FF0FF378BB0D2E90001DDF86080D1
:100AA0000A908A46C1F30A5505B93D460021084619
:100AB0004FF00000BAF1000F00F4400005DA00EB3F
:100AC00080004FF4400101EA50004FEA9059B9F11B
:100AD000010F00DDB9460A9850EA4A000ED044F6EC
:100AE0001050A5F2FF3545432F14B8F1000F1ED06A
:100AF0007542291E1EDDC9F100021CE0B8F1010F8C
:100B00004FF0000001D0302103E0F24305E0215412
:100B1000401CB042FBDB30460022002121540B99DF
:100B2000C1F80880C1E900200FB0BDE8F08FBD1BFF
:100B30006D1CDEE74A4600DA694206A800F06EFA4C
:100B400006AB93E8070003AB83E8070050460A9919
:100B500000F023FB8DE80700A0F500501F3800903F
:100B60000398002D09DD42F21F014A46084403A9FB
:100B70000390684600F082FD08E0A0F500504A4668
:100B80001F3803A90390684600F08CFD8DE807002C
:100B90000004000C03D04FF0FF30410800E0104685
:100BA000B8F1000F03D00022009215461EE0751E1A
:100BB00005D4FFF7CBFE303262556D1EF9D5B34632
:100BC0000122084302D000227F1C04E02078302854
:100BD00001D100227F1E002A099786D01DE0112D29
:100BE00007DAFFF7B3FE303262556D1C50EA01029E
:100BF000F5D1084302D00098C8B10EE00021681E6C
:100C000005E0235C625C63542254401E491C81420F
:100C1000F7DBAB46A81B401E0990002004F80B0030
:100C20000B98099AC0F80880C0E9002B7CE71126D0
:100C30004FF0000859E72DE9F04F88460446D21DD1
:100C400022F0070191B0D1E90001CDE90A0101F0DC
:100C5000C7FC02460B98C00F01D02D2007E020688A
:100C6000810701D52B2002E0202101EAC000032AE0
:100C7000099001D0072A05DB03464146204600F0D3
:100C80008DF90BE12078800601D5E06900E00620AF
:100C9000B8F1650F814606D0B8F1660F18D0B8F1EB
:100CA000670F70D131E00020B9F1110F009001DB26
:100CB000112301E009F101030AAA01A90CA8FFF719
:100CC000E4FEDDE90C70002609F10105834647E0EA
:100CD00001204B4600904FF000470AAA01A90CA83A
:100CE000FFF7D3FEDDE90DB00C995D46002610B983
:100CF00009F101000D18B9EB050003D4C0F1FF366E
:100D000009F10105A5EB09002BE0B9F1010F01DAAA
:100D10004FF001090020B9F1110F0090484601DDA4
:100D2000112300E003460AAA01A90CA8FFF7ADFEB3
:100D3000DDE90C704D4600268346207800070AD472
:100D4000AB4500DA5D4601A8012D04DD411911F81B
:100D5000011C302907D04F4502DA17F1040F04DADD
:100D6000012082460FE06D1EEEE7002F02DCED1B36
:100D70003E4403E0781CA84200DD7D1CB81B00F156
:100D8000010A4FF000472078000703D4AA4501DB91
:100D90004FF0FF3A0021B7F1004F0DF143088DF8F5
:100DA000431024D002202B23002F01DA7F422D2371
:100DB0000A21021EA0F1010000DC5FB197FBF1FCEB
:100DC00097FBF1F201FB1C7C17460CF1300C08F884
:100DD00001CDEEE7A8F1010003702188090501D5D6
:100DE000452100E06521A0F1010800F8011C0998E7
:100DF0000FA9A1EB0807FF1D00B10120411901EB6C
:100E0000EA70A1693844081A401EA0612078C00623
:100E100002D42046FFF7DFFA099828B1D4E901216E
:100E20009047206A401C20622078C00622D52046C8
:100E3000FFF7D1FA1EE0002E04DBB34502DD01A866
:100E4000805D00E03020D4E901219047206A401CF9
:100E50002062761CAAF101005FEA000A0AD100F0C4
:100E600099F8C0680168405CD4E901219047206A84
:100E7000401C2062281EA5F10105DCDC07E0D4E956
:100E8000012118F8010B9047206A401C2062381E8F
:100E9000A7F10107F3DC2046FFF7B3FA032011B0F6
:100EA00043E610B5436913B1AFF3008001E0FFF7EB
:100EB000CBFA012010BD127800F124010A70002243
:100EC0004A700122EDE711684FF0FF32E9E710B5F3
:100ED000436913B1AFF3008001E0FFF755FB012038
:100EE00010BD128800F1240182840022C2840122F4
:100EF000EDE711684FF0FF32E9E770B516460C4692
:100F0000054600F03FF8036893F80101012806D078
:100F1000FF2C0FD8185D68B101202C7070BDD3F87C
:100F200007013246214603F2071303442846BDE871
:100F3000704018474FF0FF3070BD754600F0E2F882
:100F4000AE4605006946534620F00700854618B0B6
:100F500020B5FFF79FF9BDE820404FF000064FF0A5
:100F600000074FF000084FF0000B21F00701AC46DE
:100F7000ACE8C009ACE8C009ACE8C009ACE8C009FD
:100F80008D46704710B500F005F8001D10BD00BF7C
:100F90000D17000000487047600800202DE9F0415F
:100FA0001F46044603260168072A01F4006004DB9B
:100FB00008B116A505E016A503E008B115A500E0E7
:100FC00015A521F010002060A069C01EA0610FB11E
:100FD000401EA0612046FFF7FEF94FB1D4E9012180
:100FE00038469047206A401C2062C01C206206E000
:100FF000206AFAE7D4E9012115F8010B9047761E23
:10100000F8D22046FFF7FDF9BDE8F0814E414E00D1
:101010006E616E00494E4600696E66002DE9F0472C
:10102000814616468AB0334878440DC88DE80D00D5
:1010300030487844801C03AC0DC884E80D0041F6AC
:101040009B300844372190FBF1F290FBF1F5A5F1BC
:10105000800501FB12041B3C02D56442012000E024
:101060000020DFF890A080460027FA44AAF1BE0ACB
:101070000DE0E00709D03246684607EB47010AEB6E
:10108000810100F00FFB8DE8070064107F1C002C2D
:10109000EFD1184F7F44AC3F18E0E80714D007EBBE
:1010A00004100DF1180A90E80E008AE80E00C068DE
:1010B000F04201D198190890324606A903A800F021
:1010C000F1FA03AB83E807006D10641C002DE4D136
:1010D00032466946B8F1000F03A802D000F0CEFAFC
:1010E00001E000F0DFFAC9E90001C9F808200AB000
:1010F000BDE8F087601700000446AFF3008020468B
:10110000FFF7B3F800487047400800204FF0013C5B
:1011100050F8042B51F8043B9A4221D1A2EB0C0366
:10112000934313EACC1317D150F8042B51F8043B26
:101130009A4215D1A2EB0C03934313EACC130BD1C3
:1011400050F8042B51F8043B9A4209D1A2EB0C034E
:10115000934313EACC13DBD04FF00000704700BF7D
:10116000D01A01BAB1FA81F101F0180122FA01F0A6
:10117000CB40C1F12001DBB2C0B2C01A2CFA01F39E
:10118000D11A914311EAC311E6D1704701491820E1
:10119000ABBEFEE72600020070475FEA400C08BFC6
:1011A00091F0000F4FEA8C234FEAC12243EA5151DC
:1011B0004FEA1C5018BF00F5F0404FEA300018BF4E
:1011C00041F000415FEA6C5C00F02980BCF1FF3F18
:1011D00008BF40F080407047130C06BF12044FF068
:1011E000100C4FF0000C130E04BF12020CF1080C8F
:1011F000130F04BF12010CF1040C930F04BF9200F3
:101200000CF1020CD30F04BF52000CF1010C11467B
:101210004FF00002A0F11F00A0EB0C00704711F08E
:10122000004F08BF704731F000413FF4D5AF0B0CC1
:1012300006BF09044FF0100C4FF0000C0B0E04BF5A
:1012400009020CF1080C0B0F04BF09010CF1040C8E
:101250008B0F04BF89000CF1020CCB0F04BF4900B7
:101260000CF1010CCCF12003A0EB0C0022FA03F3EB
:1012700002FA0CF241EA030100F10100704720F08C
:101280007F4C80EA030023F07F47ACEB070303F5B4
:101290007C5300F0004003F1FF032DE980494FEA41
:1012A000154B09B44FEA144325EA0B4E24EA0348D0
:1012B0000FF2042606EB132749083E785FEA320254
:1012C00003FB0667C7F5000707FB06F64FEA54372E
:1012D0004FEAD64606F1020607FB066CCCF1005C2D
:1012E0004FEA1C472CEA074C07FB06F40CFB06F5FB
:1012F00004EB15464FEA961634BF00204FF000402D
:101300004FEAD13706FB07FC4FEA1C4C0CFB0BF7EE
:10131000D21B03FB0CF761EB07010CFB0EF7B0EBE4
:10132000074072EB17420CFB08F734BFA2EB0742F1
:10133000B2EB074261EB17414FEA0C444FEA9107C9
:1013400006FB07FC4FEA1C4C0CFB0BF7B0EBC7404D
:1013500072EB573203FB0CF734BFA2EBC742B2EB80
:10136000C74261EB57310CFB0EF7B0EBC70072EBD5
:1013700057720CFB08F734BFA2EBC702B2EBC702EF
:1013800061EB5771039F4FEA816141EA921104EBCF
:10139000CC044FEAD1374FEA826206FB07FC42EAEF
:1013A00090124FEA80604FEA1C4C0CFB0BF7D21BEB
:1013B00003FB0CF761EB07010CFB0EF7B0EB0740EA
:1013C00072EB17420CFB08F734BFA2EB0742B2EBFB
:1013D000074261EB17414FEA8C554FEA910704EB46
:1013E0009C2406FB07FC4FEA1C4C0CFB0BF7B0EBF4
:1013F000C74072EB573203FB0CF734BFA2EBC74276
:10140000B2EBC74261EB57310CFB0EF7B0EBC700F4
:1014100072EB57720CFB08F734BFA2EBC702B2EBBA
:10142000C70261EB577115EB4C254FEA816141EA28
:1014300092114FEA82624FEAD13742EA901206FBDC
:1014400007FC44F100044FEA80604FEA1C4C0CFB9F
:101450000BF7D21B03FB0CF761EB07010CFB0EF73C
:10146000B0EB074072EB17420CFB08F734BFA2EB5E
:101470000742B2EB074261EB174115EB1C154FEA2F
:10148000813141EA92414FEA823242EA90424FEA88
:1014900080304FEA0C7644F1000448EA03434EEAF8
:1014A0000B484FF0000EB2EB080C71EB030724BFA2
:1014B000624639464EEB0E0E4FF0000B00185241BB
:1014C00049414BEB0B0BB2EB080C71EB03077BF1C3
:1014D000000B24BF624639464EEB0E0E4FF0000B58
:1014E0000018524149414BEB0B0BB2EB080C71EB6E
:1014F00003077BF1000B24BF624639464EEB0E0E0C
:1015000051EA020718BF46F0010616EB0E7655F1B8
:10151000000254F1000103D5BDE88901BDE800884F
:10152000BDE88901BDE80048B619524141EB01010F
:10153000A3F10103704780807F7E7D7C7B7A797880
:10154000777676757473727171706F6E6E6D6C6C88
:101550006B6A6A696868676666656464636362612A
:101560006160605F5F5E5E5D5D5C5C5B5B5A5A59AB
:101570005958585757565655555554545353525217
:101580005251515050504F4F4F4E4E4D4D4D4C4C6F
:101590004C4B4B4B4A4A4A494949484848474747B8
:1015A00047464646454545444444444343434342F5
:1015B000424242414141002B26D4770021D01CB544
:1015C0004FEA370703B44FF010004FF010014FF00F
:1015D00000000FBCBDE810400BF1010BBBF1010F87
:1015E00008BF5FEA170722BF12F1010211F10101E2
:1015F0004FF0004143F1000300F0004043EA0000D7
:101600007047F9D35708DAE746EA064613F1400F68
:101610004FEA16461FDD13F1200FDFBF16430A46BF
:10162000002120335B42C8D0C3F1200746EA0646BA
:1016300002FA07F74FEA164646EA0706C3F1200703
:1016400022FA03F201FA07F721FA03F14FF000033F
:1016500042EA0702B1E746EA020646EA06464FEAD0
:10166000164646EA0106BCBF46EA0646360C4FF06F
:1016700000034FF000024FF000019EE72DE9C04843
:10168000934630B491E8380007C831EA400C48BFAF
:1016900034EA430C03D5FFF7F2FDFFF78CFFF0BCF3
:1016A000BDE800882DE9C048934630B491E8380081
:1016B00007C810F0804F08BF13F0804F03D100F02F
:1016C00005F8FFF778FFF0BCBDE8008820F07F4701
:1016D00080EA030023F07F4C07EB0C03A3F57C5357
:1016E00000F00040A3F1FE0392F0000F00F0B38081
:1016F00095F0000F00F077802DE901494FEA114085
:101700004FEA144621EA004800FB06FC24EA06479B
:1017100008FB06F607FB08F800FB07F718EB06487E
:101720004CEB164C4FEA124B18EB07484FEA1546A4
:101730004CEB174022EA0B4E0BFB06FC25EA064752
:101740000EFB06F607FB0EFE0BFB07F71EEB064E25
:101750004CEB164C4FF000061EEB074E4CEB174BB4
:1017600018EB0B0840F1000018EB0E0B58EB0008CB
:1017700040F100008F1A4FF000013CBFC943661BC7
:1017800014BFB5EB040C00213CBFC943F61B4FEA64
:1017900017444EEA8E0E27EA04454FEA1C4704FB25
:1017A00007622CEA074C05FB07F70CFB05F604FB68
:1017B0000CFC16EB074642EB174216EB0C4642EBCD
:1017C0001C421BEB060658EB0202414146EA9E060C
:1017D00001D5BDE80189B619524141EB0101A3F1E0
:1017E0000103BDE801894FEA14454FEA114724EA95
:1017F000054621EA074C05FB07F406FB07F70CFB3F
:1018000006F105FB0CFC11EB074144EB17444FEAD2
:10181000124711EB0C4144EB1C4422EA074C05FB38
:1018200007F206FB07F70CFB06F605FB0CFC16EBB4
:10183000074642EB174216EB0C4642EB1C456A1872
:1018400054F1000148BF7047B619524141EB010104
:10185000A3F10103704795F0000F37D04FEA114212
:101860004FEA144721EA024624EA074C02FB07F13B
:1018700006FB07F70CFB06F402FB0CFC14EB074419
:1018800041EB17414FEA154714EB0C4441EB1C4167
:1018900025EA074C02FB07F506FB07F70CFB06F6EB
:1018A00002FB0CFC16EB074645EB174516EB0C4606
:1018B00045EB1C42121951F1000148BF7047B6199F
:1018C000524141EB0101A3F1010370474FEA144576
:1018D0004FEA114724EA054621EA074C05FB07F1C8
:1018E00006FB07F70CFB06F24FF0000605FB0CFCAD
:1018F00012EB074241EB174112EB0C4251EB1C413A
:1019000048BF7047921841EB0101A3F101037047F2
:1019100000BFFEE7704710B56FF0040000F0AEFAAC
:1019200010BD000002460D484FF4FA535A4342607E
:1019300000238360036843F00103036000BF016874
:1019400001F001031BB101F48033002BF7D0002319
:101950008360036823F001030360704710E000E038
:1019600010B5012000F03AF828B103490868804713
:10197000012000F02DF810BD2C08002010B5042027
:1019800000F02CF828B1034988688047042000F053
:101990001FF810BD2C08002010B5082000F01EF81C
:1019A00028B10349C8688047082000F011F810BD2D
:1019B0002C08002010B5102000F010F828B10349C1
:1019C00008698047102000F003F810BD2C080020A3
:1019D00001490860704700001404014001460020DE
:1019E0000022074B1B6803EA0102054B14331B68F6
:1019F0000B4013B10AB1012000E000207047000045
:101A0000000401402DE9F041024600250026002097
:101A100000230024002791F803C00CF00F0591F873
:101A200003C00CF0100CBCF1000F03D091F802C001
:101A30004CEA050591F800C0BCF1000F31D01468E4
:101A400000202BE04FF0010C0CFA00F3B1F800C0BD
:101A50000CEA03069E4220D183004FF00F0C0CFAD3
:101A600003F7BC4305FA03FC4CEA040491F803C0F5
:101A7000BCF1280F06D14FF0010C0CFA00FCC2F8A3
:101A800014C00AE091F803C0BCF1480F05D14FF033
:101A9000010C0CFA00FCC2F810C0401C0828D1D37D
:101AA0001460B1F800C0BCF1FF0F34DD54680020B1
:101AB0002EE000F1080C4FF0010808FA0CF3B1F821
:101AC00000C00CEA03069E4221D183004FF00F0CA8
:101AD0000CFA03F7BC4305FA03FC4CEA040491F842
:101AE00003C0BCF1280F05D100F1080C08FA0CF86E
:101AF000C2F8148091F803C0BCF1480F07D100F17F
:101B0000080C4FF0010808FA0CF8C2F81080401CCD
:101B10000828CED35460BDE8F0814161704701616F
:101B2000704700BFFEE7000008B50121482000F023
:101B3000A5F82020ADF8000010208DF80300032048
:101B40008DF8020069460948FFF75CFF202107482D
:101B5000FFF7E5FF2020ADF8000069460448FFF7D5
:101B600051FF20210248FFF7DAFF08BD000C0140B9
:101B70000018014010B5044604F0010018B12021FE
:101B80000548FFF7CCFF04F0020018B120210348FC
:101B9000FFF7C5FF10BD0000000C01400018014018
:101BA00010B5044604F0010018B120210548FFF7E4
:101BB000B4FF04F0020018B120210348FFF7ADFF85
:101BC00010BD0000000C01400018014000BFFEE7FE
:101BD0007047000070B5002100230F22C47804B3C1
:101BE000154C246804F4E064C4F5E064210AC1F1F2
:101BF0000403CA40447804FA03F184781440214372
:101C000009010E4C0678A155047804F01F05012443
:101C1000AC4005786D11AD0005F1E025C5F8004137
:101C200009E0047804F01F050124AC40044D067857
:101C3000761145F8264070BD0CED00E000E400E0B0
:101C400080E100E002490143024A11607047000050
:101C50000000FA050CED00E07047000029B1064ACB
:101C600012690243044B1A6104E0034A1269824379
:101C7000014B1A61704700000010024029B1064A6A
:101C800092690243044B9A6104E0034A92698243D9
:101C9000014B9A61704700000010024029B1064ACA
:101CA000D2680243044BDA6004E0034AD2688243FC
:101CB000014BDA60704700000010024030B500218F
:101CC0000022002400232D4D6D6805F00C0121B188
:101CD000042905D0082923D105E0294D056022E01B
:101CE000274D05601FE0254D6D6805F47012234DEA
:101CF0006D6805F48034022505EB92421CB9214D34
:101D0000554305600BE01D4D6D6805F400351DB1B0
:101D10001C4D5543056002E0194D5543056002E036
:101D2000174D056000BF00BF144D6D6805F0F00150
:101D30000909154D6B5C0568DD4045600F4D6D6808
:101D400005F4E061090A104D6B5C4568DD40856073
:101D50000A4D6D6805F46051C90A0B4D6B5C45680E
:101D6000DD40C560054D6D6805F44041890B074DA8
:101D70006B5CC568B5FBF3F5056130BD0010024032
:101D800000127A0000093D00000000201000002031
:101D9000704710B500F002F810BD00000CB500202F
:101DA000019000903348006840F480303149086069
:101DB00000BF3048006800F4003000900198401CDB
:101DC0000190009818B90198B0F5A06FF1D1294899
:101DD000006800F4003010B10120009001E0002004
:101DE00000900098012843D12348006840F010007B
:101DF000214908600846006820F003000860084692
:101E0000006840F0020008601A48406819494860BC
:101E10000846406848600846406840F48060486072
:101E20000846406820F47C1048600846406840F44A
:101E3000E81048600846006840F08070086000BF05
:101E40000C48006800F000700028F9D0094840688C
:101E500020F00300074948600846406840F002004F
:101E6000486000BF0348406800F00C000828F9D122
:101E70000CBD00000010024000200240042808D1E0
:101E80004FF0E021096941F004014FF0E0221161B7
:101E900007E04FF0E021096921F004014FF0E02252
:101EA000116170477047000010B51348006840F09A
:101EB00001001149086008464068104908400E4971
:101EC0004860084600680E4908400B49086008460B
:101ED000006820F4802008600846406820F4FE0076
:101EE00048604FF41F008860FFF753FF4FF0006019
:101EF0000449086010BD0000001002400000FFF817
:101F0000FFFFF6FE08ED00E010B586B004460121A3
:101F100044F20400FFF7B2FE254800F059F94FF4EF
:101F20000070ADF8040018208DF8070003208DF82C
:101F3000060001A91F48FFF765FD4FF48060ADF86A
:101F4000040004208DF8070001A91A48FFF75AFD84
:101F500002940020ADF80C00ADF80E00ADF81000B2
:101F6000ADF814000C20ADF8120002A9104800F0E2
:101F7000AFF94FF4A060FFF765FE25208DF8000053
:101F800003208DF801008DF8020001208DF8030078
:101F90006846FFF71FFE012240F22551044800F079
:101FA00072F90121024800F007F906B010BD0000E7
:101FB000003801400008014003480078002801DD96
:101FC000012070470020FCE7140000200FB438B552
:101FD00005A800904FF400710748009B049AFEF793
:101FE0006BF90446002000902146034800F038F8C1
:101FF00038BC5DF814FB00002C04002010B502462C
:10200000002000BF124B1B78002BFBD000201BE0F0
:10201000104B1B68104C2468A34200D316E00D4BF4
:102020001B88C3F308030D4CE35C1354094B1B6876
:102030005B1C084C2360135C2BB9054B1B785B1EA3
:10204000034C237002E0401C8842E1DB00BF10BD5E
:1020500014000020180000201C0000202C0000208C
:1020600070B506460D463148007800284BD014E084
:1020700000BF40212E4800F0F9F80128F9D12D4881
:102080000088C0F308002C4A115C294800F091F93F
:1020900028480068401C27490860284800682549EE
:1020A0000968401A2844B0F5007FE1D82348006849
:1020B00020490968884214D900BF40211C4800F01B
:1020C000D5F80128F9D11B480088C0F308001A4A46
:1020D000115C174800F06DF916480068401C15495E
:1020E000086000240CE0305D14490988C1F3080140
:1020F000114A505411480068401C10490860641C83
:10210000AC42F0DB0FE000240BE000BF40210848A8
:1021100000F0ACF80128F9D1315D054800F049F92B
:10212000641CAC42F1DB284670BD00002800002092
:1021300000380140200000202C0600202400002050
:1021400010B5194800F030F904460D2C06D1174897
:102150000078401C15490870002410E00A2C0ED1AC
:1021600013480088401EC0F308001249085C00B9FB
:1021700010BD0E480078401C0C4908700024E1B2E4
:102180000B480088C0F308000A4A11540848008828
:10219000C0F3080000F50070115405480068401CA9
:1021A0000349086000BFE3E7003801401400002045
:1021B0001C0000202C00002021B1828942F4005232
:1021C000828104E082894DF6FF731A408281704754
:1021D00010B504462048844209D101218803FFF745
:1021E0005DFD00214FF48040FFF758FD32E01B48B1
:1021F000844209D101214804FFF730FD00214FF44A
:102200000030FFF72BFD25E01548844209D101215C
:102210008804FFF723FD00214FF48020FFF71EFD07
:1022200018E01048844209D10121C804FFF716FDC7
:1022300000214FF40020FFF711FD0BE00A48844213
:1022400008D101210805FFF709FD00214FF4801096
:10225000FFF704FD10BD00000038014000440040BD
:1022600000480040004C0040005000400246002062
:10227000B1F5007F00D100BF13880B400BB10120E6
:1022800000E000207047F0B503460024002600253A
:10229000002040F66A17B94200D100BF1846C1F3CA
:1022A000421401F01F06012707FA06F5012C01D19F
:1022B0000C3004E0022C01D1103000E014301AB1CF
:1022C00007682F43076002E00768AF430760F0BD6F
:1022D0002DE9F04786B005460E460024A24600BF11
:1022E000A1460027B08900B100BF2F462C8A4CF6CA
:1022F000FF700440F08804432C82AC894EF6F31042
:102300000440B08831890843718908430443AC8193
:10231000AC8A4FF6FF400440B0890443AC8201A868
:10232000FFF7CCFC1F48874202D1DDF810A001E086
:10233000DDF80CA0A88900F4004040B10AEBCA0007
:1023400000EB0A1031684900B0FBF1F807E00AEB36
:10235000CA0000EB0A1031688900B0FBF1F8642074
:10236000B8FBF0F004012009642101FB1089A88961
:1023700000F4004040B1322000EBC900B0FBF1F0A6
:1023800000F00700044308E0322000EB091064214C
:10239000B0FBF1F000F00F0004432C8106B0BDE863
:1023A000F08700000038014001468888C0F308002B
:1023B0007047C1F308028280704700BFFEE700004B
:1023C00010B54FF4E130FFF79FFD1DA0FFF7FEFDB4
:1023D0000A211EA000F0ACF808B1012010BD4FF496
:1023E0009670FFF79FFA1BA0FFF7F0FD03211EA0D8
:1023F00000F09EF808B10120F0E74FF49670FFF767
:1024000091FA1AA21DA120A0FFF7E0FD0A2116A053
:1024100000F08EF808B10120E0E74FF49670FFF766
:1024200081FA45F625321FA122A0FFF7CFFD032137
:102430000DA000F07DF808B10120CFE70020CDE726
:1024400041542B5253540D0A000000007265616420
:102450007900000041542B43574D4F44455F43558D
:10246000523D310D0A0000004F4B000048555354B7
:1024700032303134405959313231000048555354CB
:10248000403132310000000041542B43574A415043
:102490005F4355523D222573222C222573220D0ABB
:1024A000000000003139322E3136382E312E3130D5
:1024B0003600000041542B43495053544152543D7F
:1024C00022544350222C222573222C25640D0A000D
:1024D00070B504460D4629460EA0FFF777FD0A2188
:1024E00010A000F025F808B1012070BD0120FFF711
:1024F00057FB29462046FFF7B3FD0220FFF750FBAC
:102500000A2109A000F014F808B10120EDE700202D
:10251000EBE7000041542B43495053454E443D25C1
:10252000640D0A004F4B000053454E44204F4B00B2
:102530002DE9F04788B006460F4600BF3046FDF74C
:1025400001FF8246254C4FF4FA5909EB89004FEA06
:1025500040094FF0010832E0C4F804900020A06068
:10256000206840F00100206000BFFFF725FDE0B1CA
:1025700000BF20216846FDF704FF20216846FFF7D1
:102580003DFD524631466846FDF7B0FE48B9002091
:10259000A060206820F001002060002008B0BDE8A5
:1025A000F087FFF709FD0028E3D1256805F0010059
:1025B00018B105F480300028D7D008F1010807EBE6
:1025C000C70000EB0710B8EB800FC5DD0020A0604E
:1025D000206820F0010020600120DFE710E000E02B
:1025E000490050EAC12018BF04204A0D18BF40F02E
:1025F000010040F2FF72B2EB515F08BF40F00200F1
:10260000012808BF0520704730380A2801D2012070
:102610007047002070470000FFF77DF9FFF784FA4C
:1026200000BF0120FFF7BCFA02E06420FFF77AF94F
:10263000FFF7C6FE0028F8D10120FFF79BFA00BF84
:102640000220FFF7ADFA082106A0FFF741FF18B1FD
:102650000220FFF78FFA03E00220FFF78BFAEFE783
:10266000DFE700003132333435360D0A0000000058
:1026700010B500290AD00878002807D0054878440A
:10268000FEF744FD002801D0002010BD0248784428
:1026900010BD0000460100003E01000010B50029F9
:1026A0000AD00878002807D005487844FEF72EFDA8
:1026B000002801D0002010BD0248784410BD000061
:1026C000360100002E010000FEF7B5BA0000000040
:1026D000000000003031323334353637383941426A
:1026E0004344454640305800303132333435363774
:1026F0003839616263646566403078000400000820
:1027000000000000000000020001000010000000B6
:1027100002400000000000A0000000000540000092
:10272000000000C8000000000C4000000000409CB9
:1027300000000000194000000020BCBE00000000A6
:1027400034400000BFC91B8E00000004B5400000EB
:10275000504BCFD06607E2CF010000006C41000073
:102760003E8251AADFEEA73401000000D9420000EA
:10277000DCB5A0E23A301F97FFFFFFFFB445000031
:10278000FD25A0C8E9A3C14FFFFFFFFFFF3F0000E9
:102790000000008000000000FF3F000000000080FB
:1027A00000000000F0280008000000202C000000BD
:1027B0006C0100081C2900082C000020740E000089
:1027C000880100081C00000043000000F8FFFFFF24
:1027D0000C0000000E0000000F0000002E000000A2
:1027E0001001000043000000F8FFFFFF00404040E0
:1027F00040404040404041414141414040404040D4
:10280000404040404040404040404040400502027F
:10281000020202020202020202020202022020203E
:10282000202020202020200202020202020290909A
:102830009090909010101010101010101010101098
:1028400010101010101010100202020202028888EC
:1028500088888888080808080808080808080808F8
:1028600008080808080808080202020240000000E0
:102870000000000000000000000000000000000058
:102880000000000000000000000000000000000048
:102890000000000000000000000000000000000038
:1028A0000000000000000000000000000000000028
:1028B0000000000000000000000000000000000018
:1028C0000000000000000000000000000000000008
:1028D00000000000000000000000000000000000F8
:1028E00000000000000000000000000000000000E8
:1028F00000000000010203040102030406070809A6
:1029000002040608000000000100000001000000B1
:0C291000010000000100000000000000B9
:0400000508000131BD
:00000001FF
