:020000040800F2
:1000000098180020D1010008F504000885040008B4
:10001000F10400087B020008C10E00080000000087
:10002000000000000000000000000000AD08000813
:100030007F02000800000000690500084D09000863
:10004000E7010008E7010008E7010008E7010008F0
:10005000E7010008E7010008E7010008E7010008E0
:10006000E7010008E7010008E7010008E7010008D0
:10007000E7010008E7010008E7010008E7010008C0
:10008000E7010008E7010008E7010008E7010008B0
:10009000E7010008E7010008E7010008E7010008A0
:1000A000E7010008E7010008E7010008E701000890
:1000B00051090008E7010008E7010008E70100080E
:1000C000E7010008E7010008E7010008E701000870
:1000D000E7010008A1090008E7010008E70100089E
:1000E000E7010008E7010008E701000800F002F856
:1000F00000F05EF80AA090E8000C82448344AAF164
:100100000107DA4501D100F053F8AFF2090EBAE861
:100110000F0013F0010F18BFFB1A43F0010318473B
:10012000601000008010000010F8013B0A4413F03A
:10013000030408BF10F8014B1D1108BF10F8015B44
:10014000641E05D010F8016B641E01F8016BF9D133
:10015000002D15D010F8014B03F00C030C2BA1EB74
:1001600004040ABF10F8013BA4EB8314A4EB03249E
:1001700005F1010314F8016B5B1E01F8016BF9D561
:10018000914238BF10F8013BD1D3704700230024BF
:1001900000250026103A28BF78C1FBD8520728BF97
:1001A00030C148BF0B6070471FB51FBD10B510BDF3
:1001B00000F02DF81146FFF7F7FF00F083FE00F086
:1001C0004BF803B4FFF7F2FF03BC00F04FF8000058
:1001D00008480047FEE7FEE7FEE7FEE7FEE7FEE72A
:1001E000FEE7FEE7FEE7FEE703480449044A054B45
:1001F00070470000ED0000089812002098180020B9
:100200009814002098140020704770477047754676
:1002100000F028F8AE4605006946534620F0070076
:10022000854618B020B5FFF7DFFFBDE820404FF04E
:1002300000064FF000074FF000084FF0000B21F0D0
:100240000701AC46ACE8C009ACE8C009ACE8C0099D
:10025000ACE8C0098D4670470446AFF300802046E5
:10026000FFF7AFFF004870473812002001491820FF
:10027000ABBEFEE726000200704700BFFEE77047F6
:1002800010B56FF0040000F04DFB10BD00BF4FF43F
:10029000FA5100BF491E0029FCD1401E0028F6D1AA
:1002A000704700000549096821F01001034A1160F8
:1002B00011460968014311607047000000200240A8
:1002C00001460020034A106800F03800084310601F
:1002D00070470000002002402DE9F0410246002551
:1002E0000026002000230024002791F803C00CF012
:1002F0000F0591F803C00CF0100CBCF1000F03D0F7
:1003000091F802C04CEA050591F800C0BCF1000F5D
:1003100031D0146800202BE04FF0010C0CFA00F3F0
:10032000B1F800C00CEA03069E4220D183004FF0D2
:100330000F0C0CFA03F7BC4305FA03FC4CEA040467
:1003400091F803C0BCF1280F06D14FF0010C0CFA54
:1003500000FCC2F814C00AE091F803C0BCF1480FD9
:1003600005D14FF0010C0CFA00FCC2F810C0401C83
:100370000828D1D31460B1F800C0BCF1FF0F34DD00
:10038000546800202EE000F1080C4FF0010808FA34
:100390000CF3B1F800C00CEA03069E4221D18300A1
:1003A0004FF00F0C0CFA03F7BC4305FA03FC4CEAC0
:1003B000040491F803C0BCF1280F05D100F1080C2A
:1003C00008FA0CF8C2F8148091F803C0BCF1480F89
:1003D00007D100F1080C4FF0010808FA0CF8C2F838
:1003E0001080401C0828CED35460BDE8F081000086
:1003F000F0B50A46002300240021002500F0004645
:10040000B6F1004F02D11D4EF16901E01B4E71683B
:10041000C0F3034583B200F44016B6F5401F08D17F
:1004200021F07061154E766826F07066134F7E607D
:1004300012E000F48016B6F5801F06D1032606FAF6
:1004400005F4A14341F0706106E0460D360103FA60
:1004500006F6B14341F0706122B1460D360103FA50
:1004600006F6314300F00046B6F1004F02D1034ECC
:10047000F16101E0014E7160F0BD0000000001403B
:100480000161704700BFFEE708B501211548FFF77D
:10049000AFFF01211448FFF7ABFF0121102000F04E
:1004A00075F8FF20ADF8000014208DF8030003203C
:1004B0008DF8020069460D48FFF70EFF4FF47F40AC
:1004C000ADF8000010208DF8030003208DF8020025
:1004D00069460648FFF700FF4FF6FF710348FFF734
:1004E000CFFF08BD000430000002300000100140C2
:1004F00000BFFEE77047000070B5002100230F2207
:10050000C47804B3154C246804F4E064C4F5E064D2
:10051000210AC1F10403CA40447804FA03F1847843
:100520001440214309010E4C0678A155047804F0CB
:100530001F050124AC4005786D11AD0005F1E025E3
:10054000C5F8004109E0047804F01F050124AC401F
:10055000044D0678761145F8264070BD0CED00E09C
:1005600000E400E080E100E07047000029B1064AA5
:1005700012690243044B1A6104E0034A1269824380
:10058000014B1A61704700000010024029B1064A71
:1005900092690243044B9A6104E0034A92698243E0
:1005A000014B9A61704700000010024029B1064AD1
:1005B000D2680243044BDA6004E0034AD268824303
:1005C000014BDA6070470000001002400F480068DD
:1005D00040F001000D490860084640680C49084099
:1005E0000A494860084600680A4908400749086007
:1005F0000846006820F4802008600846406820F41F
:10060000FE0048604FF41F008860704700100240F1
:100610000000FFF8FFFFF6FE30B5002100220024A5
:1006200000232D4D6D6805F00C0121B1042905D082
:10063000082923D105E0294D056022E0274D0560FA
:100640001FE0254D6D6805F47012234D6D6805F4AB
:100650008034022505EB92421CB9214D55430560BB
:100660000BE01D4D6D6805F400351DB11C4D554363
:10067000056002E0194D5543056002E0174D056025
:1006800000BF00BF144D6D6805F0F0010909154D5C
:100690006B5C0568DD4045600F4D6D6805F4E061F9
:1006A000090A104D6B5C4568DD4085600A4D6D6838
:1006B00005F46051C90A0B4D6B5C4568DD40C560AF
:1006C000054D6D6805F44041890B074D6B5CC568AD
:1006D000B5FBF3F5056130BD0010024000127A0051
:1006E00000093D001E0200202E02002010B5014628
:1006F0000022002300204A11012A02D1094C23685C
:1007000006E0022A02D1074C236A01E0054C636A25
:1007100001F01F02012494401C400CB1012000E0B4
:10072000002010BD001002400248406800F00C009C
:10073000704700000010024001460020034A506844
:1007400020F0F000084350607047000000100240A5
:100750001149096821F480310F4A11601146096876
:1007600021F480211160B0F5803F03D0B0F5802FD7
:100770000ED106E00849096841F48031064A11604B
:1007800007E00549096841F4A021034A116000E02F
:1007900000BF00BF704700000010024010B5FFF717
:1007A00015FF4FF48030FFF7D3FF00F063F8012806
:1007B00026D10020FFF7C0FF002000F02FF84FF4F3
:1007C000806000F01FF80220FFF77AFD1020FFF78D
:1007D00069FD4FF4E0114FF4803000F031F8012052
:1007E00000F028F800BF3920FFF780FF0028FAD07A
:1007F000022000F033F800BFFFF796FF0828FBD176
:1008000010BD000001460020034A506820F4E0605B
:10081000084350607047000000100240014600206D
:10082000034A506820F4605040EAC10050607047AD
:100830000010024001490866704700000000424273
:1008400002460020044B586820F47C1042EA010361
:100850001843014B586070470010024001460020C9
:10086000034A506820F003000843506070470000BE
:100870000010024038B5002000900024002500BF81
:100880003120FFF733FF05460098401C0090009888
:10089000B0F5A06F01D0002DF2D03120FFF726FF78
:1008A00008B1012400E00024204638BD7047000054
:1008B00070B500241848056828E00A2095FBF0F17F
:1008C00000FB11501549095CC4F10702012090405A
:1008D00040EA01204FF6FF71484086B20CB986F419
:1008E00000460F48C06800200D49C8600846C0682F
:1008F0003043C8600A2095FBF0F5641C0220FFF726
:10090000C5FC0748C06800200549C860072CD4DD35
:10091000002DD2DC70BD00003402002070110008F0
:1009200000100140042808D14FF0E021096941F08E
:1009300004014FF0E022116107E04FF0E021096966
:1009400021F004014FF0E022116170477047000070
:1009500010B50121880700F012F848B1012188077D
:1009600000F00AF80348006810B1024800688047A8
:1009700010BD000000000020CA430282704730B55D
:100980000246002000230024158A05EA0103958908
:1009900005EA010413B10CB1012000E0002030BDD4
:1009A00010B50821304800F0DBF830B12E4800F0D7
:1009B00005FA08212C4800F061F804212A4800F0CB
:1009C000CFF818B10421284800F058F80221264831
:1009D00000F0C6F818B10221234800F04FF80121B9
:1009E000214800F0BDF818B101211F4800F046F879
:1009F00040F225511C4800F0C0F860B140F225518A
:100A0000194800F044F8184800F0D8F9C4B220465C
:100A100000F094FA26E040F22771134800F0ADF898
:100A200000B31248006812490968884211D00F4883
:100A30000088C0F30A000F490C5C44F4807421461E
:100A4000094800F0C0F909480068401C07490860DF
:100A500008E0002240F22771034800F0B8F80020B7
:100A60000549087010BD0000003801400800002052
:100A70000C000020380200201400002001F4007255
:100A8000B2F5007F00D100BFCA430280704710B5A5
:100A90000022002340F66A14A14200D100BF0A12CE
:100AA00001249440A3B2DC43048010BD21B18289AB
:100AB00042F40052828104E082894DF6FF731A40AD
:100AC0008281704710B504462048844209D1012133
:100AD0008803FFF76BFD00214FF48040FFF766FDB0
:100AE00032E01B48844209D101214804FFF73EFD52
:100AF00000214FF40030FFF739FD25E0154884420E
:100B000009D101218804FFF731FD00214FF4802035
:100B1000FFF72CFD18E01048844209D10121C804D8
:100B2000FFF724FD00214FF40020FFF71FFD0BE02D
:100B30000A48844208D101210805FFF717FD00216A
:100B40004FF48010FFF712FD10BD00000038014087
:100B50000044004000480040004C0040005000406D
:100B600002460020B1F5007F00D100BF13880B4082
:100B70000BB1012000E00020704770B50246002450
:100B800000230025002040F66A16B14200D100BFC4
:100B9000C1F3421501F01F03012606FA03F3012DEC
:100BA00002D19689334006E0022D02D1168A3340E5
:100BB00001E0968A33400C12012606FA04F41688E6
:100BC000344013B10CB1012000E0002070BDF0B53D
:100BD0000346002400260025002040F66A17B9428B
:100BE00000D100BF1846C1F3421401F01F060127CF
:100BF00007FA06F5012C01D10C3004E0022C01D1DA
:100C0000103000E014301AB107682F43076002E08B
:100C10000768AF430760F0BD2DE9F04786B0054691
:100C20000E460024A24600BFA1460027B08900B1AD
:100C300000BF2F462C8A4CF6FF700440F088044316
:100C40002C82AC894EF6F3100440B08831890843F9
:100C5000718908430443AC81AC8A4FF6FF400440DD
:100C6000B0890443AC8201A8FFF7D6FC1F48874235
:100C700002D1DDF810A001E0DDF80CA0A88900F495
:100C8000004040B10AEBCA0000EB0A10316849008D
:100C9000B0FBF1F807E00AEBCA0000EB0A1031687C
:100CA0008900B0FBF1F86420B8FBF0F004012009E2
:100CB000642101FB1089A88900F4004040B1322072
:100CC00000EBC900B0FBF1F000F00700044308E0BE
:100CD000322000EB09106421B0FBF1F000F00F00AE
:100CE00004432C8106B0BDE8F087000000380140C5
:100CF00000B587B0012144F20400FFF747FC294802
:100D0000FFF7E0FE4FF40070ADF8080018208DF8F2
:100D10000B0003208DF80A0002A92348FFF7DCFA34
:100D20004FF48060ADF8080004208DF80B0002A994
:100D30001D48FFF7D1FA4FF4E13003900020ADF8E1
:100D40001000ADF81200ADF81400ADF818000C203A
:100D5000ADF8160003A91348FFF75EFF25208DF8B4
:100D6000040000208DF805008DF8060001208DF8A4
:100D7000070001A8FFF7C0FB012240F225510948F6
:100D8000FFF725FF01210748FFF790FE01200749E3
:100D90000860074908600020064908600649087095
:100DA00007B000BD003801400008014008000020E5
:100DB0000C0000201000002014000020014688884C
:100DC000C0F308007047C1F308028280704700003A
:100DD0002DE9F04705460C461646C4F30A0405F013
:100DE0001F0544EAC5282146304600F08FF88146A9
:100DF00002212F4802880068401C2D4B1860C2F366
:100E00000A002C4A11544FEA28211846028800682B
:100E1000401C1860C2F30A00264A11541846018883
:100E20000068401C1860C1F30A00114601F80080F8
:100E300000270CE0F15D1E4802880068401C1C4B36
:100E40001860C2F30A001B4A1154781C87B2A742EB
:100E5000F0DB4FEA2921164802880068401C144B39
:100E60001860C2F30A00134A11541846018800683A
:100E7000401C1860C1F30A00114601F800900321DC
:100E8000184602880068401C1860C2F30A00094A2C
:100E900011540948007840B901200749087001221F
:100EA00040F227710548FFF792FEBDE8F087000089
:100EB0000C000020380200201400002000380140FF
:100EC00000BFFEE7FFF76AFCFFF7DEFAFFF7D8F98D
:100ED000FFF70EFF08A208210720FFF779FF002483
:100EE00008480949086000BFFFF7E2FC641C642C55
:100EF000FADB0024F8E70000474F474F474F212116
:100F0000000000004E61BC003402002010B5024613
:100F10004FF6FF700AE012F8014B84EA2023DBB29F
:100F2000054C34F8133083EA002398B20B1EA1F16C
:100F30000101F0DC10BD00001E00002010B50446C9
:100F40006348007858B9022C05D062A21221012012
:100F5000FFF73EFFBBE001205D490870B7E05C4849
:100F60000078012812D10820B0EBE40F08DC5EA263
:100F700012210120FFF72CFF002055490870A6E040
:100F80005D480480022052490870A0E05048007873
:100F900002282CD15848007844EA0020564908809D
:100FA00008460088C00A5549087053480088C0F3B5
:100FB0000A005349088000205249088050480088A0
:100FC00040B90420424908704FA215210720FFF7BD
:100FD000FFFE07E003203E49087051A215210720BB
:100FE000FFF7F6FE4FF6FF70534908806FE0384870
:100FF000007803281FD1434801880088401C414ADB
:1010000010804E4844544C48008884EA2020C0B2E6
:101010004B4931F810004849097880EA01204649D7
:101020000880104600883649098888424FDB042032
:10103000274908704BE026480078042811D13E4823
:10104000008884EA2020C0B23D4931F810003A49B6
:10105000097880EA01203849088005201C49087079
:1010600035E01B48007805281DD13348008884EA04
:101070002020C0B2324931F810002F49097880EAA7
:1010800001202D4908800846008840B12DA2112179
:101090000120FFF79DFE00200D49087017E0062093
:1010A0000B49087013E00A48007806280FD1032C7A
:1010B00005D029A210210120FFF78AFE04E02BA20F
:1010C00002210020FFF784FE00200149087010BDB6
:1010D000040000204572726F722073746172742074
:1010E0006672616D652E00004572726F72206F70BE
:1010F000657261746F722E00160000201A000020C5
:10110000060000201C00002052656365697665209A
:1011100068656164206672616D652E203100000093
:1011200052656365697665206865616420667261F1
:101130006D652E203200000018000020380A0020C3
:101140001E00002043524320636865636B20666184
:10115000696C65642E0000004572726F7220656EC6
:1011600064206672616D652E000000004F4B000028
:101170003F065B4F666D7D077F6FFF0000FF00003D
:10118000A01100080000002038020000280100081B
:10119000C013000838020020601600008C0100080F
:1011A000021D000100FF002110422063308440A591
:1011B00050C660E770088129914AA16BB18CC1AD1E
:1011C000D1CEE1EFF13112100273325222B55294B6
:1011D00042F772D662399318837BB35AA3BDD39C6E
:1011E000C3FFF3DEE36224433420040114E664C742
:1011F00074A44485546AA54BB528850995EEE5CFBE
:10120000F5ACC58DD55336722611163006D776F655
:10121000669556B4465BB77AA719973887DFF7FE0D
:10122000E79DD7BCC7C448E5588668A778400861E1
:101230001802282338CCC9EDD98EE9AFF94889695D
:10124000990AA92BB9F55AD44AB77A966A711A50F5
:101250000A333A122AFDDBDCCBBFFB9EEB799B58AD
:101260008B3BBB1AABA66C877CE44CC55C222C0381
:101270003C600C411CAEED8FFDECCDCDDD2AAD0BFD
:10128000BD688D499D977EB66ED55EF44E133E3295
:101290002E511E700E9FFFBEEFDDDFFCCF1BBF3A4D
:1012A000AF599F788F00FF008891A981CAB1EBA147
:1012B0000CD12DC14EF16FE18010A100C230E320AE
:1012C0000450254046706760B9839893FBA3DAB356
:1012D0003DC31CD37FE35EF3B1029012F322D232FE
:1012E0003542145277625672EAB5CBA5A895898526
:1012F0006EF54FE52CD50DC5E234C324A01481044E
:101300006674476424540544DBA7FAB79987B897F5
:101310005FE77EF71DC73CD7D326F2369106B0169D
:1013200057667676154634564CD96DC90EF92FE9B5
:10133000C899E9898AB9ABA94458654806782768ED
:10134000C018E1088238A3287DCB5CDB3FEB1EFB95
:10135000F98BD89BBBAB9ABB754A545A376A167A3D
:10136000F10AD01AB32A923A2EFD0FED6CDD4DCD65
:10137000AABD8BADE89DC98D267C076C645C454C8D
:10138000A23C832CE01CC10C1FEF3EFF5DCF7CDF35
:101390009BAFBABFD98FF89F176E367E554E745EDD
:1013A000932EB23ED10E2BF01E0220050102030443
:1013B0000448090607080902040608320000000074
:04000005080000ED02
:00000001FF
