:020000040800F2
:1000000010170020790200083D1D0008391C000867
:10001000391D00083D1A00085B260008000000009A
:10002000000000000000000000000000091F0008A0
:10003000411A000800000000B11D00081D20000842
:10004000930200089302000893020008930200083C
:100050009302000893020008651A00089302000842
:10006000811A00089D1A0008B91A000893020008B6
:10007000930200089302000893020008930200080C
:1000800093020008930200089302000893020008FC
:1000900093020008930200089302000893020008EC
:1000A00093020008930200089302000893020008DC
:1000B00093020008812000089302000893020008C0
:1000C00093020008930200089302000893020008BC
:1000D00093020008E52200085D230008930200084F
:1000E000930200089302000893020008930200089C
:1000F000930200089302000893020008930200088C
:10010000930200089302000893020008930200087B
:10011000930200089302000893020008930200086B
:10012000930200089302000893020008930200085B
:1001300000F002F800F090F80AA090E8000C824469
:100140008344AAF10107DA4501D100F085F8AFF246
:10015000090EBAE80F0013F0010F18BFFB1A43F0A5
:1001600001031847402D0000602D0000103A24BF05
:1001700078C878C1FAD8520724BF30C830C144BF0C
:1001800004680C607047000000230024002500264E
:10019000103A28BF78C1FBD8520728BF30C148BFEA
:1001A0000B6070476E2900F01383702900F0738490
:1001B000662902F00386652902F00086672902F0AD
:1001C000FD856129AFF3008003681B0A28BF41F059
:1001D0008001692900F0CA80642900F0C780752970
:1001E00000F0C4806F2900F00184782900F03F847A
:1001F000E92900F09B83E42900F09883F52900F0B9
:100200009583EF2900F0FE83F82900F03E8403680F
:10021000DB0928BF41F08001632900F01C837329AA
:1002200000F02183E32900F0E186F32900F0E6865F
:10023000002070471FB500F087FF04000020002158
:1002400002F090FD401C60600020002102F0A0FD43
:10025000E0601FBD10B510BD00F051FF1146FFF763
:10026000E9FF02F0BFFB01F021F803B4FFF7F2FF52
:1002700003BC01F021F80000094880470948004705
:10028000FEE7FEE7FEE7FEE7FEE7FEE7FEE7FEE746
:10029000FEE7FEE704480549054A064B70470000A3
:1002A0002120000831010008101100201017002043
:1002B00010130020101300207CB51D4616460C00BC
:1002C000009001D02044401E074B7B442A466946DB
:1002D0000190304600F095FA05461CB100206946B1
:1002E00000F0A2FA28467CBD650500000FB41CB5DD
:1002F000084B06AA7B4469460090059800F081FAF5
:1003000004460020694600F08FFA20461CBC5DF8C8
:1003100014FB00003105000070B50C460546012AAB
:1003200005D02878800600D5EA69002302E0012381
:1003300005E05B1C934202D2E05C0028F9D1A86979
:10034000E618C01AA861286A18442862284600F0F6
:10035000ADF904E0D5E9012114F8010B9047B4424E
:10036000F8D3284600F0B8F970BD00002DE9F0413F
:100370000646002410687529314616A510D000F0F5
:10038000BCF9002802DA404213A507E031688A0769
:1003900001D512A502E0490704D511A5012401E009
:1003A00000F0B4F900210A2206F1240709E0B0FBAD
:1003B000F2FCB0FBF2F302FB1C003030785418461C
:1003C000491C0028F3D123462A463046BDE8F041B7
:1003D00000F0A5B9000000002D0000002B00000077
:1003E000200000002DE9F05F894604464FF0000A26
:1003F000DFF874B1FB44C0F820A02046E1688847CC
:10040000002874D0252806D0D4E901219047206A1D
:10041000401C2062F1E700265F462046E1688847DD
:100420002028054607DB312D05D2781910F8200C5D
:1004300008B10643F1E7B00701D526F00406C4F879
:100440001CA00027C4F818A02A2D09D0284602F0C5
:10045000C1FA38B304EB8708303DC8F8185019E0EA
:1004600059F8041B204604EB87029161E168884734
:10047000012F054618D1E069002820DA26F0200671
:100480001DE0D8F8180000EB800005EB4000303884
:10049000C8F818002046E1688847054602F09AFA35
:1004A0000028EED1012F0AD02E2D08D12046E16878
:1004B00088477F1C0546022F46F02006C4DBA06952
:1004C000002803DA404246F00106A061F00701D09F
:1004D00026F010066C2D0BD0682D09D04C2D39D08C
:1004E0006A2D35D0742D35D07A2D33D016E038E012
:1004F000E1682F4620468847B842054609D16C2F4F
:1005000026D04FF48060E1680643204688470546C0
:1005100004E06C2F1AD04FF4807006430DB3A5F1A0
:100520004100192802D8203546F400664A4629467B
:10053000204626604E46FFF735FE80B101280BD0DD
:10054000F61D26F0070000F1080956E74020E4E711
:100550008020D8E70020D6E706F104094DE72846B9
:1005600052E7206ABDE8F09FC829000070B5064632
:1005700000F098F80468054630460A22002100F091
:1005800095FA2C6070BD40EA010310B59B070FD1AE
:10059000042A0DD310C808C9121F9C42F8D020BAF3
:1005A00019BA884201D9012010BD4FF0FF3010BDAB
:1005B0001AB1D30703D0521C07E0002010BD10F879
:1005C000013B11F8014B1B1B07D110F8013B11F83F
:1005D000014B1B1B01D1921EF1D1184610BD10B565
:1005E000431C02E010F8011B71B18107FAD14FF0F2
:1005F000013202C88C1A8C4314EAC211F9D0C01A15
:100600000A0603D0C01E10BDC01A10BD0A0401D0D6
:10061000801E10BD0902FCD0401E10BD4FF0013CF1
:1006200050F8042B51F8043B9A4221D1A2EB0C0361
:10063000934313EACC1317D150F8042B51F8043B21
:100640009A4215D1A2EB0C03934313EACC130BD1BE
:1006500050F8042B51F8043B9A4209D1A2EB0C0349
:10066000934313EACC13DBD04FF00000704700BF78
:10067000D01A01BAB1FA81F101F0180122FA01F0A1
:10068000CB40C1F12001DBB2C0B2C01A2CFA01F399
:10069000D11A914311EAC311E6D1704770477047F0
:1006A0007047000000487047AC10002070B5044649
:1006B00085690068C10601D5302600E02026C00704
:1006C00007D070BDD4E9012130469047206A401C14
:1006D00020626D1EF6D570BD70B504468569007840
:1006E000C00707D170BDD4E9012120209047206ABE
:1006F000401C20626D1EF6D570BD09684A0501D503
:1007000040B27047C905FCD500B2704709684A0578
:1007100001D5C0B27047C905FCD580B270472DE93C
:10072000F0470D4699469246044600F124080168B8
:10073000880604D5E06921F01001216000E0012065
:10074000A84201DD471B00E00027A1697A1902EBEE
:100750000900081AA0612078C00602D42046FFF7DD
:10076000A5FF002608E0D4E901211AF80600904709
:10077000206A401C761C20624E45F4DB2078C006BF
:100780000AD52046FFF792FF06E0D4E90121302088
:100790009047206A401C2062381EA7F10107F4DC54
:1007A00007E0D4E9012118F805009047206A401CB1
:1007B0002062281EA5F10105F3DC2046FFF78CFF1F
:1007C0002078000602D50220BDE8F0870120FBE773
:1007D00011680268006A530501D508700AE0D30564
:1007E00001D5088006E0130603D5C217C1E900024F
:1007F00000E008600120704701694A1C0261087826
:10080000704700B58FB0CDE9013100210591054950
:100810007944CDE9031011466846FFF7E3FD0FB0B8
:1008200000BD0000E5FFFFFF0A6802F8010B0A6047
:100830007047D1E900239A4202D2531C0B6010701A
:10084000704710B5436913B1AFF3008001E0FFF7C3
:1008500063FD012010BD127800F124010A7000220E
:100860004A700122EDE711684FF0FF32E9E700001E
:100870002DE9FF5F15468A460446DFF8AC80F84450
:100880000027D8E900103E46CDE9001010E03AF804
:1008900016106A4602A800F012FC411C07D021780D
:1008A000890603D5E269391891420DD80744761CB0
:1008B0002078800602D5E069B84205DDAE42E6DB6D
:1008C0003AF816000028E2D1A069C01BA0612046BA
:1008D000FFF7ECFED8E90010CDE90010002017E08A
:1008E0003AF818106A4602A800F0E9FBB0F1FF3FA1
:1008F00081460BD000250DF1080B05E0D4E901215C
:100900001BF8050090476D1C4D45F7D308F1010019
:10091000B0428046E4DB206A384420622046FFF77C
:10092000DBFEBDE8FF9F0000522500002DE9F041ED
:100930008046D21D22F007020025D2E90002F529E7
:1009400015A614D0011E72F1000106DA0023D0EBC7
:10095000030063EB020211A608E0D8F800108B0731
:1009600001D50FA602E0490701D50EA601251146C3
:10097000002408F1240704E000F0DCF830323A5596
:10098000641C50EA0102F7D12B463246214640460C
:10099000BDE8F041FFF7C3BE000000002D000000DD
:1009A0002B0000002000000030B4002100F12404DE
:1009B00008E002F00705D208303542EA4372DB084E
:1009C0006554491C52EA0305F3D10468002310A2C0
:1009D000250708D504F020040C4304D0C469012382
:1009E0000CA2641EC46130BCFFF799BE10B504466A
:1009F00021461068FFF78AFE02462046BDE81040F7
:100A00000023D1E7D21D22F00701D1E90023CBE773
:100A10000000000030000000F0B40D460188090518
:100A200002D5214C7C4402E01F4C7C440E34002152
:100A300000F1240608E002F00F071209E75D42EA20
:100A400003721B097754491C52EA0307F3D1027859
:100A50000023120704D5702D06D009B102231134EA
:100A60002246F0BCFFF75BBE01231034F8E770B5F7
:100A700004460D4621461068FFF748FE0246294607
:100A80002046BDE870400023C6E7D21D22F00703D0
:100A9000D3E90023C0E70368126843F02003036032
:100AA0000823C3610023B7E7B42300002DE9F04712
:100AB00091460F4680460446002614F8015B2DB18E
:100AC00000F030F80068405DC007F6D12B2D02D051
:100AD0002D2D18D0641E4A463946204600F0A0FA53
:100AE00027B13968A14201D1C7F800804FF0020454
:100AF00071050BD54042002803DDFFF7D3FD0460EC
:100B0000A007BDE8F08746F48066E4E70028F8DA3D
:100B1000FFF7C8FD04606FF00040F2E7004870473F
:100B2000AC10002010B500F00FFB001D10BD00BF81
:100B30003522000030B5B0F10A024FEA900E71F193
:100B400000034EEA817EB0EB0E0061EB91014FEAAB
:100B5000101E4EEA017E10EB0E0041EB11114FEA20
:100B6000102E4EEA016E10EB0E0041EB11214FEA00
:100B7000104E4EEA014E10EB0E0041EB11414018B1
:100B800041F100014FEAD00040EA41704FEAD10143
:100B900010EB80054FEA810444EA907444EB0104B1
:100BA0006D1944EB0404521BA3414FF0000348BFEE
:100BB0000A3200D530BD401C41F1000130BD704704
:100BC0002DE9FF4F0C461E464FF0FF378BB0D2E9A0
:100BD0000001DDF860800A908A46C1F30A5505B924
:100BE0003D46002108464FF00000BAF1000F00F426
:100BF000400005DA00EB80004FF4400101EA5000AC
:100C00004FEA9059B9F1010F00DDB9460A9850EA50
:100C10004A000ED044F61050A5F2FF3545432F147C
:100C2000B8F1000F1ED07542291E1EDDC9F1000269
:100C30001CE0B8F1010F4FF0000001D0302103E0BB
:100C4000F24305E02154401CB042FBDB3046002259
:100C5000002121540B99C1F80880C1E900200FB090
:100C6000BDE8F08FBD1B6D1CDEE74A4600DA694225
:100C700006A800F0ADFA06AB93E8070003AB83E8E3
:100C8000070050460A9900F01EFB8DE80700A0F50A
:100C900000501F3800900398002D09DD42F21F011B
:100CA0004A46084403A90390684600F07DFD08E029
:100CB000A0F500504A461F3803A90390684600F08B
:100CC00087FD8DE807000004000C03D04FF0FF30D3
:100CD000410800E01046B8F1000F03D00022009256
:100CE00015461EE0751E05D4FFF724FF303262550D
:100CF0006D1EF9D5B3460122084302D000227F1CA5
:100D000004E02078302801D100227F1E002A0997B4
:100D100086D01DE0112D07DAFFF70CFF3032625547
:100D20006D1C50EA0102F5D1084302D00098C8B109
:100D30000EE00021681E05E0235C625C63542254CF
:100D4000401E491C8142F7DBAB46A81B401E0990A0
:100D5000002004F80B000B98099AC0F80880C0E93D
:100D6000002B7CE711264FF0000859E72DE9F04FE2
:100D700088460446D21D22F0070191B0D1E9000156
:100D8000CDE90A0101F012FE02460B98C00F01D016
:100D90002D2007E02068810701D52B2002E02021CB
:100DA00001EAC000032A099001D0072A05DB0346A7
:100DB0004146204600F0CCF90BE12078800601D5B1
:100DC000E06900E00620B8F1650F814606D0B8F171
:100DD000660F18D0B8F1670F70D131E00020B9F17B
:100DE000110F009001DB112301E009F101030AAAB0
:100DF00001A90CA8FFF7E4FEDDE90C70002609F15B
:100E00000105834647E001204B4600904FF0004724
:100E10000AAA01A90CA8FFF7D3FEDDE90DB00C99D1
:100E20005D46002610B909F101000D18B9EB050067
:100E300003D4C0F1FF3609F10105A5EB09002BE051
:100E4000B9F1010F01DA4FF001090020B9F1110FDA
:100E50000090484601DD112300E003460AAA01A9DB
:100E60000CA8FFF7ADFEDDE90C704D460026834669
:100E7000207800070AD4AB4500DA5D4601A8012DB1
:100E800004DD411911F8011C302907D04F4502DA61
:100E900017F1040F04DA012082460FE06D1EEEE721
:100EA000002F02DCED1B3E4403E0781CA84200DD6D
:100EB0007D1CB81B00F1010A4FF0004720780007A5
:100EC00003D4AA4501DB4FF0FF3A0021B7F1004FF0
:100ED0000DF143088DF8431024D002202B23002F5E
:100EE00001DA7F422D230A21021EA0F1010000DC5D
:100EF0005FB197FBF1FC97FBF1F201FB1C7C1746FD
:100F00000CF1300C08F801CDEEE7A8F101000370F8
:100F10002188090501D5452100E06521A0F10108DE
:100F200000F8011C09980FA9A1EB0807FF1D00B1EB
:100F30000120411901EBEA70A1693844081A401EEA
:100F4000A0612078C00602D42046FFF7AFFB0998C5
:100F500028B1D4E901219047206A401C2062207802
:100F6000C00622D52046FFF7A1FB1EE0002E04DBC1
:100F7000B34502DD01A8805D00E03020D4E9012105
:100F80009047206A401C2062761CAAF101005FEAAB
:100F9000000A0AD100F0D8F8C0680168405CD4E9C2
:100FA00001219047206A401C2062281EA5F10105FE
:100FB000DCDC07E0D4E9012118F8010B9047206A36
:100FC000401C2062381EA7F10107F3DC2046FFF722
:100FD00083FB032011B043E610B5436913B1AFF3AF
:100FE000008001E0FFF744FC012010BD128800F1F1
:100FF000240182840022C2840122EDE711684FF0AF
:10100000FF32E9E73A2800D2303820F02002412AA6
:1010100001D3A2F13700884201D34FF0FF3070476F
:101020002DE9F05F824615468B4600270AF1010440
:10103000B9460078302801D09DB113E014F8010BB7
:101040000127782803D0582801D045B10AE00DB116
:10105000102D07D1002714F8010B102502E00825F8
:1010600000E00A250026B0460EE005FB080005FB5F
:1010700006F101271FFA80F801EB1046B6F5803F14
:1010800000D3B94614F8010B2946FFF7BBFF00282F
:10109000EBDABBF1000F05D00FB1641E00E054463F
:1010A000CBF80040B9F1000F06D0FFF7FBFA0221A0
:1010B0000160C81EBDE8F09F48EA0640FAE770B537
:1010C00016460C460546FFF72DFD036893F801010F
:1010D000012806D0FF2C0FD8185D68B101202C70B4
:1010E00070BDD3F807013246214603F207130344CB
:1010F0002846BDE8704018474FF0FF3070BD754678
:10110000FFF70CFDAE4605006946534620F0070088
:10111000854618B020B5FFF7BDF8BDE820404FF078
:1011200000064FF000074FF000084FF0000B21F0D1
:101130000701AC46ACE8C009ACE8C009ACE8C0099E
:10114000ACE8C0098D46704700487047CC100020BD
:101150002DE9F0411F46044603260168072A01F4E1
:10116000006004DB08B116A505E016A503E008B190
:1011700015A500E015A521F010002060A069C01E93
:10118000A0610FB1401EA0612046FFF78FFA4FB15A
:10119000D4E9012138469047206A401C2062C01CD7
:1011A000206206E0206AFAE7D4E9012115F8010B74
:1011B0009047761EF8D22046FFF78EFABDE8F08100
:1011C0004E414E006E616E00494E4600696E6600EB
:1011D0002DE9F047814616468AB0334878440DC859
:1011E0008DE80D0030487844801C03AC0DC884E8BD
:1011F0000D0041F69B300844372190FBF1F290FB43
:10120000F1F5A5F1800501FB12041B3C02D56442F7
:10121000012000E00020DFF890A080460027FA447B
:10122000AAF1BE0A0DE0E00709D03246684607EB96
:1012300047010AEB810100F0CBFA8DE8070064104A
:101240007F1C002CEFD1184F7F44AC3F18E0E8071B
:1012500014D007EB04100DF1180A90E80E008AE88C
:101260000E00C068F04201D198190890324606A9D4
:1012700003A800F0ADFA03AB83E807006D10641C0F
:10128000002DE4D132466946B8F1000F03A802D020
:1012900000F08AFA01E000F09BFAC9E90001C9F800
:1012A00008200AB0BDE8F087A01C00000446AFF398
:1012B00000802046FEF7D9FF01491820ABBEFEE7AB
:1012C0002600020070475FEA400C08BF91F0000F53
:1012D0004FEA8C234FEAC12243EA51514FEA1C5096
:1012E00018BF00F5F0404FEA300018BF41F0004150
:1012F0005FEA6C5C00F02980BCF1FF3F08BF40F062
:1013000080407047130C06BF12044FF0100C4FF0D2
:10131000000C130E04BF12020CF1080C130F04BFD3
:1013200012010CF1040C930F04BF92000CF1020C9B
:10133000D30F04BF52000CF1010C11464FF0000214
:10134000A0F11F00A0EB0C00704711F0004F08BF88
:10135000704731F000413FF4D5AF0B0C06BF0904D4
:101360004FF0100C4FF0000C0B0E04BF09020CF1F3
:10137000080C0B0F04BF09010CF1040C8B0F04BF08
:1013800089000CF1020CCB0F04BF49000CF1010CD9
:10139000CCF12003A0EB0C0022FA03F302FA0CF2CA
:1013A00041EA030100F10100704720F07F4C80EA20
:1013B000030023F07F47ACEB070303F57C5300F0F9
:1013C000004003F1FF032DE980494FEA154B09B4B2
:1013D0004FEA144325EA0B4E24EA03480FF2042691
:1013E00006EB132749083E785FEA320203FB0667E3
:1013F000C7F5000707FB06F64FEA54374FEAD64613
:1014000006F1020607FB066CCCF1005C4FEA1C47B4
:101410002CEA074C07FB06F40CFB06F504EB15461B
:101420004FEA961634BF00204FF000404FEAD13704
:1014300006FB07FC4FEA1C4C0CFB0BF7D21B03FB13
:101440000CF761EB07010CFB0EF7B0EB074072EBFA
:1014500017420CFB08F734BFA2EB0742B2EB07427E
:1014600061EB17414FEA0C444FEA910706FB07FC7A
:101470004FEA1C4C0CFB0BF7B0EBC74072EB57323A
:1014800003FB0CF734BFA2EBC742B2EBC74261EBE0
:1014900057310CFB0EF7B0EBC70072EB57720CFB29
:1014A00008F734BFA2EBC702B2EBC70261EB57717A
:1014B000039F4FEA816141EA921104EBCC044FEAA9
:1014C000D1374FEA826206FB07FC42EA90124FEAEC
:1014D00080604FEA1C4C0CFB0BF7D21B03FB0CF794
:1014E00061EB07010CFB0EF7B0EB074072EB174204
:1014F0000CFB08F734BFA2EB0742B2EB074261EBEB
:1015000017414FEA8C554FEA910704EB9C2406FBE8
:1015100007FC4FEA1C4C0CFB0BF7B0EBC74072EB1F
:10152000573203FB0CF734BFA2EBC742B2EBC74202
:1015300061EB57310CFB0EF7B0EBC70072EB577243
:101540000CFB08F734BFA2EBC702B2EBC70261EB9A
:10155000577115EB4C254FEA816141EA92114FEA30
:1015600082624FEAD13742EA901206FB07FC44F14F
:1015700000044FEA80604FEA1C4C0CFB0BF7D21BB7
:1015800003FB0CF761EB07010CFB0EF7B0EB074018
:1015900072EB17420CFB08F734BFA2EB0742B2EB29
:1015A000074261EB174115EB1C154FEA813141EA07
:1015B00092414FEA823242EA90424FEA80304FEA4B
:1015C0000C7644F1000448EA03434EEA0B484FF01E
:1015D000000EB2EB080C71EB030724BF62463946DC
:1015E0004EEB0E0E4FF0000B0018524149414BEBF1
:1015F0000B0BB2EB080C71EB03077BF1000B24BF64
:10160000624639464EEB0E0E4FF0000B0018524169
:1016100049414BEB0B0BB2EB080C71EB03077BF171
:10162000000B24BF624639464EEB0E0E51EA02070C
:1016300018BF46F0010616EB0E7655F1000254F184
:10164000000103D5BDE88901BDE80088BDE8890136
:10165000BDE80048B619524141EB0101A3F1010375
:10166000704780807F7E7D7C7B7A7978777676750F
:101670007473727171706F6E6E6D6C6C6B6A6A6987
:101680006868676666656464636362616160605F21
:101690005F5E5E5D5D5C5C5B5B5A5A59595858579A
:1016A0005756565555555454535352525251515002
:1016B00050504F4F4F4E4E4D4D4D4C4C4C4B4B4B55
:1016C0004A4A4A494949484848474747474646469B
:1016D00045454544444444434343434242424241D6
:1016E0004141002B26D4770021D01CB54FEA3707A3
:1016F00003B44FF010004FF010014FF000000FBC8A
:10170000BDE810400BF1010BBBF1010F08BF5FEA10
:10171000170722BF12F1010211F101014FF0004140
:1017200043F1000300F0004043EA00007047F9D3A2
:101730005708DAE746EA064613F1400F4FEA164625
:101740001FDD13F1200FDFBF16430A4600212033AF
:101750005B42C8D0C3F1200746EA064602FA07F703
:101760004FEA164646EA0706C3F1200722FA03F2BB
:1017700001FA07F721FA03F14FF0000342EA0702EA
:10178000B1E746EA020646EA06464FEA164646EA48
:101790000106BCBF46EA0646360C4FF000034FF088
:1017A00000024FF000019EE72DE9C048934630B497
:1017B00091E8380007C831EA400C48BF34EA430CCE
:1017C00003D5FFF7F2FDFFF78CFFF0BCBDE8008802
:1017D0002DE9C048934630B491E8380007C810F0AE
:1017E000804F08BF13F0804F03D100F005F8FFF7DA
:1017F00078FFF0BCBDE8008820F07F4780EA030056
:1018000023F07F4C07EB0C03A3F57C5300F0004062
:10181000A3F1FE0392F0000F00F0B38095F0000FEB
:1018200000F077802DE901494FEA11404FEA144654
:1018300021EA004800FB06FC24EA064708FB06F6FE
:1018400007FB08F800FB07F718EB06484CEB164CB3
:101850004FEA124B18EB07484FEA15464CEB17407E
:1018600022EA0B4E0BFB06FC25EA06470EFB06F6AA
:1018700007FB0EFE0BFB07F71EEB064E4CEB164C60
:101880004FF000061EEB074E4CEB174B18EB0B0806
:1018900040F1000018EB0E0B58EB000840F100007F
:1018A0008F1A4FF000013CBFC943661B14BFB5EB54
:1018B000040C00213CBFC943F61B4FEA17444EEA13
:1018C0008E0E27EA04454FEA1C4704FB07622CEA08
:1018D000074C05FB07F70CFB05F604FB0CFC16EBAD
:1018E000074642EB174216EB0C4642EB1C421BEB41
:1018F000060658EB0202414146EA9E0601D5BDE8C4
:101900000189B619524141EB0101A3F10103BDE880
:1019100001894FEA14454FEA114724EA054621EAB6
:10192000074C05FB07F406FB07F70CFB06F105FB6C
:101930000CFC11EB074144EB17444FEA124711EB43
:101940000C4144EB1C4422EA074C05FB07F206FB62
:1019500007F70CFB06F605FB0CFC16EB074642EB03
:10196000174216EB0C4642EB1C456A1854F1000175
:1019700048BF7047B619524141EB0101A3F1010381
:10198000704795F0000F37D04FEA11424FEA1447E5
:1019900021EA024624EA074C02FB07F106FB07F79F
:1019A0000CFB06F402FB0CFC14EB074441EB174163
:1019B0004FEA154714EB0C4441EB1C4125EA074C58
:1019C00002FB07F506FB07F70CFB06F602FB0CFC17
:1019D00016EB074645EB174516EB0C4645EB1C424C
:1019E000121951F1000148BF7047B619524141EB3D
:1019F0000101A3F1010370474FEA14454FEA114773
:101A000024EA054621EA074C05FB07F106FB07F728
:101A10000CFB06F24FF0000605FB0CFC12EB074234
:101A200041EB174112EB0C4251EB1C4148BF704790
:101A3000921841EB0101A3F10103704700BFFEE7DB
:101A4000704710B56FF0040000F0D4FA10BD00BF6D
:101A50004FF4FA5100BF491E0029FCD1401E002856
:101A6000F6D1704710B5012000F03AF828B10349CB
:101A700008688047012000F02DF810BD58080020AC
:101A800010B5042000F02CF828B10349886880477D
:101A9000042000F01FF810BD5808002010B50820E1
:101AA00000F01EF828B10349C8688047082000F0FC
:101AB00011F810BD5808002010B5102000F010F8E3
:101AC00028B1034908698047102000F003F810BDD1
:101AD00058080020014908607047000014040140C4
:101AE000014600200022074B1B6803EA0102054B58
:101AF00014331B680B4013B10AB1012000E0002031
:101B000070470000000401402DE9F0410246002525
:101B10000026002000230024002791F803C00CF0C9
:101B20000F0591F803C00CF0100CBCF1000F03D0AE
:101B300091F802C04CEA050591F800C0BCF1000F15
:101B400031D0146800202BE04FF0010C0CFA00F3A8
:101B5000B1F800C00CEA03069E4220D183004FF08A
:101B60000F0C0CFA03F7BC4305FA03FC4CEA04041F
:101B700091F803C0BCF1280F06D14FF0010C0CFA0C
:101B800000FCC2F814C00AE091F803C0BCF1480F91
:101B900005D14FF0010C0CFA00FCC2F810C0401C3B
:101BA0000828D1D31460B1F800C0BCF1FF0F34DDB8
:101BB000546800202EE000F1080C4FF0010808FAEC
:101BC0000CF3B1F800C00CEA03069E4221D1830059
:101BD0004FF00F0C0CFA03F7BC4305FA03FC4CEA78
:101BE000040491F803C0BCF1280F05D100F1080CE2
:101BF00008FA0CF8C2F8148091F803C0BCF1480F41
:101C000007D100F1080C4FF0010808FA0CF8C2F8EF
:101C10001080401C0828CED35460BDE8F0810246F5
:101C20000020D3680B400BB1012000E0002070477A
:101C3000416170470161704700BFFEE710B504467F
:101C400004F0010070B120211048FFF7E8FF0128DF
:101C500004D120210D48FFF7EBFF03E020210B48C2
:101C6000FFF7E8FF04F0020070B120210848FFF7F9
:101C7000D6FF012804D120210548FFF7D9FF03E052
:101C800020210348FFF7D6FF10BD0000000C0140E3
:101C90000018014008B50121482000F0ABF82020D1
:101CA000ADF8000010208DF8030003208DF802002D
:101CB00069460948FFF728FF20210748FFF7BAFFC8
:101CC0002020ADF8000069460448FFF71DFF2021E1
:101CD0000248FFF7AFFF08BD000C014000180140AB
:101CE00010B5044604F0010018B120210548FFF7A3
:101CF000A1FF04F0020018B120210348FFF79AFF6A
:101D000010BD0000000C01400018014010B5044651
:101D100004F0010018B120210548FFF789FF04F005
:101D2000020018B120210348FFF782FF10BD000018
:101D3000000C01400018014000BFFEE770470000A2
:101D400070B5002100230F22C47804B3154C246819
:101D500004F4E064C4F5E064210AC1F10403CA405C
:101D6000447804FA03F184781440214309010E4CAD
:101D70000678A155047804F01F050124AC400578CD
:101D80006D11AD0005F1E025C5F8004109E00478CA
:101D900004F01F050124AC40044D0678761145F887
:101DA000264070BD0CED00E000E400E080E100E0C2
:101DB0007047000029B1064AD2690243044BDA6138
:101DC00004E0034AD2698243014BDA6170470000A4
:101DD0000010024029B1064A12690243044B1A61FD
:101DE00004E0034A12698243014B1A617047000004
:101DF0000010024029B1064A92690243044B9A61DD
:101E000004E0034A92698243014B9A6170470000E3
:101E10000010024029B1064AD2680243044BDA603E
:101E200004E0034AD2688243014BDA607047000045
:101E30000010024030B500210022002400232D4D67
:101E40006D6805F00C0121B1042905D0082923D1C2
:101E500005E0294D056022E0274D05601FE0254D76
:101E60006D6805F47012234D6D6805F48034022509
:101E700005EB92421CB9214D554305600BE01D4D09
:101E80006D6805F400351DB11C4D5543056002E039
:101E9000194D5543056002E0174D056000BF00BFB6
:101EA000144D6D6805F0F0010909154D6B5C05686E
:101EB000DD4045600F4D6D6805F4E061090A104D85
:101EC0006B5C4568DD4085600A4D6D6805F46051C6
:101ED000C90A0B4D6B5C4568DD40C560054D6D68FA
:101EE00005F44041890B074D6B5CC568B5FBF3F504
:101EF000056130BD0010024000127A0000093D006B
:101F00000400002014000020704710B500F002F813
:101F100010BD00000CB5002001900090334800680F
:101F200040F480303149086000BF3048006800F458
:101F3000003000900198401C0190009818B9019859
:101F4000B0F5A06FF1D12948006800F4003010B15D
:101F50000120009001E0002000900098012843D16A
:101F60002348006840F010002149086008460068D6
:101F700020F0030008600846006840F00200086096
:101F80001A48406819494860084640684860084651
:101F9000406840F4806048600846406820F47C1047
:101FA00048600846406840F4E81048600846006809
:101FB00040F08070086000BF0C48006800F00070BE
:101FC0000028F9D00948406820F00300074948601C
:101FD0000846406840F00200486000BF034840687F
:101FE00000F00C000828F9D10CBD000000100240E0
:101FF00000200240042808D14FF0E021096941F097
:1020000004014FF0E022116107E04FF0E02109697F
:1020100021F004014FF0E022116170477047000089
:1020200010B51348006840F00100114908600846E7
:102030004068104908400E494860084600680E494B
:1020400008400B4908600846006820F480200860BA
:102050000846406820F4FE0048604FF41F00886086
:10206000FFF753FF4FF000600449086010BD000007
:10207000001002400000FFF8FFFFF6FE08ED00E050
:1020800010B50121074800F014F848B101210548B6
:1020900000F00CF80448006810B10348006880475D
:1020A00010BD00000004004054000020CA4302821A
:1020B000704730B50246002000230024158A05EA47
:1020C0000103958905EA010413B10CB1012000E078
:1020D000002030BD10B51048007800B910BD0F4881
:1020E00000680F490968884213D240210D4800F06A
:1020F000E3F901280DD109480088C0F308000A4A15
:10210000115C084800F0A5FA04480068401C034927
:10211000086000BFE2E700002C000020240000203F
:1021200028000020003801405806002010B586B075
:102130000446012144F20400FFF75CFE234800F04E
:102140006DF94FF40070ADF8040018208DF8070009
:1021500003208DF8060001A91D48FFF7D5FC4FF4B8
:102160008060ADF8040004208DF8070001A918482C
:10217000FFF7CAFC02940020ADF80C00ADF80E0089
:10218000ADF81000ADF814000C20ADF8120002A953
:102190000E4800F0EDF925208DF8000001208DF8A3
:1021A000010003208DF8020001208DF8030068462D
:1021B000FFF7C6FD012240F22551044800F0B3F9B3
:1021C0000121024800F01DF906B010BD00380140A1
:1021D000000801400FB438B505A800904FF4007115
:1021E0000748009B049AFEF767F804460020009019
:1021F0002146034800F006F838BC5DF814FB0000E7
:102200005804002070B506460D4631480078002875
:102210004BD014E000BF40212E4800F04DF90128BA
:10222000F9D12D480088C0F308002C4A115C2948D8
:1022300000F00FFA28480068401C27490860284829
:10224000006825490968401A2844B0F5007FE1D8A4
:102250002348006820490968884214D900BF4021FA
:102260001C4800F029F90128F9D11B480088C0F367
:1022700008001A4A115C174800F0EBF9164800688C
:10228000401C1549086000240CE0305D14490988A1
:10229000C1F30801114A505411480068401C10490C
:1022A0000860641CAC42F0DB0FE000240BE000BFD0
:1022B0004021084800F000F90128F9D1315D0548B6
:1022C00000F0C7F9641CAC42F1DB284670BD000089
:1022D0002C00002000380140240000205806002077
:1022E0002800002010B5194800F0AEF904460D2C66
:1022F00006D117480078401C15490870002410E0EA
:102300000A2C0ED113480088401EC0F30800124961
:10231000085C00B910BD0E480078401C0C490870DC
:102320000024E1B20B480088C0F308000A4A1154A7
:1023300008480088C0F3080000F5007011540548F3
:102340000068401C0349086000BFE3E70038014013
:1023500018000020200000205800002010B540F296
:1023600026611B4800F0B5F801281CD11948006807
:102370001949096888420ED016480088C0F3090040
:10238000164A115C124800F064F912480068401CBB
:102390001049086002E000201149087040F22661EF
:1023A0000B4800F01FF840F22551094800F091F861
:1023B00001280BD1064800F047F9C4B2204600F0CE
:1023C000CFFB40F22551024800F00CF810BD000090
:1023D0000044004030000020340000206C08002041
:1023E0004200002010B50022002340F66A14A142EA
:1023F00000D100BF0A1201249440A3B2DC43048040
:1024000010BD21B1828942F40052828104E08289A8
:102410004DF6FF731A4082817047000010B50446E4
:102420002048844209D101218803FFF7F3FC0021F1
:102430004FF48040FFF7EEFC32E01B48844209D1A4
:1024400001214804FFF7C6FC00214FF40030FFF7DC
:10245000C1FC25E01548844209D101218804FFF719
:10246000B9FC00214FF48020FFF7B4FC18E01048BD
:10247000844209D10121C804FFF7ACFC00214FF4CC
:102480000020FFF7A7FC0BE00A48844208D1012195
:102490000805FFF79FFC00214FF48010FFF79AFC1E
:1024A00010BD0000003801400044004000480040DA
:1024B000004C00400050004002460020B1F5007F73
:1024C00000D100BF13880B400BB1012000E00020B9
:1024D000704770B50246002400230025002040F616
:1024E0006A16B14200D100BFC1F3421501F01F03CB
:1024F000012606FA03F3012D02D19689334006E046
:10250000022D02D1168A334001E0968A33400C1224
:10251000012606FA04F41688344013B10CB10120E8
:1025200000E0002070BDF0B5034600240026002521
:10253000002040F66A17B94200D100BF1846C1F327
:10254000421401F01F06012707FA06F5012C01D1FC
:102550000C3004E0022C01D1103000E014301AB12C
:1025600007682F43076002E00768AF430760F0BDCC
:102570002DE9F04786B005460E460024A24600BF6E
:10258000A1460027B08900B100BF2F462C8A4CF627
:10259000FF700440F08804432C82AC894EF6F3109F
:1025A0000440B08831890843718908430443AC81F1
:1025B000AC8A4FF6FF400440B0890443AC8201A8C6
:1025C000FFF738FC1F48874202D1DDF810A001E078
:1025D000DDF80CA0A88900F4004040B10AEBCA0065
:1025E00000EB0A1031684900B0FBF1F807E00AEB94
:1025F000CA0000EB0A1031688900B0FBF1F86420D2
:10260000B8FBF0F004012009642101FB1089A889BE
:1026100000F4004040B1322000EBC900B0FBF1F003
:1026200000F00700044308E0322000EB09106421A9
:10263000B0FBF1F000F00F0004432C8106B0BDE8C0
:10264000F08700000038014001468888C0F3080088
:102650007047C1F308028280704700BFFEE70000A8
:1026600010B545F6253308A20BA11248FDF73EFE32
:10267000104800F00BFB03210FA000F045F908B152
:10268000012010BD0020FCE73139322E3136382EC2
:10269000312E31303000000041542B434950535407
:1026A0004152543D22544350222C222573222C2582
:1026B000640D0A006C1000204F4B000000B587B07D
:1026C00001214804FFF776FB01210420FFF792FB6C
:1026D0004548FFF7A3FE0420ADF8080018208DF848
:1026E0000B0003208DF80A0002A94048FFF70CFAFE
:1026F0000820ADF8080004208DF80B0002A93B4823
:10270000FFF702FA4FF4E13003900020ADF810001B
:10271000ADF81200ADF81400ADF818000C20ADF8BB
:10272000160003A93048FFF723FF26208DF8040088
:1027300002208DF8050003208DF8060001208DF899
:10274000070001A8FFF7FCFA012240F225512648B4
:10275000FFF7E9FE012240F226612348FFF7E3FE7E
:1027600001212148FFF74DFE012021490860214940
:10277000086000202049086020490870204908703E
:10278000FF20204908704FF0FF301F4908601F49A3
:1027900008601FA000F07AFA0120FFF7A1FA0A21D1
:1027A0001EA000F0B1F810B1012007B000BD1DA0BF
:1027B00000F06CFA032120A000F0A6F808B1012077
:1027C000F3E71EA321A224A12A48FDF78FFD294883
:1027D00000F05CFA0A2118A000F096F808B1012078
:1027E000E3E70020E1E7000000440040000801406A
:1027F000300000203400002038000020410000207C
:1028000042000020490000204C0000205000002021
:1028100041542B5253540D0A00000000726561644C
:102820007900000041542B43574D4F44455F4355B9
:10283000523D310D0A0000004F4B000048555354E3
:1028400032303134405959313231000048555354F7
:10285000403132310000000041542B43574A41506F
:102860005F4355523D222573222C222573220D0AE7
:10287000000000006C10002070B505460C46224692
:102880000DA11148FDF732FD0F4800F0FFF90521B9
:102890000EA000F039F808B1012070BD214628468D
:1028A00000F028FA4FF0FF3109A000F02DF808B130
:1028B0000120F2E70020F0E741542B4349505345F3
:1028C0004E443D25640D0A006C1000204F4B000063
:1028D00053454E44204F4B0010B50748016807A0F0
:1028E000FDF79CFE20B9074890F90000002801DDA3
:1028F000012010BD0020FCE73C00002053454E4461
:10290000204F4B00400000202DE9F04707460D46C0
:102910004FF00108224C4FF4FA5909EB89004FEAB5
:10292000400900201F4908701F480760002D02DA87
:102930000020BDE8F0874FF0010822E0C4F80490C1
:102940000020A060206840F00100206000BFFFF779
:10295000C1FB1448007850B1206820F001002060CD
:102960000020A0600F4890F90000C00FE1E7266842
:1029700006F0010018B106F480300028E7D008F115
:10298000010805EBC50000EB0510B8EB800FD5DDA5
:10299000206820F0010020600020A0600120C8E72E
:1029A00010E000E0400000203C000020490050EA18
:1029B000C12018BF04204A0D18BF40F0010040F2AA
:1029C000FF72B2EB515F08BF40F00200012808BF60
:1029D0000520704730380A2801D2012070470020B6
:1029E00070470000FFF756F9FFF72BF84FF4E1307E
:1029F000FFF79CFB0120FFF789F905E06420FFF752
:102A000026F825A0FFF7E6FBFFF758FE0028F5D1D2
:102A100026A0FFF7DFFB00BF0120FFF777F908E0F2
:102A20006420FFF714F80120FFF708F925A0FFF74D
:102A3000D1FBFFF715FE0028F2D128A0FFF7CAFB53
:102A40000120FFF74DF90220FFF760F911E04FF484
:102A50007A70FEF7FCFF02E00120FEF7F8FFFFF7B7
:102A60003BFF0028F8D00220FFF7E8F821A0FFF78D
:102A7000B1FB26480068FDF7B2FD04462146234815
:102A80000068FFF7F9FE0028E1D021A0FFF7A2FBC4
:102A90000220FFF725F9BFE75769466920696E698B
:102AA00074206661696C65642E0D0A005769466979
:102AB00020696E697420737563636565642E0D0A01
:102AC000000000005769466920636F6E6E6563748D
:102AD000206661696C65642E0D0A000057694669BD
:102AE00020636F6E6E6563742073756363656564E0
:102AF0002E0D0A005769466920746573742073753A
:102B000063636565642E0D0A00000000000000206C
:102B1000576946692074657374206661696C6564E1
:102B20002E0D0A0070B505460C460B48006800B92A
:102B300070BD09480068FDF752FDA04200D0F7E7DC
:102B4000054801682846FDF769FD10B901200349D1
:102B5000087000BFECE700003C00002040000020AF
:102B600010B504463C480068401C30B90A2C04D11A
:102B70003A4800780D2800D110BD37480068401C45
:102B800088B90A2C01D00D2C0DD100203449354ACA
:102B900012688854334801683148FFF7C3FF0020AA
:102BA00030490860E8E72F4801680068401C2D4A5A
:102BB00010602B48445429480470104600680528CA
:102BC0000AD12C2C08D1052227A12548FDF7DBFCD2
:102BD00010B900202649087025480078FF2816D033
:102BE0003A2C14D100211F480068401E1C4A115481
:102BF000501DFDF7BBFC184908601A4800681D49C4
:102C000008603A2117480068401E154A11541248BE
:102C10000068401CF0B1174800680F490968084473
:102C200010490968884215D10D49124A126888185E
:102C300009490A680E49097800F01EF8FF200C497E
:102C400008704FF0FF30044908600A49086000200E
:102C50000449086000BF8FE74C00002041000020BD
:102C60006C0C0020380000202B4950442C00000040
:102C7000490000205000002070B505460E4614465D
:102C800021462846FFF7BEFA70BD000010B5044685
:102C90000CE0207812490988C1F30901114A505407
:102CA0000F480068401C0E490860641C207800280A
:102CB000EFD10D48007888B90C480068401C0B49DA
:102CC000086001200849087008480088401EC0F3C9
:102CD0000900044A115C0648FFF7BBFC10BD000068
:102CE000340000206C08002042000020300000204A
:102CF000004400402DE9F04105460E4600242F46D1
:102D00000CE0385D12490988C1F30901114A505499
:102D10000F480068401C0E490860641CB442F0DB98
:102D20000D48007888B90D480068401C0B490860C0
:102D300001200949087009480088401EC0F30900B5
:102D4000044A115C0648FFF784FCBDE8F0810000EE
:102D5000340000206C0800204200002030000020D9
:102D60000044004010B500290AD00878002807D098
:102D700005487844FDF752FC002801D0002010BD22
:102D80000248784410BD0000520100004A010000D2
:102D900010B500290AD00878002807D005487844E3
:102DA000FDF73CFC002801D0002010BD024878440B
:102DB00010BD0000360200002E020000FDF7D6BF55
:102DC00004000008000000000000000200010000F4
:102DD000100000000000000000000000303132331D
:102DE000343536373839414243444546403058003F
:102DF0003031323334353637383961626364656671
:102E00004030780002400000000000A000000000F8
:102E100005400000000000C8000000000C40000059
:102E20000000409C00000000194000000020BCBED3
:102E30000000000034400000BFC91B8E00000004E9
:102E4000B5400000504BCFD06607E2CF0100000034
:102E50006C4100003E8251AADFEEA7340100000061
:102E6000D9420000DCB5A0E23A301F97FFFFFFFF18
:102E7000B4450000FD25A0C8E9A3C14FFFFFFFFF37
:102E8000FF3F00000000008000000000FF3F000046
:102E90000000008000000000546573744C696E6B84
:102EA00000000000F02F0008000000205800000083
:102EB0006C0100084830000858000020B8160000D7
:102EC000880100081001000043000000F8FFFFFF28
:102ED000004040404040404040404141414141402D
:102EE00040404040404040404040404040404040E2
:102EF0004005020202020202020202020202020271
:102F00000220202020202020202020020202020275
:102F100002029090909090901010101010101010CD
:102F200010101010101010101010101002020202D9
:102F3000020288888888888808080808080808081D
:102F40000808080808080808080808080202020219
:102F50004000000000000000000000000000000031
:102F60000000000000000000000000000000000061
:102F70000000000000000000000000000000000051
:102F80000000000000000000000000000000000041
:102F90000000000000000000000000000000000031
:102FA0000000000000000000000000000000000021
:102FB0000000000000000000000000000000000011
:102FC0000000000000000000000000000000000001
:102FD000000000001C00000043000000F8FFFFFF9D
:102FE0000C0000000E0000000F0000002E0000008A
:102FF000982E0008000000000102030401020304EF
:10300000060708090204060800000000010000008D
:1030100001000000010000000100000000000000AD
:1030200000000000000000000000000000000000A0
:10303000000000000000000000FF0000FFFFFFFF95
:08304000FFFFFFFF000000008C
:0400000508000131BD
:00000001FF
