:020000040800F2
:10000000E80E00207902000891220008B91D0008BE
:100010008D2200087D1A0008232A00080000000035
:100020000000000000000000000000003D24000867
:10003000811A00080000000005230008512500086F
:10004000930200089302000893020008930200083C
:100050009302000893020008411B00089302000865
:100060005D1B0008791B0008951B0008930200081F
:10007000930200089302000893020008930200080C
:1000800093020008930200089302000893020008FC
:1000900093020008930200089302000893020008EC
:1000A00093020008930200089302000893020008DC
:1000B00093020008930200089302000893020008CC
:1000C00093020008930200089302000893020008BC
:1000D00093020008A9270008930200089302000871
:1000E000930200089302000893020008930200089C
:1000F000930200089302000893020008930200088C
:10010000930200089302000893020008930200087B
:10011000930200089302000893020008930200086B
:10012000930200089302000893020008930200085B
:1001300000F002F800F090F80AA090E8000C824469
:100140008344AAF10107DA4501D100F085F8AFF246
:10015000090EBAE80F0013F0010F18BFFB1A43F0A5
:1001600001031847F87C0000187D0000103A24BFF6
:1001700078C878C1FAD8520724BF30C830C144BF0C
:1001800004680C607047000000230024002500264E
:10019000103A28BF78C1FBD8520728BF30C148BFEA
:1001A0000B6070476E2900F01D82702900F0678394
:1001B000662906F07E86652906F07B86672906F0AB
:1001C00078866129AFF3008003681B0A28BF41F0DD
:1001D0008001692900F0CA81642900F0C78175296E
:1001E00000F0C4816F2900F0F582782900F0338394
:1001F000E92900F08F82E42900F08C82F52900F0D3
:100200008982EF2900F0F282F82900F03283036836
:10021000DB0928BF41F08001632900F0DA867329E9
:1002200000F0DF86E32900F0EA86F32900F0EF868C
:10023000002070471FB500F067FF04000020002178
:1002400005F06EFD401C60600020002105F052FDAD
:10025000E0601FBD10B510BD00F028FF1146FFF78C
:10026000E9FF04F061FA01F001F803B4FFF7F2FFCF
:1002700003BC01F041F800000948804709480047E5
:10028000FEE7FEE7FEE7FEE7FEE7FEE7FEE7FEE746
:10029000FEE7FEE704480549054A064B70470000A3
:1002A0005525000831010008E8080020E80E00206C
:1002B000E80A0020E80A002010B54C1084EA530434
:1002C00004D54042C1F1000138BF491E1B4204D58C
:1002D0005242C3F1000338BF5B1E00F062F814F015
:1002E000804F04D04042C1F1000138BF491E14F0D4
:1002F000004F04D05242C3F1000338BF5B1E10BD53
:100300007CB51D4616460C00009001D02044401ECE
:10031000074B7B442A4669460190304600F07BF942
:1003200005461CB10020694600F088F928467CBDCE
:100330003103000040EA010310B59B070FD1042AE6
:100340000DD310C808C9121F9C42F8D020BA19BAA0
:10035000884201D9012010BD4FF0FF3010BD1AB105
:10036000D30703D0521C07E0002010BD10F8013B5A
:1003700011F8014B1B1B07D110F8013B11F8014B81
:100380001B1B01D1921EF1D1184610BD02F0FF03D4
:1003900043EA032242EA024200F042BB7047704740
:1003A000704753EA020C00F069802DE9F04B4FF0E2
:1003B0000006002B1FBFB3FA83F503FA05F424FAF5
:1003C00005F65E4012BF1643B2FA82F502FA05F452
:1003D000C5F120051EBF22FA05FC44EA0C042035B5
:1003E00056EA044C4FEA144418BF641C4FF000084E
:1003F0004FF00009904271EB030C39D3002919BF6B
:10040000B1FA81F701FA07F6B0FA80F700FA07F6B9
:10041000C7F120071EBF20FA07FC46EA0C0620376A
:10042000B6FBF4FCA7EB0507103F07F01F0BCBF161
:1004300020060CFA0BFB2CFA06F644BFB346002646
:10044000202FA4BF5E464FF0000B5BEA060C08BFEE
:100450004FF0010B19EB0B09ABFB027C48EB0608D4
:10046000C01B06FB02CC0BFB03CC71EB0C01C1E7FC
:100470000B46024641464846BDE8F08B13B54FF0A7
:1004800000004FF00001AFF30080BDE81C40704752
:1004900010B500F0E5FA006810BD10B5044600F094
:1004A000DFFA046010BD70B5044685690068C106B6
:1004B00001D5302600E02026C00707D070BDD4E962
:1004C000012130469047206A401C20626D1EF6D5FF
:1004D00070BD70B5044685690078C00707D170BD4E
:1004E000D4E9012120209047206A401C20626D1E23
:1004F000F6D570BD09684A0501D540B27047C905F7
:10050000FCD500B2704709684A0501D5C0B27047F2
:10051000C905FCD580B2704770B50C460546012A66
:1005200005D02878800600D5EA69002302E001237F
:1005300005E05B1C934202D2E05C0028F9D1A86977
:10054000E618C01AA861286A184428622846FFF7EE
:10055000AAFF04E0D5E9012114F8010B9047B44249
:10056000F8D32846FFF7B5FF70BD00002DE9F04134
:100570000646002410687529314616A510D0FFF7ED
:10058000B9FF002802DA404213A507E031688A0764
:1005900001D512A502E0490704D511A5012401E007
:1005A000FFF7B1FF00210A2206F1240709E0B0FBA2
:1005B000F2FCB0FBF2F302FB1C003030785418461A
:1005C000491C0028F3D123462A463046BDE8F041B5
:1005D00000F08FBA000000002D0000002B0000008A
:1005E0002000000011680268006A530501D50870F8
:1005F0000AE0D30501D5088006E0130603D5C2172B
:10060000C1E9000200E008600120704701694A1C4E
:1006100002610878704700B58FB0CDE90131002143
:10062000059105497944CDE903101146684600F06B
:1006300031F90FB000BD0000E5FFFFFF0A6802F8C6
:10064000010B0A607047D1E900239A4202D2531C81
:100650000B601070704700002DE9FF5F15468A4659
:100660000446DFF8AC80F8440027D8E900103E4685
:10067000CDE9001010E03AF816106A4602A800F022
:10068000CAFC411C07D02178890603D5E2693918D4
:1006900091420DD80744761C2078800602D5E06987
:1006A000B84205DDAE42E6DB3AF816000028E2D19A
:1006B000A069C01BA0612046FFF7F5FED8E9001035
:1006C000CDE90010002017E03AF818106A4602A899
:1006D00000F0A1FCB0F1FF3F81460BD000250DF1E9
:1006E000080B05E0D4E901211BF8050090476D1CBB
:1006F0004D45F7D308F10100B0428046E4DB206AA3
:10070000384420622046FFF7E4FEBDE8FF9F00006A
:10071000267600002DE9F0418046D21D22F0070226
:100720000025D2E90002F52915A614D0011E72F1A8
:10073000000106DA0023D0EB030063EB020211A6EE
:1007400008E0D8F800108B0701D50FA602E0490792
:1007500001D50EA601251146002408F1240704E066
:1007600000F082F930323A55641C50EA0102F7D1A8
:100770002B46324621464046BDE8F04100F0B9B96B
:10078000000000002D0000002B00000020000000F1
:1007900030B4002100F1240408E002F00705D2087B
:1007A000303542EA4372DB086554491C52EA0305BE
:1007B000F3D10468002310A2250708D504F0200413
:1007C0000C4304D0C46901230CA2641EC46130BC74
:1007D00000F08FB910B5044621461068FFF793FE6C
:1007E00002462046BDE810400023D1E7D21D22F08A
:1007F0000701D1E90023CBE7000000003000000032
:10080000F0B40D460188090502D5214C7C4402E074
:100810001F4C7C440E34002100F1240608E002F055
:100820000F071209E75D42EA03721B097754491C5E
:1008300052EA0307F3D102780023120704D5702D82
:1008400006D009B1022311342246F0BC00F051B9A0
:1008500001231034F8E770B504460D4621461068B0
:10086000FFF751FE024629462046BDE870400023AE
:10087000C6E7D21D22F00703D3E90023C0E70368CF
:10088000126843F0200303600823C3610023B7E725
:10089000887400002DE9F05F894604464FF0000A95
:1008A000DFF874B1FB44C0F820A02046E168884717
:1008B000002874D0252806D0D4E901219047206A69
:1008C000401C2062F1E700265F462046E168884729
:1008D0002028054607DB312D05D2781910F8200CA9
:1008E00008B10643F1E7B00701D526F00406C4F8C5
:1008F0001CA00027C4F818A02A2D09D0284602F011
:100900000FF938B304EB8708303DC8F8185019E0E8
:1009100059F8041B204604EB87029161E16888477F
:10092000012F054618D1E069002820DA26F02006BC
:100930001DE0D8F8180000EB800005EB40003038CF
:10094000C8F818002046E1688847054602F0E8F834
:100950000028EED1012F0AD02E2D08D12046E168C3
:1009600088477F1C0546022F46F02006C4DBA0699D
:10097000002803DA404246F00106A061F00701D0EA
:1009800026F010066C2D0BD0682D09D04C2D39D0D7
:100990006A2D35D0742D35D07A2D33D016E038E05D
:1009A000E1682F4620468847B842054609D16C2F9A
:1009B00026D04FF48060E16806432046884705460C
:1009C00004E06C2F1AD04FF4807006430DB3A5F1EC
:1009D0004100192802D8203546F400664A462946C7
:1009E000204626604E46FFF7DDFB80B101280BD084
:1009F000F61D26F0070000F1080956E74020E4E75D
:100A00008020D8E70020D6E706F104094DE7284604
:100A100052E7206ABDE8F09F187400004FF0000212
:100A20000429C0F0128010F0030C00F01683CCF102
:100A3000040CBCF1020F18BF00F8012BA8BF20F86E
:100A4000022BA1EB0C0100F008BB5FEAC17C24BFC4
:100A500000F8012B00F8012B48BF00F8012B70476C
:100A6000004870478808002030B5B0F10A024FEA0C
:100A7000900E71F100034EEA817EB0EB0E0061EB47
:100A800091014FEA101E4EEA017E10EB0E0041EB81
:100A900011114FEA102E4EEA016E10EB0E0041EBE1
:100AA00011214FEA104E4EEA014E10EB0E0041EBC1
:100AB0001141401841F100014FEAD00040EA417075
:100AC0004FEAD10110EB80054FEA810444EA9074AB
:100AD00044EB01046D1944EB0404521BA3414FF095
:100AE000000348BF0A3200D530BD401C41F100016F
:100AF00030BD2DE9F0470D4699469246044600F177
:100B000024080168880604D5E06921F010012160FD
:100B100000E00120A84201DD471B00E00027A16999
:100B20007A1902EB0900081AA0612078C00602D4E5
:100B30002046FFF7B8FC002608E0D4E901211AF8A6
:100B400006009047206A401C761C20624E45F4DB6C
:100B50002078C0060AD52046FFF7A5FC06E0D4E9B8
:100B6000012130209047206A401C2062381EA7F1E6
:100B70000107F4DC07E0D4E9012118F805009047EB
:100B8000206A401C2062281EA5F10105F3DC2046E6
:100B9000FFF79FFC2078000602D50220BDE8F08711
:100BA0000120FBE770472DE9FF4F0C461E464FF032
:100BB000FF378BB0D2E90001DDF860800A908A46E9
:100BC000C1F30A5505B93D46002108464FF0000023
:100BD000BAF1000F00F4400005DA00EB80004FF49A
:100BE000400101EA50004FEA9059B9F1010F00DDD0
:100BF000B9460A9850EA4A000ED044F61050A5F2C1
:100C0000FF3545432F14B8F1000F1ED07542291E41
:100C10001EDDC9F100021CE0B8F1010F4FF0000029
:100C200001D0302103E0F24305E02154401CB042E2
:100C3000FBDB30460022002121540B99C1F80880CB
:100C4000C1E900200FB0BDE8F08FBD1B6D1CDEE7D1
:100C50004A4600DA694206A800F09AFA06AB93E821
:100C6000070003AB83E8070050460A9900F04BFBEE
:100C70008DE80700A0F500501F3800900398002D64
:100C800009DD42F21F014A46084403A90390684661
:100C900000F0AAFD08E0A0F500504A461F3803A95D
:100CA0000390684600F0B4FD8DE807000004000CD6
:100CB00003D04FF0FF30410800E01046B8F1000FBC
:100CC00003D00022009215461EE0751E05D4FFF7E2
:100CD000CBFE303262556D1EF9D5B3460122084372
:100CE00002D000227F1C04E02078302801D10022AD
:100CF0007F1E002A099786D01DE0112D07DAFFF725
:100D0000B3FE303262556D1C50EA0102F5D1084342
:100D100002D00098C8B10EE00021681E05E0235CF7
:100D2000625C63542254401E491C8142F7DBAB468F
:100D3000A81B401E0990002004F80B000B98099A8C
:100D4000C0F80880C0E9002B7CE711264FF00008AE
:100D500059E72DE9F04F88460446D21D22F00701DD
:100D600091B0D1E90001CDE90A0101F05CFE024633
:100D70000B98C00F01D02D2007E02068810701D516
:100D80002B2002E0202101EAC000032A099001D0B3
:100D9000072A05DB03464146204600F0B9F90BE17E
:100DA0002078800601D5E06900E00620B8F1650FE3
:100DB000814606D0B8F1660F18D0B8F1670F70D130
:100DC00031E00020B9F1110F009001DB112301E0A7
:100DD00009F101030AAA01A90CA8FFF7E4FEDDE965
:100DE0000C70002609F10105834647E001204B46BF
:100DF00000904FF000470AAA01A90CA8FFF7D3FE04
:100E0000DDE90DB00C995D46002610B909F101002D
:100E10000D18B9EB050003D4C0F1FF3609F1010547
:100E2000A5EB09002BE0B9F1010F01DA4FF0010940
:100E30000020B9F1110F0090484601DD112300E0B8
:100E400003460AAA01A90CA8FFF7ADFEDDE90C7064
:100E50004D4600268346207800070AD4AB4500DAC9
:100E60005D4601A8012D04DD411911F8011C30294E
:100E700007D04F4502DA17F1040F04DA0120824649
:100E80000FE06D1EEEE7002F02DCED1B3E4403E099
:100E9000781CA84200DD7D1CB81B00F1010A4FF050
:100EA00000472078000703D4AA4501DB4FF0FF3A42
:100EB0000021B7F1004F0DF143088DF8431024D005
:100EC00002202B23002F01DA7F422D230A21021E4C
:100ED000A0F1010000DC5FB197FBF1FC97FBF1F2A0
:100EE00001FB1C7C17460CF1300C08F801CDEEE735
:100EF000A8F1010003702188090501D5452100E012
:100F00006521A0F1010800F8011C09980FA9A1EBC7
:100F10000807FF1D00B10120411901EBEA70A1692A
:100F20003844081A401EA0612078C00602D420462A
:100F3000FFF7B9FA099828B1D4E901219047206A4E
:100F4000401C20622078C00622D52046FFF7ABFA6D
:100F50001EE0002E04DBB34502DD01A8805D00E049
:100F60003020D4E901219047206A401C2062761C81
:100F7000AAF101005FEA000A0AD100F0C5F8C068D2
:100F80000168405CD4E901219047206A401C20623E
:100F9000281EA5F10105DCDC07E0D4E9012118F8E1
:100FA000010B9047206A401C2062381EA7F1010700
:100FB000F3DC2046FFF78DFA032011B043E610B5AD
:100FC000436913B1AFF3008001E0FFF7A5FA0120F8
:100FD00010BD127800F124010A7000224A7001222B
:100FE000EDE711684FF0FF32E9E710B5436913B13F
:100FF000AFF3008001E0FFF72FFB012010BD128846
:1010000000F1240182840022C2840122EDE71168EC
:101010004FF0FF32E9E770B516460C46054600F082
:101020006BF8036893F80101012806D0FF2C0FD854
:10103000185D68B101202C7070BDD3F807013246ED
:10104000214603F2071303442846BDE870401847C1
:101050004FF0FF3070BD4FF0000200B513469446CC
:101060009646203922BFA0E80C50A0E80C50B1F100
:101070002001BFF4F7AF090728BFA0E80C5048BF14
:101080000CC05DF804EB890028BF40F8042B08BFB2
:10109000704748BF20F8022B11F0804F18BF00F8AE
:1010A000012B704700487047880800207546FFF7FD
:1010B000F9FFAE4605006946534620F00700854615
:1010C00018B020B5FFF7E6F8BDE820404FF0000665
:1010D0004FF000074FF000084FF0000B21F0070120
:1010E000AC46ACE8C009ACE8C009ACE8C009ACE863
:1010F000C0098D467047000010B500F005F8001DCE
:1011000010BD00BF1D4C000000487047A80800201B
:101110002DE9F0411F46044603260168072A01F421
:10112000006004DB08B116A505E016A503E008B1D0
:1011300015A500E015A521F010002060A069C01ED3
:10114000A0610FB1401EA0612046FFF7ACF94FB17E
:10115000D4E9012138469047206A401C2062C01C17
:10116000206206E0206AFAE7D4E9012115F8010BB4
:101170009047761EF8D22046FFF7ABF9BDE8F08124
:101180004E414E006E616E00494E4600696E66002B
:101190002DE9F047814616468AB0334878440DC899
:1011A0008DE80D0030487844801C03AC0DC884E8FD
:1011B0000D0041F69B300844372190FBF1F290FB83
:1011C000F1F5A5F1800501FB12041B3C02D5644238
:1011D000012000E00020DFF890A080460027FA44BC
:1011E000AAF1BE0A0DE0E00709D03246684607EBD7
:1011F00047010AEB810100F00BFB8DE8070064104A
:101200007F1C002CEFD1184F7F44AC3F18E0E8075B
:1012100014D007EB04100DF1180A90E80E008AE8CC
:101220000E00C068F04201D198190890324606A914
:1012300003A800F0EDFA03AB83E807006D10641C0F
:10124000002DE4D132466946B8F1000F03A802D060
:1012500000F0CAFA01E000F0DBFAC9E90001C9F8C0
:1012600008200AB0BDE8F087546C00000446AFF3D4
:1012700000802046FEF7F9FF4FF0013C50F8042BA8
:1012800051F8043B9A4221D1A2EB0C03934313EA99
:10129000CC1317D150F8042B51F8043B9A4215D1C6
:1012A000A2EB0C03934313EACC130BD150F8042B9D
:1012B00051F8043B9A4209D1A2EB0C03934313EA81
:1012C000CC13DBD04FF00000704700BFD01A01BA3A
:1012D000B1FA81F101F0180122FA01F0CB40C1F11D
:1012E0002001DBB2C0B2C01A2CFA01F3D11A91432B
:1012F00011EAC311E6D1704701491820ABBEFEE7E1
:101300002600020070475FEA400C08BF91F0000F12
:101310004FEA8C234FEAC12243EA51514FEA1C5055
:1013200018BF00F5F0404FEA300018BF41F000410F
:101330005FEA6C5C00F02980BCF1FF3F08BF40F021
:1013400080407047130C06BF12044FF0100C4FF092
:10135000000C130E04BF12020CF1080C130F04BF93
:1013600012010CF1040C930F04BF92000CF1020C5B
:10137000D30F04BF52000CF1010C11464FF00002D4
:10138000A0F11F00A0EB0C00704711F0004F08BF48
:10139000704731F000413FF4D5AF0B0C06BF090494
:1013A0004FF0100C4FF0000C0B0E04BF09020CF1B3
:1013B000080C0B0F04BF09010CF1040C8B0F04BFC8
:1013C00089000CF1020CCB0F04BF49000CF1010C99
:1013D000CCF12003A0EB0C0022FA03F302FA0CF28A
:1013E00041EA030100F10100704720F07F4C80EAE0
:1013F000030023F07F47ACEB070303F57C5300F0B9
:10140000004003F1FF032DE980494FEA154B09B471
:101410004FEA144325EA0B4E24EA03480FF2042650
:1014200006EB132749083E785FEA320203FB0667A2
:10143000C7F5000707FB06F64FEA54374FEAD646D2
:1014400006F1020607FB066CCCF1005C4FEA1C4774
:101450002CEA074C07FB06F40CFB06F504EB1546DB
:101460004FEA961634BF00204FF000404FEAD137C4
:1014700006FB07FC4FEA1C4C0CFB0BF7D21B03FBD3
:101480000CF761EB07010CFB0EF7B0EB074072EBBA
:1014900017420CFB08F734BFA2EB0742B2EB07423E
:1014A00061EB17414FEA0C444FEA910706FB07FC3A
:1014B0004FEA1C4C0CFB0BF7B0EBC74072EB5732FA
:1014C00003FB0CF734BFA2EBC742B2EBC74261EBA0
:1014D00057310CFB0EF7B0EBC70072EB57720CFBE9
:1014E00008F734BFA2EBC702B2EBC70261EB57713A
:1014F000039F4FEA816141EA921104EBCC044FEA69
:10150000D1374FEA826206FB07FC42EA90124FEAAB
:1015100080604FEA1C4C0CFB0BF7D21B03FB0CF753
:1015200061EB07010CFB0EF7B0EB074072EB1742C3
:101530000CFB08F734BFA2EB0742B2EB074261EBAA
:1015400017414FEA8C554FEA910704EB9C2406FBA8
:1015500007FC4FEA1C4C0CFB0BF7B0EBC74072EBDF
:10156000573203FB0CF734BFA2EBC742B2EBC742C2
:1015700061EB57310CFB0EF7B0EBC70072EB577203
:101580000CFB08F734BFA2EBC702B2EBC70261EB5A
:10159000577115EB4C254FEA816141EA92114FEAF0
:1015A00082624FEAD13742EA901206FB07FC44F10F
:1015B00000044FEA80604FEA1C4C0CFB0BF7D21B77
:1015C00003FB0CF761EB07010CFB0EF7B0EB0740D8
:1015D00072EB17420CFB08F734BFA2EB0742B2EBE9
:1015E000074261EB174115EB1C154FEA813141EAC7
:1015F00092414FEA823242EA90424FEA80304FEA0B
:101600000C7644F1000448EA03434EEA0B484FF0DD
:10161000000EB2EB080C71EB030724BF624639469B
:101620004EEB0E0E4FF0000B0018524149414BEBB0
:101630000B0BB2EB080C71EB03077BF1000B24BF23
:10164000624639464EEB0E0E4FF0000B0018524129
:1016500049414BEB0B0BB2EB080C71EB03077BF131
:10166000000B24BF624639464EEB0E0E51EA0207CC
:1016700018BF46F0010616EB0E7655F1000254F144
:10168000000103D5BDE88901BDE80088BDE88901F6
:10169000BDE80048B619524141EB0101A3F1010335
:1016A000704780807F7E7D7C7B7A797877767675CF
:1016B0007473727171706F6E6E6D6C6C6B6A6A6947
:1016C0006868676666656464636362616160605FE1
:1016D0005F5E5E5D5D5C5C5B5B5A5A59595858575A
:1016E00057565655555554545353525252515150C2
:1016F00050504F4F4F4E4E4D4D4D4C4C4C4B4B4B15
:101700004A4A4A494949484848474747474646465A
:101710004545454444444443434343424242424195
:101720004141002B26D4770021D01CB54FEA370762
:1017300003B44FF010004FF010014FF000000FBC49
:10174000BDE810400BF1010BBBF1010F08BF5FEAD0
:10175000170722BF12F1010211F101014FF0004100
:1017600043F1000300F0004043EA00007047F9D362
:101770005708DAE746EA064613F1400F4FEA1646E5
:101780001FDD13F1200FDFBF16430A46002120336F
:101790005B42C8D0C3F1200746EA064602FA07F7C3
:1017A0004FEA164646EA0706C3F1200722FA03F27B
:1017B00001FA07F721FA03F14FF0000342EA0702AA
:1017C000B1E746EA020646EA06464FEA164646EA08
:1017D0000106BCBF46EA0646360C4FF000034FF048
:1017E00000024FF000019EE72DE9C048934630B457
:1017F00091E8380007C831EA400C48BF34EA430C8E
:1018000003D5FFF7F2FDFFF78CFFF0BCBDE80088C1
:101810002DE9C048934630B491E8380007C810F06D
:10182000804F08BF13F0804F03D100F005F8FFF799
:1018300078FFF0BCBDE8008820F07F4780EA030015
:1018400023F07F4C07EB0C03A3F57C5300F0004022
:10185000A3F1FE0392F0000F00F0B38095F0000FAB
:1018600000F077802DE901494FEA11404FEA144614
:1018700021EA004800FB06FC24EA064708FB06F6BE
:1018800007FB08F800FB07F718EB06484CEB164C73
:101890004FEA124B18EB07484FEA15464CEB17403E
:1018A00022EA0B4E0BFB06FC25EA06470EFB06F66A
:1018B00007FB0EFE0BFB07F71EEB064E4CEB164C20
:1018C0004FF000061EEB074E4CEB174B18EB0B08C6
:1018D00040F1000018EB0E0B58EB000840F100003F
:1018E0008F1A4FF000013CBFC943661B14BFB5EB14
:1018F000040C00213CBFC943F61B4FEA17444EEAD3
:101900008E0E27EA04454FEA1C4704FB07622CEAC7
:10191000074C05FB07F70CFB05F604FB0CFC16EB6C
:10192000074642EB174216EB0C4642EB1C421BEB00
:10193000060658EB0202414146EA9E0601D5BDE883
:101940000189B619524141EB0101A3F10103BDE840
:1019500001894FEA14454FEA114724EA054621EA76
:10196000074C05FB07F406FB07F70CFB06F105FB2C
:101970000CFC11EB074144EB17444FEA124711EB03
:101980000C4144EB1C4422EA074C05FB07F206FB22
:1019900007F70CFB06F605FB0CFC16EB074642EBC3
:1019A000174216EB0C4642EB1C456A1854F1000135
:1019B00048BF7047B619524141EB0101A3F1010341
:1019C000704795F0000F37D04FEA11424FEA1447A5
:1019D00021EA024624EA074C02FB07F106FB07F75F
:1019E0000CFB06F402FB0CFC14EB074441EB174123
:1019F0004FEA154714EB0C4441EB1C4125EA074C18
:101A000002FB07F506FB07F70CFB06F602FB0CFCD6
:101A100016EB074645EB174516EB0C4645EB1C420B
:101A2000121951F1000148BF7047B619524141EBFC
:101A30000101A3F1010370474FEA14454FEA114732
:101A400024EA054621EA074C05FB07F106FB07F7E8
:101A50000CFB06F24FF0000605FB0CFC12EB0742F4
:101A600041EB174112EB0C4251EB1C4148BF704750
:101A7000921841EB0101A3F10103704700BFFEE79B
:101A8000704710B56FF0040000F04EFD10BD00006F
:101A900002460D484FF4FA535A43426000238360D4
:101AA000036843F00103036000BF016801F0010314
:101AB0001BB101F48033002BF7D00023836003684F
:101AC00023F001030360704710E000E02DE9F041CE
:101AD00005460F460E4C4FF4FA5045436560002012
:101AE000A060206840F00100206000BFB847266871
:101AF00006F0010018B106F480300028F6D000206E
:101B0000A060206820F001002060BDE8F0810000A6
:101B100010E000E000BF4FF4FA5100BF491E002959
:101B2000FCD1401E0028F6D1704700BF082100BF3D
:101B3000491E0029FCD1401E0028F7D17047000043
:101B400010B5012000F03AF828B103490868804731
:101B5000012000F02DF810BD6408002010B504200D
:101B600000F02CF828B1034988688047042000F071
:101B70001FF810BD6408002010B5082000F01EF802
:101B800028B10349C8688047082000F011F810BD4B
:101B90006408002010B5102000F010F828B10349A7
:101BA00008698047102000F003F810BD6408002089
:101BB00001490860704700001404014001460020FC
:101BC0000022074B1B6803EA0102054B14331B6814
:101BD0000B4013B10AB1012000E000207047000063
:101BE000000401402DE9F0410246002500260020B6
:101BF00000230024002791F803C00CF00F0591F892
:101C000003C00CF0100CBCF1000F03D091F802C01F
:101C10004CEA050591F800C0BCF1000F31D0146802
:101C200000202BE04FF0010C0CFA00F3B1F800C0DB
:101C30000CEA03069E4220D183004FF00F0C0CFAF1
:101C400003F7BC4305FA03FC4CEA040491F803C013
:101C5000BCF1280F06D14FF0010C0CFA00FCC2F8C1
:101C600014C00AE091F803C0BCF1480F05D14FF051
:101C7000010C0CFA00FCC2F810C0401C0828D1D39B
:101C80001460B1F800C0BCF1FF0F34DD54680020CF
:101C90002EE000F1080C4FF0010808FA0CF3B1F83F
:101CA00000C00CEA03069E4221D183004FF00F0CC6
:101CB0000CFA03F7BC4305FA03FC4CEA040491F860
:101CC00003C0BCF1280F05D100F1080C08FA0CF88C
:101CD000C2F8148091F803C0BCF1480F07D100F19D
:101CE000080C4FF0010808FA0CF8C2F81080401CEC
:101CF0000828CED35460BDE8F0810000F0B50A4654
:101D0000002300240021002500F00046B6F1004F1A
:101D100002D11D4EF16901E01B4E7168C0F303450D
:101D200083B200F44016B6F5401F08D121F070616F
:101D3000154E766826F07066134F7E6012E000F450
:101D40008016B6F5801F06D1032606FA05F4A143D6
:101D500041F0706106E0460D360103FA06F6B14324
:101D600041F0706122B1460D360103FA06F63143A7
:101D700000F00046B6F1004F02D1034EF16101E0E0
:101D8000014E7160F0BD00000000014002460020DD
:101D900093680B400BB1012000E000207047024621
:101DA0000020D3680B400BB1012000E000207047F9
:101DB000416170470161704700BFFEE710B54FF405
:101DC00080611248FFF7F4FF1048001D006820F002
:101DD000F0200E49091D08600846006840F4405094
:101DE0000860C9140948FFF7E3FF0220FFF79DFED2
:101DF0004FF480610548FFF7DDFF0220FFF795FEF5
:101E00004FF480610148FFF7D3FF10BD000C014083
:101E100008B50121082000F087FA10208DF8030092
:101E200003208DF802008002ADF8000069460748E3
:101E3000FFF7D8FE4FF400610448FFF7BBFF4FF4F3
:101E400080610248FFF7B6FF08BD0000000C0140AA
:101E500010B54FF480611248FFF7AAFF1048001D2B
:101E6000006820F0F0200E49091D0860084600684F
:101E700040F440500860C9140948FFF79BFF022056
:101E8000FFF753FE4FF480610548FFF793FF0220F0
:101E9000FFF74BFE4FF480610148FFF789FF10BD4B
:101EA000000C014070B5054600241B48006820F472
:101EB0007040194908600846006840F40040086016
:101EC00000261EE04FF480611348001FFFF770FFEB
:101ED0000220FFF72AFE4FF480610F48001FFFF732
:101EE00069FF6006040E4FF400610B48001FFFF706
:101EF0004DFF08B1601CC4B20120FFF716FE701C34
:101F0000C6B2082EDEDB15B1FFF758FF01E0FFF780
:101F10009FFF204670BD0000040C014010B514481E
:101F2000006820F0F020124908600846006840F47C
:101F300040500860C9140E48001FFFF73BFF4FF4E4
:101F400080610B48001FFFF735FF0220FFF7EDFD12
:101F50004FF400610648001FFFF72AFF0220FFF739
:101F6000E4FD4FF480610248001FFFF721FF10BD20
:101F7000040C014010B51448006820F0F02012490C
:101F800008600846006840F44050086009150E4893
:101F9000001FFFF70DFF4FF400610B48001FFFF714
:101FA00007FF0220FFF7C1FD4FF480610648001FC4
:101FB000FFF700FF4FF400610348001FFFF7FAFE30
:101FC0000220FFF7B2FD10BD040C014010B5002443
:101FD0001A48006820F470401849086008460068F4
:101FE00040F400400860C9141448001FFFF7E2FEE7
:101FF0000220FFF79AFD4FF480611048001FFFF7A1
:10200000D9FE0220FFF791FD07E0601CC4B2FA2C54
:1020100003DDFFF7AFFF012010BD4FF4006107485B
:10202000001FFFF7B3FE0028EFD14FF48061034893
:10203000001FFFF7BDFE0020EEE70000040C01408A
:1020400070B505461F48006820F0F0201D49086063
:102050000846006840F44050086009151948001F00
:10206000FFF7A6FE082429E0601E45FA00F000F004
:10207000010030B14FF400611248001FFFF79AFED3
:1020800005E04FF400610F48001FFFF791FE0220AA
:10209000FFF74BFD4FF480610A48001FFFF78AFEEF
:1020A0000220FFF742FD4FF480610648001FFFF752
:1020B0007FFE0220FFF739FD601EC4B2002CD3DC86
:1020C00070BD0000040C014010B5044604F001008E
:1020D00070B120211048FFF762FE012804D12021B1
:1020E0000D48FFF765FE03E020210B48FFF762FE75
:1020F00004F0020070B120210848FFF750FE0128CB
:1021000004D120210548FFF753FE03E020210348B6
:10211000FFF750FE10BD0000000C01400018014008
:1021200008B50121482000F0FFF82020ADF800009C
:1021300010208DF8030003208DF80200694609483D
:10214000FFF750FD20210748FFF734FE2020ADF8AF
:10215000000069460448FFF745FD20210248FFF7CB
:1021600029FE08BD000C01400018014010B50446CE
:1021700004F0010018B120210548FFF71BFE04F010
:10218000020018B120210348FFF714FE10BD000023
:10219000000C01400018014010B5044604F0010095
:1021A00018B120210548FFF703FE04F0020018B122
:1021B00020210348FFF7FCFD10BD0000000C01408A
:1021C000001801402DE9F04104460F4615461E4611
:1021D000FFF7A4FE002141EA4401C8B2FFF730FF37
:1021E000FFF7F4FE10B10120BDE8F0813846FFF79B
:1021F00027FFFFF7EBFEFFF791FE012101EB440102
:10220000C8B2FFF71DFFFFF7E1FE08E00DB10121A5
:1022100000E000210846FFF745FE3070761C2800DC
:10222000A5F10101CDB2F1D1FFF7A4FE0020DBE75B
:102230002DE9F04105460E4617469846FFF76EFE1B
:10224000002141EA4501C8B2FFF7FAFEFFF7BEFEE2
:1022500010B10120BDE8F0813046FFF7F1FEFFF735
:10226000B5FE00240CE018F80400FFF7E9FEFFF7C4
:10227000ADFE18B1FFF77EFE0120EBE7601CC4B293
:10228000BC42F0DBFFF776FE0020E3E700BFFEE78D
:102290007047000070B5002100230F22C47804B3FA
:1022A000154C246804F4E064C4F5E064210AC1F12B
:1022B0000403CA40447804FA03F1847814402143AB
:1022C00009010E4C0678A155047804F01F0501247D
:1022D000AC4005786D11AD0005F1E025C5F8004171
:1022E00009E0047804F01F050124AC40044D067891
:1022F000761145F8264070BD0CED00E000E400E0EA
:1023000080E100E07047000029B1064A12690243EB
:10231000044B1A6104E0034A12698243014B1A61BB
:10232000704700000010024029B1064A926902433A
:10233000044B9A6104E0034A92698243014B9A611B
:10234000704700000010024029B1064AD2680243DB
:10235000044BDA6004E0034AD2688243014BDA603E
:10236000704700000010024030B500210022002418
:1023700000232D4D6D6805F00C0121B1042905D015
:10238000082923D105E0294D056022E0274D05608D
:102390001FE0254D6D6805F47012234D6D6805F43E
:1023A0008034022505EB92421CB9214D554305604E
:1023B0000BE01D4D6D6805F400351DB11C4D5543F6
:1023C000056002E0194D5543056002E0174D0560B8
:1023D00000BF00BF144D6D6805F0F0010909154DEF
:1023E0006B5C0568DD4045600F4D6D6805F4E0618C
:1023F000090A104D6B5C4568DD4085600A4D6D68CB
:1024000005F46051C90A0B4D6B5C4568DD40C56041
:10241000054D6D6805F44041890B074D6B5CC5683F
:10242000B5FBF3F5056130BD0010024000127A00E3
:1024300000093D000000002010000020704710B58A
:1024400000F002F810BD00000CB5002001900090D3
:102450003348006840F480303149086000BF30489C
:10246000006800F4003000900198401C0190009832
:1024700018B90198B0F5A06FF1D12948006800F4AF
:10248000003010B10120009001E000200090009881
:10249000012843D12348006840F01000214908601A
:1024A0000846006820F0030008600846006840F015
:1024B000020008601A4840681949486008464068A8
:1024C00048600846406840F48060486008464068BC
:1024D00020F47C1048600846406840F4E8104860EA
:1024E0000846006840F08070086000BF0C48006833
:1024F00000F000700028F9D00948406820F003007F
:10250000074948600846406840F00200486000BF44
:102510000348406800F00C000828F9D10CBD000009
:102520000010024000200240042808D14FF0E021B2
:10253000096941F004014FF0E022116107E04FF01A
:10254000E021096921F004014FF0E0221161704798
:102550007047000010B51348006840F001001149B1
:10256000086008464068104908400E49486008461F
:1025700000680E4908400B4908600846006820F4CE
:10258000802008600846406820F4FE0048604FF450
:102590001F008860FFF753FF4FF000600449086098
:1025A00010BD0000001002400000FFF8FFFFF6FE23
:1025B00008ED00E010B51048007800B910BD0F48D4
:1025C00000680F490968884213D240210D4800F085
:1025D00081F901280DD109480088C0F308000A4A92
:1025E000115C084800F019FA04480068401C0349CF
:1025F000086000BFE2E70000280000202000002063
:1026000024000020003801406406002010B586B088
:102610000446012144F20400FFF786FE234800F03F
:102620000BF94FF40070ADF8040018208DF8070086
:1026300003208DF8060001A91D48FFF7D3FA4FF4D7
:102640008060ADF8040004208DF8070001A9184847
:10265000FFF7C8FA02940020ADF80C00ADF80E00A8
:10266000ADF81000ADF814000C20ADF8120002A96E
:102670000E4800F061F925208DF8000001208DF84A
:10268000010003208DF8020001208DF80300684648
:10269000FFF700FE012240F22551044800F027F91F
:1026A0000121024800F0BCF806B010BD003801401E
:1026B0000008014010B5044611480078E0B1DCB9CB
:1026C00014E000BF40210F4800F004F90128F9D1BF
:1026D0000D480088C0F308000C4A115C094800F05E
:1026E0009CF909480068401C0749086006480068D2
:1026F000074909688842E4D30148047010BD00000E
:10270000280000200038014020000020640600203E
:10271000240000200FB438B505A800904FF40071D4
:102720000748009B049AFDF7EBFD0446002000904B
:102730002146034800F006F838BC5DF814FB0000A1
:102740006404002070B506460D461348007888B131
:1027500000240CE0305D11490988C1F30801104ADA
:1027600050540E480068401C0C490860641CAC4280
:10277000F0DB0FE000240BE000BF4021094800F02F
:10278000A9F80128F9D1315D064800F046F9641C2A
:10279000AC42F1DB284670BD280000202400002058
:1027A000640600200038014010B5194800F030F9E7
:1027B00004460D2C06D117480078401C15490870B6
:1027C000002410E00A2C0ED113480088401EC0F3EC
:1027D00008001249085C00B910BD0E480078401C82
:1027E0000C4908700024E1B20B480088C0F30800CF
:1027F0000A4A115408480088C0F3080000F5007028
:10280000115405480068401C0349086000BFE3E715
:1028100000380140140000201C000020640000204B
:1028200021B1828942F40052828104E082894DF60E
:10283000FF731A408281704710B5044620488442D5
:1028400009D101218803FFF77FFD00214FF480406B
:10285000FFF77AFD32E01B48844209D10121480488
:10286000FFF752FD00214FF40030FFF74DFD25E04A
:102870001548844209D101218804FFF745FD002154
:102880004FF48020FFF740FD18E01048844209D142
:102890000121C804FFF738FD00214FF40020FFF7A5
:1028A00033FD0BE00A48844208D101210805FFF7F7
:1028B0002BFD00214FF48010FFF726FD10BD000016
:1028C000003801400044004000480040004C0040F7
:1028D0000050004002460020B1F5007F00D100BF4B
:1028E00013880B400BB1012000E000207047F0B5C9
:1028F0000346002400260025002040F66A17B9424E
:1029000000D100BF1846C1F3421401F01F06012791
:1029100007FA06F5012C01D10C3004E0022C01D19C
:10292000103000E014301AB107682F43076002E04E
:102930000768AF430760F0BD2DE9F04786B0054654
:102940000E460024A24600BFA1460027B08900B170
:1029500000BF2F462C8A4CF6FF700440F0880443D9
:102960002C82AC894EF6F3100440B08831890843BC
:10297000718908430443AC81AC8A4FF6FF400440A0
:10298000B0890443AC8201A8FFF7EEFC1F488742E0
:1029900002D1DDF810A001E0DDF80CA0A88900F458
:1029A000004040B10AEBCA0000EB0A103168490050
:1029B000B0FBF1F807E00AEBCA0000EB0A1031683F
:1029C0008900B0FBF1F86420B8FBF0F004012009A5
:1029D000642101FB1089A88900F4004040B1322035
:1029E00000EBC900B0FBF1F000F00700044308E081
:1029F000322000EB09106421B0FBF1F000F00F0071
:102A000004432C8106B0BDE8F08700000038014087
:102A100001468888C0F308007047C1F3080282802D
:102A2000704700BFFEE7490050EAC12018BF0420EC
:102A30004A0D18BF40F0010040F2FF72B2EB515F47
:102A400008BF40F00200012808BF052070472DE9AB
:102A5000F0414F1E00EBC7010446D1E900011546C5
:102A60001E4637F006020DD02A46334603F0A8FB77
:102A70007F1E04EBC703D3E9002303F099F937F075
:102A80000602F1D1022F25D0042F13D0062F18BF34
:102A9000BDE8F0812A46334603F092FBD4E90A23CD
:102AA00003F086F92A46334603F08AFBD4E908236B
:102AB00003F07EF92A46334603F082FBD4E906236D
:102AC00003F076F92A46334603F07AFBD4E904236F
:102AD00003F06EF92A46334603F072FBD4E9022371
:102AE00003F066F92A46334603F06AFBD4E9002373
:102AF000BDE8F04103F05CB9012204F00EBA03F026
:102B000057B9002213461046114603F001BA0000DF
:102B1000024A0020110704F000BA000001FDFFFF87
:102B200030380A2801D20120704700207047000089
:102B30002DE9FE4F06460F460025684601F09EFA35
:102B4000002442E056F8240057F82410A0EB010AB4
:102B5000BAF1000F01DB514601E0CAF1000108465D
:102B600003F0D4FF83464FF08F4103F09DFE804673
:102B70005DF82400002103F059FF16D05DF8241001
:102B8000404603F091FE82464FF07E5104F01CF95E
:102B9000814629F0004A0F48416A504604F0E2F8A5
:102BA00012D20120A04005430EE00A48C169404608
:102BB00003F0D8FF05D30748016A404604F0D2F875
:102BC00002D20120A0400543641C032CBADB284636
:102BD000BDE8FE8FD06F00082DE9F04D0546DFF807
:102BE000388221F000408D4F82B00C46404520DBFA
:102BF000A0EB080129430BD08949884201DC10D1A0
:102C00007DB102B028462146BDE8F04DFFF774BF04
:102C1000002CC7BF002001468248394602B0BDE8FB
:102C2000F08D0120FDF739FC02B0BDE8F04DFFF753
:102C300068BF7D49884244DA7C498142A1BF794816
:102C40007B4902B0BDE8F08D2A462346104619465E
:102C500003F0B6FA8346024676480E460B46062136
:102C60007844FFF7F4FE5A46334603F0A9FA0746C4
:102C700071488A465A46334604217844FFF7E7FEF6
:102C80005A46334603F09CFA0022434603F090F87C
:102C900002460B463846514603F03AF92A46234687
:102CA00003F08EFA654A664B03F088FB2A462346FA
:102CB00003F084FB02B05B4ABDE8F04D5C4B03F0CF
:102CC0007DBB002C4FF000024BDA464643462846B7
:102CD000214603F06DF84FF0FF3204F01EF9044670
:102CE000024658480D460B4606217844FFF7AFFED2
:102CF00022462B4603F064FA804653488A46224611
:102D00002B4604217844FFF7A2FE22462B4603F00F
:102D100057FA0022334603F04BF806468B4620460E
:102D2000294602F0C1FF04460D4632465B46404646
:102D3000514603F0EDF822462B4603F041FA3F4A94
:102D40003F4B03F02DFC22462B4603F031F80122C5
:102D500004F0E3F802B03B46BDE8F04D314A03F021
:102D60002DBB2D4B2846214603F028FB4FF0FF32A8
:102D700004F0D3F805460E4602F096FF00270C46F5
:102D800080463A460B4603F013F882468B463A4695
:102D900023461046194603F013FA2A46334603F039
:102DA0000DFB52465B4603F0B3F8824627488B463C
:102DB0002A46334606217844FFF749FE2A46334621
:102DC00003F0FEF9CDE9000121482A4633460421EB
:102DD0007844FFF73CFE2A46334603F0F1F900221F
:102DE0000D4B02F0E5FF02460B46DDE9000103F062
:102DF0008FF84246234603F0E3F952465B4602F061
:102E0000D7FF3A46234602F0D3FF02B00122BDE8C5
:102E1000F04D04F082B800000000F03FFB210940B3
:102E20000000F07F182D44540000E03F0000603C9B
:102E3000FB21F93F8C4F0000A24F0000075C1433C8
:102E400026A6913C024F0000184F0000364E0000AD
:102E50004C4E00002DE9F04D8D4F21F0004A86B018
:102E600005460C46BA452ADBAAEB070028430AD0E0
:102E70008848824501DC1AD1CDB106B02846BDE8AC
:102E8000F04DFFF739BE844A844B284603F098F989
:102E900007460E46824A834B2846214603F090F9A6
:102EA00006B03A463346BDE8F04D02F081BF01203E
:102EB000FDF7F3FA06B0BDE8F04DFFF722BE7A4801
:102EC000824542DABAF1795F0BDA2846FFF7ABFDAB
:102ED000042808BFFFF71CFE284606B02146BDE8BF
:102EE000F08D2A460B46104603F06AF983460246E7
:102EF0006E480E460B4606217844FFF7A8FD5A4659
:102F0000334603F05DF9804669488A465A4633469F
:102F100004217844FFF79BFD5A46334603F050F9ED
:102F200000223B4602F044FF02460B464046514613
:102F300002F0EEFF2A46234603F042F906B02A4685
:102F40002346BDE8F04D02F033BF284624F000418F
:102F500000223D463B4603F031FA4FF0FF3203F0CA
:102F6000DCFF0646024653480F460B4606217844CE
:102F7000FFF76DFD32463B4603F022F9CDE9000133
:102F80004D4832463B4604217844FFF760FD324607
:102F90003B4603F015F900222B4602F009FF834659
:102FA00002913046394602F07FFE804643480D4686
:102FB000504517DCDDE900015A46029B02F0A8FFEC
:102FC00042462B4603F0FCF842462B4602F0F0FE48
:102FD000012203F0A2FF304A304B03F0E1FA304AFD
:102FE000304B4CE04FF0000A52460B46404602F090
:102FF000DFFECDE9031052462B461046194603F07A
:10300000DFF832463B4603F0D9F9DDE9033202F03E
:103010007FFF06460F46DDE900015A46029B02F09B
:1030200077FF8346009101223046394603F075FF51
:10303000194A1A4B03F0C2F906460F4601224046D0
:10304000294603F06AFF5A46009B03F0B9F832465E
:103050003B4603F0A5FA06460F4601225046294694
:1030600003F05BFF0E4DDFF858802A46434603F01D
:10307000A5F932463B4603F0A1F92A46434603F040
:103080009DF9002CD8BF81F0004106B0BDE8F08D5D
:103090000000F03F0000F07F075C143326A6913C4F
:1030A000182D4454FB21F93F0000E03F444D00003F
:1030B0005A4D0000CE4C0000E44C00003333EF3F8B
:1030C000FB21E93F2DE9F84F04460D4621F0004071
:1030D00000917349814211DC7249884201DC06D1BA
:1030E0002CB120462946BDE8F84FFFF705BD6E48D4
:1030F000002DCCBF6D496E49BDE8F88F6D49814206
:1031000011DD6D498142D8BF4FF0FF366DDD20469D
:103110002946FFF788FC042808BFFFF7F9FC204682
:103120002946BDE8F88F6549654F25F00045814285
:1031300033DD6449814219DD002632464FF0804379
:103140002046294602F034FE80468A460122204667
:10315000294603F0E2FE00223B4603F021FA4246F4
:10316000534602F0D5FE04460D463EE001260022FD
:10317000BA463B462046294602F01AFE80460F46D4
:10318000002253462046294603F00AFA42463B46AF
:1031900002F0BEFE04460D4627E04B4981421BDD8E
:1031A000DFF828A10226002253462046294603F0D4
:1031B00007F800223B4602F0FBFD80460F46002246
:1031C00053462046294603F0EBF942463B4602F0BF
:1031D0009FFE04460D4608E0032622462B460020AB
:1031E0003B4902F095FE04460D4622462B4610460A
:1031F000194602F0E5FF8B46824602460B4602F076
:10320000DFFF07460246334888460B4606217844CE
:10321000FFF71DFC52465B4602F0D2FF82462E4865
:103220008B463A46434605217844FFF710FC3A4660
:10323000434602F0C5FF02460B46002E5046594653
:103240000CDA02F0B5FD22462B4602F0B9FF01B0C0
:1032500022462B46BDE8F04F03F0B0B802F0A8FDBF
:1032600022462B4602F0ACFF1C4A7A4402EBC6030E
:10327000D3E9002303F094F922462B4603F090F99A
:10328000174A7A4402EBC603D3E9002303F096F809
:10329000009A002AB8BF81F00041BDE8F88F000015
:1032A000000010440000F07F182D4454FB21F93F2A
:1032B000FB21F9BF0000DC3F0000203E0000F33F8F
:1032C0000000F03F0000E63F008003400000F83FB0
:1032D0000000F0BF2E4B0000EC4A00008A4A0000BC
:1032E000524A00002DE9F04D9446CCF1000423F041
:1032F00000464CEA0404524F46EAD4749A46884683
:1033000021F00042BC4206D8454240EA050442EAA8
:10331000D474BC4204D9BDE8F04D6246FFF7EFBB60
:10332000AAF14055A5F17F6555EA0C040BD00224A3
:1033300004EAAA74434DDFF810E144EAD87452EA73
:10334000000B04D00CE0BDE8F04DFFF7BBBE002C35
:1033500014BF012CBDE8F08D022C30D0032C32D0EC
:1033600056EA0C0B0AD0BE4220D1BA4209D126F04F
:10337000804622F080423346114617E000291ADBCE
:1033800025E0DFF8C8B0FB44002C04BFDBE90001F6
:10339000BDE8F08D012C02BFDBE9000181F00041A6
:1033A000BDE8F08D022C0AD0032C0CD0BA4212D109
:1033B000B8F1000F0BDA23482549BDE8F08D284607
:1033C0002449BDE8F08D28467146BDE8F08D1D48C2
:1033D0002149BDE8F08D921B12153C2AC4BF194843
:1033E0001D490EDCBAF1000FBEBF12F13C0F0020E8
:1033F000014606DB624602F08BFD21F00041FFF73B
:1034000061FE002C08BFBDE8F08D012C04BF81F0E7
:103410000041BDE8F08D114A114B022C07D003F09A
:10342000BFF82A46BDE8F04D0A4B03F0B9B803F0E7
:10343000B7F82A46BDE8F04D064B02F0BFBF0000CA
:103440000000F07F182D4454FB2109C0E64900001C
:10345000FB21F9BFFB210940FB21F93F075C143335
:1034600026A6A13C2DE9F0410446E07800F0C00614
:10347000E07800F03F05607800F0010098B1EF10AF
:103480002846E91705EB5171C910A5EBC101491C8C
:1034900001F0FF080B48006820B10A484146026865
:1034A0003846904700BF607800F0080030B105480A
:1034B000406818B1B011034A516888470020BDE840
:1034C000F08100007808002038B5044664B120205F
:1034D0008DF8000028208DF8010030208DF80200C2
:1034E00038208DF8030004E0A32204216846FCF78D
:1034F0004DFF6A46042140F69E2002F001FB01F0D8
:10350000A9FE38BD3EB5044602208DF80000CA2051
:103510008DF80100E3208DF8020009208DF80300EA
:103520006A460421682002F0EBFAA3208DF800001F
:1035300004F0400048B1C0208DF80100C8208DF88B
:103540000200C2208DF8030006E0A3208DF80100E0
:103550008DF802008DF8030004F4C07048B1C42057
:103560008DF80400CC208DF80500C6208DF80600EB
:1035700006E0A3208DF804008DF805008DF8060004
:10358000A3208DF807008DF808008DF809006A4621
:103590000A2140F6A72002F0B3FA04F0030018B1A4
:1035A00020208DF8000002E0D8208DF800006A4647
:1035B000012140F6B62002F0A3FA04F0200018B171
:1035C000012000F0ADF802E0002000F0A9F804F4BA
:1035D000C07008B304F4807060B1B2208DF80000B0
:1035E0008B208DF80100B6208DF802009B208DF80D
:1035F00003000BE0B0208DF8000080208DF8010062
:10360000B4208DF8020090208DF803006A46042152
:1036100040F6A22002F074FA04F0010020B3F82072
:103620008DF800006A4601214FF40B6002F068FA41
:10363000FA21072000F02CFC072000F0F3FB01200A
:1036400000F013FC642000F0F3FC4FF4FA7000F07B
:1036500002FDC821304800F0A3FB282000F0BCFB8D
:103660000A2000F0CCFB08E0D8208DF800006A4664
:1036700001214FF40B6002F043FA04F0020018B18C
:10368000D9208DF8000002E0D8208DF800006A46AD
:10369000012140F23D7002F033FA04F0040018B149
:1036A000012000F069F802E0002000F065F804F065
:1036B000100018B10120FFF707FF02E00020FFF71C
:1036C00003FF44F008001549488101F0C3FD0020C4
:1036D0001249887304F0400018B10846807B801DB1
:1036E000887304F4C07020B10C48807B801D0B49A6
:1036F000887304F0140020B10848807B103007491B
:10370000887304F0030020B10448807B001D034946
:10371000887300203EBD000009E3CA02780800203B
:103720003EB504466CB10EA1D1E900208968CDE90F
:10373000002002916A4609214FF4976002F0E0F9F7
:103740003EBD0AA2D2E900109268CDE901020091C3
:103750006A4609214FF4976002F0D2F9F0E70000C1
:10376000B8AAB38DB4980D355D000000B8AAAAAA16
:10377000B088C3C5C700000038B5044664B1C02096
:103780008DF80000C2208DF80100C4208DF80200E1
:10379000C6208DF8030004E08B2204216846FCF764
:1037A000F5FD6A46042140F6982002F0A9F901F0DF
:1037B00051FD38BD10B5C8234FF48062024940F670
:1037C000F63001F0C7FB10BDF86F00082DE9F04F8F
:1037D0008DB00746884615469946DDE9166B0024EC
:1037E000002030806A49887B5A4605A901F092FC86
:1037F00018B1601E0DB0BDE8F08F6548807A00F00A
:103800001400002867D09DF8140000069DF81510DC
:1038100040EA01409DF8161040EA01209DF817107B
:10382000084328609DF8180000069DF8191040EA2A
:1038300001409DF81A1040EA01209DF81B10084332
:1038400068609DF81C0000069DF81D1040EA0140CC
:103850009DF81E1040EA01209DF81F100843A86043
:103860009DF8200000069DF8211040EA01409DF8D7
:10387000221040EA01209DF823100843E86004F17B
:103880001000C4B228680014019068680014029007
:10389000A86800140390E86800140490019840435D
:1038A000029901FB0100039901FB0100049901FB4E
:1038B000010ABAF1706F02DBBAF1885F05DD01F031
:1038C000C9FC00203080401E94E7B6F9000040F4A7
:1038D0008070308000BF2E48807A00F0400020B316
:1038E00005A9601C085C095D40EA012000B2A8F847
:1038F000000005A9E01C095C05AAA01C105C41EAB7
:10390000002000B2A8F8020005A9601D095C201D76
:10391000105C41EA002000B2A8F80400A01DC4B267
:10392000B6F9000040F0080030801948408900F4E2
:10393000C07008B305A9601C085C095D40EA01205D
:1039400000B2388005A9E01C095C05AAA01C105C27
:1039500041EA002000B2788005A9601D095C201DA5
:10396000105C41EA002000B2B880A01DC4B2B6F9D4
:10397000000040F0700030800548807A00F00300BD
:1039800018B105A90819FFF76DFD00BF002031E748
:103990007808002070B588B0064601A801F02EF91D
:1039A000BDF804000021C90341EA5045C40300BF2B
:1039B0004448007A00F0030056F820000590414882
:1039C000007A00F0040010B10598404205903D488F
:1039D000007AC0F3C10056F8200006903948007AFA
:1039E00000F0200010B10698404206903548007A59
:1039F000C0F3811056F8200007903248008900F487
:103A0000807010B10798404207900598C117A0FB3D
:103A1000042301FB043100FB0510810041EA927090
:103A200005900698C117A0FB042301FB043100FB9D
:103A30000510810041EA927006900798C117A0FB1B
:103A4000042301FB043100FB0510810041EA927060
:103A500007900598000E8DF808000598000C8DF869
:103A600009000598000A8DF80A000598C0B28DF883
:103A70000B000698000E8DF80C000698000C8DF8CF
:103A80000D000698000A8DF80E000698C0B28DF859
:103A90000F000798000E8DF810000798000C8DF8A5
:103AA00011000798000A8DF812000798C0B28DF82F
:103AB000130002AA0C214FF4257002F021F808B07F
:103AC00070BD00007808002030B585B0044616A20D
:103AD00007CA02AB07C3C82C03DD4FF0FF3005B0A7
:103AE00030BDC82090FBF4F0401E85B2280A8DF846
:103AF0000000E8B28DF801006A46022140F216206B
:103B000001F0FEFF10B14FF0FF30E8E702AA0C21F0
:103B100040F6C12001F0F4FF10B14FF0FF30DEE7B6
:103B2000044884810020DAE7FEF2ABC4AAF1DFDFAB
:103B3000BBAFDFDF780800201FB504464848007A95
:103B400000F0030054F8200001904548007A00F08E
:103B5000040010B10198404201904148007AC0F33E
:103B6000C10054F8200002903D48007A00F0200087
:103B700010B10298404202903948007AC0F3811097
:103B800054F8200003903648008900F4807010B18A
:103B90000398404203903349019880FB0101800F54
:103BA00040EA810001902F49029880FB01108200B9
:103BB00042EA917002902B49039880FB0110820029
:103BC00042EA917003900198000E8DF80000019870
:103BD000000C8DF801000198000A8DF80200019890
:103BE000C0B28DF803006A4604214FF4747001F0EE
:103BF00087FF18B14FF0FF3004B010BD0298000EDF
:103C00008DF800000298000C8DF801000298000A5F
:103C10008DF802000298C0B28DF803006A460421B4
:103C20004FF4757001F06CFF10B14FF0FF30E3E717
:103C30000398000E8DF800000398000C8DF8010029
:103C40000398000A8DF802000398C0B28DF80300B3
:103C50006A4604214FF4767001F052FFCCE7000071
:103C60007808002009E3CA0210B586B0044647A0D0
:103C70000068039046A00068029046A0006801908A
:103C800045A00068009004F0030003A9085C8DF8CB
:103C9000140003A8C4F3C101405C8DF8150003A80B
:103CA000C4F38111405C8DF8160004F0030002A9F2
:103CB000085C8DF8100002A8C4F3C101405C8DF8C7
:103CC000110002A8C4F38111405C8DF8120005AA0E
:103CD000032140F2264001F013FF18B14FF0FF30EE
:103CE00006B010BD04AA032140F22A4001F008FFEB
:103CF00010B14FF0FF30F3E7019805900098049061
:103D000004F0040058B19DF8140040F001008DF853
:103D100014009DF8100040F001008DF8100004F030
:103D2000200058B19DF8150040F001008DF81500F5
:103D30009DF8110040F001008DF8110004F480702E
:103D400058B19DF8160040F001008DF816009DF85E
:103D5000120040F001008DF8120005AA03214FF473
:103D6000886001F0CDFE10B14FF0FF30B8E704AA33
:103D7000032140F2314001F0C3FE10B14FF0FF309B
:103D8000AEE7064804810020AAE700004CCD6C0095
:103D90000CC92C00365676002646660078080020AE
:103DA000F8B505460E464FF47A7095FBF0F000FB2F
:103DB00006F4200E8DF80000200C8DF80100200A7A
:103DC0008DF80200E0B28DF803006A4604214FF43A
:103DD000AE7001F095FEF8BD38B50446052094FBA1
:103DE000F0F084B220128DF80000E0B28DF80100EE
:103DF0006A4602214FF4AD7001F082FE38BD38B53D
:103E00000446052094FBF0F084B220128DF80000E7
:103E1000E0B28DF801006A4602214FF4AC7001F067
:103E20006FFE38BD38B504460020009004F0010054
:103E300020B19DF8000040F03000009004F0020036
:103E400020B19DF8000040F00C00009004F0040048
:103E500020B19DF8000040F0030000906A46012167
:103E60004FF4A47001F04CFE38BD38B50446012C67
:103E700001DA012402E0042C00DD0424601EC0B23B
:103E800000906A46012140F24F1001F039FE38BD22
:103E90002DE9FC4706460F4606F0070010B1B7F5BE
:103EA000C86F03DD4FF0FF30BDE8FC87384602F0F5
:103EB00045FE8146594902F0F7FC8046684600F00D
:103EC00077FE9DF80000022806D0042816D00828A6
:103ED00026D0102848D135E04FF08D41404602F001
:103EE00075FE814602F0F2FD84B24D49404602F073
:103EF0006DFE814602F0EAFD85B238E04FF08C415C
:103F0000404602F063FE814602F0E0FD84B245497E
:103F1000404602F05BFE814602F0D8FD85B226E005
:103F20004FF08B41404602F051FE814602F0CEFD3B
:103F300084B23D49404602F049FE814602F0C6FD8A
:103F400085B214E04FF08A41404602F03FFE8146C0
:103F500002F0BCFD84B23549404602F037FE81468E
:103F600002F0B4FD85B202E04FF0FF309CE700BFE5
:103F700020128DF80400E0B28DF8050028128DF8AB
:103F80000600E8B28DF8070006F00100A0B101AA12
:103F900002214FF4EA7001F0B3FD10B14FF0FF3091
:103FA00082E70DF1060202214FF4927001F0A8FDA4
:103FB00010B14FF0FF3077E706F00200A0B101AA80
:103FC00002214FF4EC7001F09BFD10B14FF0FF3077
:103FD0006AE70DF1060202214FF4947001F090FDA2
:103FE00010B14FF0FF305FE706F00400A0B101AA66
:103FF00002214FF4EE7001F083FD10B14FF0FF305D
:1040000052E70DF1060202214FF4967001F078FD9F
:1040100010B14FF0FF3047E7002045E7000048436C
:10402000000040460000C045000040450000C0447C
:1040300038B50446052094FBF0F085B228128DF8BF
:104040000000E8B28DF801006A4602214FF4EF70DB
:1040500001F056FD38BD38B50446052094FBF0F05C
:1040600085B228128DF80000E8B28DF801006A468A
:1040700002214FF4ED7001F043FD38BD7CB50546DB
:1040800028494968087801AB04220D21FEF79AF807
:1040900008B107207CBD9DF80700C0F301109DF812
:1040A000041001F0E00140EAE1008DF800009DF805
:1040B0000700C0F381009DF8051001F0E00140EA1F
:1040C000E1008DF801009DF8070000F003009DF865
:1040D000061001F0E00140EAE1008DF80200002442
:1040E0001CE01DF8040018B9002045F8240013E076
:1040F0000D4845F8240006E055F824000B4902F06D
:1041000065FD45F824001DF80400401EC0B20DF8FE
:1041100004000028F0D100BF601CC4B2032CE0DB17
:104120000020B7E72C0000207B14AE3E1D5A843FD0
:104130002DE9F04F87B005460C46914601208DF8D9
:10414000100000208DF81100FE4A1268917CFD4A93
:104150005268107804AB0222FEF76AF820B14FF0E3
:10416000FF3007B0BDE8F08FC820FDF7D3FC00207A
:104170008DF81000F34A1268D17BF24A5268107829
:1041800004AB0122FEF754F810B14FF0FF30E8E71E
:10419000EC4A12685179EB4A5268107804AB01225C
:1041A000FEF746F810B14FF0FF30DAE7E54A126843
:1041B000917CE44A5268107804AB0122FEF738F88B
:1041C00010B14FF0FF30CCE7DE4A1268D17DDD4AF6
:1041D0005268107804AB0122FEF72AF810B14FF0B4
:1041E000FF30BEE7D74A12681179D64A5268107874
:1041F00004AB0122FEF71CF810B14FF0FF30B0E71E
:104200000C208DF81000CF4A12681179CD4A5268FF
:10421000107804AB0122FEF70BF810B14FF0FF301D
:104220009FE70F20FDF776FCC648806A407A8DF83C
:104230001000C44A12689178C24A5268107804ABE0
:104240000122FDF7F5FF10B14FF0FF3089E7BD48BF
:10425000806A007A8DF81000BA4A12685178B94A1B
:104260005268107804AB0122FDF7E2FF10B14FF065
:10427000FF3076E7B9F1000F07D0B248806A807A44
:1042800040F0E0008DF8100004E0AE48806A807ACB
:104290008DF81000AB4A12689179AA4A52681078DA
:1042A00004AB0122FDF7C4FF10B14FF0FF3058E717
:1042B000B9F1000F07D0A348806AC07A40F0E0004F
:1042C0008DF8100003E0A048C07A8DF810009D4AD8
:1042D0001268D1799B4A5268107804AB0122FDF72D
:1042E000A7FF10B14FF0FF303BE7B9F1000F02D04C
:1042F000C820FDF70FFC40208DF81000914A12688D
:104300001179904A5268107804AB0122FDF790FFB2
:1043100010B14FF0FF3024E778208DF81000894A63
:1043200012685179874A5268107804AB0122FDF770
:104330007FFF10B14FF0FF3013E783498889FDF705
:10434000E9FB00208DF810007E4A126851797D4A01
:104350005268107804AB0122FDF76AFF10B14FF0EC
:10436000FF30FEE6774A1268917A764A52681078F2
:1043700004AB0222FDF726FF10B14FF0FF30F0E64C
:104380009DF811009DF8101040EA012B0C209BFBBA
:10439000F0F0C6B20020A86068602860A06060608D
:1043A0002060824665E0674A1268D17A654A5268A1
:1043B000107804AB0C22FDF705FF10B14FF0FF3071
:1043C000CFE69DF811009DF8101040EA012000B2E0
:1043D000ADF808009DF813009DF8121040EA012086
:1043E00000B2ADF80A009DF815009DF8141040EADF
:1043F000012000B2ADF80C00BDF908102068084497
:104400002060BDF90A10606808446060BDF90C10B6
:10441000A0680844A0609DF817009DF8161040EAB7
:10442000012000B2ADF800009DF819009DF81810A9
:1044300040EA012000B2ADF802009DF81B009DF893
:104440001A1040EA012000B2ADF80400BDF90010D6
:10445000286808442860BDF902106868084468604C
:10446000BDF90410A8680844A8600AF1010000F032
:10447000FF0AB24597DB3448D0F800C02868C1175E
:10448000090441EA10410704624600233846FBF75D
:1044900013FF32460023CDE90201FBF70DFF286030
:1044A0002948D0F800C06868C117090441EA1041E2
:1044B0000704624600233846FBF7FEFE324600231F
:1044C000CDE90201FBF7F8FE68601F48D0F800C094
:1044D000A868C117090441EA104107046246002395
:1044E0003846FBF7E9FE32460023CDE90201FBF72F
:1044F000E3FEA8601448D0F804C02168C81700047F
:1045000040EA11480F046246002338464146FBF753
:10451000D3FE32460023CDE90201FBF7CDFE206039
:104520000948D0F804C06068C117090441EA104185
:104530000704624600233846FBF7BEFE32460023DE
:1045400004E000002C000020D06F0008CDE902013B
:10455000FBF7B2FE60601148D0F804C0A068C11734
:10456000090441EA10410704624600233846FBF77C
:10457000A3FE32460023CDE90201FBF79DFEA060B9
:10458000A068002804DDA068A0F58030A06003E0EA
:10459000A06800F58030A0600020E2E5D06F000840
:1045A0002DE9FC5F06460F4600253D49496808781D
:1045B00001AB03220D21FDF705FE10B10720BDE878
:1045C000FC9F9DF8040000F01F008DF804009DF88A
:1045D000050000F01F008DF805009DF8060000F0B2
:1045E0001F008DF80600002456E056F8240057F806
:1045F0002410A0EB010BBBF1000F01DB594601E0D9
:10460000CBF10001084602F081FA4FF08F41009093
:1046100002F04AF9814601A8005D68B321490868A3
:1046200002F08CFA834659461F4802F03DF9804655
:1046300004E01E49404602F0C9FA804601A8005D28
:10464000401EC0B201A908550028F2D14146484693
:1046500002F02AF983464FF07E5102F0B5FB824604
:104660002AF0004B0F488169584602F07BFB12D2BA
:104670000120A04005430EE00A480169484602F0C7
:1046800071FA05D307484169484602F06BFB02D234
:104690000120A0400543641C032CA6DB28468EE7BE
:1046A0002C000020D06F000800B04C4554E3853F3B
:1046B00010B50446204600F00FF80346E01C00F059
:1046C0000BF843EAC00083B2A01D00F005F843EAEE
:1046D000801083B2184610BD014691F90020002ACF
:1046E00001DD00201EE091F90020002A01DA0420FB
:1046F00018E091F90120002A01DD012012E091F972
:104700000120002A01DA05200CE091F90220002A9C
:1047100001DD022006E091F90220002A01DA0620DC
:1047200000E007207047000088B04FF0000AFDF756
:10473000A8F94FF4E130FDF769FFFDF7F1FC012026
:10474000FDF72AFD09E0C820FDF7A2F90120FDF7D9
:10475000BBFC51461BA0FDF7DDFF00F0B3F95FEA9B
:10476000000AF0D10120FDF7A5FF0120FDF7FEFCB6
:104770000220FDF711FD24E005AA06A907A800F014
:104780006FF8B8B9059801F0F5FF04460D46069894
:1047900001F0F0FF06460F46079801F0EBFF804658
:1047A00042460B460AA0CDE90067CDE90245FDF778
:1047B000B1FF02E00BA0FDF7ADFF0C490A20FDF7A9
:1047C00085F9D9E7726573203D2025640D0A000044
:1047D000252E386620252E386620252E38660D0AAF
:1047E000000000004572726F720D0A00B5250008C6
:1047F00070B50446002624F00104184890F82400FF
:1048000008B1002070BD1548807A10B94FF0FF3014
:10481000F8E71248057C807A204010490874084661
:10482000007CA04202D04FF0FF3600E0002614B911
:104830000A48007D18B1012001F0EEF902E00020E5
:1048400001F0EAF93CB100F005FD20B10348057420
:104850004FF0FF30D6E73046D4E700002C000020B0
:104860002DE9F04F9DB004460D4616464FF07E5799
:104870004FF000084FF000094FF0000A00208F4968
:10488000FEF7AAF902460B46CDE90C0100208C493F
:1048900001F03EFBCDE90E0101F058FA1B9014A87F
:1048A00015A91AAB10AACDE9001016A918A8FEF791
:1048B0008DFF18B101201DB0BDE8F08FBDF8540088
:1048C00000F4807000287DD0109802F01FF9834614
:1048D0004FF09D4101F0E8FF0746119802F016F9EC
:1048E00083464FF09D4101F0DFFF8046129802F0B1
:1048F0000DF983464FF09D4101F0D6FF8146139894
:1049000002F004F983464FF09D4101F0CDFF82464D
:104910001B9801F02FFFCDE90C0139464FF0804084
:1049200002F054F94946059002F050F941460690CC
:104930004FF0404002F04AF95146059002F046F926
:104940008346069901F042FF079001F013FFCDE97D
:104950000801FEF77FFACDE90A01DDE90C2301F039
:104960002FFCCDE90E0101F0F1F920601B9801F058
:1049700001FFCDE90C0149464FF0804002F026F9D5
:104980004946029002F022F9414604904FF040401F
:1049900002F01CF94146029002F018F903900499C4
:1049A00002F012FA4FF07E51059001F00FFF83469E
:1049B00001F0E0FECDE9080139464FF0804002F0F9
:1049C00005F900E075E04146039002F0FFF8494622
:1049D00005904FF0804002F0F9F85146039002F044
:1049E000F5F80490059901F0F1FE834601F0C2FE4E
:1049F000CDE90601DDE90823FEF774FCCDE90A01E3
:104A0000DDE90C2301F0DCFBCDE90E0101F09EF99C
:104A100028601B9801F0AEFECDE90C0151465046CE
:104A200002F0D4F849460590484602F0CFF84146D6
:104A30000390404602F0CAF839460190384602F029
:104A4000C5F80090019901F0C1FE0290039902F0AF
:104A5000BBF90490059902F0B7F9834601F08AFE8C
:104A6000CDE908015146384602F0B0F849460490B5
:104A7000404602F0ABF80390049901F0A7FE4FF016
:104A80008041059002F0A2F8834601F073FECDE963
:104A90000601DDE90823FEF725FCCDE90A01DDE981
:104AA0000C2301F08DFBCDE90E0101F04FF93060D0
:104AB00001E00220FFE60020FDE600000000F0BF5C
:104AC0000080664038B5002401210846FDF72CFC23
:104AD00001210420FDF728FC4FF40040ADF8000050
:104AE00010208DF8030003208DF8020069462D4840
:104AF000FDF778F801212C48FDF700F94FF400414B
:104B00002848FDF755F9FDF783F900F02BF9002847
:104B100044D1782000F08CFFC4B20CB1012038BD24
:104B20007820FFF765FEC4B20CB10220F7E76420DD
:104B300000F030FFC4B20CB10320F0E7FEF73AFEFC
:104B4000C4B21CB104F12800C0B2E8E71748FFF76F
:104B5000AFFD0546FFF788F8C4B20CB10520DEE7CB
:104B600040F27310FEF7CEFCC4B20CB10620D6E7BB
:104B70006420FEF7A9FFC4B20CB10720CFE700F014
:104B8000FFFF04461CB104F15000C0B2C7E701208A
:104B900000F0FCFDC4B21CB10920C0E70A20BEE74A
:104BA0000020BCE70008014000023000580000204F
:104BB00001461148407A30B1012807D0022808D0B8
:104BC00003280CD108E0022008700BE004200870D4
:104BD00008E00820087005E01020087002E04FF09F
:104BE000FF30704700BF0448C07C18B10878400609
:104BF000000E08700020F4E72C0000200146134846
:104C0000407A30B1012808D002280AD0032810D1F8
:104C10000BE04FF4804008800EE041F69C70088065
:104C20000AE04FF48050088006E04FF400600880EE
:104C300002E04FF0FF30704700BF0448C07C10B165
:104C40000888401008800020F5E700002C000020B4
:104C500001460248007C0870002070472C000020AC
:104C600001460F48007A30B1012807D0022809D048
:104C700003280FD10AE0FA2008800EE04FF4FA7002
:104C800008800AE04FF47A70088006E04FF4FA607A
:104C9000088002E00020088000BF00BF00207047AD
:104CA0002C00002001460E48007A30B1012807D0C0
:104CB000022808D003280CD108E00A4808600BE05D
:104CC0000948086008E00948086005E008480860ED
:104CD00002E04FF0FF30704700BF0020FBE700000C
:104CE0002C000020000003430000834233330342C2
:104CF0003333834101461248C07A082817D2DFE8CF
:104D000000F01704070A0D101318BC20088013E0E8
:104D10006220088010E02A2008800DE0142008801E
:104D20000AE00A20088007E00520088004E000BFB0
:104D300000BF0020088000BF00BF002070470000B7
:104D40002C0000200146064890F8240010B14FF0D6
:104D5000FF3070470248C08908800020F9E7000052
:104D60002C0000201CB580208DF80000654A1268D8
:104D7000917C644A526810786B460122FDF758FA1C
:104D800010B14FF0FF301CBD6420FCF7C3FE0020C3
:104D90008DF800005B4A1268917C5A4A526810787C
:104DA0006B460122FDF744FA10B14FF0FF30EAE7FD
:104DB000544A1268917D534A526810786B46062215
:104DC000FDF700FA10B14FF0FF30DCE79DF8050069
:104DD000C007400F9DF8031001F0010140EA4100B7
:104DE0009DF8011001F0010140EA010494B1012C89
:104DF00003D101214348C17431E0022C03D10021C9
:104E00004048C1742BE021463FA0FDF783FC4FF0E2
:104E1000FF30B8E73B4A1268D1783A4A52681078B6
:104E20006B460122FDF7CEF910B14FF0FF30AAE733
:104E30009DF8000000F00F042CB93D48FDF76AFC16
:104E40004FF0FF309FE7042C06D13AA0FDF762FC3B
:104E500001212C48C17402E000212A48C174FF21BD
:104E600028488172FF2027490872FF212548417296
:104E7000C1724FF6FF71C181FF210174817401215C
:104E8000017380F82210002180F82310417501750C
:104E90001630016041608160163880F8241080F877
:104EA0002510C1844FF4FA6000F0B8FC10B14FF047
:104EB000FF3068E7022000F081FB10B14FF0FF30B7
:104EC00061E72A2000F024FD10B14FF0FF305AE7CF
:104ED000322000F05FFD10B14FF0FF3053E70020AB
:104EE000FFF786FC10B14FF0FF304CE7002000F0D8
:104EF000A7FB10B14FF0FF3045E7002000F098FD10
:104F0000002040E72C000020556E737570706F72A2
:104F100074656420736F6674776172652070726F58
:104F200064756374207265762025642E0A00000083
:104F30000C7E000848616C662073656E7369746945
:104F400076697479207061727420666F756E642E54
:104F50000A0000002DE9F04786B080460E469146D3
:104F60009A462E4890F8250018B1012006B0BDE8F9
:104F7000F0870EB90220F9E7002430E0A8EB040026
:104F8000102801DD102001E0A8EB040087B23219DF
:104F90003946204600F0B4FD08B10320E6E702AA36
:104FA0003946204600F016F908B10420DEE7301932
:104FB0003A4602A9FBF7BEF978B1002509E002A83C
:104FC000435D6019325C294615A0FDF7A3FB681C00
:104FD00085B2BD42F3DB0520C8E7E01984B2444541
:104FE000CCDB4FEA29208DF8040009F0FF008DF892
:104FF00005000A4A1268917E084A5268107801AB8F
:105000000222FDF715F908B10620AFE70121034898
:1050100080F82510A0F826A00020A7E72C0000208B
:1050200025643A20307825303278203078253032A7
:10503000780D0A0038B50446282C02DD4FF0FF3009
:1050400038BDDCB9002000F02DFC00208DF80000F8
:1050500007208DF801002E4A1268917C2C4A526874
:1050600010786B460222FDF7E3F810B14FF0FF30E5
:10507000E6E70021264801750020E1E7012000F065
:1050800011FC20208DF80000012C06D100208DF8A5
:105090000100052000F03CFC17E0052C06DC012097
:1050A0008DF80100052000F033FC0EE0142C06DC26
:1050B00002208DF801000A2000F02AFC05E0032000
:1050C0008DF80100142000F023FC9DF80100072159
:1050D00001EB8010C0B28DF801000D4A1268917C7E
:1050E0000B4A526810786B460222FDF7A1F810B106
:1050F0004FF0FF30A4E708210548817200210173B9
:10510000012101750020FFF773FB002098E70000E4
:105110002C000020F8B504460F4616462C4890F89F
:10512000240010B94FF0FF30F8BD2948807A10B93B
:105130004FF0FF30F8E7264A1268917A244A526805
:1051400010786B460222FDF73DF810B14FF0FF30AA
:10515000EAE79DF801009DF8001040EA0125A5420C
:1051600003DA00203070401EDEE7194840684088AE
:10517000B5EB600F17DD164A1268517C144A52686D
:1051800010786B460122FDF71DF810B14FF0FF308B
:10519000CAE79DF8000000F0100020B100F05AF8B6
:1051A0006FF00100C0E7E2B2094B1B68D97A084BE7
:1051B0005B6818783B46FDF705F810B14FF0FF30FB
:1051C000B2E795FBF4F0401E30700020ACE7000021
:1051D0002C000020F8B504460D46164616B94FF0CF
:1051E000FF30F8BD1A48807A10B94FF0FF30F8E769
:1051F00020128DF80000E0B28DF801009DF801004A
:105200002844134949684989884202DD4FF0FF303C
:10521000E7E70F4A1268117E0D4A526810786B4614
:105220000222FDF705F810B14FF0FF30D9E7EAB2DE
:10523000074B1B68597D064B5B6818783346FCF7B3
:10524000C1FF10B14FF0FF30CBE70020C9E70000ED
:105250002C00002008B57048807A10B94FF0FF305C
:1052600008BD002000906C4A1268D17B6A4A5268DF
:1052700010786B460122FCF7DBFF10B14FF0FF30D6
:10528000EEE7654A12685179634A526810786B46B6
:105290000122FCF7CDFF10B14FF0FF30E0E75E4A8E
:1052A000126811795C4A526810786B460122FCF74B
:1052B000BFFF10B14FF0FF30D2E7574890F82400FD
:1052C000002853D00C200090534A12681179524A9A
:1052D000526810786B460122FCF7AAFF10B14FF01C
:1052E000FF30BDE73220FCF715FCC02000904A4893
:1052F000807A00F0010020B19DF8000040F020000D
:105300000090454A12681179434A526810786B46FA
:105310000122FCF78DFF10B14FF0FF30A0E73E48AF
:10532000407C10B10220009001E0002000903A4A39
:105330001268D17B384A526810786B460122FCF71C
:1053400077FF10B14FF0FF308AE700200090324A1B
:1053500012685179304A526810786B460122FCF786
:1053600067FF002855D04FF0FF3079E70420009008
:10537000294A12681179284A526810786B4601222E
:10538000FCF756FF10B14FF0FF3069E72248807CF0
:1053900020B92148807A00F0010010B94020009027
:1053A00001E0602000901C4A126811791A4A526884
:1053B00010786B460122FCF73BFF10B14FF0FF3035
:1053C0004EE73220FCF7A6FB1348407C10B10120C9
:1053D000009001E0002000900F4A1268D17B0E4A35
:1053E000526810786B460122FCF722FF10B14FF093
:1053F000FF3035E7084A12685179074A5268107839
:10540000054B10330122FCF713FF10B14FF0FF30B2
:1054100026E7002024E700002C0000202DE9F04FB3
:105420008DB08346884602200C904D4890F82400A9
:1054300020B1002000F0AAF9012700E0002703A80E
:10544000FFF70EFC05A8FFF7B3FB01A8FFF752FC1E
:1054500002A8FFF777FC424890F80AA004A8FFF7DB
:10546000F7FB002507E0002241465846FEF760FEA4
:1054700000B902E06D1C022DF5DB00BF022D04D146
:1054800038A0FDF747F900263CE0002507E001229F
:1054900006A909A8FEF74CFE00B902E06D1C022D1A
:1054A000F5DB00BF022D04D132A0FDF733F9002651
:1054B00028E006A94046FDF73BFB00F0FF0909A9DB
:1054C0005846FFF76DF8C4B2002614B946F001063D
:1054D00008E004F00103C4F34002C4F3800129A0F2
:1054E000FDF718F9B9F1000F02D146F0020608E005
:1054F00004F00103C4F34002C4F3800128A0FDF7C7
:1055000009F900BFFF2016490872FF2114484172B3
:10551000C1724FF6FF71C181FF21817201740121B7
:105520000173BDF80C0000F079F99DF8140000F04B
:1055300045F8BDF8040000F0EBF9BDF8080000F0F4
:1055400029FA504600F074FA9DF81000FFF750F960
:1055500017B1012000F01AF930460DB0BDE8F08F08
:105560002C000020493243204572726F7220312E88
:105570000D0A0000493243204572726F7220322EAC
:105580000D0A00004779726F20746573742066619C
:10559000696C65643A202564256425640D0A000061
:1055A000416363656C2074657374206661696C6522
:1055B000643A202564256425640D0A0038B5044644
:1055C0001E48807A10B94FF0FF3038BD022C06D04B
:1055D000042C07D0082C08D0102C0CD108E0002097
:1055E00000900BE00820009008E01020009005E0FB
:1055F0001820009002E04FF0FF30E6E700BF0F48B0
:10560000407A9DF80010B0EBE10F01D10020DCE7FB
:105610000A4A1268D179094A526810786B46012209
:10562000FCF706FE10B14FF0FF30CEE79DF800000A
:10563000C110024841720020C7E700002C00002082
:1056400038B504465048807CA04201D1002038BDC6
:10565000002C46D04C4A126811794B4A5268107897
:105660006B460122FCF7AEFD10B14FF0FF30EEE7C4
:105670009DF8000020F020000090434A1268117944
:10568000414A526810786B460122FCF7D1FD10B1F7
:105690004FF0FF30DBE70320FCF73CFA02200090DC
:1056A000394890F8220020B19DF8000040F08000B9
:1056B0000090354890F8230020B19DF8000040F09C
:1056C00030000090304A1268117D2F4A52681078DD
:1056D0006B460122FCF7ACFD002851D04FF0FF30A3
:1056E000B5E7294A12681179274A526810786B4643
:1056F0000122FCF767FD10B14FF0FF30A7E7224809
:10570000807A00F0010028B19DF8000040F02000F0
:10571000009004E09DF8000020F0200000901A4A5C
:1057200012681179184A526810786B460122FCF70A
:105730007FFD10B14FF0FF3089E70320FCF7EAF955
:10574000114890F8220010B18020009001E0002064
:1057500000900D4890F8230020B19DF8000040F023
:1057600030000090084A1268117D074A526810788C
:105770006B460122FCF75CFD10B14FF0FF3066E78D
:1057800001488474002062E72C00002038B50446EC
:10579000214890F82400A04201D1002038BD24B354
:1057A0001D4890F8250010B94FF0FF30F6E70020B3
:1057B00000F032FA0020FFF743FF1749C88C00F0D1
:1057C000E9F8002000901449496808786B460122E6
:1057D0002321FCF72DFD01210F4880F82410012022
:1057E00000F01AFAFFF736FD13E0002000F014FA7B
:1057F0000948007C00900849496808786B460122F6
:105800002321FCF715FD0021034880F82410FFF741
:1058100021FD0020C2E700002C00002038B504461E
:105820001F48807A10B94FF0FF3038BDFA2C09D0EC
:10583000B4F5FA7F09D0B4F57A7F09D0B4F5FA6FE0
:105840000CD108E0002000900BE00820009008E058
:105850001020009005E01820009002E04FF0FF308B
:10586000E3E700BF0E48007A9DF80010B0EBE10FAF
:1058700001D10020D9E70A4A12689179084A526892
:1058800010786B460122FCF7D3FC10B14FF0FF30CB
:10589000CBE79DF80000C010014908720020C4E762
:1058A0002C00002038B50446184890F82300A04288
:1058B00001D1002038BD14B13020009001E000205B
:1058C00000901248807C20B19DF8000040F002005A
:1058D00000900E4890F8220020B19DF8000040F0A2
:1058E00080000090094A1268117D084A52681078B9
:1058F0006B460122FCF79CFC10B14FF0FF30D9E75A
:10590000024880F823400020D4E700002C0000204B
:1059100038B504461E48807A10B94FF0FF3038BDC4
:10592000BC2C02DB0120009015E0622C02DB02207F
:10593000009010E02A2C02DB032000900BE0142CD6
:1059400002DB0420009006E00A2C02DB0520009018
:1059500001E0062000900E48C07A9DF800108842B1
:1059600001D10020DBE70A4A12689178084A5268A0
:1059700010786B460122FCF75BFC10B14FF0FF3052
:10598000CDE79DF800100248C1720020C7E7000073
:105990002C00002038B504462448807A10B94FF016
:1059A000FF3038BD214890F8240010B14FF0FF308F
:1059B000F7E71E48007D50B134B1282C04DCE0B27A
:1059C000FFF738FB0020ECE70020FFF733FB042C47
:1059D00001DA042404E0B4F57A7F01DD4FF47A742F
:1059E0004FF47A7090FBF4F0401EC0B200900F4A62
:1059F000126851780D4A526810786B460122FCF704
:105A000017FC10B14FF0FF30CBE79DF80000401CB1
:105A10004FF47A7191FBF0F081B20448C1810146E4
:105A2000C9894810FFF774FF0020BAE72C00002056
:105A300038B5044604F0700010B10120009005E074
:105A400014B10020009001E0402000902B4A126821
:105A5000917C2A4A526810786B460122FCF7E8FBD9
:105A600020B1002125488172481E38BD9DF80000F4
:105A700020F04001214801730020009004F0400014
:105A800020B99DF8000040F00400009004F02000D0
:105A900020B99DF8000040F00200009004F01000D2
:105AA00020B99DF8000040F00100009004F00800CB
:105AB00020B99DF8000040F0380000900F4A1268AD
:105AC000D17C0E4A526810786B460122FCF7B0FB7D
:105AD00020B1002109488172481EC6E724B1082C74
