:020000040800F2
:100000007023002079020008C52E0008912E0008F8
:10001000C12E0008132A0008073F00080000000056
:100020000000000000000000000000003531000862
:10003000172A000800000000DD2F0008D532000854
:10004000930200089302000893020008930200083C
:1000500093020008930200086D2A0008930200082A
:10006000892A0008A52A0008C12A0008930200086E
:10007000930200089302000893020008930200080C
:1000800093020008930200089302000893020008FC
:1000900093020008930200089302000893020008EC
:1000A00093020008930200089302000893020008DC
:1000B00093020008930200089302000893020008CC
:1000C00093020008930200089302000893020008BC
:1000D00093020008953B00080D3C000893020008BD
:1000E000930200089302000893020008930200089C
:1000F000930200089302000893020008930200088C
:100100009302000893020008793500089302000862
:10011000930200089302000893020008930200086B
:10012000930200089302000893020008930200085B
:1001300000F002F800F090F80AA090E8000C824469
:100140008344AAF10107DA4501D100F085F8AFF246
:10015000090EBAE80F0013F0010F18BFFB1A43F0A5
:100160000103184798510000B8510000103A24BF0D
:1001700078C878C1FAD8520724BF30C830C144BF0C
:1001800004680C607047000000230024002500264E
:10019000103A28BF78C1FBD8520728BF30C148BFEA
:1001A0000B6070476E2900F0E783702900F05587D7
:1001B000662904F0B887652904F0B587672904F03B
:1001C000B2876129AFF3008003681B0A28BF41F0A2
:1001D0008001692900F0CA80642900F0C780752970
:1001E00000F0C4806F2900F0E386782900F02187B1
:1001F000E92900F07D86E42900F07A86F52900F0EF
:100200007786EF2900F0E086F82900F02087036860
:10021000DB0928BF41F08001632900F0FE857329C6
:1002200000F00386E32901F0BD82F32901F0C282C8
:10023000002070471FB501F019FA040000200021CA
:1002400004F080FB401C60600020002104F064FB8F
:10025000E0601FBD10B510BD01F056FD1146FFF75F
:10026000E9FF04F0F5F801F0A5FF03B4FFF7F2FF92
:1002700003BC01F0B9FF0000094880470948004766
:10028000FEE7FEE7FEE7FEE7FEE7FEE7FEE7FEE746
:10029000FEE7FEE704480549054A064B70470000A3
:1002A000D932000831010008701D002070230020A1
:1002B000701F0020701F00207CB51D4616460C00E4
:1002C000009001D02044401E074B7B442A466946DB
:1002D0000190304600F077FD05461CB100206946CC
:1002E00000F084FD28467CBD290B00000FB41CB52E
:1002F000084B06AA7B4469460090059800F063FD10
:1003000004460020694600F071FD20461CBC5DF8E3
:1003100014FB0000F50A000070B50C460546012AE2
:1003200005D02878800600D5EA69002302E0012381
:1003300005E05B1C934202D2E05C0028F9D1A86979
:10034000E618C01AA861286A18442862284600F0F6
:1003500081FA04E0D5E9012114F8010B9047B44279
:10036000F8D3284600F08CFA70BD00002DE9F0416A
:100370000646002410687529314616A510D000F0F5
:1003800090FA002802DA404213A507E031688A0794
:1003900001D512A502E0490704D511A5012401E009
:1003A00000F088FA00210A2206F1240709E0B0FBD8
:1003B000F2FCB0FBF2F302FB1C003030785418461C
:1003C000491C0028F3D123462A463046BDE8F041B7
:1003D00000F079BA000000002D0000002B000000A2
:1003E000200000002DE9F05F894604464FF0000A26
:1003F000DFF874B1FB44C0F820A02046E1688847CC
:10040000002874D0252806D0D4E901219047206A1D
:10041000401C2062F1E700265F462046E1688847DD
:100420002028054607DB312D05D2781910F8200C5D
:1004300008B10643F1E7B00701D526F00406C4F879
:100440001CA00027C4F818A02A2D09D0284603F0C4
:1004500092FF38B304EB8708303DC8F8185019E014
:1004600059F8041B204604EB87029161E168884734
:10047000012F054618D1E069002820DA26F0200671
:100480001DE0D8F8180000EB800005EB4000303884
:10049000C8F818002046E1688847054603F06BFF5E
:1004A0000028EED1012F0AD02E2D08D12046E16878
:1004B00088477F1C0546022F46F02006C4DBA06952
:1004C000002803DA404246F00106A061F00701D09F
:1004D00026F010066C2D0BD0682D09D04C2D39D08C
:1004E0006A2D35D0742D35D07A2D33D016E038E012
:1004F000E1682F4620468847B842054609D16C2F4F
:1005000026D04FF48060E1680643204688470546C0
:1005100004E06C2F1AD04FF4807006430DB3A5F1A0
:100520004100192802D8203546F400664A4629467B
:10053000204626604E46FFF735FE80B101280BD0DD
:10054000F61D26F0070000F1080956E74020E4E711
:100550008020D8E70020D6E706F104094DE72846B9
:1005600052E7206ABDE8F09F2E4E00000FB400B5A0
:100570008DB010A9099000910B904FF0FF300A90B8
:1005800000200C90064878440690064878446A4655
:1005900007900F9909A800F0C3FF0DB05DF814FB98
:1005A000B70F0000CF0F00002DE9FF5F4FF00008EC
:1005B0009946144646469169D2E901A7DDF838B05C
:1005C00001988847054659EA0B0005D009E0A16962
:1005D0000198761C88470546216A284688470028E6
:1005E000F5D1681C03D05FEACA7005D015E04FF062
:1005F000FF3004B0BDE8F09F2068011D2160D0F8F5
:1006000000800AE05FEACA7001D108F8015BA169C5
:10061000761C01987F1E88470546002F1ADD681C4E
:1006200018D0B9F1000F0DD0E81705EBD0604211DA
:1006300020F01F0059F822102A1A01209040014290
:10064000E0D107E0BBF1000FDCD12846216A8847E2
:100650000028D7D0E16901988847BBF1000F07D186
:10066000002E05DD5FEACA7002D1002188F8001073
:10067000A068B84203DDBBF1000F03D017B16FF0E3
:100680000100B6E73046B4E770B5064600F0DEF884
:100690000468054630460A22002100F071FF2C60F4
:1006A00070BD40EA010310B59B070FD1042A0DD39A
:1006B00010C808C9121F9C42F8D020BA19BA884243
:1006C00001D9012010BD4FF0FF3010BD1AB1D30782
:1006D00003D0521C07E0002010BD10F8013B11F8B8
:1006E000014B1B1B07D110F8013B11F8014B1B1BE1
:1006F00001D1921EF1D1184610BD10B5431C02E085
:1007000010F8011B71B18107FAD14FF0013202C814
:100710008C1A8C4314EAC211F9D0C01A0A0603D00D
:10072000C01E10BDC01A10BD0A0401D0801E10BD2D
:100730000902FCD0401E10BD032A40F2308010F0A8
:10074000030C00F0158011F8013BBCF1020F62446C
:1007500098BF11F801CB00F8013B38BF11F8013BFD
:10076000A2F1040298BF00F801CB38BF00F8013BAA
:1007700011F0030300F03C87083AC0F0088051F8FC
:10078000043B083A51F804CBA0E80810F5E7121D25
:100790005CBF51F8043B40F8043BAFF30080D20744
:1007A00024BF11F8013B11F801CB48BF11F8012B10
:1007B00024BF00F8013B00F801CB48BF00F8012B33
:1007C000704700004FF0013C50F8042B51F8043BF7
:1007D0009A4221D1A2EB0C03934313EACC1317D115
:1007E00050F8042B51F8043B9A4215D1A2EB0C03AC
:1007F000934313EACC130BD150F8042B51F8043B6C
:100800009A4209D1A2EB0C03934313EACC13DBD039
:100810004FF00000704700BFD01A01BAB1FA81F161
:1008200001F0180122FA01F0CB40C1F12001DBB246
:10083000C0B2C01A2CFA01F3D11A914311EAC311C4
:10084000E6D1704770477047704700000048704716
:10085000101D002070B5044685690068C10601D5E9
:10086000302600E02026C00707D070BDD4E9012162
:1008700030469047206A401C20626D1EF6D570BD40
:1008800070B5044685690078C00707D170BDD4E90A
:10089000012120209047206A401C20626D1EF6D561
:1008A00070BD09684A0501D540B27047C905FCD53D
:1008B00000B2704709684A0501D5C0B27047C90542
:1008C000FCD580B270472DE9F0470D469946924617
:1008D000044600F124080168880604D5E06921F087
:1008E0001001216000E00120A84201DD471B00E06B
:1008F0000027A1697A1902EB0900081AA061207883
:10090000C00602D42046FFF7A5FF002608E0D4E980
:1009100001211AF806009047206A401C761C2062CC
:100920004E45F4DB2078C0060AD52046FFF792FF3B
:1009300006E0D4E9012130209047206A401C206263
:10094000381EA7F10107F4DC07E0D4E9012118F80B
:1009500005009047206A401C2062281EA5F1010571
:10096000F3DC2046FFF78CFF2078000602D502203A
:10097000BDE8F0870120FBE711680268006A5305B3
:1009800001D508700AE0D30501D5088006E01306FA
:1009900003D5C217C1E9000200E0086001207047DA
:1009A00070472DE9FF4F0C461E464FF0FF378BB0C6
:1009B000D2E90001DDF860800A908A46C1F30A5549
:1009C00005B93D46002108464FF00000BAF1000F7E
:1009D00000F4400005DA00EB80004FF4400101EA2A
:1009E00050004FEA9059B9F1010F00DDB9460A985D
:1009F00050EA4A000ED044F61050A5F2FF354543A8
:100A00002F14B8F1000F1ED07542291E1EDDC9F14A
:100A100000021CE0B8F1010F4FF0000001D03021BE
:100A200003E0F24305E02154401CB042FBDB3046BA
:100A30000022002121540B99C1F80880C1E900204F
:100A40000FB0BDE8F08FBD1B6D1CDEE74A4600DA33
:100A5000694206A801F0CAF806AB93E8070003ABA9
:100A600083E8070050460A9901F0C5FB8DE80700AE
:100A7000A0F500501F3800900398002D09DD42F2C8
:100A80001F014A46084403A90390684601F04FFE3F
:100A900008E0A0F500504A461F3803A903906846B5
:100AA00001F06DFE8DE807000004000C03D04FF04C
:100AB000FF30410800E01046B8F1000F03D00022DB
:100AC000009215461EE0751E05D400F0D3FD3032AD
:100AD00062556D1EF9D5B3460122084302D00022AB
:100AE0007F1C04E02078302801D100227F1E002ADC
:100AF000099786D01DE0112D07DA00F0BBFD3032DA
:100B000062556D1C50EA0102F5D1084302D00098ED
:100B1000C8B10EE00021681E05E0235C625C6354EE
:100B20002254401E491C8142F7DBAB46A81B401EE5
:100B30000990002004F80B000B98099AC0F808806F
:100B4000C0E9002B7CE711264FF0000859E72DE99A
:100B5000F04F88460446D21D22F0070191B0D1E93A
:100B60000001CDE90A0103F08BFB02460B98C00F90
:100B700001D02D2007E02068810701D52B2002E05D
:100B8000202101EAC000032A099001D0072A05DBD1
:100B900003464146204600F0BBFD0BE1207880066D
:100BA00001D5E06900E00620B8F1650F814606D066
:100BB000B8F1660F18D0B8F1670F70D131E000209E
:100BC000B9F1110F009001DB112301E009F10103DC
:100BD0000AAA01A90CA8FFF7E4FEDDE90C700026C3
:100BE00009F10105834647E001204B4600904FF094
:100BF00000470AAA01A90CA8FFF7D3FEDDE90DB052
:100C00000C995D46002610B909F101000D18B9EBE9
:100C1000050003D4C0F1FF3609F10105A5EB090079
:100C20002BE0B9F1010F01DA4FF001090020B9F111
:100C3000110F0090484601DD112300E003460AAA87
:100C400001A90CA8FFF7ADFEDDE90C704D460026AA
:100C50008346207800070AD4AB4500DA5D4601A838
:100C6000012D04DD411911F8011C302907D04F4531
:100C700002DA17F1040F04DA012082460FE06D1E3C
:100C8000EEE7002F02DCED1B3E4403E0781CA84297
:100C900000DD7D1CB81B00F1010A4FF000472078F1
:100CA000000703D4AA4501DB4FF0FF3A0021B7F15A
:100CB000004F0DF143088DF8431024D002202B2360
:100CC000002F01DA7F422D230A21021EA0F101002C
:100CD00000DC5FB197FBF1FC97FBF1F201FB1C7CA0
:100CE00017460CF1300C08F801CDEEE7A8F1010031
:100CF00003702188090501D5452100E06521A0F197
:100D0000010800F8011C09980FA9A1EB0807FF1DB5
:100D100000B10120411901EBEA70A1693844081AB9
:100D2000401EA0612078C00602D42046FFF792FD45
:100D3000099828B1D4E901219047206A401C20621B
:100D40002078C00622D52046FFF784FD1EE0002E45
:100D500004DBB34502DD01A8805D00E03020D4E96A
:100D600001219047206A401C2062761CAAF10100F4
:100D70005FEA000A0AD100F079FCC0680168405CB3
:100D8000D4E901219047206A401C2062281EA5F169
:100D90000105DCDC07E0D4E9012118F8010B9047DC
:100DA000206A401C2062381EA7F10107F3DC2046B0
:100DB000FFF766FD032011B043E6000001694A1CFD
:100DC00002610878704700B58FB0CDE9013100218C
:100DD000059105497944CDE9031011466846FFF7AE
:100DE00001FB0FB000BD0000E5FFFFFF0A6802F83D
:100DF000010B0A607047D1E900239A4202D2531CCA
:100E00000B601070704710B5436913B1AFF30080E9
:100E100001E0FFF781FA012010BD127800F12401F2
:100E20000A7000224A700122EDE711684FF0FF328C
:100E3000E9E700002DE9FF5F15468A460446DFF822
:100E4000AC80F8440027D8E900103E46CDE90010F8
:100E500010E03AF816106A4602A800F035FF411C6F
:100E600007D02178890603D5E269391891420DD857
:100E70000744761C2078800602D5E069B84205DD7B
:100E8000AE42E6DB3AF816000028E2D1A069C01BAA
:100E9000A0612046FFF7DEFCD8E90010CDE9001084
:100EA000002017E03AF818106A4602A800F00CFF7C
:100EB000B0F1FF3F81460BD000250DF1080B05E096
:100EC000D4E901211BF8050090476D1C4D45F7D36F
:100ED00008F10100B0428046E4DB206A3844206219
:100EE0002046FFF7CDFCBDE8FF9F0000F243000065
:100EF0002DE9F0418046D21D22F007020025D2E9FB
:100F00000002F52915A614D0011E72F1000106DABF
:100F10000023D0EB030063EB020211A608E0D8F82F
:100F200000108B0701D50FA602E0490701D50EA6D8
:100F300001251146002408F1240704E000F09AFB83
:100F400030323A55641C50EA0102F7D12B46324642
:100F500021464046BDE8F041FFF7B5BC0000000067
:100F60002D0000002B0000002000000030B4002104
:100F700000F1240408E002F00705D208303542EA07
:100F80004372DB086554491C52EA0305F3D1046837
:100F9000002310A2250708D504F020040C4304D038
:100FA000C46901230CA2641EC46130BCFFF78BBC72
:100FB00010B5044621461068FFF77CFC0246204627
:100FC000BDE810400023D1E7D21D22F00701D1E98E
:100FD0000023CBE70000000030000000F0B40D4615
:100FE0000188090502D5214C7C4402E01F4C7C4459
:100FF0000E34002100F1240608E002F00F07120968
:10100000E75D42EA03721B097754491C52EA030761
:10101000F3D102780023120704D5702D06D009B150
:10102000022311342246F0BCFFF74DBC01231034DB
:10103000F8E770B504460D4621461068FFF73AFC04
:10104000024629462046BDE870400023C6E7D21D6F
:1010500022F00703D3E90023C0E70368126843F0D6
:10106000200303600823C3610023B7E75442000054
:101070002DE9FF4F064689B00878FF2806D0491CA5
:101080002D2805D000244FF0000908E000200CE0D6
:101090000124F8E709EB8903491C00EB43090878B0
:1010A000FF28F7D114B1C9F100008146107800255E
:1010B0002C46AA4629462D2801D02B2804D1521CA3
:1010C0002D2813D0002082468B461078FF280FD0A1
:1010D0004FF0000C0A21521CA5FB017804FB018192
:1010E00005FB0C11C5194BEB0104EEE70120EAE703
:1010F000002108464FF00000BAF1000F02D000EBCB
:1011000080004008C0F38158B8F1010F01DD4FF0B5
:10111000FF380C9809EB000755EA040009D04FF09E
:10112000020917F5FA7F0BDA4FEACA70C6E900B078
:1011300012E04FEACA70C6E900B00DB0BDE8F08F0A
:10114000B7F5FA7F0DDDF0487844D0E90010C6E924
:10115000001040EACA707060FFF778FBC0F800909A
:10116000EBE7391E02DAC8F1000200E0424600DA7D
:10117000794206A800F03AFD06AB93E8070003ABFE
:1011800083E8070044F23E005BEA04010090584601
:1011900004D144F21E012C465D460091210C090445
:1011A000014306D10099240444EA15442D04103962
:1011B000009104F07F41014306D10099240244EAE2
:1011C00015642D020839009104F07041014306D1E5
:1011D0000099240144EA15742D01091F009104F0BF
:1011E0004041014306D10099A40044EA9574AD0042
:1011F000891E009104F00041084304D100986D1944
:101200006441401E009042466846002FCDE90145EA
:1012100003A902DD01F0C7FA01E001F09CFABAF17E
:10122000000F04460D4601D084F0004440F2FF77E1
:1012300024F00040284303D0C4F30A50B84212D12E
:10124000FFF704FBC0F80090C4F30A50B8420AD17B
:10125000AE487844D0E90010C6E9001004F000411F
:101260000843706069E7C6E9005466E72DE9FF4F5F
:101270001F464FF0000A4FF0FF38454691B0D7E9BE
:101280000146CDF83CA000F0F1F9C0680168405C6F
:101290001090B96912986D1C8847396A8146884751
:1012A0000028F6D1B9F1FF3F0AD0002E24F4D06413
:1012B00011DDB9F12B0F08D0B9F12D0F0BD102E0E0
:1012C000404615B03AE744F48064B96912986D1C41
:1012D0008847761E8146600504A901D52D2000E0CF
:1012E0002B20002E01F1010B0DF130088DF81000BC
:1012F0003FDDB9F1690F08D0B9F1490F05D0B9F157
:101300006E0F02D0B9F14E0F1CD13B4601A80095DB
:1013100080E85002DDE912126FF0020003F069FF6D
:10132000C11CCED10EE0B96912986D1C8847814668
:101330001398761E44F4007405600F98401C002E2C
:101340000F9016DDB9F1300FEDD0B9F1780F02D062
:10135000B9F1580F0DD10F9801280AD13B46CDE9BC
:101360000054DDE91212001F029603F040FFC11C79
:10137000A7D1109989453ED144F0800406E0139925
:10138000681CAAF1010A44F400740860B9696D1C74
:101390001298761E884730288146F0D02BE01099AD
:1013A000894505D1200603D4761E44F0800418E058
:1013B000484602F0E0FF08B3761E0DF123018B458D
:1013C00044F4007408D2A9F130000BF8010B200698
:1013D00007D5AAF1010003E0200602D40AF10100BA
:1013E0008246A00502D51399681C0860B969129855
:1013F0006D1C88478146002ED1DC53E0002E51DD64
:10140000B9F1650F02D0B9F1450F4BD1A00549D50F
:10141000B9696D1C1298761E24F440748847002E1A
:1014200081460CDD2B2804D0B9F12D0F07D144F4EF
:101430008074B96912986D1C8847761E8146E00554
:1014400001D52D2100E02B2108F8011BCDF80080EB
:1014500021E0761E0DF13901884544F400740CD268
:10146000A9F1300010F0FF0088F8000002D10099C7
:10147000884509D908F1010806E0E00501D52448AE
:1014800001E042F20F708246B96912986D1C8847DC
:10149000814613980560002E04DD484602F06BFF7C
:1014A0000028D6D1F96912988847FF2053468BF857
:1014B000000088F8000000200A900B9004AA0CA9F4
:1014C0000AA8FFF7D5FDA00502D46FF00100F8E6E9
:1014D00014F0240F0AD0E00714D13868DDE90A12AD
:1014E000031D3B600068C0E900120BE00AA96846D2
:1014F00002F0EAFEE00705D13868009A011D396064
:10150000006802602846DCE6D0410000C6400000CA
:10151000F1D8FFFF02681144137801601846704744
:10152000D16005497944516104497944116200212F
:101530001161114600F050B9EDFFFFFFD10100002D
:10154000426842B1016811F8013B23B1521EC0E963
:101550000012184670470121C160881E704742681A
:101560005AB1C368016843B983688B4205D0491EEC
:10157000521CC0E90012002070474FF0FF30704746
:101580002DE9F04791460F4680460446002614F8A0
:10159000015B2DB100F062F80068405DC007F6D134
:1015A0002B2D02D02D2D18D0641E4A4639462046D8
:1015B00000F0CCFA27B13968A14201D1C7F8008008
:1015C0004FF0020471050BD54042002803DDFFF700
:1015D0003DF90460A007BDE8F08746F48066E4E7C3
:1015E0000028F8DAFFF732F904606FF00040F2E704
:1015F00010B5203AC0F00B80B1E81850203AA0E8AE
:101600001850B1E81850A0E81850BFF4F5AF5FEAE1
:10161000027C24BFB1E81850A0E8185044BF18C994
:1016200018C0BDE810405FEA827C24BF51F8043B3B
:1016300040F8043B08BF7047D20728BF31F8023B8F
:1016400048BF11F8012B28BF20F8023B48BF00F823
:10165000012B704700487047101D002010B500F0A6
:1016600005F8001D10BD00BFDD32000000487047C6
:10167000301D002030B5B0F10A024FEA900E71F132
:1016800000034EEA817EB0EB0E0061EB91014FEA60
:10169000101E4EEA017E10EB0E0041EB11114FEAD5
:1016A000102E4EEA016E10EB0E0041EB11214FEAB5
:1016B000104E4EEA014E10EB0E0041EB1141401866
:1016C00041F100014FEAD00040EA41704FEAD101F8
:1016D00010EB80054FEA810444EA907444EB010466
:1016E0006D1944EB0404521BA3414FF0000348BFA3
:1016F0000A3200D530BD401C41F1000130BD10B5AB
:101700000446FFF7ABFF0068005D00F0010010BD6C
:101710002DE9F0411F46044603260168072A01F41B
:10172000006004DB08B116A505E016A503E008B1CA
:1017300015A500E015A521F010002060A069C01ECD
:10174000A0610FB1401EA0612046FFF783F84FB1A2
:10175000D4E9012138469047206A401C2062C01C11
:10176000206206E0206AFAE7D4E9012115F8010BAE
:101770009047761EF8D22046FFF782F8BDE8F08148
:101780004E414E006E616E00494E4600696E660025
:1017900010B5436913B1AFF3008001E0FFF74AFBD6
:1017A000012010BD128800F1240182840022C2842D
:1017B0000122EDE711684FF0FF32E9E73A2800D245
:1017C000303820F02002412A01D3A2F137008842AC
:1017D00001D34FF0FF3070472DE9F34F4FF0000A6F
:1017E0000C4656468DB001200C9001F10C000B9078
:1017F00062690B980121904705002DD0252D2CD032
:10180000216A8847C0B162690B9801219047216A1B
:1018100088470028F7D16269411E0B98904700E085
:10182000761CA1690D988847216A88470028F7D15E
:10183000E1690D988847DBE7A1690D988847A842C0
:10184000074601D1761CD3E7E1690D9888477F1CD4
:1018500002D1BAF1000F6FD06BE162690B980027DB
:101860003D46394690472A2804D162690B980121E8
:1018700090470125DFF8D08262690B9801219047DB
:10188000A0F130010A290AD24745E5DC07EB8701C0
:1018900000EB4107303FDFD445F01005ECE7E906E7
:1018A00001D46FF000476C280AD04C2814D0682867
:1018B00015D06A280DD074281CD07A281AD01DE0C3
:1018C00062690B98012190476C2802D045F004050D
:1018D00014E045F002050DE045F020050AE06269DC
:1018E0000B9801219047682802D045F0080505E0D3
:1018F00045F4006562690B9801219047C4E90157DE
:1019000065283DD019DC58287AD00CDC452837D022
:1019100004DC252826D041289ED131E046282FD04E
:10192000472899D12CE05B2877D0612828D06328FC
:101930007CD0642823D15AE0F6E06F2848D008DC38
:1019400066281DD067281BD0692821D06E2816D1A3
:1019500027E0702845D0732868D0752847D07828AC
:101960000DD14DE0A1690D988847252805463FF423
:1019700069AFE1690D9888476D1C3FF46AAFD8E004
:101980000D9923466A466FF0010003F02EFCC5E076
:1019900045F0400023464FF000026060A80736D4AF
:1019A0003EE0E8077FF447AF2068011D2160006832
:1019B000290501D506701BE7290701D5068017E721
:1019C000A90703D5F117C0E9006111E706600FE729
:1019D00045F0400023464FF008026060A80716D487
:1019E0001EE040F60E0125EA0100606016E045F0B9
:1019F000400023464FF00A026060A80707D40FE0BA
:101A000045F040006060A80708D5234610220D99D4
:101A10006FF00100AFF3008080E007E01022234662
:101A20000D996FF00100AFF3008077E04FF00009EF
:101A300063284F46C8464B46CB4602D05B2806D0AB
:101A400038E0E80601D40120A060012732E0626995
:101A5000D4F80CB00B98012190475E2807D14FF0C5
:101A6000010949466269D4F80CB00B989047216986
:101A700039B900210A4603AB43F82120491C082943
:101A8000FADBD8B3216949B308F1010862690B9800
:101A9000012190475D28F4D1B9F1000F09D0002051
:101AA00003A951F82020D24341F82020401C0828E7
:101AB000F7DB03AB2069002820794FEA40701ED085
:101AC0005B462246CDF80080CDE901970D990028AC
:101AD0006FF0010020DAAFF300801FE0C11703AA06
:101AE00000EBD1614B1121F01F0102EB8302411A7F
:101AF00013680120884003431360C7E719E00D997C
:101B0000224600286FF00100009702DAAFF3008050
:101B100004E0FEF749FD01E0AFF3008000280ADA97
:101B2000401C06D10C9820B14FF0FF300FB0BDE83B
:101B3000F08F5046FAE7E90701D10AF1010A06449D
:101B400000200C9054E60000CCCCCC0C2DE9F05FCA
:101B5000824615468B4600270AF10104B9460078F3
:101B6000302801D09DB113E014F8010B012778282B
:101B700003D0582801D045B10AE00DB1102D07D18E
:101B8000002714F8010B102502E0082500E00A25C3
:101B90000026B0460EE005FB080005FB06F1012714
:101BA0001FFA80F801EB1046B6F5803F00D3B94626
:101BB00014F8010B2946FFF701FE0028EBDABBF110
:101BC000000F05D00FB1641E00E05446CBF8004072
:101BD000B9F1000F06D0FEF739FE02210160C81EE0
:101BE000BDE8F09F48EA0640FAE700002DE9F0471B
:101BF000814616468AB0334878440DC88DE80D00FA
:101C000030487844801C03AC0DC884E80D0041F6D0
:101C10009B300844372190FBF1F290FBF1F5A5F1E0
:101C2000800501FB12041B3C02D56442012000E048
:101C30000020DFF890A080460027FA44AAF1BE0AEF
:101C40000DE0E00709D03246684607EB47010AEB92
:101C5000810100F094FD8DE8070064107F1C002CCA
:101C6000EFD1184F7F44AC3F18E0E80714D007EBE2
:101C700004100DF1180A90E80E008AE80E00C06802
:101C8000F04201D198190890324606A903A800F045
:101C900076FD03AB83E807006D10641C002DE4D1D2
:101CA00032466946B8F1000F03A802D000F03FFDAC
:101CB00001E000F064FDC9E90001C9F808200AB09C
:101CC000BDE8F087E836000070B516460C460546BC
:101CD000FFF7C4FC036893F80101012806D0FF2C2C
:101CE0000FD8185D68B101202C7070BDD3F80701C2
:101CF0003246214603F2071303442846BDE87040EC
:101D000018474FF0FF3070BD7546FFF7A3FCAE4695
:101D100005006946534620F00700854618B020B5F7
:101D2000FEF7B8FABDE820404FF000064FF000077C
:101D30004FF000084FF0000B21F00701AC46ACE873
:101D4000C009ACE8C009ACE8C009ACE8C0098D46E0
:101D5000704710B5FEF77AFD006810BD10B5044657
:101D6000FEF774FD046010BD2DE9FF4F1F464FF0D4
:101D70003C0987B04FF00042DDE9141001F1010881
:101D8000DDF858A002EA40500390002004908346FA
:101D9000054604460590B969461E08988847AAF189
:101DA000010A0290BAF1000F37DD02982E2815D0F3
:101DB0001021FFF703FD00282ADB4FF0010B0499E7
:101DC000014316D0B9F1000F0BDB4A46C11700F0F2
:101DD000F7F905430C43A9F1040905E0012005903A
:101DE00007E008B145F0010501200490059800B90D
:101DF000361DB969089808F101088847BBF1000F42
:101E0000AAF1010A0290CDD00999C1F80080C9E772
:101E10000298702808D0502806D0F9690898884799
:101E2000BBF1000F14D04FE0002002900120BBF165
:101E3000000F049009D0B969089808F10108884793
:101E4000AAF10109B9F1000F07DCF9690898884780
:101E50006FF001000BB0BDE8F08F2B2804D02D28C7
:101E60000CD14FF0FF300490B969089808F10108CF
:101E70008847A9F10109B9F1000FE6DD411CE4D062
:101E80000A21FFF79BFC0028DFDB029908F101081B
:101E900001EB810100EB41000290B9690898884785
:101EA0000A21FFF78BFC099AA9F10109B9F1000F8A
:101EB000C2F8008001DD0028E7DAF9690898884750
:101EC0000499029800FB016655EA040004D004F06E
:101ED0004041090002D006E0039898E0A40044EADB
:101EE0009574AD00B61E04F00041080002D16D19D2
:101EF0006441761E159810F0240F03D04FF00B09A3
:101F00005C4803E04FF028096FF07D00824656459B
:101F100007DAAAEB06018944B9F1410F01DD4FF060
:101F2000410901200021A9F1010200F049F902460E
:101F300028400B462140084301D0012100E0002148
:101F4000501E029143F1FF3128402140084301D047
:101F5000012000E000200299834651EA0B014FD096
:101F6000002108464FF00000039900F4400039B109
:101F700000EB80004FF4400100EBD07001EA6000FC
:101F80008015012802DD4FF0FF3000E013D0401C27
:101F900036D0029860B3BBF1000F0CD14A46012045
:101FA000002100F00DF928402140084301D0012014
:101FB00000E00020E0B101204A46002100F000F9D5
:101FC000034640190A4661412D1A8C4111D3B9F1DB
:101FD000400F09DD159810F0240F02D0AAF1340645
:101FE00003E0AAF1170600E0761C00254FF000443C
:101FF00006E05B1E42F1FF3220EA030521EA0204FB
:10200000CAF10100B04206DA1B4903980843019067
:10201000002000900EE0039AC4F3D321E80A0A439B
:10202000164940EA44500A433146CDE90002684669
:1020300002F096F9159810F0240F0BD01598C007F0
:1020400015D13868DDE90012031D3B600068C0E966
:1020500000120CE002A8694602F036F91598C00794
:1020600005D13868029A011D396000680260404657
:10207000F0E6000002FCFFFF0000F07F0000F03FF0
:102080002DE9FF4F92461D4685B04FF00041DDE936
:10209000124BDDE914727F1E01EA4B50414940F0BA
:1020A000FF4940EA0108002122F02000492804915C
:1020B00002D04E2828D04CE03BA0012607C88DE86E
:1020C0000700A9690698641C88477F1E014606D44C
:1020D0001DF8060018B121F0200181420BD0E969FA
:1020E00006988847032E34D0082E32D06FF00100B6
:1020F00009B0BDE8F08F761C032E01D0082EE0D188
:10210000601CCAF80000DCE7A9690698641C8847CF
:102110007F1E2AD420F02000412826D1A9690698E4
:10212000641C88477F1E20D420F020004E281CD13C
:10213000A9690698641C88477F1E48F4002849F462
:102140008009CAF8004001D4282806D0E969069819
:1021500088475FEACB7012D022E0A9690698641C18
:1021600088477F1E01D4002803DAE969069888476A
:10217000BCE72928F1D1641CCAF80040E9E71BF04C
:10218000240F07D028680499031D2B600068C0E95C
:10219000001805E02868021D2A600068C0F8009059
:1021A0002046A5E70000F07F494E46494E49545964
:1021B000000000000446AFF300802046FEF755F80B
:1021C000B2F120030AD5C2F1200301FA02F120FA8C
:1021D00003F300FA02F041EA0301704700FA03F149
:1021E0004FF000007047000001491820ABBEFEE729
:1021F0002600020070475FEA400C08BF91F0000F14
:102200004FEA8C234FEAC12243EA51514FEA1C5056
:1022100018BF00F5F0404FEA300018BF41F0004110
:102220005FEA6C5C00F02980BCF1FF3F08BF40F022
:1022300080407047130C06BF12044FF0100C4FF093
:10224000000C130E04BF12020CF1080C130F04BF94
:1022500012010CF1040C930F04BF92000CF1020C5C
:10226000D30F04BF52000CF1010C11464FF00002D5
:10227000A0F11F00A0EB0C00704711F0004F08BF49
:10228000704731F000413FF4D5AF0B0C06BF090495
:102290004FF0100C4FF0000C0B0E04BF09020CF1B4
:1022A000080C0B0F04BF09010CF1040C8B0F04BFC9
:1022B00089000CF1020CCB0F04BF49000CF1010C9A
:1022C000CCF12003A0EB0C0022FA03F302FA0CF28B
:1022D00041EA030100F10100704720F07F4C80EAE1
:1022E000030023F07F47ACEB070303F57C5300F0BA
:1022F000004003F1FF032DE980494FEA154B09B473
:102300004FEA144325EA0B4E24EA03480FF2042651
:1023100006EB132749083E785FEA320203FB0667A3
:10232000C7F5000707FB06F64FEA54374FEAD646D3
:1023300006F1020607FB066CCCF1005C4FEA1C4775
:102340002CEA074C07FB06F40CFB06F504EB1546DC
:102350004FEA961634BF00204FF000404FEAD137C5
:1023600006FB07FC4FEA1C4C0CFB0BF7D21B03FBD4
:102370000CF761EB07010CFB0EF7B0EB074072EBBB
:1023800017420CFB08F734BFA2EB0742B2EB07423F
:1023900061EB17414FEA0C444FEA910706FB07FC3B
:1023A0004FEA1C4C0CFB0BF7B0EBC74072EB5732FB
:1023B00003FB0CF734BFA2EBC742B2EBC74261EBA1
:1023C00057310CFB0EF7B0EBC70072EB57720CFBEA
:1023D00008F734BFA2EBC702B2EBC70261EB57713B
:1023E000039F4FEA816141EA921104EBCC044FEA6A
:1023F000D1374FEA826206FB07FC42EA90124FEAAD
:1024000080604FEA1C4C0CFB0BF7D21B03FB0CF754
:1024100061EB07010CFB0EF7B0EB074072EB1742C4
:102420000CFB08F734BFA2EB0742B2EB074261EBAB
:1024300017414FEA8C554FEA910704EB9C2406FBA9
:1024400007FC4FEA1C4C0CFB0BF7B0EBC74072EBE0
:10245000573203FB0CF734BFA2EBC742B2EBC742C3
:1024600061EB57310CFB0EF7B0EBC70072EB577204
:102470000CFB08F734BFA2EBC702B2EBC70261EB5B
:10248000577115EB4C254FEA816141EA92114FEAF1
:1024900082624FEAD13742EA901206FB07FC44F110
:1024A00000044FEA80604FEA1C4C0CFB0BF7D21B78
:1024B00003FB0CF761EB07010CFB0EF7B0EB0740D9
:1024C00072EB17420CFB08F734BFA2EB0742B2EBEA
:1024D000074261EB174115EB1C154FEA813141EAC8
:1024E00092414FEA823242EA90424FEA80304FEA0C
:1024F0000C7644F1000448EA03434EEA0B484FF0DF
:10250000000EB2EB080C71EB030724BF624639469C
:102510004EEB0E0E4FF0000B0018524149414BEBB1
:102520000B0BB2EB080C71EB03077BF1000B24BF24
:10253000624639464EEB0E0E4FF0000B001852412A
:1025400049414BEB0B0BB2EB080C71EB03077BF132
:10255000000B24BF624639464EEB0E0E51EA0207CD
:1025600018BF46F0010616EB0E7655F1000254F145
:10257000000103D5BDE88901BDE80088BDE88901F7
:10258000BDE80048B619524141EB0101A3F1010336
:10259000704780807F7E7D7C7B7A797877767675D0
:1025A0007473727171706F6E6E6D6C6C6B6A6A6948
:1025B0006868676666656464636362616160605FE2
:1025C0005F5E5E5D5D5C5C5B5B5A5A59595858575B
:1025D00057565655555554545353525252515150C3
:1025E00050504F4F4F4E4E4D4D4D4C4C4C4B4B4B16
:1025F0004A4A4A494949484848474747474646465C
:102600004545454444444443434343424242424196
:102610004141000046EA0646A3F570534FEA1646CC
:1026200046EA42564FEAD22242EA415210B54FEAF8
:10263000D121A3F1010300F017F820F0004000F1D0
:10264000010C00F0004701EB00501146BCF5006F93
:1026500040EA070000D210BD02484FF0000140EAF6
:10266000070010BD0000F07F002B26D4770021D09A
:102670001CB54FEA370703B44FF010004FF01001BC
:102680004FF000000FBCBDE810400BF1010BBBF197
:10269000010F08BF5FEA170722BF12F1010211F113
:1026A00001014FF0004143F1000300F0004043EA14
:1026B00000007047F9D35708DAE746EA064613F1F7
:1026C000400F4FEA16461FDD13F1200FDFBF164300
:1026D0000A46002120335B42C8D0C3F1200746EAF6
:1026E000064602FA07F74FEA164646EA0706C3F11E
:1026F000200722FA03F201FA07F721FA03F14FF05B
:10270000000342EA0702B1E746EA020646EA064645
:102710004FEA164646EA0106BCBF46EA0646360CB4
:102720004FF000034FF000024FF000019EE72DE94B
:10273000C048934630B491E8380007C831EA400CED
:1027400048BF34EA430C03D5FFF7C7FDFFF78CFF02
:10275000F0BCBDE800882DE9C048934630B491E84C
:10276000380007C831EA400C48BF34EA430C03D5AF
:10277000FFF7B3FDFFF74EFFF0BCBDE800882DE981
:10278000C048934630B491E8380007C810F0804F35
:1027900008BF13F0804F03D100F019F8FFF764FF72
:1027A000F0BCBDE800882DE9C048934630B491E8FC
:1027B000380007C810F0804F08BF13F0804F03D1D6
:1027C00000F005F8FFF726FFF0BCBDE8008820F018
:1027D0007F4780EA030023F07F4C07EB0C03A3F54F
:1027E0007C5300F00040A3F1FE0392F0000F00F0D4
:1027F000B38095F0000F00F077802DE901494FEA92
:1028000011404FEA144621EA004800FB06FC24EA86
:10281000064708FB06F607FB08F800FB07F718EB6E
:1028200006484CEB164C4FEA124B18EB07484FEAA0
:1028300015464CEB174022EA0B4E0BFB06FC25EA33
:1028400006470EFB06F607FB0EFE0BFB07F71EEB1B
:10285000064E4CEB164C4FF000061EEB074E4CEBB1
:10286000174B18EB0B0840F1000018EB0E0B58EB60
:10287000000840F100008F1A4FF000013CBFC9432F
:10288000661B14BFB5EB040C00213CBFC943F61B0B
:102890004FEA17444EEA8E0E27EA04454FEA1C47DA
:1028A00004FB07622CEA074C05FB07F70CFB05F657
:1028B00004FB0CFC16EB074642EB174216EB0C46EA
:1028C00042EB1C421BEB060658EB0202414146EA72
:1028D0009E0601D5BDE80189B619524141EB0101BF
:1028E000A3F10103BDE801894FEA14454FEA1147FE
:1028F00024EA054621EA074C05FB07F406FB07F727
:102900000CFB06F105FB0CFC11EB074144EB1744F3
:102910004FEA124711EB0C4144EB1C4422EA074CEE
:1029200005FB07F206FB07F70CFB06F605FB0CFCA4
:1029300016EB074642EB174216EB0C4642EB1C45E2
:102940006A1854F1000148BF7047B619524141EB73
:102950000101A3F10103704795F0000F37D04FEA52
:1029600011424FEA144721EA024624EA074C02FBCF
:1029700007F106FB07F70CFB06F402FB0CFC14EB5B
:10298000074441EB17414FEA154714EB0C4441EB68
:102990001C4125EA074C02FB07F506FB07F70CFB79
:1029A00006F602FB0CFC16EB074645EB174516EB4B
:1029B0000C4645EB1C42121951F1000148BF70470B
:1029C000B619524141EB0101A3F1010370474FEAEF
:1029D00014454FEA114724EA054621EA074C05FB56
:1029E00007F106FB07F70CFB06F24FF0000605FBAC
:1029F0000CFC12EB074241EB174112EB0C4251EB7E
:102A00001C4148BF7047921841EB0101A3F101033B
:102A1000704700BFFEE7704710B56FF0040000F08C
:102A200045FC10BD2DE9F04105460F460E4C4FF414
:102A3000FA50454365600020A060206840F0010026
:102A4000206000BFB847266806F0010018B106F400
:102A500080300028F6D00020A060206820F001001F
:102A60002060BDE8F081000010E000E010B501201A
:102A700000F03AF828B1034908688047012000F0C7
:102A80002DF810BDBC10002010B5042000F02CF86B
:102A900028B1034988688047042000F01FF810BD62
:102AA000BC10002010B5082000F01EF828B1034922
:102AB000C8688047082000F011F810BDBC10002045
:102AC00010B5102000F010F828B1034908698047BC
:102AD000102000F003F810BDBC1000200149086070
:102AE0007047000014040140014600200022074BFB
:102AF0001B6803EA0102054B14331B680B4013B13A
:102B00000AB1012000E000207047000000040140ED
:102B100010B500240C480068008800F0010020B1C6
:102B20000948006800F071FD04B2002006490968F8
:102B3000888405490968888601210348006800F0F7
:102B400037FD204610BD00009800002000B587B07A
:102B50000121042000F044FA0121082000F060FA6D
:102B600004208DF81B00C020ADF8180003208DF85C
:102B70001A0006A9184800F057F84FF6FF70ADF894
:102B800010000020ADF80C00ADF81200ADF80E00FA
:102B900003A9124800F07CFE0A231A4603210F48BD
:102BA00000F012FD0020ADF800000620ADF808008E
:102BB0000A20ADF802000120ADF804000020ADF8B5
:102BC00006006946054800F035FD0121034800F084
:102BD000E9FC07B000BD0000000C01400008004007
:102BE00010B5002005490968888404490968888669
:102BF0000121034800F0DCFC10BD0000980000201B
:102C00000008004010B50021054800F0D1FC00206C
:102C100004490968888403490968888610BD000052
:102C200000080040980000202DE9F04102460025F0
:102C30000026002000230024002791F803C00CF098
:102C40000F0591F803C00CF0100CBCF1000F03D07D
:102C500091F802C04CEA050591F800C0BCF1000FE4
:102C600031D0146800202BE04FF0010C0CFA00F377
:102C7000B1F800C00CEA03069E4220D183004FF059
:102C80000F0C0CFA03F7BC4305FA03FC4CEA0404EE
:102C900091F803C0BCF1280F06D14FF0010C0CFADB
:102CA00000FCC2F814C00AE091F803C0BCF1480F60
:102CB00005D14FF0010C0CFA00FCC2F810C0401C0A
:102CC0000828D1D31460B1F800C0BCF1FF0F34DD87
:102CD000546800202EE000F1080C4FF0010808FABB
:102CE0000CF3B1F800C00CEA03069E4221D1830028
:102CF0004FF00F0C0CFA03F7BC4305FA03FC4CEA47
:102D0000040491F803C0BCF1280F05D100F1080CB0
:102D100008FA0CF8C2F8148091F803C0BCF1480F0F
:102D200007D100F1080C4FF0010808FA0CF8C2F8BE
:102D30001080401C0828CED35460BDE8F0810161AA
:102D4000704700002DE9F04F89B0FFF7E1FE8346A0
:102D5000584601F066FF064600223F4B02F0E8F8B5
:102D6000804600223D4B01F035FE044601F02AFF6B
:102D700082463B480068401C39490860504601F0D3
:102D800050FF044637480CC8204601F023FE354A60
:102D900003C235490968AAEB010001F042FF334A3A
:102DA00003C2334831490CC803C901F08DFFCDE996
:102DB000040130482B490CC803C901F085FFCDE957
:102DC0000001504601F02DFF06462B480CC8304646
:102DD00001F07AFF0446DDE9002301F0FBFDCDE9B7
:102DE0000201DDE9042301F0F5FD00221B4BCDE9D2
:102DF000060101F0EFFD804601F0E4FE1F4909687D
:102E000008441E4908601848C0F800A00846006839
:102E1000B0F5803F02DB4FF6FF700860174800688E
:102E2000002802DA0020154908601549154A126881
:102E3000881814235A4614A1FDF758FA1149096855
:102E40000844104908600D49098888B2002100F043
:102E500073F809B0BDE8F08F008051400000E03FFA
:102E600030000020180000202C000020200000204E
:102E70001000002008000020000000202800002092
:102E80009C0000203400002025642025640D0A00E9
:102E900000BFFEE710B5044604F0010018B1202180
:102EA0000548FFF74CFF04F0020018B12021034849
:102EB000FFF745FF10BD0000000C01400018014065
:102EC00000BFFEE77047000070B5002100230F220D
:102ED000C47804B3154C246804F4E064C4F5E064D9
:102EE000210AC1F10403CA40447804FA03F184784A
:102EF0001440214309010E4C0678A155047804F0D2
:102F00001F050124AC4005786D11AD0005F1E025E9
:102F1000C5F8004109E0047804F01F050124AC4025
:102F2000044D0678761145F8264070BD0CED00E0A2
:102F300000E400E080E100E070B504460D46214663
:102F4000034800F075FC2946014800F073FC70BD91
:102F50000004004000B589B00121022000F040F8D3
:102F60000121084600F05CF818208DF82300C020ED
:102F7000ADF8200003208DF8220008A91548FFF7BE
:102F800053FE4FF6FF70ADF818000020ADF81400A6
:102F9000ADF81A00ADF8160005A90F4800F078FC4E
:102FA0006020ADF804000120ADF806000020ADF867
:102FB0000C00ADF80A0001A9074800F09BFB01A92D
:102FC000054800F0E3FB0121034800F0F1FA09B0E5
:102FD00000BD0000000801400004004070470000F0
:102FE00029B1064AD2690243044BDA6104E0034A7C
:102FF000D2698243014BDA61704700000010024041
:1030000029B1064A12690243044B1A6104E0034ADB
:1030100012698243014B1A617047000000100240A0
:1030200029B1064A92690243044B9A6104E0034ABB
:1030300092698243014B9A61704700000010024080
:1030400029B1064AD2680243044BDA6004E0034A1D
:10305000D2688243014BDA607047000000100240E2
:1030600030B500210022002400232D4D6D6805F0AD
:103070000C0121B1042905D0082923D105E0294DEF
:10308000056022E0274D05601FE0254D6D6805F4C1
:103090007012234D6D6805F48034022505EB9242D1
:1030A0001CB9214D554305600BE01D4D6D6805F4BD
:1030B00000351DB11C4D5543056002E0194D5543C7
:1030C000056002E0174D056000BF00BF144D6D683C
:1030D00005F0F0010909154D6B5C0568DD404560A0
:1030E0000F4D6D6805F4E061090A104D6B5C456891
:1030F000DD4085600A4D6D6805F46051C90A0B4DCD
:103100006B5C4568DD40C560054D6D6805F4404168
:10311000890B074D6B5CC568B5FBF3F5056130BDE8
:103120000010024000127A0000093D003C0000201F
:103130004C000020704710B500F002F810BD0000F0
:103140000CB50020019000903348006840F48030B6
:103150003149086000BF3048006800F4003000903A
:103160000198401C0190009818B90198B0F5A06F23
:10317000F1D12948006800F4003010B1012000901E
:1031800001E0002000900098012843D12348006806
:1031900040F01000214908600846006820F0030054
:1031A00008600846006840F0020008601A4840685D
:1031B000194948600846406848600846406840F43D
:1031C000806048600846406820F47C1048600846EB
:1031D000406840F4E81048600846006840F080709D
:1031E000086000BF0C48006800F000700028F9D0AB
:1031F0000948406820F003000749486008464068D5
:1032000040F00200486000BF0348406800F00C0036
:103210000828F9D10CBD0000001002400020024037
:1032200010B511A000F06CFC00210846FFF784FEE9
:10323000FFF7E8FC00201049086000210F4800F06B
:10324000B7F90F4801680FA000F05AFC0C4801685C
:10325000104800F087FF044621460FA000F050FC04
:1032600000200749086010BD53746F7020746573A7
:10327000742E0D0A0000000030000020000C0040F9
:103280003400002053656E642025642064617461FD
:103290002E0D0A009C00002053656E642072657339
:1032A000756C743A2025640D0A000000042808D1CA
:1032B0004FF0E021096941F004014FF0E022116173
:1032C00007E04FF0E021096921F004014FF0E0220E
:1032D000116170477047000010B51348006840F056
:1032E00001001149086008464068104908400E492D
:1032F0004860084600680E4908400B4908600846C7
:10330000006820F4802008600846406820F4FE0031
:1033100048604FF41F008860FFF70DFF4FF000601A
:103320000449086010BD0000001002400000FFF8D2
:10333000FFFFF6FE08ED00E0F0B50C461546002252
:103340000021068C4FF6FE773E400684028B018CEE
:103350004FF60C7632407E1C06EA03162E433243AB
:10336000104EB0420ED0104EB0420BD0B0F1804F94
:1033700008D00E4EB04205D00D4EB04202D00D4ED8
:10338000B04206D14FF6FD76314044F0010631439C
:1033900005E04FF6F576314044F0010631430283F3
:1033A0000184F0BD002C01400034014000040040C5
:1033B00000080040000C0040F0B50C461546002205
:1033C00000210026078C4FF6EF7C07EA0C070784E4
:1033D000028B018C4FF6FF7707EA041640F6FF4791
:1033E0003A404FF6FF7707EA03373A434FF6FF7745
:1033F00007EA05273A43114FB8420ED0104FB842A2
:103400000BD0B0F1804F08D00E4FB84205D00E4F10
:10341000B84202D00D4FB84206D14FF6DF7739409F
:1034200046F01007394305E04FF65F77394044F026
:103430001007394302830184F0BD0000002C0140D5
:10344000003401400004004000080040000C00402F
:10345000F0B50C461546002200210026078C4FF6D9
:10346000FF6C07EA0C070784828B018C4FF6FF770D
:1034700007EA04264FF60C773A404FF6FF7707EA43
:1034800003172F433A43114FB8420ED0104FB842A2
:103490000BD0B0F1804F08D00E4FB84205D00E4F80
:1034A000B84202D00D4FB84206D14FF6FF5739400F
:1034B00046F48077394305E04FF2FF57394044F432
:1034C0008077394382830184F0BD0000002C0140E5
:1034D000003401400004004000080040000C00409F
:1034E000F0B50C461546002200210026078C4EF64A
:1034F000FF7C07EA0C070784828B018C4FF6FF776D
:1035000007EA043640F6FF473A404FF6FF7707EAEE
:1035100005273A434FF6FF7707EA03373A43114F3F
:10352000B8420ED0104FB8420BD0B0F1804F08D047
:103530000E4FB84205D00E4FB84202D00D4FB842E0
:1035400006D14DF6FF77394046F48057394305E000
:1035500047F6FF57394044F480573943828301844A
:10356000F0BD0000002C0140003401400004004088
:1035700000080040000C004010B50121074800F091
:1035800047F848B10121054800F00FF804480068E9
:1035900010B103480068804710BD0000000C0040D7
:1035A00068000020CA4302827047CA430282704703
:1035B00021B1028842F00102028004E002884FF645
:1035C000FE731A4002807047F0B50C4615461E4641
:1035D0000021002200230189028B038C4FF6F8772B
:1035E000394021434FF6FC473A4040F201173A4335
:1035F0004FF6DD773B404FF6FF7707EA06172F437C
:103600003B43018102830384F0BD0146888E7047ED
:1036100030B50246002000230024158A05EA010384
:10362000958905EA010413B10CB1012000E00020E6
:1036300030BD000070B505460C46244885420ED0CA
:10364000234885420BD0B5F1804F08D021488542F0
:1036500005D02148854202D02048854200D100E0B3
:1036600000BF208850B92389A28861882846FFF7C7
:1036700063FEE188284600F0DFF825E02088042872
:103680000AD12389A28861882846FFF795FEE18840
:10369000284600F0DAF817E0208808280AD12389A4
:1036A000A28861882846FFF7D3FEE188284600F00B
:1036B000D9F809E02389A28861882846FFF710FF1E
:1036C000E188284600F0D7F870BD0000002C0140CA
:1036D000003401400004004000080040000C00409D
:1036E0001AB183890B43838102E083898B438381F1
:1036F0007047000070B5002400220023058C4FF6AF
:10370000FE7635400584028C8388048B4FF68F75D6
:103710002C40B51E2C400D882C43751E2A400D8967
:103720002A434D882A43144DA8420BD0134DA8427A
:1037300008D0134DA84205D0124DA84202D0124D18
:10374000A84213D14FF6F7752A404D892A434FF608
:10375000FB752A408D882A434FF6FF652B404FF6B4
:10376000FF552B408D892B43CD892B4383800483C8
:10377000CD888586028470BD002C01400034014054
:1037800000400140004401400048014070B5002461
:1037900000220023058C4FF6EF7635400584028C1D
:1037A0008388048B48F6FF752C404FF6FF452C406C
:1037B0000D884FF6FF7606EA05252C434FF6DF7598
:1037C0002A400D8906EA05152A434D8806EA0515A3
:1037D0002A43154DA84202D0144DA8421DD14FF6E0
:1037E0007F752A404D894FF6FF7606EA05152A4374
:1037F0004FF6BF752A408D8806EA05152A434FF615
:10380000FF352B404FF2FF752B408D8906EA850569
:103810002B43CD8906EA85052B4383800483CD881D
:103820000587028470BD0000002C01400034014077
:103830008186704701877047028B4FF6F3731A40F9
:103840000283028B0A4302837047028B4FF2FF33DD
:103850001A400283028B4FF6FF7303EA01231A43D7
:1038600002837047828B4FF6F3731A408283828BF8
:103870000A4382837047828B4FF2FF331A40828360
:10388000828B4FF6FF7303EA01231A43828370474A
:10389000002202881D4B98420ED01D4B98420BD03F
:1038A000B0F1804F08D01B4B984205D01A4B98427C
:1038B00002D01A4B984204D14FF68F731A404B88AE
:1038C0001A43174B984207D0164B984204D04FF634
:1038D000FF431A40CB881A4302808B8883850B886C
:1038E00003850A4B98420BD0094B984208D00E4BE7
:1038F000984205D00D4B984202D00D4B984201D111
:103900000B7A03860123838270470000002C01405C
:10391000003401400004004000080040000C00405A
:1039200000100040001400400040014000440140ED
:10393000004801401FB501210820FFF751FB64201A
:10394000ADF8080041F61F40ADF804000020ADF8C6
:103950000A00ADF8060001A90D48FFF799FF012202
:1039600011460B48FFF7BCFE32208DF80000032003
:103970008DF801008DF8020001208DF803006846E3
:10398000FFF7A2FA01210248FFF712FE1FBD000057
:10399000000C0040014908607047000068000020EA
:1039A00010B51048007800B910BD0F4800680F49E5
:1039B0000968884213D240210D4800F0D3F901284C
:1039C0000DD109480088C0F308000A4A115C084874
:1039D00000F095FA04480068401C0349086000BFE5
:1039E000E2E70000640000205C000020600000208E
:1039F00000380140BC0E002010B586B004460121FD
:103A000044F20400FFF70CFB234800F05DF94FF48B
:103A10000070ADF8040018208DF8070003208DF821
:103A2000060001A91D48FFF7FFF84FF48060ADF8CC
:103A3000040004208DF8070001A91848FFF7F4F8E6
:103A400002940020ADF80C00ADF80E00ADF81000A7
:103A5000ADF814000C20ADF8120002A90E4800F0D9
:103A6000DDF925208DF8000001208DF801000320EC
:103A70008DF8020001208DF803006846FFF724FA54
:103A8000012240F22551044800F0A3F90121024827
:103A900000F00DF906B010BD0038014000080140EB
:103AA00010B5044611480078E0B1DCB914E000BF5D
:103AB00040210F4800F056F90128F9D10D4800883F
:103AC000C0F308000C4A115C094800F018FA0948D4
:103AD0000068401C074908600648006807490968F3
:103AE0008842E4D30148047010BD00006400002047
:103AF000003801405C000020BC0E00206000002067
:103B00000FB438B505A800904FF400710748009B2A
:103B1000049AFCF7D1FB044600200090214603489C
:103B200000F006F838BC5DF814FB0000BC0C002067
:103B300070B506460D461348007888B100240CE0A5
:103B4000305D11490988C1F30801104A50540E48EC
:103B50000068401C0C490860641CAC42F0DB0FE0BC
:103B600000240BE000BF4021094800F0FBF80128C9
:103B7000F9D1315D064800F0C2F9641CAC42F1DBBA
:103B8000284670BD6400002060000020BC0E0020AC
:103B90000038014010B5194800F0ACF904460D2C6E
:103BA00006D117480078401C15490870002410E021
:103BB0000A2C0ED113480088401EC0F30800124999
:103BC000085C00B910BD0E480078401C0C49087014
:103BD0000024E1B20B480088C0F308000A4A1154DF
:103BE00008480088C0F3080000F50070115405482B
:103BF0000068401C0349086000BFE3E7003801404B
:103C00005000002058000020BC08002010B540F2F1
:103C100027711A4800F0B3F8E8B11948006819494B
:103C2000096888420ED016480088C0F30900164A79
:103C3000115C124800F063F911480068401C1049FB
:103C4000086008E0002240F227710C4800F0C1F83B
:103C500000200E49087040F22551084800F08FF806
:103C600058B1064800F046F9C4B2204600F04CFDB9
:103C700040F22551014800F00BF810BD004400400F
:103C80007000002074000020D0100020820000206E
:103C900010B50022002340F66A14A14200D100BFF3
:103CA0000A1201249440A3B2DC43048010BD21B168
:103CB000828942F40052828104E082894DF6FF73CA
:103CC0001A4082817047000010B5044620488442A3
:103CD00009D101218803FFF7B3F900214FF4804097
:103CE000FFF7AEF932E01B48844209D101214804B4
:103CF000FFF786F900214FF40030FFF781F925E046
:103D00001548844209D101218804FFF779F900217F
:103D10004FF48020FFF774F918E01048844209D16D
:103D20000121C804FFF76CF900214FF40020FFF7D0
:103D300067F90BE00A48844208D101210805FFF722
:103D40005FF900214FF48010FFF75AF910BD000011
:103D5000003801400044004000480040004C004052
:103D60000050004002460020B1F5007F00D100BFA6
:103D700013880B400BB1012000E00020704770B5A4
:103D80000246002400230025002040F66A16B142B6
:103D900000D100BFC1F3421501F01F03012606FA4E
:103DA00003F3012D02D19689334006E0022D02D1A2
:103DB000168A334001E0968A33400C12012606FA37
:103DC00004F41688344013B10CB1012000E0002047
:103DD00070BDF0B50346002400260025002040F603
:103DE0006A17B94200D100BF1846C1F3421401F06E
:103DF0001F06012707FA06F5012C01D10C3004E05B
:103E0000022C01D1103000E014301AB107682F43A2
:103E1000076002E00768AF430760F0BD2DE9F04797
:103E200086B005460E460024A24600BFA1460027E4
:103E3000B08900B100BF2F462C8A4CF6FF700440B9
:103E4000F08804432C82AC894EF6F3100440B0880D
:103E500031890843718908430443AC81AC8A4FF629
:103E6000FF400440B0890443AC8201A8FFF7F8F892
:103E70001F48874202D1DDF810A001E0DDF80CA058
:103E8000A88900F4004040B10AEBCA0000EB0A1018
:103E900031684900B0FBF1F807E00AEBCA0000EB1B
:103EA0000A1031688900B0FBF1F86420B8FBF0F02B
:103EB00004012009642101FB1089A88900F4004055
:103EC00040B1322000EBC900B0FBF1F000F0070078
:103ED000044308E0322000EB09106421B0FBF1F04C
:103EE00000F00F0004432C8106B0BDE8F08700000D
:103EF0000038014001468888C0F308007047C1F3CC
:103F000008028280704700BFFEE7000010B545F64A
:103F100025330AA20DA11448FCF7E8F9124800F075
:103F2000A1FC032111A000F04DF908B1012010BD42
:103F300000200F49087000BFF9E700003139322E28
:103F40003136382E312E31303000000041542B43B1
:103F5000495053544152543D22544350222C22255F
:103F600073222C25640D0A00D01800204F4B00004E
:103F70009400002000B587B001214804FFF730F815
:103F800001210420FFF74CF84548FFF79DFE04206F
:103F9000ADF8080018208DF80B0003208DF80A00FA
:103FA00002A94048FEF740FE0820ADF808000420B2
:103FB0008DF80B0002A93B48FEF736FE4FF4E130C6
:103FC00003900020ADF81000ADF81200ADF8140019
:103FD000ADF818000C20ADF8160003A93048FFF723
:103FE0001DFF26208DF8040002208DF80500032017
:103FF0008DF8060001208DF8070001A8FEF764FF88
:10400000012240F225512648FFF7E3FE0121244812
:10401000FFF74DFE01202449086024490860002074
:10402000234908602349087023490870FF20234969
:1040300008704FF0FF3022490860224908600020D4
:104040002149086001202149087021A000F00AFCE4
:104050000120FEF71FFF0A2120A000F0B3F810B1E5
:10406000012007B000BD1FA000F0FCFB032122A02F
:1040700000F0A8F808B10120F3E720A323A226A1AD
:104080002C48FCF733F92B4800F0ECFB0A211AA06E
:1040900000F098F808B10120E3E70020E1E7000014
:1040A000004400400008014070000020740000201F
:1040B000780000208100002082000020890000207C
:1040C0008C000020900000206C0000209400002054
:1040D00041542B5253540D0A000000007265616474
:1040E0007900000041542B43574D4F44455F4355E1
:1040F000523D310D0A0000004F4B0000485553540B
:10410000323031344059593132310000485553541E
:10411000403132310000000041542B43574A415096
:104120005F4355523D222573222C222573220D0A0E
:1041300000000000D018002070B504460025074894
:10414000006848B105480568054902682046FCF743
:10415000F3FA002001490860284670BD6C00002079
:104160001019002070B505460C4622460DA11148D5
:10417000FCF7BCF80F4800F075FB05210EA000F01D
:1041800021F808B1012070BD2146284600F098FBB7
:104190004FF0FF3109A000F015F808B10120F2E757
:1041A0000020F0E741542B43495053454E443D25F0
:1041B000640D0A00D01800204F4B000053454E44B8
:1041C000204F4B002DE9F04707460D464FF0010800
:1041D000254C4FF4FA5909EB89004FEA40090020B9
:1041E0002249087022480760002D02DA0020BDE84D
:1041F000F0874FF0010825E0C4F804900020A0608B
:10420000206840F00100206000BFFFF7C9FB17489D
:10421000007868B1002016490860206820F001008D
:1042200020600020A060114890F90000C00FDEE778
:10423000266806F0010018B106F480300028E4D0AA
:1042400008F1010805EBC50000EB0510B8EB800F85
:10425000D2DD002006490860206820F001002060BF
:104260000020A0600120C2E710E000E080000020F4
:104270007C00002001480078704700009400002076
:10428000490050EAC12018BF04204A0D18BF40F071
:10429000010040F2FF72B2EB515F08BF40F0020034
:1042A000012808BF0520704740F2013200204FF07E
:1042B000E04100F06CBF0000024A0020110700F04E
:1042C00066BF000001FDFFFF10B50446D1E9000103
:1042D00000F002F8206010BDF8B504460D466A46AD
:1042E00000F050F800987E30009000281FDC00227B
:1042F00013462046294600F029FC18D0002140F63C
:1043000008004FF0000006462046294600F030FB2A
:10431000044640F6080006EA00014FF0000034F0C1
:10432000004004BF0220FDF719FD2046F8BD0098AB
:10433000FF280DDB0220FDF711FD00221346204669
:10434000294600F0BFFD8CBF04484FF0FF40F8BD88
:1043500020462946BDE8F84000F00ABB000080FF77
:1043600010B504460A46D4E90003194600F036F8B1
:10437000C4E9000110BD30380A2801D2012070477D
:104380000020704710B5144600222260114A21F027
:1043900000439342A8BF10BD53EA000208BF10BDFE
:1043A000B3F5801FA8BF226807DA362200F0EFFEBF
:1043B0006FF0350221F000432260DFF81CC06FF37C
:1043C0001E510CEB23531A4441F0FF5141F00051B0
:1043D000226010BD0000F07F02FCFFFF2DE9F041DC
:1043E00006460C4640F2FF75174635EA14502BD0AE
:1043F00000221346304600F0A9FB25D03A4630464D
:10440000214600F0C4FE06460C4635EA145010D092
:1044100000221346304600F099FB15D10220FDF72B
:104420009DFCFFF749FF0A46214662F31E01BDE8E5
:10443000F0810220FDF792FCFFF736FF0A46214685
:1044400062F31E01BDE8F08130462146BDE8F081EF
:104450001FB54FF4E130FFF7CFFAFEF777FBFFF718
:1044600069FAFEF777FDFEF7D7FA00215048FFF70B
:104470009FF85048FFF78EFA4FA0FFF741FB01204D
:10448000FFF70EFB03E050490A20FEF7CBFAFFF7D7
:1044900071FD0028F7D100BF06E04CA0FFF730FB0C
:1044A00049496420FEF7BEFAFFF730FD0028F4D139
:1044B0004BA0FFF725FB00BFFFF772FA4D48FFF74F
:1044C0003BFE4D49086008460068002863DD084649
:1044D00001684AA0FFF714FB474801684548FFF709
:1044E00027FB4448407854282BD142488078412803
:1044F0001CD145480068C8B944A0FFF701FB002063
:10450000464908600021464A11605160012128484F
:10451000FFF74EF84DF6FF7042490860098888B2EF
:104520000021FEF709FDFEF75BFB34E0314880789F
:104530004F2830D13448006800282CDDFEF770FE8B
:1045400029E02C484078452825D12F4800680028CC
:1045500021D13548354B364A36A100902548FCF725
:1045600005F8314803C8CDE90201304903C9CDE956
:1045700000012F4833A10CC83D48FBF7B7FE27497F
:104580000860084601683A48FFF7ECFD04462146FA
:1045900038A0FFF7B5FA1C480068642801DBFEF775
:1045A0003FFEFFF767FE002886D000BF74E70000DB
:1045B000000C0040452D0008496E69742066696E44
:1045C0006973682E0D0A0000A1390008436F6E6EF2
:1045D000656374206661696C65642E0D0A000000D5
:1045E000436F6E6E65637420737563636565642ED7
:1045F0000D0A00009C0800203800002052656376F8
:1046000020282564293A000030000020537461728C
:104610007420746573742E0D0A00000034000020AD
:1046200018000020280000201000002008000020B2
:1046300000000020252A7320256C6620256C66204A
:10464000256C6600504944204368616E67656421AB
:10465000204B70203D2025672C204B69203D2025D4
:10466000672C204B64203D2025670D0A00000000C8
:104670009C00002053656E6420726573756C743AFB
:104680002025640D0A00000070B505460C4614484C
:10469000007870B9062C0CD1224612A12846FCF7EE
:1046A00000F830B901200E49087010A0FFF728FA71
:1046B00070BD1348006800B9FAE711480068FCF7BC
:1046C0001CF8A04200D0F3E70D4801682846FCF72B
:1046D00079F810B901200B49087000BFE8E7000025
:1046E00094000020434C4F5345440000536F636BCC
:1046F000657420636C6F7365642E0D0A0000000002
:104700007C0000208000002010B50446444800686A
:10471000401C30B90A2C04D1424800780D2800D141
:1047200010BD3F480068401C88B90A2C01D00D2CF0
:104730000DD100203C493D4A126888543B4801682D
:104740003948FFF7A1FF002038490860E8E73748FB
:1047500001680068401C354A1060334844543148B1
:10476000047010460068052814D12C2C12D12E4854
:1047700000782B280ED12C48407849280AD12A48A5
:104780008078502806D12848C078442802D10020DB
:104790002749087026480078FF2816D03A2C14D1F3
:1047A000002122480068401E1F4A1154501DFBF78B
:1047B0006BFF1B4908601D4800681E4908603A21CC
:1047C0001A480068401E184A115415480068401CD9
:1047D00018B3184800681249096808441349096861
:1047E00088421AD100211048104A126881540146AB
:1047F000104A126888180A490A680D49097800F0B9
:104800001BF8FF200A4908704FF0FF300449086088
:104810000849086000200549086000BF80E70000E3
:104820008C00002081000020D0140020780000209F
:10483000890000209000002070B504460E46154601
:104840000648006800B170BD2A4621460448FBF7BF
:1048500073FF0248056000BFF5E700006C00002010
:104860001019002010B50446214610A0FFF748F9A2
:104870000CE020780E490988C1F309010D4A505413
:104880000B480068401C0A490860641C2078002816
:10489000EFD10948007840B901200749087001228A
:1048A00040F227710548FFF794FA10BD2573000008
:1048B00074000020D010002082000020004400403E
:1048C0002DE9F04105460E4600242F460CE0385DE8
:1048D0000D490988C1F309010C4A50540A4800687F
:1048E000401C09490860641CB442F0DB08480078A9
:1048F00040B9012006490870012240F2277105489D
:10490000FFF767FABDE8F08174000020D0100020A6
:10491000820000200044004010B500290AD0087829
:10492000002807D005487844FBF74CFF002801D049
:10493000002010BD0248784410BD0000FE090000B0
:10494000F609000010B500290AD00878002807D021
:1049500005487844FBF736FF002801D0002010BD41
:104960000248784410BD0000EE090000E60900008E
:1049700021F00042A2F16052B2F5801F01F0004325
:1049800028BFD2F17F6C0BD95FEA001C43EAC20258
:1049900042EB507018BF704728BF20F001007047ED
:1049A000B2F5801FBCBF184670474FEA410C1CF59A
:1049B000001F02D2084600F0B1BB70B500F02EFA1D
:1049C00000000089FFF7F6BF4FF00040A0F580001F
:1049D0007047000010B591EA030F48BF83F0004311
:1049E00000F1BA82841A71EB030C05D2121943EB61
:1049F0000C03001B61EB0C01DFF824E14FEA1154BA
:104A0000A4EB135C1EEA430F18BF9EEA445F73D009
:104A100023EA0E03DCF1200E21EA045143F4801353
:104A200032D322FA0CFE10EB0E0023FA0CFE41EBFF
:104A30000E01CCF1200E03FA0EFE10EB0E0051F128
:104A40000001B1F5801FCCF1200E32D201EB0451F0
:104A500012FA0EF2BDE8104058BF7047401C38BF34
:104A60005FEA420218BF7047002814BF20F001001F
:104A700041F100014FEA410313F5001F38BF7047B1
:104A8000A1F1C04100F018BA012A43EB0302ACF1D6
:104A9000200CDCF11F0E32BF4FF0000E23FA0CF396
:104AA00010EB030041EB0451B4EB115FD0D0A1EB4C
:104AB000045101F5801149085FEA300001EB04510F
:104AC0000ED350F1000038BF12FA0EFE08D1BDE837
:104AD0001040C9E7401C38BF5FEA4202CAD1C3E7B1
:104AE000BDE810404FEA410313F5001F38BF70477F
:104AF000A1F1C04100F0E0B99EEA445F08D011EA9C
:104B00005E0FBDE8104004BF01F000410020704777
:104B1000BDE8104070B500F081F900BF64FBBE3EF7
:104B20000000E0FF02494FF0000000F0FEBA00BFB5
:104B30000000F87F491058BFC1F140415B1058BFD9
:104B4000C3F140438B42EFF30080704751EA030CFE
:104B500017D41CF5801F58BFBCF5801F00F10680DC
:104B6000994218BF704708BF9042704707D711F5A8
:104B7000801F58BF13F5801F19D49942704789428E
:104B800070471CF5801F08D5BCF5801FF7D58B42F8
:104B900018BF704708BF824270474FF4001C1CEBDF
:104BA000410F38BF1CEB430F01D28B42704770B5E9
:104BB00000F034F9922449004FF000514FF0805337
:104BC000FFF7B8BF4FEA41034FEA5353A3F58063A1
:104BD000D3F11E03C8BFD3F1210C0CDD4FF000420E
:104BE00042EAC12242EA505232FA03FC8CEAE17CEA
:104BF000ACEBE1707047102BC4BF0020704703F589
:104C0000787CBCF1FF3F04D06FF0004282EA2100C3
:104C1000704770B500F002F9499224800020704777
:104C2000F2E710F0004248BF4042B0FA80F310FAB9
:104C300003F10AD0C3F11D0303F580634FEA41502D
:104C400002EB035202EBD12170474FF00000704796
:104C500051EA030C17D41CF5801F58BFBCF5801F08
:104C600000F10680994218BF704708BF9042704714
:104C700007D711F5801F58BF13F5801F19D499422B
:104C80007047894270471CF5801F08D5BCF5801F0E
:104C9000F7D58B4218BF704708BF824270474FF468
:104CA000001C1CEB410F38BF1CEB430F01D28B42A1
:104CB000704770B500F0B2F8922449004FF00051EF
:104CC0004FF08053FFF736BFDFF848C170B51CEADC
:104CD000111E1EBF1CEA13159EEA0C0F95EA0C0F5D
:104CE00000F06F8081EA030423EA4C134EEAD47E7D
:104CF00021EA4C1141F4801143F48013AE44A1FB2E
:104D0000024CA0FB0365AEF17F7E361955EB0C0516
:104D1000A1FB034C4CF10003A0FB021C16EB0C069C
:104D2000654153F10003094218BF46F0010613F430
:104D3000007F0BD14FEA03314FEA0530340341EADB
:104D4000155140EA16506FF003020AE04FEAC32102
:104D50004FEAC520F40241EA555140EA56506FF03F
:104D6000020202EB2E4201EB025585EACE710AD017
:104D70005FEA440C18BF24F0004450F1000041F1F8
:104D8000000120EAD47040F2FE7C624500D270BD82
:104D9000A84214BF4FF080444FF04044002E08BF9B
:104DA0000024BEF1806FA8BFA1F1C041BDE87040F2
:104DB00080F282804FF0000001F1C04101F000411B
:104DC00070479EEA0C0F0CEA131518BF95EA0C0FFA
:104DD00006D04FF0000081EA030E0EF0004170BDD6
:104DE00000F01CF88900013E00F007B800F009B897
:104DF0004FEA430C5FEA5C5C08D081EA030100F0F3
:104E00005BB84FEA410C5FEA5C5CF6D14FF0000002
:104E1000014970470000FF070000F87F0EF1020E05
:104E20002EF0030E5EF8046B364205D4012A43EBE4
:104E3000030515F5001F12D8012841EB010C1CF5E4
:104E4000001F0CD80ED14FEAD17C15F5001F0CEBDA
:104E50004C0C0CF1020C08BF4CEBD37C04E04FF07F
:104E6000080C01E04FEAD37C0CEB4C0526FA05F662
:104E700006F00706B6F1040C06D20EEB860CBDE870
:104E800070404CF0010C6047DFE80CF0090B0202A7
:104E90004FF000414FF00000A1F5002170BD194610
:104EA0001046012851EB010418BFD4F5001484BF4B
:104EB000002001F0004170BD0808A0F500114FEA84
:104EC0003101704753EA010C17D41CF5801F58BFFD
:104ED000BCF5801F00F106808B4218BF704708BFE9
:104EE0008242704707D713F5801F58BF11F5801F06
:104EF00019D48B4270479B4270471CF5801F08D520
:104F0000BCF5801FF7D5994218BF704708BF904283
:104F100070474FF4001C1CEB430F38BF1CEB410FD4
:104F200001D2994270470FB40CBC03BCFFF7C1BE5D
:104F300091EA030F10B581F000413FF553AD83F0C6
:104F4000004300F009B8000010B591EA030F48BF14
:104F500083F000433FF546AD841A71EB030C07D292
:104F600012198CF0004C43EB0C03001B61EB0C019D
:104F7000DFF8A4E14FEA1154A4EB135C1EEA430FDF
:104F800018BF9EEA445F00F0B08023EA6E035242ED
:104F900021EA0451C3EB6E0338BF5B1EDCF1200E27
:104FA00025D322FA0CFE10EB0E0043FA0CFE41EB67
:104FB0000E01CCF1200E03FA0EFE10EB0E0051F1A3
:104FC0000001CCF1200E29D412FA0EF201EB0451AB
:104FD000BDE8104058BF7047401C1CBFB2F1004FE5
:104FE000704700280CBF491C20F00100704712EBED
:104FF000020E43EB030218BF4FF0010E4EEA4202CD
:10500000ACF1200CDCF11E0E54D943FA0CFE10EB6F
:105010000E0051F1FF31CCF11E0ED5D50EF1010E6F
:1050200012FA0EFE404141EB010101EB445C5FEAE4
:105030005C5C10D910EBDE7001EB045138BFBEF19F
:10504000004FBDE8104018BF704700280CBF491C36
:1050500020F00100704730D24FEAD42C11F5001136
:1050600024F400641BD0B1FA81F20B3AA41AA41EF6
:10507000D2F12003914030FA03F31943904001EB41
:10508000CC71002C01EB0451BDE81040A8BF704763
:1050900001F1C0414FF0000001F000417047B0FA4B
:1050A00080F310FA03F100D110BDE41A173C480553
:1050B000C90AE4E701EB045110BD491001EB0451AA
:1050C000BDE810404FEA300002E04FF000017047A9
:1050D0004A0008BF0042F8D0B2F5001F28BF704751
:1050E00001F000414FF0000070479EEA445F07D096
:1050F00011EA5E0FBDE8104004BF00210020704798
:10510000BDE8104070B5FFF789FE00BF40DFF63EF6
:1051100083F00041104670470000E0FFFF2141EAA4
:10512000D050C0057047FBF712BD0CF00F03092BE0
:1051300008BF082000F05F800A2B0BD0082B18BF97
:10514000704708BF1CF0400F0AD04FF000004FF02E
:10515000000170471CF0400F18BF4FF0004070472F
:105160001CF0100F08D020F0704300F07F4242EA9C
:10517000D3014FEA4370704700F0604021F07F4256
:1051800042EA000201F07F4040EA727070474FF03F
:10519000FF0C4CF4E06C1CEA11531CBF9CEA030C9E
:1051A0009445C2BFDA4201EB02517047002B0DD08B
:1051B000BCF1000F0FD0002A01F00041A4BF41F064
:1051C000E04141F07F614FF00000704701F0004185
:1051D0004FF00000704750EA01334FF09B0C18BFAE
:1051E0004CF0806C7FF49EAC7047FCF73FB8FCF746
:1051F000BBBDFCF745BF1CF4801F11D01CF4E02F91
:1052000003D06FEACC31490070474FF04050EFF3C4
:10521000008222F0704242EA000282F30088704766
:105220004FF000007047040000080000000000007C
:10523000000200010000100000000000000000005B
:1052400030313233343536373839414243444546BC
:1052500040305800303132333435363738396162B6
:10526000636465664030780002400000000000A0E2
:105270000000000005400000000000C80000000021
:105280000C4000000000409C00000000194000009D
:105290000020BCBE0000000034400000BFC91B8ECF
:1052A00000000004B5400000504BCFD06607E2CFAD
:1052B000010000006C4100003E8251AADFEEA734DD
:1052C00001000000D9420000DCB5A0E23A301F978F
:1052D000FFFFFFFFB4450000FD25A0C8E9A3C14FB3
:1052E000FFFFFFFFFF3F0000000000800000000004
:1052F000FF3F000000000080000000005054000844
:10530000000000209C0000006C010008EC54000824
:105310009C000020D422000088010008000000004A
:105320000000F07F1C00000043000000F8FFFFFFBA
:105330000C0000000E0000000F0000002E00000016
:105340001001000043000000F8FFFFFF0040404054
:105350004040404040404141414141404040404048
:1053600040404040404040404040404040050202F4
:1053700002020202020202020202020202202020B3
:10538000202020202020200202020202020290900F
:10539000909090901010101010101010101010100D
:1053A0001010101010101010020202020202888861
:1053B000888888880808080808080808080808086D
:1053C0000808080808080808020202024000000055
:1053D00000000000000000000000000000000000CD
:1053E00000000000000000000000000000000000BD
:1053F00000000000000000000000000000000000AD
:10540000000000000000000000000000000000009C
:10541000000000000000000000000000000000008C
:10542000000000000000000000000000000000007C
:10543000000000000000000000000000000000006C
:10544000000000000000000000000000000000005C
:10545000000000000000F03F00000000000000001D
:10546000000000000000000000000000000000003C
:1054700000000000000000000000000046000000E6
:10548000000000000000000000000000000000001C
:1054900001020304010203040607080902040608C6
:1054A00000000000010000000100000001000000F9
:1054B00001000000000000000000000000000000EB
:1054C00000000000000000000000000000000000DC
:1054D000000000000000000000FF0000FFFFFFFFD1
:0C54E000FFFFFFFF01000000000800407B
:0400000508000131BD
:00000001FF
