:020000040800F2
:10000000200F0020790200083D3200083532000838
:1000100039320008432D00087B4100080000000031
:10002000000000000000000000000000AD340008E7
:10003000472D0008000000005533000899350008DE
:10004000930200089302000893020008930200083C
:100050009302000893020008492D0008930200084B
:10006000652D0008812D00089D2D000893020008D1
:10007000930200089302000893020008930200080C
:1000800093020008930200089302000893020008FC
:1000900093020008930200089302000893020008EC
:1000A00093020008930200089302000893020008DC
:1000B0003D380008930200089302000893020008EC
:1000C00093020008930200089302000893020008BC
:1000D00093020008013F0008930200089302000801
:1000E000930200089302000893020008930200089C
:1000F000930200089302000893020008930200088C
:10010000930200089302000893020008930200087B
:10011000930200089302000893020008930200086B
:10012000930200089302000893020008930200085B
:1001300000F002F800F090F80AA090E8000C824469
:100140008344AAF10107DA4501D100F085F8AFF246
:10015000090EBAE80F0013F0010F18BFFB1A43F0A5
:1001600001031847D04D0000F04D0000103A24BFA5
:1001700078C878C1FAD8520724BF30C830C144BF0C
:1001800004680C607047000000230024002500264E
:10019000103A28BF78C1FBD8520728BF30C148BFEA
:1001A0000B6070476E2900F08381702900F0CD82CA
:1001B000662904F0D285652904F0CF85672904F00B
:1001C000CC856129AFF3008003681B0A28BF41F08A
:1001D0008001692900F03081642900F02D817529A2
:1001E00000F02A816F2900F05B82782900F0998263
:1001F000E92900F0F581E42900F0F281F52900F009
:10020000EF81EF2900F05882F82900F09882036806
:10021000DB0928BF41F08001632901F08181732946
:1002200001F08681E32901F09181F32901F09681A3
:10023000002070471FB501F029FE040000200021B6
:1002400004F09AF9401C60600020002104F07EF95F
:10025000E0601FBD10B510BD01F0EBFD1146FFF7CA
:10026000E9FF04F073F801F0C7FE03B4FFF7F2FFF3
:1002700003BC02F051F900000948804709480047D3
:10028000FEE7FEE7FEE7FEE7FEE7FEE7FEE7FEE746
:10029000FEE7FEE704480549054A064B70470000A3
:1002A0009D3500083101000820090020200F0020A2
:1002B000200B0020200B00207CB51D4616460C00AC
:1002C000009001D02044401E074B7B442A466946DB
:1002D0000190304600F005F905461CB10020694642
:1002E00000F012F928467CBD4502000000B58DB033
:1002F000099000920B904FF0FF300A9000200C9074
:10030000054878440690054878446A46079009A84D
:1003100000F0B2FC0DB000BD93090000AB09000075
:100320004FF0000200B5134694469646203922BF8E
:10033000A0E80C50A0E80C50B1F12001BFF4F7AFD9
:10034000090728BFA0E80C5048BF0CC05DF804EBBB
:10035000890028BF40F8042B08BF704748BF20F829
:10036000022B11F0804F18BF00F8012B7047704727
:100370007047704770B5044685690068C10601D5AD
:10038000302600E02026C00707D070BDD4E9012147
:1003900030469047206A401C20626D1EF6D570BD25
:1003A00070B5044685690078C00707D170BDD4E9EF
:1003B000012120209047206A401C20626D1EF6D546
:1003C00070BD09684A0501D540B27047C905FCD522
:1003D00000B2704709684A0501D5C0B27047C90527
:1003E000FCD580B2704770B50C460546012A05D091
:1003F0002878800600D5EA69002302E0012305E0A1
:100400005B1C934202D2E05C0028F9D1A869E6188F
:10041000C01AA861286A184428622846FFF7AAFF74
:1004200004E0D5E9012114F8010B9047B442F8D358
:100430002846FFF7B5FF70BD2DE9F04106460024C0
:1004400010687529314616A510D0FFF7BAFF0028AD
:1004500002DA404213A507E031688A0701D512A5E8
:1004600002E0490704D511A5012401E0FFF7B2FF1E
:1004700000210A2206F1240709E0B0FBF2FCB0FBE0
:10048000F2F302FB1C00303078541846491C002857
:10049000F3D123462A463046BDE8F04100F0D0BDF6
:1004A000000000002D0000002B00000020000000D4
:1004B00011680268006A530501D508700AE0D30587
:1004C00001D5088006E0130603D5C217C1E9000272
:1004D00000E008600120704701694A1C0261087849
:1004E000704700B58FB0CDE9013100210591054974
:1004F0007944CDE903101146684600F031F90FB098
:1005000000BD0000E5FFFFFF0A6802F8010B0A606A
:100510007047D1E900239A4202D2531C0B6010703D
:10052000704700002DE9FF5F15468A460446DFF854
:10053000AC80F8440027D8E900103E46CDE9001011
:1005400010E03AF816106A4602A801F052FC411C6D
:1005500007D02178890603D5E269391891420DD870
:100560000744761C2078800602D5E069B84205DD94
:10057000AE42E6DB3AF816000028E2D1A069C01BC3
:10058000A0612046FFF7F6FED8E90010CDE9001083
:10059000002017E03AF818106A4602A801F029FC7A
:1005A000B0F1FF3F81460BD000250DF1080B05E0AF
:1005B000D4E901211BF8050090476D1C4D45F7D388
:1005C00008F10100B0428046E4DB206A3844206232
:1005D0002046FFF7E5FEBDE8FF9F0000264900002A
:1005E0002DE9F0418046D21D22F007020025D2E914
:1005F0000002F52915A614D0011E72F1000106DAD9
:100600000023D0EB030063EB020211A608E0D8F848
:1006100000108B0701D50FA602E0490701D50EA6F1
:1006200001251146002408F1240704E000F0BAFC7B
:1006300030323A55641C50EA0102F7D12B4632465B
:1006400021464046BDE8F04100F0FABC0000000041
:100650002D0000002B0000002000000030B400211D
:1006600000F1240408E002F00705D208303542EA20
:100670004372DB086554491C52EA0305F3D1046850
:10068000002310A2250708D504F020040C4304D051
:10069000C46901230CA2641EC46130BC00F0D0BC4C
:1006A00010B5044621461068FFF794FE0246204626
:1006B000BDE810400023D1E7D21D22F00701D1E9A7
:1006C0000023CBE70000000030000000F0B40D462E
:1006D0000188090502D5214C7C4402E01F4C7C4472
:1006E0000E34002100F1240608E002F00F07120981
:1006F000E75D42EA03721B097754491C52EA03077B
:10070000F3D102780023120704D5702D06D009B169
:10071000022311342246F0BC00F092BC01231034B5
:10072000F8E770B504460D4621461068FFF752FE03
:10073000024629462046BDE870400023C6E7D21D88
:1007400022F00703D3E90023C0E70368126843F0EF
:10075000200303600823C3610023B7E78847000034
:100760002DE9F05F894604464FF0000ADFF874B1C6
:10077000FB44C0F820A02046E1688847002874D0D8
:10078000252806D0D4E901219047206A401C206228
:10079000F1E700265F462046E168884720280546A5
:1007A00007DB312D05D2781910F8200C08B106436B
:1007B000F1E7B00701D526F00406C4F81CA0002715
:1007C000C4F818A02A2D09D0284603F052FD38B3EA
:1007D00004EB8708303DC8F8185019E059F8041B9D
:1007E000204604EB87029161E1688847012F0546A6
:1007F00018D1E069002820DA26F020061DE0D8F89C
:10080000180000EB800005EB40003038C8F81800F5
:100810002046E1688847054603F02BFD0028EED10D
:10082000012F0AD02E2D08D12046E16888477F1C71
:100830000546022F46F02006C4DBA069002803DA33
:10084000404246F00106A061F00701D026F01006F4
:100850006C2D0BD0682D09D04C2D39D06A2D35D098
:10086000742D35D07A2D33D016E038E0E1682F466C
:1008700020468847B842054609D16C2F26D04FF450
:100880008060E168064320468847054604E06C2FF7
:100890001AD04FF4807006430DB3A5F1410019281A
:1008A00002D8203546F400664A462946204626608E
:1008B0004E46FFF777FC80B101280BD0F61D26F0DD
:1008C000070000F1080956E74020E4E78020D8E758
:1008D0000020D6E706F104094DE7284652E7206AD2
:1008E000BDE8F09F184700002DE9FF4F1C469146D8
:1008F0004FF0FF3581B000218A468846D4E9016770
:10090000A16902986D1C8847216A834688470028A0
:10091000F6D1BBF1FF3F0CD0002F26F4C0661ADDE4
:10092000700615D5BBF12B0F0AD0BBF12D0F0FD1DF
:1009300004E04FF0FF3005B0BDE8F08F46F480666C
:10094000A16902986D1C88477F1E8346002F02DD37
:10095000BBF1300F03D0B9F1000F2AD025E0A16917
:100960006D1C02987F1E46F400768847002F834650
:1009700005DDBBF1780F06D0BBF1580F03D0B9F1FC
:10098000000F10D011E0B9F1000F02D0B9F1100F33
:100990000BD1A1696D1C02987F1E26F40076884752
:1009A0008346102000E0082081464FEAE97000905D
:1009B00017E00A20F8E74346AAFB0928DDF800C043
:1009C0007F1E03FB098046F4007605F101050AFB52
:1009D0000C0112EB0B0A029841EBEB78A1698847F6
:1009E0008346002F06DD4946584600F0BBFD5FEA0E
:1009F000000BE0D5E16902988847B00502D46FF09A
:100A0000010098E7F00718D1700610D5514670051F
:100A100005D50023D1EB030163EB080200E0424659
:100A20002068031D23600068C0E9001205E020680B
:100A3000011D21600068C0E900A828467BE72DE978
:100A4000FF5F1D464FF0FF3B91464FF000085F46A9
:100A5000D5E90146A96901987F1C8847296A824621
:100A600088470028F6D1BAF1FF3F0CD0002E24F4BD
:100A7000C06419DD600614D5BAF12B0F09D0BAF1A4
:100A80002D0F0ED103E0584604B0BDE8F09F44F4AA
:100A90008064A96901987F1C8847761E8246002ED3
:100AA00002DDBAF1300F03D0B9F1000F26D032E0E9
:100AB000A969761E01987F1C44F400748847002EB3
:100AC000824605DDBAF1780F06D0BAF1580F03D08F
:100AD000B9F1000F10D01EE0B9F1000F02D0B9F14A
:100AE000100F18D1A969761E01987F1C24F4007498
:100AF00088478246102002E0082000E00A20814654
:100B000009E0A96908FB0908761E01987F1C44F4D6
:100B1000007488478246002E05DD4946504600F0A5
:100B200021FD0028EDDAE96901988847A00502D483
:100B30006FF00100A8E7E00725D1600613D5600536
:100B400002D5C8F1000000E0404629680A1D2A606D
:100B50000968220501D5087015E0220701D5088033
:100B600011E008600FE02868011D29600068210578
:100B700002D580F8008006E0210702D5A0F80080A9
:100B800001E0C0F8008038467EE72DE9FF5F4FF0B6
:100B900000089946144646469169D2E901A7DDF856
:100BA00038B001988847054659EA0B0005D009E09E
:100BB000A1690198761C88470546216A284688471E
:100BC0000028F5D1681C03D05FEACA7005D015E093
:100BD0004FF0FF3004B0BDE8F09F2068011D216098
:100BE000D0F800800AE05FEACA7001D108F8015B22
:100BF000A169761C01987F1E88470546002F1ADDE3
:100C0000681C18D0B9F1000F0DD0E81705EBD060C3
:100C1000421120F01F0059F822102A1A012090409A
:100C20000142E0D107E0BBF1000FDCD12846216A88
:100C300088470028D7D0E16901988847BBF1000FA9
:100C400007D1002E05DD5FEACA7002D1002188F8C5
:100C50000010A068B84203DDBBF1000F03D017B14C
:100C60006FF00100B6E73046B4E7000002681144B7
:100C70001378016018467047D16005497944516185
:100C800004497944116200211161114600F078BCD9
:100C9000EDFFFFFFA9030000426842B1016811F8AF
:100CA000013B23B1521EC0E90012184670470121D2
:100CB000C160881E704742685AB1C368016843B971
:100CC00083688B4205D0491E521CC0E900120020E7
:100CD00070474FF0FF3070472DE9FF4F4FF000088D
:100CE0009A461446C146464683B0D2E901B7CDF8CC
:100CF0000080CDF8048091690498884710990546D2
:100D00005AEA010005D009E0A1690498761C8847D9
:100D10000546216A284688470028F5D1681C03D07B
:100D20005FEACB7005D02AE04FF0FF3007B0BDE896
:100D3000F08F2068011D2160D0F800801FE002A81C
:100D40006A46E9B201F037F8411C07D0801C09D08F
:100D50004FF000095FEACB7007D00AE0E169049820
:100D600088473EE04FF0010904E0BDF8081028F87C
:100D7000021B7F1EA1690498761C88470546002F38
:100D80001ADD681C18D0BAF1000F0DD0E81705EB7A
:100D9000D060421120F01F005AF822102A1A0120B8
:100DA00090400142CBD107E010980028C7D12846D7
:100DB000216A88470028C2D0E16904988847B9F1C0
:100DC000000F0ED1109830B9002E04DD5FEACB7011
:100DD00001D1A8F80000A068B84202DD109818B14F
:100DE00017B16FF00100A1E730469FE72DE9FF4FF3
:100DF0004FF000089B461446454683B0D2E9019661
:100E0000CDF80080CDF804809169DDF848A0049801
:100E1000884707465BEA0A0005D009E0A169049803
:100E20006D1C88470746216A384688470028F5D157
:100E3000781C03D05FEAC97005D01BE04FF0FF308B
:100E400007B0BDE8F08F2068011D2160D0F8008058
:100E500010E05FEAC97007D16A464046B9B200F0B7
:100E6000C8FF411C31D08044A1696D1C0498761ED6
:100E700088470746002E14DD781C12D05FEA0B006D
:100E800007D03B46DDE9101200F086FF0028E0D1D4
:100E900007E0BAF1000FDCD13846216A8847002804
:100EA000D7D0E16904988847BAF1000F06D1002D28
:100EB00004DD5FEAC97001D188F80000A068B04283
:100EC00003DDBAF1000F03D016B16FF00100B7E7F0
:100ED0002846B5E72DE9FF5F9B46144600273D46AF
:100EE0009169D2E90196DDF840A0019888478046D3
:100EF0005BEA0A0005D009E0A16901986D1C8847EA
:100F00008046216A404688470028F5D1B8F1FF3F66
:100F100003D05FEAC97005D014E04FF0FF3004B091
:100F2000BDE8F09F2068011D216007680AE05FEAC4
:100F3000C97001D127F8028BA1696D1C0198761E3A
:100F400088478046002E15DDB8F1FF3F12D05FEADA
:100F50000B0007D04346DDE90E1200F01DFF00280C
:100F6000E5D107E0BAF1000FE1D14046216A884798
:100F70000028DCD0E16901988847BAF1000F05D15B
:100F8000002D03DD5FEAC97000D13880A068B0424F
:100F900003DDBAF1000F03D016B16FF00100BEE718
:100FA0002846BCE730B5B0F10A024FEA900E71F165
:100FB00000034EEA817EB0EB0E0061EB91014FEA37
:100FC000101E4EEA017E10EB0E0041EB11114FEAAC
:100FD000102E4EEA016E10EB0E0041EB11214FEA8C
:100FE000104E4EEA014E10EB0E0041EB114140183D
:100FF00041F100014FEAD00040EA41704FEAD101CF
:1010000010EB80054FEA810444EA907444EB01043C
:101010006D1944EB0404521BA3414FF0000348BF79
:101020000A3200D530BD401C41F1000130BD10B581
:10103000044600F023FF0068005D00F0010010BDD1
:101040002DE9F0470D4699469246044600F12408E2
:101050000168880604D5E06921F01001216000E0F4
:101060000120A84201DD471B00E00027A1697A1991
:1010700002EB0900081AA0612078C00602D42046BD
:10108000FFF778F9002608E0D4E901211AF80600F4
:101090009047206A401C761C20624E45F4DB207885
:1010A000C0060AD52046FFF765F906E0D4E901211C
:1010B00030209047206A401C2062381EA7F10107AB
:1010C000F4DC07E0D4E9012118F805009047206A14
:1010D000401C2062281EA5F10105F3DC2046FFF725
:1010E0005FF92078000602D50220BDE8F0870120D4
:1010F000FBE770472DE9FF4F0C461E464FF0FF37C8
:101100008BB0D2E90001DDF860800A908A46C1F315
:101110000A5505B93D46002108464FF00000BAF1D6
:10112000000F00F4400005DA00EB80004FF44001AE
:1011300001EA50004FEA9059B9F1010F00DDB946BC
:101140000A9850EA4A000ED044F61050A5F2FF3536
:1011500045432F14B8F1000F1ED07542291E1EDD25
:10116000C9F100021CE0B8F1010F4FF0000001D0FE
:10117000302103E0F24305E02154401CB042FBDB88
:1011800030460022002121540B99C1F80880C1E9A2
:1011900000200FB0BDE8F08FBD1B6D1CDEE74A4696
:1011A00000DA694206A800F0B9FE06AB93E8070032
:1011B00003AB83E8070050460A9901F0B4F98DE8C3
:1011C0000700A0F500501F3800900398002D09DD9E
:1011D00042F21F014A46084403A90390684601F001
:1011E0003EFC08E0A0F500504A461F3803A90390D2
:1011F000684601F05CFC8DE807000004000C03D099
:101200004FF0FF30410800E01046B8F1000F03D066
:101210000022009215461EE0751E05D4FFF7C2FE9F
:10122000303262556D1EF9D5B3460122084302D013
:1012300000227F1C04E02078302801D100227F1E8C
:10124000002A099786D01DE0112D07DAFFF7AAFEC4
:10125000303262556D1C50EA0102F5D1084302D0CC
:101260000098C8B10EE00021681E05E0235C625CB6
:1012700063542254401E491C8142F7DBAB46A81B35
:10128000401E0990002004F80B000B98099AC0F842
:101290000880C0E9002B7CE711264FF0000859E7D1
:1012A0002DE9F04F88460446D21D22F0070191B087
:1012B000D1E90001CDE90A0102F061FF02460B9875
:1012C000C00F01D02D2007E02068810701D52B2019
:1012D00002E0202101EAC000032A099001D0072A78
:1012E00005DB03464146204600F0D8FD0BE120789F
:1012F000800601D5E06900E00620B8F1650F81465F
:1013000006D0B8F1660F18D0B8F1670F70D131E090
:101310000020B9F1110F009001DB112301E009F168
:1013200001030AAA01A90CA8FFF7E4FEDDE90C708D
:10133000002609F10105834647E001204B46009055
:101340004FF000470AAA01A90CA8FFF7D3FEDDE978
:101350000DB00C995D46002610B909F101000D1879
:10136000B9EB050003D4C0F1FF3609F10105A5EB87
:1013700009002BE0B9F1010F01DA4FF0010900205B
:10138000B9F1110F0090484601DD112300E003463A
:101390000AAA01A90CA8FFF7ADFEDDE90C704D46C5
:1013A00000268346207800070AD4AB4500DA5D4664
:1013B00001A8012D04DD411911F8011C302907D0C5
:1013C0004F4502DA17F1040F04DA012082460FE0DC
:1013D0006D1EEEE7002F02DCED1B3E4403E0781C9F
:1013E000A84200DD7D1CB81B00F1010A4FF0004748
:1013F0002078000703D4AA4501DB4FF0FF3A002113
:10140000B7F1004F0DF143088DF8431024D00220AE
:101410002B23002F01DA7F422D230A21021EA0F187
:10142000010000DC5FB197FBF1FC97FBF1F201FBDF
:101430001C7C17460CF1300C08F801CDEEE7A8F142
:10144000010003702188090501D5452100E06521CF
:10145000A0F1010800F8011C09980FA9A1EB0807E9
:10146000FF1D00B10120411901EBEA70A169384468
:10147000081A401EA0612078C00602D42046FEF75C
:1014800079FF099828B1D4E901219047206A401CCE
:1014900020622078C00622D52046FEF76BFF1EE0B2
:1014A000002E04DBB34502DD01A8805D00E03020A2
:1014B000D4E901219047206A401C2062761CAAF1E1
:1014C00001005FEA000A0AD100F0E0FCC068016890
:1014D000405CD4E901219047206A401C2062281E0C
:1014E000A5F10105DCDC07E0D4E9012118F8010BC6
:1014F0009047206A401C2062381EA7F10107F3DCE8
:101500002046FEF74DFF032011B043E610B54369B6
:1015100013B1AFF3008001E0FEF765FF012010BDBD
:10152000127800F124010A7000224A700122EDE7CE
:1015300011684FF0FF32E9E710B5436913B1AFF31B
:10154000008001E0FEF7EEFF012010BD128800F1DF
:10155000240182840022C2840122EDE711684FF049
:10156000FF32E9E73A2800D2303820F02002412A41
:1015700001D3A2F13700884201D34FF0FF3070470A
:101580002DE9F34F4FF0000A0C4656468DB001206E
:101590000C9001F10C000B9062690B9801219047AF
:1015A00005002DD0252D2CD0216A8847C0B1626955
:1015B0000B9801219047216A88470028F7D162697A
:1015C000411E0B98904700E0761CA1690D98884752
:1015D000216A88470028F7D1E1690D988847DBE741
:1015E000A1690D988847A842074601D1761CD3E728
:1015F000E1690D9888477F1C02D1BAF1000F6FD0C6
:101600006BE162690B9800273D46394690472A28CE
:1016100004D162690B98012190470125DFF8D0823F
:1016200062690B9801219047A0F130010A290AD282
:101630004745E5DC07EB870100EB4107303FDFD48E
:1016400045F01005ECE7E90601D46FF000476C287F
:101650000AD04C2814D0682815D06A280DD07428D8
:101660001CD07A281AD01DE062690B98012190479E
:101670006C2802D045F0040514E045F002050DE0A9
:1016800045F020050AE062690B980121904768281F
:1016900002D045F0080505E045F4006562690B9845
:1016A00001219047C4E9015765283DD019DC58282D
:1016B0007AD00CDC452837D004DC252826D04128F8
:1016C0009ED131E046282FD0472899D12CE05B28C5
:1016D00077D0612828D063287CD0642823D15AE0B1
:1016E000F6E06F2848D008DC66281DD067281BD09C
:1016F000692821D06E2816D127E0702845D073289C
:1017000068D0752847D078280DD14DE0A1690D9893
:101710008847252805463FF469AFE1690D98884759
:101720006D1C3FF46AAFD8E00D9923466A466FF00E
:10173000010003F074FBC5E045F0400023464FF084
:1017400000026060A80736D43EE0E8077FF447AFA8
:101750002068011D21600068290501D506701BE77E
:10176000290701D5068017E7A90703D5F117C0E9B6
:10177000006111E706600FE745F0400023464FF097
:1017800008026060A80716D41EE040F60E0125EAA4
:101790000100606016E045F0400023464FF00A0269
:1017A0006060A80707D40FE045F040006060A8071C
:1017B00008D5234610220D996FF00100FFF794F829
:1017C00080E007E0102223460D996FF00100FFF73B
:1017D00036F977E04FF0000963284F46C8464B467C
:1017E000CB4602D05B2806D038E0E80601D40120C1
:1017F000A060012732E06269D4F80CB00B98012197
:1018000090475E2807D14FF0010949466269D4F834
:101810000CB00B989047216939B900210A4603ABF7
:1018200043F82120491C0829FADBD8B3216949B3C0
:1018300008F1010862690B98012190475D28F4D1F5
:10184000B9F1000F09D0002003A951F82020D2439C
:1018500041F82020401C0828F7DB03AB2069002852
:1018600020794FEA40701ED05B462246CDF80080BA
:10187000CDE901970D9900286FF0010020DAFFF7FC
:1018800029FB1FE0C11703AA00EBD1614B1121F026
:101890001F0102EB8302411A1368012088400343B1
:1018A0001360C7E719E00D99224600286FF0010088
:1018B000009702DAFFF710FA04E0FFF766F901E09B
:1018C000FFF794FA00280ADA401C06D10C9820B1E0
:1018D0004FF0FF300FB0BDE8F08F5046FAE7E90750
:1018E00001D10AF1010A064400200C9054E60000E0
:1018F000CCCCCC0C2DE9FF4F064689B00878FF28E8
:1019000006D0491C2D2805D000244FF0000908E01E
:1019100000200CE00124F8E709EB8903491C00EBE7
:1019200043090878FF28F7D114B1C9F100008146B6
:10193000107800252C46AA4629462D2801D02B28B0
:1019400004D1521C2D2813D0002082468B461078DB
:10195000FF280FD04FF0000C0A21521CA5FB017884
:1019600004FB018105FB0C11C5194BEB0104EEE7EB
:101970000120EAE7002108464FF00000BAF1000F0D
:1019800002D000EB80004008C0F38158B8F1010F8D
:1019900001DD4FF0FF380C9809EB000755EA040011
:1019A00009D04FF0020917F5FA7F0BDA4FEACA7037
:1019B000C6E900B012E04FEACA70C6E900B00DB047
:1019C000BDE8F08FB7F5FA7F0DDDF0487844D0E937
:1019D0000010C6E9001040EACA70706000F05AFAC0
:1019E000C0F80090EBE7391E02DAC8F1000200E00F
:1019F000424600DA794206A800F090FA06AB93E876
:101A0000070003AB83E8070044F23E005BEA0401F1
:101A10000090584604D144F21E012C465D460091C8
:101A2000210C0904014306D10099240444EA154419
:101A30002D041039009104F07F41014306D1009933
:101A4000240244EA15642D020839009104F0704123
:101A5000014306D10099240144EA15742D01091FA0
:101A6000009104F04041014306D10099A40044EAEA
:101A70009574AD00891E009104F00041084304D123
:101A800000986D196441401E009042466846002F40
:101A9000CDE9014503A902DD01F01DF801E000F0E8
:101AA000F2FFBAF1000F04460D4601D084F0004465
:101AB00040F2FF7724F00040284303D0C4F30A50DB
:101AC000B84212D100F0E6F9C0F80090C4F30A5011
:101AD000B8420AD1AE487844D0E90010C6E90010F7
:101AE00004F000410843706069E7C6E9005466E706
:101AF0002DE9FF4F1F464FF0000A4FF0FF384546D3
:101B000091B0D7E90146CDF83CA000F0BFF9C0681C
:101B10000168405C1090B96912986D1C8847396A59
:101B2000814688470028F6D1B9F1FF3F0AD0002E40
:101B300024F4D06411DDB9F12B0F08D0B9F12D0FC9
:101B40000BD102E0404615B03AE744F48064B9692D
:101B500012986D1C8847761E8146600504A901D540
:101B60002D2000E02B20002E01F1010B0DF130089B
:101B70008DF810003FDDB9F1690F08D0B9F1490FB8
:101B800005D0B9F16E0F02D0B9F14E0F1CD13B4612
:101B900001A8009580E85002DDE912126FF0020002
:101BA00003F041F9C11CCED10EE0B96912986D1C49
:101BB000884781461398761E44F4007405600F9898
:101BC000401C002E0F9016DDB9F1300FEDD0B9F1A9
:101BD000780F02D0B9F1580F0DD10F9801280AD112
:101BE0003B46CDE90054DDE91212001F029603F0D6
:101BF00018F9C11CA7D1109989453ED144F0800441
:101C000006E01399681CAAF1010A44F40074086004
:101C1000B9696D1C1298761E884730288146F0D02D
:101C20002BE01099894505D1200603D4761E44F097
:101C3000800418E0484602F01CFB08B3761E0DF144
:101C400023018B4544F4007408D2A9F130000BF84D
:101C5000010B200607D5AAF1010003E0200602D4FB
:101C60000AF101008246A00502D51399681C08609C
:101C7000B96912986D1C88478146002ED1DC53E06B
:101C8000002E51DDB9F1650F02D0B9F1450F4BD1EE
:101C9000A00549D5B9696D1C1298761E24F44074CC
:101CA0008847002E81460CDD2B2804D0B9F12D0F7A
:101CB00007D144F48074B96912986D1C8847761E68
:101CC0008146E00501D52D2100E02B2108F8011BFC
:101CD000CDF8008021E0761E0DF13901884544F4ED
:101CE00000740CD2A9F1300010F0FF0088F8000059
:101CF00002D10099884509D908F1010806E0E005FC
:101D000001D5244801E042F20F708246B969129869
:101D10006D1C8847814613980560002E04DD4846F7
:101D200002F0A7FA0028D6D1F96912988847FF2057
:101D300053468BF8000088F8000000200A900B90B2
:101D400004AA0CA90AA8FFF7D5FDA00502D46FF0DC
:101D50000100F8E614F0240F0AD0E00714D1386827
:101D6000DDE90A12031D3B600068C0E900120BE0C8
:101D70000AA9684602F026FAE00705D13868009AF9
:101D8000011D3960006802602846DCE684350000E9
:101D90007A340000F1D8FFFF10B508E030F8024BAC
:101DA0009C4204D10AB1002010BD012010BD491E83
:101DB000F4D2104610BD70B516460C46054600F02C
:101DC0005DF8036893F80101012804D0185D68B13B
:101DD00001202C8070BDD3F803013246214603F266
:101DE000031303442846BDE8704018474FF0FF3006
:101DF00070BD70B516460C46054600F03FF8036806
:101E000093F80101012806D0FF2C0FD8185D68B1A6
:101E100001202C7070BDD3F807013246214603F231
:101E2000071303442846BDE8704018474FF0FF30C1
:101E300070BD754600F0E6F8AE46050069465346AB
:101E400020F00700854618B020B5FEF723FABDE85C
:101E500020404FF000064FF000074FF000084FF011
:101E6000000B21F00701AC46ACE8C009ACE8C009A2
:101E7000ACE8C009ACE8C0098D46704710B500F069
:101E800005F8001D10BD00BFF12600000048704796
:101E9000DC08002000487047BC0800202DE9F04114
:101EA0001F46044603260168072A01F4006004DB8C
:101EB00008B116A505E016A503E008B115A500E0D8
:101EC00015A521F010002060A069C01EA0610FB10F
:101ED000401EA0612046FEF74DFA4FB1D4E9012122
:101EE00038469047206A401C2062C01C206206E0F1
:101EF000206AFAE7D4E9012115F8010B9047761E14
:101F0000F8D22046FEF74CFABDE8F0814E414E0073
:101F10006E616E00494E4600696E66002DE9F0471D
:101F2000814616468AB0334878440DC88DE80D00C6
:101F300030487844801C03AC0DC884E80D0041F69D
:101F40009B300844372190FBF1F290FBF1F5A5F1AD
:101F5000800501FB12041B3C02D56442012000E015
:101F60000020DFF890A080460027FA44AAF1BE0ABC
:101F70000DE0E00709D03246684607EB47010AEB5F
:101F8000810100F094FD8DE8070064107F1C002C97
:101F9000EFD1184F7F44AC3F18E0E80714D007EBAF
:101FA00004100DF1180A90E80E008AE80E00C068CF
:101FB000F04201D198190890324606A903A800F012
:101FC00076FD03AB83E807006D10641C002DE4D19F
:101FD00032466946B8F1000F03A802D000F03FFD79
:101FE00001E000F064FDC9E90001C9F808200AB069
:101FF000BDE8F087F02F00000446AFF300802046D4
:10200000FEF733F900487047BC08002010B5FFF711
:1020100041FF006810BD10B50446FFF73BFF0460A8
:1020200010BD00002DE9FF4F1F464FF03C0987B05F
:102030004FF00042DDE9141001F10108DDF858A06D
:1020400002EA40500390002004908346054604466F
:102050000590B969461E08988847AAF1010A0290BE
:10206000BAF1000F37DD02982E2815D01021FFF7A6
:1020700079FA00282ADB4FF0010B0499014316D0AE
:10208000B9F1000F0BDB4A46C11700F031FA0543E6
:102090000C43A9F1040905E00120059007E008B10F
:1020A00045F0010501200490059800B9361DB96975
:1020B000089808F101088847BBF1000FAAF1010A4E
:1020C0000290CDD00999C1F80080C9E70298702824
:1020D00008D0502806D0F96908988847BBF1000F4E
:1020E00014D04FE0002002900120BBF1000F0490BB
:1020F00009D0B969089808F101088847AAF10109CF
:10210000B9F1000F07DCF969089888476FF0010002
:102110000BB0BDE8F08F2B2804D02D280CD14FF048
:10212000FF300490B969089808F101088847A9F1BF
:102130000109B9F1000FE6DD411CE4D00A21FFF7E7
:1021400011FA0028DFDB029908F1010801EB810197
:1021500000EB41000290B969089888470A21FFF70F
:1021600001FA099AA9F10109B9F1000FC2F800803A
:1021700001DD0028E7DAF969089888470499029890
:1021800000FB016655EA040004D004F04041090058
:1021900002D006E0039898E0A40044EA9574AD00EC
:1021A000B61E04F00041080002D16D196441761E8C
:1021B000159810F0240F03D04FF00B095C4803E092
:1021C0004FF028096FF07D008246564507DAAAEBEA
:1021D00006018944B9F1410F01DD4FF041090120A9
:1021E0000021A9F1010200F083F9024628400B46C4
:1021F0002140084301D0012100E00021501E02913E
:1022000043F1FF3128402140084301D0012000E084
:1022100000200299834651EA0B014FD00021084665
:102220004FF00000039900F4400039B100EB80004A
:102230004FF4400100EBD07001EA600080150128E6
:1022400002DD4FF0FF3000E013D0401C36D0029882
:1022500060B3BBF1000F0CD14A460120002100F011
:1022600047F928402140084301D0012000E0002028
:10227000E0B101204A46002100F03AF90346401936
:102280000A4661412D1A8C4111D3B9F1400F09DD85
:10229000159810F0240F02D0AAF1340603E0AAF139
:1022A000170600E0761C00254FF0004406E05B1E98
:1022B00042F1FF3220EA030521EA0204CAF10100DB
:1022C000B04206DA1B4903980843019000200090B1
:1022D0000EE0039AC4F3D321E80A0A43164940EA00
:1022E00044500A433146CDE90002684601F0B6FF8A
:1022F000159810F0240F0BD01598C00715D1386829
:10230000DDE90012031D3B600068C0E900120CE02B
:1023100002A8694601F056FF1598C00705D1386834
:10232000029A011D3960006802604046F0E6000034
:1023300002FCFFFF0000F07F0000F03F2DE9FF4F9F
:1023400092461D4685B04FF00041DDE9124BDDE9B4
:1023500014727F1E01EA4B50414940F0FF4940EAA8
:102360000108002122F020004928049102D04E28C3
:1023700028D04CE03BA0012607C88DE80700A969DA
:102380000698641C88477F1E014606D41DF8060087
:1023900018B121F0200181420BD0E96906988847E5
:1023A000032E34D0082E32D06FF0010009B0BDE802
:1023B000F08F761C032E01D0082EE0D1601CCAF8E5
:1023C0000000DCE7A9690698641C88477F1E2AD4B0
:1023D00020F02000412826D1A9690698641C88476E
:1023E0007F1E20D420F020004E281CD1A969069819
:1023F000641C88477F1E48F4002849F48009CAF805
:10240000004001D4282806D0E969069888475FEA89
:10241000CB7012D022E0A9690698641C88477F1E01
:1024200001D4002803DAE96906988847BCE729281F
:10243000F1D1641CCAF80040E9E71BF0240F07D073
:1024400028680499031D2B600068C0E9001805E0A6
:102450002868021D2A600068C0F800902046A5E7A1
:102460000000F07F494E46494E4954590000000093
:102470004FF0013C50F8042B51F8043B9A4221D113
:10248000A2EB0C03934313EACC1317D150F8042B9F
:1024900051F8043B9A4215D1A2EB0C03934313EA83
:1024A000CC130BD150F8042B51F8043B9A4209D1BC
:1024B000A2EB0C03934313EACC13DBD04FF00000E4
:1024C000704700BFD01A01BAB1FA81F101F01801CA
:1024D00022FA01F0CB40C1F12001DBB2C0B2C01A38
:1024E0002CFA01F3D11A914311EAC311E6D17047D6
:1024F000B2F120030AD5C2F1200301FA02F120FA59
:1025000003F300FA02F041EA0301704700FA03F115
:102510004FF000007047000001491820ABBEFEE7F5
:102520002600020070475FEA400C08BF91F0000FE0
:102530004FEA8C234FEAC12243EA51514FEA1C5023
:1025400018BF00F5F0404FEA300018BF41F00041DD
:102550005FEA6C5C00F02980BCF1FF3F08BF40F0EF
:1025600080407047130C06BF12044FF0100C4FF060
:10257000000C130E04BF12020CF1080C130F04BF61
:1025800012010CF1040C930F04BF92000CF1020C29
:10259000D30F04BF52000CF1010C11464FF00002A2
:1025A000A0F11F00A0EB0C00704711F0004F08BF16
:1025B000704731F000413FF4D5AF0B0C06BF090462
:1025C0004FF0100C4FF0000C0B0E04BF09020CF181
:1025D000080C0B0F04BF09010CF1040C8B0F04BF96
:1025E00089000CF1020CCB0F04BF49000CF1010C67
:1025F000CCF12003A0EB0C0022FA03F302FA0CF258
:1026000041EA030100F10100704720F07F4C80EAAD
:10261000030023F07F47ACEB070303F57C5300F086
:10262000004003F1FF032DE980494FEA154B09B43F
:102630004FEA144325EA0B4E24EA03480FF204261E
:1026400006EB132749083E785FEA320203FB066770
:10265000C7F5000707FB06F64FEA54374FEAD646A0
:1026600006F1020607FB066CCCF1005C4FEA1C4742
:102670002CEA074C07FB06F40CFB06F504EB1546A9
:102680004FEA961634BF00204FF000404FEAD13792
:1026900006FB07FC4FEA1C4C0CFB0BF7D21B03FBA1
:1026A0000CF761EB07010CFB0EF7B0EB074072EB88
:1026B00017420CFB08F734BFA2EB0742B2EB07420C
:1026C00061EB17414FEA0C444FEA910706FB07FC08
:1026D0004FEA1C4C0CFB0BF7B0EBC74072EB5732C8
:1026E00003FB0CF734BFA2EBC742B2EBC74261EB6E
:1026F00057310CFB0EF7B0EBC70072EB57720CFBB7
:1027000008F734BFA2EBC702B2EBC70261EB577107
:10271000039F4FEA816141EA921104EBCC044FEA36
:10272000D1374FEA826206FB07FC42EA90124FEA79
:1027300080604FEA1C4C0CFB0BF7D21B03FB0CF721
:1027400061EB07010CFB0EF7B0EB074072EB174291
:102750000CFB08F734BFA2EB0742B2EB074261EB78
:1027600017414FEA8C554FEA910704EB9C2406FB76
:1027700007FC4FEA1C4C0CFB0BF7B0EBC74072EBAD
:10278000573203FB0CF734BFA2EBC742B2EBC74290
:1027900061EB57310CFB0EF7B0EBC70072EB5772D1
:1027A0000CFB08F734BFA2EBC702B2EBC70261EB28
:1027B000577115EB4C254FEA816141EA92114FEABE
:1027C00082624FEAD13742EA901206FB07FC44F1DD
:1027D00000044FEA80604FEA1C4C0CFB0BF7D21B45
:1027E00003FB0CF761EB07010CFB0EF7B0EB0740A6
:1027F00072EB17420CFB08F734BFA2EB0742B2EBB7
:10280000074261EB174115EB1C154FEA813141EA94
:1028100092414FEA823242EA90424FEA80304FEAD8
:102820000C7644F1000448EA03434EEA0B484FF0AB
:10283000000EB2EB080C71EB030724BF6246394669
:102840004EEB0E0E4FF0000B0018524149414BEB7E
:102850000B0BB2EB080C71EB03077BF1000B24BFF1
:10286000624639464EEB0E0E4FF0000B00185241F7
:1028700049414BEB0B0BB2EB080C71EB03077BF1FF
:10288000000B24BF624639464EEB0E0E51EA02079A
:1028900018BF46F0010616EB0E7655F1000254F112
:1028A000000103D5BDE88901BDE80088BDE88901C4
:1028B000BDE80048B619524141EB0101A3F1010303
:1028C000704780807F7E7D7C7B7A7978777676759D
:1028D0007473727171706F6E6E6D6C6C6B6A6A6915
:1028E0006868676666656464636362616160605FAF
:1028F0005F5E5E5D5D5C5C5B5B5A5A595958585728
:10290000575656555555545453535252525151508F
:1029100050504F4F4F4E4E4D4D4D4C4C4C4B4B4BE2
:102920004A4A4A4949494848484747474746464628
:102930004545454444444443434343424242424163
:102940004141000046EA0646A3F570534FEA164699
:1029500046EA42564FEAD22242EA415210B54FEAC5
:10296000D121A3F1010300F017F820F0004000F19D
:10297000010C00F0004701EB00501146BCF5006F60
:1029800040EA070000D210BD02484FF0000140EAC3
:10299000070010BD0000F07F002B26D4770021D067
:1029A0001CB54FEA370703B44FF010004FF0100189
:1029B0004FF000000FBCBDE810400BF1010BBBF164
:1029C000010F08BF5FEA170722BF12F1010211F1E0
:1029D00001014FF0004143F1000300F0004043EAE1
:1029E00000007047F9D35708DAE746EA064613F1C4
:1029F000400F4FEA16461FDD13F1200FDFBF1643CD
:102A00000A46002120335B42C8D0C3F1200746EAC2
:102A1000064602FA07F74FEA164646EA0706C3F1EA
:102A2000200722FA03F201FA07F721FA03F14FF027
:102A3000000342EA0702B1E746EA020646EA064612
:102A40004FEA164646EA0106BCBF46EA0646360C81
:102A50004FF000034FF000024FF000019EE72DE918
:102A6000C048934630B491E8380007C831EA400CBA
:102A700048BF34EA430C03D5FFF7C7FDFFF78CFFCF
:102A8000F0BCBDE800882DE9C048934630B491E819
:102A9000380007C831EA400C48BF34EA430C03D57C
:102AA000FFF7B3FDFFF74EFFF0BCBDE800882DE94E
:102AB000C048934630B491E8380007C810F0804F02
:102AC00008BF13F0804F03D100F019F8FFF764FF3F
:102AD000F0BCBDE800882DE9C048934630B491E8C9
:102AE000380007C810F0804F08BF13F0804F03D1A3
:102AF00000F005F8FFF726FFF0BCBDE8008820F0E5
:102B00007F4780EA030023F07F4C07EB0C03A3F51B
:102B10007C5300F00040A3F1FE0392F0000F00F0A0
:102B2000B38095F0000F00F077802DE901494FEA5E
:102B300011404FEA144621EA004800FB06FC24EA53
:102B4000064708FB06F607FB08F800FB07F718EB3B
:102B500006484CEB164C4FEA124B18EB07484FEA6D
:102B600015464CEB174022EA0B4E0BFB06FC25EA00
:102B700006470EFB06F607FB0EFE0BFB07F71EEBE8
:102B8000064E4CEB164C4FF000061EEB074E4CEB7E
:102B9000174B18EB0B0840F1000018EB0E0B58EB2D
:102BA000000840F100008F1A4FF000013CBFC943FC
:102BB000661B14BFB5EB040C00213CBFC943F61BD8
:102BC0004FEA17444EEA8E0E27EA04454FEA1C47A7
:102BD00004FB07622CEA074C05FB07F70CFB05F624
:102BE00004FB0CFC16EB074642EB174216EB0C46B7
:102BF00042EB1C421BEB060658EB0202414146EA3F
:102C00009E0601D5BDE80189B619524141EB01018B
:102C1000A3F10103BDE801894FEA14454FEA1147CA
:102C200024EA054621EA074C05FB07F406FB07F7F3
:102C30000CFB06F105FB0CFC11EB074144EB1744C0
:102C40004FEA124711EB0C4144EB1C4422EA074CBB
:102C500005FB07F206FB07F70CFB06F605FB0CFC71
:102C600016EB074642EB174216EB0C4642EB1C45AF
:102C70006A1854F1000148BF7047B619524141EB40
:102C80000101A3F10103704795F0000F37D04FEA1F
:102C900011424FEA144721EA024624EA074C02FB9C
:102CA00007F106FB07F70CFB06F402FB0CFC14EB28
:102CB000074441EB17414FEA154714EB0C4441EB35
:102CC0001C4125EA074C02FB07F506FB07F70CFB46
:102CD00006F602FB0CFC16EB074645EB174516EB18
:102CE0000C4645EB1C42121951F1000148BF7047D8
:102CF000B619524141EB0101A3F1010370474FEABC
:102D000014454FEA114724EA054621EA074C05FB22
:102D100007F106FB07F70CFB06F24FF0000605FB78
:102D20000CFC12EB074241EB174112EB0C4251EB4A
:102D30001C4148BF7047921841EB0101A3F1010308
:102D4000704700BFFEE7704710B5012000F03AF869
:102D500028B1034908688047012000F02DF810BD14
:102D6000A808002010B5042000F02CF828B1034971
:102D700088688047042000F01FF810BDA8080020D4
:102D800010B5082000F01EF828B10349C868804734
:102D9000082000F011F810BDA808002010B5102080
:102DA00000F010F828B1034908698047102000F0AE
:102DB00003F810BDA8080020014908607047000012
:102DC00014040140014600200022074B1B6803EA5F
:102DD0000102054B14331B680B4013B10AB10120EB
:102DE00000E00020704700000004014010B50024FE
:102DF0000C480068008800F0010020B10948006814
:102E000000F063FD04B20020064909688884054982
:102E10000968888601210348006800F029FD2046E2
:102E200010BD00007C00002000B587B00121042007
:102E300000F092FA0121082000F0AEFA04208DF88B
:102E40001B00C020ADF8180003208DF81A0006A959
:102E5000184800F04DF84FF6FF70ADF81000002054
:102E6000ADF80C00ADF81200ADF80E0003A9124841
:102E700000F06EFE0A231A4603210F4800F004FDFD
:102E80000020ADF800000620ADF808000A20ADF8DB
:102E900002000120ADF804000020ADF806006946EC
:102EA000054800F027FD0121034800F0DBFC07B0D6
:102EB00000BD0000000C01400008004010B50020DB
:102EC00005490968888404490968888601210348FE
:102ED00000F0CEFC10BD00007C0000200008004087
:102EE00010B50021014800F0C3FC10BD00080040EF
:102EF0002DE9F04102460025002600200023002491
:102F0000002791F803C00CF00F0591F803C00CF0F6
:102F1000100CBCF1000F03D091F802C04CEA05057B
:102F200091F800C0BCF1000F31D0146800202BE0F4
:102F30004FF0010C0CFA00F3B1F800C00CEA0306E4
:102F40009E4220D183004FF00F0C0CFA03F7BC43D4
:102F500005FA03FC4CEA040491F803C0BCF1280F05
:102F600006D14FF0010C0CFA00FCC2F814C00AE0C4
:102F700091F803C0BCF1480F05D14FF0010C0CFAD9
:102F800000FCC2F810C0401C0828D1D31460B1F86E
:102F900000C0BCF1FF0F34DD546800202EE000F1CA
:102FA000080C4FF0010808FA0CF3B1F800C00CEA65
:102FB00003069E4221D183004FF00F0C0CFA03F759
:102FC000BC4305FA03FC4CEA040491F803C0BCF1CD
:102FD000280F05D100F1080C08FA0CF8C2F814808B
:102FE00091F803C0BCF1480F07D100F1080C4FF075
:102FF000010808FA0CF8C2F81080401C0828CED34B
:103000005460BDE8F08100002DE9F04F89B0FFF772
:10301000EDFE8246504601F01EFC06460022744B2F
:1030200001F0A0FD04460022724B01F0EDFA80464B
:1030300001F0E2FB8346704800680A2190FBF1F240
:1030400001FB12006D4951F820006D490968081A0A
:103050006B490860684800680A2190FBF1F201FBA7
:103060001200664951F82000634909680A2291FB61
:10307000F2F302FB1311614A52F82110614A1268FF
:1030800000FB11205F4908605B4800680A2190FB43
:10309000F1F201FB1200594941F820A0564800689E
:1030A0000A2190FBF1F201FB1200544951F8200073
:1030B000534909680844524908604F4800680A218A
:1030C00090FBF1F201FB12004C4951F820004A49F3
:1030D00009680A2291FBF2F302FB1311474A52F8E6
:1030E0002110484A126800FB012046490860424806
:1030F0000068401C4049086041480068404341491D
:10310000096801EB8101C0EB41003F490860584666
:1031100001F0A1FB04463D480CC8204601F074FABA
:103120003A4A03C23A4800683A49884208DA3849BC
:103130000968ABEB010001F08EFB374A03C203E0E4
:103140000020354A10605060344833490CC803C928
:1031500001F0D4FB8046894631482C490CC803C98C
:1031600001F0CCFB06460F46584601F074FB0446BE
:103170002C480CC8204601F0C1FB32463B46CDE945
:10318000000101F041FA42464B46CDE9020101F04F
:103190003BFA0022174BCDE9040101F035FACDE9E5
:1031A000060101F029FB2049096808441E4908600E
:1031B0001748C0F800B008460068B0F5803F02DB51
:1031C0004FF6FF70086018480068002802DA0020F7
:1031D00015490860514615A000F0D0FD1249098834
:1031E00088B2002100F064F809B0BDE8F08F00005B
:1031F000008051400000E03F0C00002080000020D3
:103200000400002000000020080000203000002002
:1032100048000020A086010038000020280000207F
:1032200018000020200000204400002025640D0A22
:103230000000000000BFFEE700BFFEE7704700008F
:1032400070B5002100230F22C47804B3154C246804
:1032500004F4E064C4F5E064210AC1F10403CA4047
:10326000447804FA03F184781440214309010E4C98
:103270000678A155047804F01F050124AC400578B8
:103280006D11AD0005F1E025C5F8004109E00478B5
:1032900004F01F050124AC40044D0678761145F872
:1032A000264070BD0CED00E000E400E080E100E0AD
:1032B00070B504460D462146034800F019FC294626
:1032C000014800F017FC70BD0004004000B589B053
:1032D0000121022000F040F80121084600F05CF8CE
:1032E00018208DF82300C020ADF8200003208DF8B1
:1032F000220008A91548FFF7FBFD4FF6FF70ADF857
:1033000018000020ADF81400ADF81A00ADF8160052
:1033100005A90F4800F01CFC6020ADF80400012056
:10332000ADF806000020ADF80C00ADF80A0001A9C8
:10333000074800F03FFB01A9054800F087FB012189
:10334000034800F095FA09B000BD000000080140F4
:10335000000400407047000029B1064AD2690243C8
:10336000044BDA6104E0034AD2698243014BDA611B
:10337000704700000010024029B1064A126902435A
:10338000044B1A6104E0034A12698243014B1A613B
:10339000704700000010024029B1064A92690243BA
:1033A000044B9A6104E0034A92698243014B9A619B
:1033B000704700000010024029B1064AD26802435B
:1033C000044BDA6004E0034AD2688243014BDA60BE
:1033D000704700000010024030B500210022002498
:1033E00000232D4D6D6805F00C0121B1042905D095
:1033F000082923D105E0294D056022E0274D05600D
:103400001FE0254D6D6805F47012234D6D6805F4BD
:103410008034022505EB92421CB9214D55430560CD
:103420000BE01D4D6D6805F400351DB11C4D554375
:10343000056002E0194D5543056002E0174D056037
:1034400000BF00BF144D6D6805F0F0010909154D6E
:103450006B5C0568DD4045600F4D6D6805F4E0610B
:10346000090A104D6B5C4568DD4085600A4D6D684A
:1034700005F46051C90A0B4D6B5C4568DD40C560C1
:10348000054D6D6805F44041890B074D6B5CC568BF
:10349000B5FBF3F5056130BD0010024000127A0063
:1034A00000093D004C0000205C000020704710B572
:1034B00000F002F810BD00000CB500200190009053
:1034C0003348006840F480303149086000BF30481C
:1034D000006800F4003000900198401C01900098B2
:1034E00018B90198B0F5A06FF1D12948006800F42F
:1034F000003010B10120009001E000200090009801
:10350000012843D12348006840F010002149086099
:103510000846006820F0030008600846006840F094
:10352000020008601A484068194948600846406827
:1035300048600846406840F480604860084640683B
:1035400020F47C1048600846406840F4E810486069
:103550000846006840F08070086000BF0C480068B2
:1035600000F000700028F9D00948406820F00300FE
:10357000074948600846406840F00200486000BFC4
:103580000348406800F00C000828F9D10CBD000089
:1035900000100240002002407047000010B51348A0
:1035A000006840F001001149086008464068104971
:1035B00008400E494860084600680E4908400B491B
:1035C00008600846006820F48020086008464068CB
:1035D00020F4FE0048604FF41F008860FFF767FF8B
:1035E0004FF000600449086010BD00000010024068
:1035F0000000FFF8FFFFF6FE08ED00E0F0B50C4616
:10360000154600220021068C4FF6FE773E400684C8
:10361000028B018C4FF60C7632407E1C06EA0316B4
:103620002E433243104EB0420ED0104EB0420BD05B
:10363000B0F1804F08D00E4EB04205D00D4EB042D2
:1036400002D00D4EB04206D14FF6FD76314044F027
:103650000106314305E04FF6F576314044F00106AE
:10366000314302830184F0BD002C0140003401404D
:103670000004004000080040000C0040F0B50C467B
:103680001546002200210026078C4FF6EF7C07EA42
:103690000C070784028B018C4FF6FF7707EA0416AC
:1036A00040F6FF473A404FF6FF7707EA03373A43C1
:1036B0004FF6FF7707EA05273A43114FB8420ED07D
:1036C000104FB8420BD0B0F1804F08D00E4FB84227
:1036D00005D00E4FB84202D00D4FB84206D14FF67A
:1036E000DF77394046F01007394305E04FF65F7742
:1036F000394044F01007394302830184F0BD0000D3
:10370000002C01400034014000040040000800404B
:10371000000C0040F0B50C461546002200210026A2
:10372000078C4FF6FF6C07EA0C070784828B018C2D
:103730004FF6FF7707EA04264FF60C773A404FF62C
:10374000FF7707EA03172F433A43114FB8420ED0D1
:10375000104FB8420BD0B0F1804F08D00E4FB84296
:1037600005D00E4FB84202D00D4FB84206D14FF6E9
:10377000FF57394046F48077394305E04FF2FF5751
:10378000394044F48077394382830184F0BD0000DE
:10379000002C0140003401400004004000080040BB
:1037A000000C0040F0B50C46154600220021002612
:1037B000078C4EF6FF7C07EA0C070784828B018C8E
:1037C0004FF6FF7707EA043640F6FF473A404FF6D8
:1037D000FF7707EA05273A434FF6FF7707EA0337F3
:1037E0003A43114FB8420ED0104FB8420BD0B0F14F
:1037F000804F08D00E4FB84205D00E4FB84202D0CD
:103800000D4FB84206D14DF6FF77394046F4805748
:10381000394305E047F6FF57394044F480573943B0
:1038200082830184F0BD0000002C0140003401407F
:103830000004004000080040000C004010B50121C9
:10384000880700F045F848B10121880700F00DF81D
:103850000348006810B102480068804710BD0000AE
:1038600078000020CA4302827047CA430282704730
:1038700021B1028842F00102028004E002884FF682
:10388000FE731A4002807047F0B50C4615461E467E
:103890000021002200230189028B038C4FF6F87768
:1038A000394021434FF6FC473A4040F201173A4372
:1038B0004FF6DD773B404FF6FF7707EA06172F43B9
:1038C0003B43018102830384F0BD0146888E70472B
:1038D00030B50246002000230024158A05EA0103C2
:1038E000958905EA010413B10CB1012000E0002024
:1038F00030BD000070B505460C46244885420ED008
:10390000234885420BD0B5F1804F08D0214885422D
:1039100005D02148854202D02048854200D100E0F0
:1039200000BF208850B92389A28861882846FFF704
:1039300065FEE188284600F0DFF825E020880428AD
:103940000AD12389A28861882846FFF797FEE1887B
:10395000284600F0DAF817E0208808280AD12389E1
:10396000A28861882846FFF7D5FEE188284600F046
:10397000D9F809E02389A28861882846FFF712FF59
:10398000E188284600F0D7F870BD0000002C014007
:10399000003401400004004000080040000C0040DA
:1039A0001AB183890B43838102E083898B4383812E
:1039B0007047000070B5002400220023058C4FF6EC
:1039C000FE7635400584028C8388048B4FF68F7514
:1039D0002C40B51E2C400D882C43751E2A400D89A5
:1039E0002A434D882A43144DA8420BD0134DA842B8
:1039F00008D0134DA84205D0124DA84202D0124D56
:103A0000A84213D14FF6F7752A404D892A434FF645
:103A1000FB752A408D882A434FF6FF652B404FF6F1
:103A2000FF552B408D892B43CD892B438380048305
:103A3000CD888586028470BD002C01400034014091
:103A400000400140004401400048014070B500249E
:103A500000220023058C4FF6EF7635400584028C5A
:103A60008388048B48F6FF752C404FF6FF452C40A9
:103A70000D884FF6FF7606EA05252C434FF6DF75D5
:103A80002A400D8906EA05152A434D8806EA0515E0
:103A90002A43154DA84202D0144DA8421DD14FF61D
:103AA0007F752A404D894FF6FF7606EA05152A43B1
:103AB0004FF6BF752A408D8806EA05152A434FF652
:103AC000FF352B404FF2FF752B408D8906EA8505A7
:103AD0002B43CD8906EA85052B4383800483CD885B
:103AE0000587028470BD0000002C014000340140B5
:103AF0008186704701877047028B4FF6F3731A4037
:103B00000283028B0A4302837047028B4FF2FF331A
:103B10001A400283028B4FF6FF7303EA01231A4314
:103B200002837047828B4FF6F3731A408283828B35
:103B30000A4382837047828B4FF2FF331A4082839D
:103B4000828B4FF6FF7303EA01231A438283704787
:103B5000002202881D4B98420ED01D4B98420BD07C
:103B6000B0F1804F08D01B4B984205D01A4B9842B9
:103B700002D01A4B984204D14FF68F731A404B88EB
:103B80001A43174B984207D0164B984204D04FF671
:103B9000FF431A40CB881A4302808B8883850B88A9
:103BA00003850A4B98420BD0094B984208D00E4B24
:103BB000984205D00D4B984202D00D4B984201D14E
:103BC0000B7A03860123838270470000002C01409A
:103BD000003401400004004000080040000C004098
:103BE000001000400014004000400140004401402B
:103BF000004801401FB501210846FFF7ADFB6420D6
:103C0000ADF8080041F61F40ADF804000020ADF803
:103C10000A00ADF8060001A94FF08040FFF798FFB9
:103C2000012211469007FFF7BBFE1C208DF8000013
:103C300003208DF801008DF8020001208DF80300AB
:103C40006846FFF7FDFA01218807FFF711FE1FBD47
:103C500001490860704700007800002010B5104846
:103C6000007800B910BD0F4800680F490968884204
:103C700013D240210D4800F0D9F901280DD109488F
:103C80000088C0F308000A4A115C084800F071FA85
:103C900004480068401C0349086000BFE2E70000D8
:103CA000740000206C0000207000002000380140EB
:103CB000A806002010B586B00446012144F2040095
:103CC000FFF76AFB234800F063F94FF40070ADF88A
:103CD000040018208DF8070003208DF8060001A9C4
:103CE0001D48FFF705F94FF48060ADF8040004208B
:103CF0008DF8070001A91848FFF7FAF80294002090
:103D0000ADF80C00ADF80E00ADF81000ADF81400E1
:103D10000C20ADF8120002A90E4800F0B9F92520D8
:103D20008DF8000002208DF8010003208DF80200BC
:103D300001208DF803006846FFF782FA012240F265
:103D40002551044800F07FF90121024800F014F9E0
:103D500006B010BD0038014000080140014908705C
:103D6000704700007400002003480078002801DD3F
:103D7000012070470020FCE7600000200FB438B538
:103D800005A800904FF400710748009B049AFCF7C7
:103D900093FA0446002000902146034800F040F8C2
:103DA00038BC5DF814FB0000A80400200FB438B53F
:103DB000002400BF174800780028FBD005A8009019
:103DC00015490988C1F30801144A8818009A049912
:103DD000FCF78CFA0446002000900E480078401E44
:103DE0000C49087004E00C480068401C0A4908604F
:103DF00009480088C0F308000849085C0028F2D18F
:103E000005480068401C04490860204638BC5DF83D
:103E100014FB00006000002064000020A8000020C7
:103E200070B506460D463148007800284BD014E0A6
:103E300000BF40212E4800F0F9F80128F9D12D48A3
:103E40000088C0F308002C4A115C294800F091F961
:103E500028480068401C2749086028480068254910
:103E60000968401A2844B0F5007FE1D8234800686B
:103E700020490968884214D900BF40211C4800F03D
:103E8000D5F80128F9D11B480088C0F308001A4A68
:103E9000115C174800F06DF916480068401C154980
:103EA000086000240CE0305D14490988C1F3080162
:103EB000114A505411480068401C10490860641CA5
:103EC000AC42F0DB0FE000240BE000BF40210848CB
:103ED00000F0ACF80128F9D1315D054800F049F94E
:103EE000641CAC42F1DB284670BD00007400002069
:103EF000003801406C000020A8060020700000205F
:103F000010B5194800F030F904460D2C06D11748B9
:103F10000078401C15490870002410E00A2C0ED1CE
:103F200013480088401EC0F308001249085C00B91D
:103F300010BD0E480078401C0C4908700024E1B206
:103F40000B480088C0F308000A4A1154084800884A
:103F5000C0F3080000F50070115405480068401CCB
:103F60000349086000BFE3E700380140600000201B
:103F700068000020A800002021B1828942F400528C
:103F8000828104E082894DF6FF731A408281704776
:103F900010B504462048844209D101218803FFF767
:103FA0000BFA00214FF48040FFF706FA32E01B487D
:103FB000844209D101214804FFF7DEF900214FF4C2
:103FC0000030FFF7D9F925E01548844209D10121D5
:103FD0008804FFF7D1F900214FF48020FFF7CCF9D6
:103FE00018E01048844209D10121C804FFF7C4F940
:103FF00000214FF40020FFF7BFF90BE00A4884428C
:1040000008D101210805FFF7B7F900214FF480100E
:10401000FFF7B2F910BD0000003801400044004035
:1040200000480040004C0040005000400246002084
:10403000B1F5007F00D100BF13880B400BB1012008
:1040400000E000207047F0B503460024002600255C
:10405000002040F66A17B94200D100BF1846C1F3EC
:10406000421401F01F06012707FA06F5012C01D1C1
:104070000C3004E0022C01D1103000E014301AB1F1
:1040800007682F43076002E00768AF430760F0BD91
:104090002DE9F04786B005460E460024A24600BF33
:1040A000A1460027B08900B100BF2F462C8A4CF6EC
:1040B000FF700440F08804432C82AC894EF6F31064
:1040C0000440B08831890843718908430443AC81B6
:1040D000AC8A4FF6FF400440B0890443AC8201A88B
:1040E000FFF77AF91F48874202D1DDF810A001E0FE
:1040F000DDF80CA0A88900F4004040B10AEBCA002A
:1041000000EB0A1031684900B0FBF1F807E00AEB58
:10411000CA0000EB0A1031688900B0FBF1F8642096
:10412000B8FBF0F004012009642101FB1089A88983
:1041300000F4004040B1322000EBC900B0FBF1F0C8
:1041400000F00700044308E0322000EB091064216E
:10415000B0FBF1F000F00F0004432C8106B0BDE885
:10416000F08700000038014001468888C0F308004D
:104170007047C1F308028280704700BFFEE7490024
:1041800050EAC12018BF04204A0D18BF40F00100BA
:1041900040F2FF72B2EB515F08BF40F0020001280D
:1041A00008BF0520704740F2013200204FF0E04187
:1041B00000F007BE024A0020110700F002BE000016
:1041C00001FDFFFF10B50446D1E9000100F002F83F
:1041D000206010BDF8B504460D466A4600F050F860
:1041E00000987E30009000281FDC002213462046F5
:1041F000294600F0C5FA18D0002140F608004FF01B
:10420000000006462046294600F0CCF9044640F658
:10421000080006EA00014FF0000034F0004004BF3F
:104220000220FDF7F8FE2046F8BD0098FF280DDBC0
:104230000220FDF7F0FE002213462046294600F03A
:104240005BFC8CBF04484FF0FF40F8BD2046294678
:10425000BDE8F84000F0A6B9000080FF10B50446A4
:104260000A46D4E90003194600F036F8C4E9000113
:1042700010BD30380A2801D2012070470020704755
:1042800010B5144600222260114A21F000439342E7
:10429000A8BF10BD53EA000208BF10BDB3F5801FD0
:1042A000A8BF226807DA362200F08BFD6FF03502D6
:1042B00021F000432260DFF81CC06FF31E510CEBAD
:1042C00023531A4441F0FF5141F00051226010BDC8
:1042D0000000F07F02FCFFFF2DE9F04106460C468E
:1042E00040F2FF75174635EA14502BD000221346D2
:1042F000304600F045FA25D03A463046214600F0D7
:1043000060FD06460C4635EA145010D000221346D4
:10431000304600F035FA15D10220FDF77CFEFFF79C
:1043200049FF0A46214662F31E01BDE8F0810220E2
:10433000FDF771FEFFF737FF0A46214662F31E01C3
:10434000BDE8F08130462146BDE8F0818AB04FF4E7
:10435000E130FFF7AFFCFEF767FDFFF74BFCFEF720
:10436000B5FF0120FFF7FAFC00214FF08040FFF776
:104370007FFA5A48FFF76CFC0020594908605949F8
:104380000860594908605949086000BFFFF766FC9A
:10439000FFF7EAFC002874D004A806AB08AA544929
:1043A000009054A0FFF702FD51484078542842D1B4
:1043B0004F48807841281AD152480078012816D0F9
:1043C0000021514A1160516001218807FFF750FA1E
:1043D0004DF6FF704D490860098888B20021FEF74C
:1043E00067FFFEF76BFD01204649087048E0404832
:1043F00080784F2844D143480078002840D00021DD
:104400000846FEF755FFFEF76BFD002034490860B3
:1044100034490860344908603449086028213C4820
:10442000FBF77EFF00214FF08040FFF721FA0020CC
:104430003449087024E02E484078452820D131487E
:10444000007801281CD0334ADDE90810C2E90010C9
:10445000314ADDE90610C2E90010304ADDE9040105
:1044600003C22E4903C9CDE902012B4903C9CDE995
:10447000000128480CC800E003E029A0FFF77EFCFB
:1044800000BF20480078012880D1154800680A281C
:1044900003DD16480068052804DD1148006864281B
:1044A000FFF674AF00210846FEF702FFFEF718FD85
:1044B00000200B4908600B4908600B4908600B4954
:1044C000086028211248FBF72BFF00214FF08040A5
:1044D000FFF7CEF900200B49087057E709300008B4
:1044E0000C00002000000020040000200800002034
:1044F00010000020257320256C6620256C66202581
:104500006C660000400000203000002044000020C5
:10451000800000202000002018000020280000203B
:10452000504944204368616E67656421204B7020C8
:104530003D2025672C204B69203D2025672C204BF2
:1045400064203D2025670D0A0000000010B50029F9
:104550000AD00878002807D005487844FDF788FF7E
:10456000002801D0002010BD0248784410BD000092
:10457000020A0000FA09000010B500290AD00878E4
:10458000002807D005487844FDF772FF002801D0C5
:10459000002010BD0248784410BD0000F209000060
:1045A000EA09000021F00042A2F16052B2F5801F3A
:1045B00001F0004328BFD2F17F6C0BD95FEA001CE9
:1045C00043EAC20242EB507018BF704728BF20F088
:1045D00001007047B2F5801FBCBF184670474FEA14
:1045E000410C1CF5001F02D2084600F0B1BB70B5AB
:1045F00000F02EFA00000089FFF7F6BF4FF00040F0
:10460000A0F580007047000010B591EA030F48BF85
:1046100083F0004300F1BA82841A71EB030C05D2D7
:10462000121943EB0C03001B61EB0C01DFF824E1D2
:104630004FEA1154A4EB135C1EEA430F18BF9EEA25
:10464000445F73D023EA0E03DCF1200E21EA04510B
:1046500043F4801332D322FA0CFE10EB0E0023FA3F
:104660000CFE41EB0E01CCF1200E03FA0EFE10EB16
:104670000E0051F10001B1F5801FCCF1200E32D2B5
:1046800001EB045112FA0EF2BDE8104058BF70471A
:10469000401C38BF5FEA420218BF7047002814BFB1
:1046A00020F0010041F100014FEA410313F5001F22
:1046B00038BF7047A1F1C04100F018BA012A43EB9E
:1046C0000302ACF1200CDCF11F0E32BF4FF0000EE4
:1046D00023FA0CF310EB030041EB0451B4EB115F30
:1046E000D0D0A1EB045101F5801149085FEA3000F8
:1046F00001EB04510ED350F1000038BF12FA0EFE48
:1047000008D1BDE81040C9E7401C38BF5FEA42024B
:10471000CAD1C3E7BDE810404FEA410313F5001FBB
:1047200038BF7047A1F1C04100F0E0B99EEA445F94
:1047300008D011EA5E0FBDE8104004BF01F000414F
:1047400000207047BDE8104070B500F081F900BF4F
:1047500064FBBE3E0000E0FF02494FF0000000F0A5
:10476000FEBA00BF0000F87F491058BFC1F14041B8
:104770005B1058BFC3F140438B42EFF3008070479A
:1047800051EA030C17D41CF5801F58BFBCF5801FDD
:1047900000F10680994218BF704708BF90427047E9
:1047A00007D711F5801F58BF13F5801F19D4994200
:1047B0007047894270471CF5801F08D5BCF5801FE3
:1047C000F7D58B4218BF704708BF824270474FF43D
:1047D000001C1CEB410F38BF1CEB430F01D28B4276
:1047E000704770B500F034F9922449004FF0005141
:1047F0004FF08053FFF7B8BF4FEA41034FEA5353DE
:10480000A3F58063D3F11E03C8BFD3F1210C0CDDE7
:104810004FF0004242EAC12242EA505232FA03FC0F
:104820008CEAE17CACEBE1707047102BC4BF002038
:10483000704703F5787CBCF1FF3F04D06FF0004275
:1048400082EA2100704770B500F002F94992248095
:1048500000207047F2E710F0004248BF4042B0FA33
:1048600080F310FA03F10AD0C3F11D0303F580634E
:104870004FEA415002EB035202EBD12170474FF057
:104880000000704751EA030C17D41CF5801F58BF75
:10489000BCF5801F00F10680994218BF704708BF21
:1048A0009042704707D711F5801F58BF13F5801F3E
:1048B00019D499427047894270471CF5801F08D56A
:1048C000BCF5801FF7D58B4218BF704708BF8242E6
:1048D00070474FF4001C1CEB410F38BF1CEB430F1B
:1048E00001D28B42704770B500F0B2F892244900B3
:1048F0004FF000514FF08053FFF736BFDFF848C14B
:1049000070B51CEA111E1EBF1CEA13159EEA0C0F9F
:1049100095EA0C0F00F06F8081EA030423EA4C1340
:104920004EEAD47E21EA4C1141F4801143F4801305
:10493000AE44A1FB024CA0FB0365AEF17F7E3619AD
:1049400055EB0C05A1FB034C4CF10003A0FB021C32
:1049500016EB0C06654153F10003094218BF46F0FF
:10496000010613F4007F0BD14FEA03314FEA053003
:10497000340341EA155140EA16506FF003020AE091
:104980004FEAC3214FEAC520F40241EA555140EAFB
:1049900056506FF0020202EB2E4201EB025585EAFF
:1049A000CE710AD05FEA440C18BF24F0004450F1E5
:1049B000000041F1000120EAD47040F2FE7C624523
:1049C00000D270BDA84214BF4FF080444FF0404465
:1049D000002E08BF0024BEF1806FA8BFA1F1C04126
:1049E000BDE8704080F282804FF0000001F1C041CC
:1049F00001F0004170479EEA0C0F0CEA131518BF36
:104A000095EA0C0F06D04FF0000081EA030E0EF07D
:104A1000004170BD00F01CF88900013E00F007B8AD
:104A200000F009B84FEA430C5FEA5C5C08D081EA09
:104A3000030100F05BB84FEA410C5FEA5C5CF6D121
:104A40004FF00000014970470000FF070000F87FA9
:104A50000EF1020E2EF0030E5EF8046B364205D402
:104A6000012A43EB030515F5001F12D8012841EB7D
:104A7000010C1CF5001F0CD80ED14FEAD17C15F5A6
:104A8000001F0CEB4C0C0CF1020C08BF4CEBD37C60
:104A900004E04FF0080C01E04FEAD37C0CEB4C052E
:104AA00026FA05F606F00706B6F1040C06D20EEB60
:104AB000860CBDE870404CF0010C6047DFE80CF05C
:104AC000090B02024FF000414FF00000A1F5002158
:104AD00070BD19461046012851EB010418BFD4F5EA
:104AE000001484BF002001F0004170BD0808A0F54B
:104AF00000114FEA3101704753EA010C17D41CF53D
:104B0000801F58BFBCF5801F00F106808B4218BF84
:104B1000704708BF8242704707D713F5801F58BF00
:104B200011F5801F19D48B4270479B4270471CF5CA
:104B3000801F08D5BCF5801FF7D5994218BF704774
:104B400008BF904270474FF4001C1CEB430F38BF66
:104B50001CEB410F01D2994270470FB40CBC03BC4F
:104B6000FFF7C1BE91EA030F10B581F000413FF598
:104B700053AD83F0004300F009B8000010B591EA8E
:104B8000030F48BF83F000433FF546AD841A71EB35
:104B9000030C07D212198CF0004C43EB0C03001BE2
:104BA00061EB0C01DFF8A4E14FEA1154A4EB135CB4
:104BB0001EEA430F18BF9EEA445F00F0B08023EA6C
:104BC0006E03524221EA0451C3EB6E0338BF5B1EF1
:104BD000DCF1200E25D322FA0CFE10EB0E0043FA76
:104BE0000CFE41EB0E01CCF1200E03FA0EFE10EB91
:104BF0000E0051F10001CCF1200E29D412FA0EF270
:104C000001EB0451BDE8104058BF7047401C1CBF69
:104C1000B2F1004F704700280CBF491C20F0010082
:104C2000704712EB020E43EB030218BF4FF0010E68
:104C30004EEA4202ACF1200CDCF11E0E54D943FACC
:104C40000CFE10EB0E0051F1FF31CCF11E0ED5D54C
:104C50000EF1010E12FA0EFE404141EB010101EB93
:104C6000445C5FEA5C5C10D910EBDE7001EB045130
:104C700038BFBEF1004FBDE8104018BF7047002894
:104C80000CBF491C20F00100704730D24FEAD42CF1
:104C900011F5001124F400641BD0B1FA81F20B3A33
:104CA000A41AA41ED2F12003914030FA03F3194351
:104CB000904001EBCC71002C01EB0451BDE8104099
:104CC000A8BF704701F1C0414FF0000001F0004162
:104CD0007047B0FA80F310FA03F100D110BDE41A66
:104CE000173C4805C90AE4E701EB045110BD49101F
:104CF00001EB0451BDE810404FEA300002E04FF0F4
:104D0000000170474A0008BF0042F8D0B2F5001F0A
:104D100028BF704701F000414FF0000070479EEA45
:104D2000445F07D011EA5E0FBDE8104004BF0021C8
:104D300000207047BDE8104070B5FFF789FE00BF46
:104D400040DFF63E83F00041104670470000E0FF70
:104D5000FF2141EAD050C0057047FCF7A1BA0CF022
:104D60000F03092B08BF082000F05F800A2B0BD02F
:104D7000082B18BF704708BF1CF0400F0AD04FF037
:104D800000004FF0000170471CF0400F18BF4FF0BB
:104D9000004070471CF0100F08D020F0704300F066
:104DA0007F4242EAD3014FEA4370704700F060400F
:104DB00021F07F4242EA000201F07F4040EA727037
:104DC00070474FF0FF0C4CF4E06C1CEA11531CBF11
:104DD0009CEA030C9445C2BFDA4201EB02517047D2
:104DE000002B0DD0BCF1000F0FD0002A01F00041C4
:104DF000A4BF41F0E04141F07F614FF000007047F7
:104E000001F000414FF00000704750EA01334FF0CD
:104E10009B0C18BF4CF0806C7FF49EAC7047FCF785
:104E200067BEFDF7FFB8FDF789BA1CF4801F11D0EB
:104E30001CF4E02F03D06FEACC31490070474FF0EB
:104E40004050EFF3008222F0704242EA000282F307
:104E5000008870474FF0000070470000000000001D
:104E600000000000303132333435363738394142B2
:104E700043444546403058003031323334353637BC
:104E80003839616263646566403078000400000868
:104E900000000000000000020001000010000000FF
:104EA00002400000000000A00000000005400000DB
:104EB000000000C8000000000C4000000000409C02
:104EC00000000000194000000020BCBE00000000EF
:104ED00034400000BFC91B8E00000004B540000034
:104EE000504BCFD06607E2CF010000006C410000BC
:104EF0003E8251AADFEEA73401000000D942000033
:104F0000DCB5A0E23A301F97FFFFFFFFB445000079
:104F1000FD25A0C8E9A3C14FFFFFFFFFFF3F000031
:104F20000000008000000000FF3F00000000008043
:104F300000000000885000080000002080000000F1
:104F40006C0100080851000880000020A00E00003D
:104F500088010008000000000000F07F1C00000035
:104F600043000000F8FFFFFF0C0000000E000000EF
:104F70000F0000002E0000001001000043000000A0
:104F8000F8FFFFFF0040404040404040404041416A
:104F9000414141404040404040404040404040400E
:104FA00040404040400502020202020202020202A8
:104FB00002020202022020202020202020202002A5
:104FC0000202020202029090909090901010101035
:104FD00010101010101010101010101010101010D1
:104FE0000202020202028888888888880808080865
:104FF0000808080808080808080808080808080831
:105000000202020240000000000000000000000058
:105010000000000000000000000000000000000090
:105020000000000000000000000000000000000080
:105030000000000000000000000000000000000070
:105040000000000000000000000000000000000060
:105050000000000000000000000000000000000050
:105060000000000000000000000000000000000040
:105070000000000000000000000000000000000030
:105080000000000000000000000000000000000020
:105090000000000000000000000000000000000010
:1050A0000000000000000000000000000000F03FD1
:1050B00000000000000000000000000000000000F0
:1050C00000000000000000000000000000000000E0
:1050D000A086010000000000010203040102030495
:1050E000060708090204060800000000010000008D
:1050F00001000000010000000100000000000000AD
:0851000000000000000800405F
:0400000508000131BD
:00000001FF
